:020000040800F2
:100000000000022055060008510600089568000807
:1000100051060008510600085106000800000000C3
:100020000000000000000000000000005106000871
:10003000510600080000000051060008856800080D
:100040005106000851060008510600085106000834
:100050005106000851060008510600085106000824
:10006000510600085106000851060008ED6400081A
:10007000F9640008ED5900080565000811650008DD
:100080005106000871BD000851060008510600081D
:1000900051060008510600085106000851060008E4
:1000A00051060008510600085106000851060008D4
:1000B00051060008510600085106000895BD0008C9
:1000C00051060008A1BD00085106000851060008AD
:1000D00051060008510600085106000851060008A4
:1000E00051060008510600080000000051060008F3
:1000F0005106000851060008510600085106000884
:100100005106000851060008510600085106000873
:100110005106000851060008510600085106000863
:100120005106000851060008510600085106000853
:100130005106000851060008510600085106000843
:1001400000000000000000000000000000000000AF
:100150005106000851060008510600085106000823
:10016000ADBD000851060008510600085106000800
:100170005106000851060008510600085106000803
:1001800051060008510600085106000851060008F3
:1001900051060008510600085106000851060008E3
:1001A00051060008510600085106000851060008D3
:1001B0003562000851060008510600085106000883
:1001C00051060008510600085106000851060008B3
:1001D00051060008510600085106000851060008A3
:1001E0005106000851060008510600085106000893
:1001F0005106000851060008510600085106000883
:100200005106000851060008510600085106000872
:100210005106000851060008510600085106000862
:1002200051060008510600085106000800000000B1
:1002300051060008510600080000000051060008A1
:100240005106000851060008510600085106000832
:100250005106000851060008510600085106000822
:100260005106000851060008510600085106000812
:100270005106000851060008510600080000000061
:100280005106000851060008510600080000000051
:08029000000000005106000807
:1002980010B5054C237833B9044B13B10448AFF3B8
:1002A80000800123237010BD880000240000000096
:1002B800A8DD000808B5034B1BB103490348AFF399
:1002C800008008BD000000008C000024A8DD0008A4
:1002D80081F0004102E000BF83F0004330B54FEAEF
:1002E80041044FEA430594EA050F08BF90EA020F5C
:1002F8001FBF54EA000C55EA020C7FEA645C7FEAEF
:10030800655C00F0E2804FEA5454D4EB5555B8BF11
:100318006D420CDD2C4480EA020281EA030382EA82
:10032800000083EA010180EA020281EA0303362D14
:1003380088BF30BD11F0004F4FEA01314FF4801CE7
:100348004CEA113102D0404261EB410113F0004FF9
:100358004FEA03334CEA133302D0524263EB4303B0
:1003680094EA050F00F0A780A4F10104D5F1200E4E
:100378000DDB02FA0EFC22FA05F2801841F10001A9
:1003880003FA0EF2801843FA05F359410EE0A5F17D
:1003980020050EF1200E012A03FA0EFC28BF4CF0AE
:1003A800020C43FA05F3C01851EBE37101F0004564
:1003B80007D54FF0000EDCF1000C7EEB00006EEB71
:1003C8000101B1F5801F1BD3B1F5001F0CD34908FB
:1003D8005FEA30004FEA3C0C04F101044FEA445252
:1003E80012F5800F80F09A80BCF1004F08BF5FEAD9
:1003F800500C50F1000041EB045141EA050130BDB9
:100408005FEA4C0C404141EB0101013C28BFB1F5CA
:10041800801FE9D291F0000F04BF01460020B1FA15
:1004280081F308BF2033A3F10B03B3F120020CDAE8
:100438000C3208DD02F1140CC2F10C0201FA0CF0C6
:1004480021FA02F10CE002F11402D8BFC2F1200C2B
:1004580001FA02F120FA0CFCDCBF41EA0C019040E1
:10046800E41AA2BF01EB0451294330BD6FEA04042A
:100478001F3C1CDA0C340EDC04F11404C4F1200215
:1004880020FA04F001FA02F340EA030021FA04F327
:1004980045EA030130BDC4F10C04C4F1200220FA7E
:1004A80002F001FA04F340EA0300294630BD21FABC
:1004B80004F0294630BD94F0000F83F4801306BF82
:1004C80081F480110134013D4EE77FEA645C18BF76
:1004D8007FEA655C29D094EA050F08BF90EA020F0D
:1004E80005D054EA000C04BF1946104630BD91EA05
:1004F800030F1EBF0021002030BD5FEA545C05D108
:100508004000494128BF41F0004130BD14F5800446
:100518003CBF01F5801130BD01F0004545F0FE41BA
:1005280041F470014FF0000030BD7FEA645C1ABFEF
:10053800194610467FEA655C1CBF0B46024650EA26
:10054800013406BF52EA033591EA030F41F4002152
:1005580030BD00BF90F0000F04BF0021704730B5D8
:100568004FF4806404F132044FF000054FF00001AD
:1005780050E700BF90F0000F04BF0021704730B56E
:100588004FF4806404F1320410F0004548BF404243
:100598004FF000013EE700BF42004FEAE2014FEA98
:1005A80031014FEA02701FBF12F07F4393F07F4F73
:1005B80081F06051704732F07F4208BF704793F076
:1005C8007F4F04BF41F40021704730B54FF4607489
:1005D80001F0004521F000411CE700BF50EA01028C
:1005E80008BF704730B54FF000050AE050EA010235
:1005F80008BF704730B511F0004502D5404261EBA5
:1006080041014FF4806404F132045FEA915C3FF4E5
:10061800D8AE4FF003025FEADC0C18BF03325FEA82
:10062800DC0C18BF033202EBDC02C2F1200300FA33
:1006380003FC20FA02F001FA03FE40EA0E0021FA58
:1006480002F11444BDE600BFFEE700BF0D4B0E4AA1
:10065800934206D00D4951F8040B43F8040B93421A
:10066800F9D10B4B0B4A934204D0002143F8041BE9
:100678009342FBD106F08AFA0DF02CF801F0BAF992
:10068800FEE700BF0000002484000024C0DD00084D
:100698008800002484160024704700BF704700BFFC
:1006A800704700BF704700BF704700BF704700BF6A
:1006B800704700BF704700BF704700BF704700BF5A
:1006C800704700BF704700BF704700BF704700BF4A
:1006D8005D4B5E49F0B5A3F1840585B0284600223C
:1006E80043F8042B8B42FAD10022594C02261346B8
:1006F8002A602E5100220133002440F8042F0A6892
:1007080004649A42F6D8534B5349A3F18406304601
:10071800002243F8042B8B42FAD100224C4C0227CA
:1007280013463260375100220133002440F8042F69
:100738000A6804649A42F6D8484C0820484F8DED60
:10074800010A3D6046F2A815266003F09DFB0346AA
:100758009DED010A3846ADF80830029902F0F2FD25
:10076800092003F091FB034620463E4CADF80C30BF
:1007780003999DED010A02F0E5FD3B4A45F6C0509C
:1007880004F1180339492561A050002243F8042BCD
:100798008B42FAD1364846F2A811334D45F6C05679
:1007A8000161002146510435324E00F118036155AC
:1007B800E160314D6161A1552A60C4E901112F49F9
:1007C800002243F8042B8B42FAD12D490023DFED98
:1007D8002D6AD1ED017A9FED2C6A36EEE77A2B4D22
:1007E80067EE867A234E4355B0EEC77A284DC3602C
:1007F8004361B4EEE77A83550C602A60F1EE10FA93
:10080800C0E90133234B186004DD234DC1ED016AB3
:1008180022602561D3ED017ADFED1A6A9FED1A6A2D
:1008280036EEE77A67EE867AB0EEC77AB4EEE77A04
:10083800F1EE10FA05DD0021174AC3ED016A0160E7
:10084800026105B0F0BD00BF5CB7B2C05C2F1CC12F
:1008580084786900D43E49C0D4B6B2C07C0800246C
:1008680058070024289F24C0189F2400403E49C0F0
:10087800000000C0249F2400483E49C0189F24C09F
:10088800A009002400409C470AD7A33B1C9F2400D2
:10089800209F24C0A80900248038010010B5002139
:1008A8006E482DED028B05F03FF86D486D4B0268E0
:1008B8006D4901320C7883FB0231D317C3EB611306
:1008C80003EB4303A2EB8313684A036084BB1178EC
:1008D800002939D0664867491470047081ED000A10
:1008E800654ADFED667A92ED008A38EE278AB4EE23
:1008F800E78AF1EE10FA00F1AB80F7EE007AB4EE79
:10090800678AF1EE10FA37FE888AD3B95C4802F09C
:1009180003FDF0EE400AB7EE000A5A4B5A48197820
:1009280030EE480ABDEC028BBDE8104002F0DEBE96
:1009380013788BBB0124554855491470037081ED19
:10094800000ABDEC028B10BD494A117879B94949B2
:100958009FED507AD1ED007A70EE677AF0EEE77A83
:10096800F4EEC77AF1EE10FABADD01211170DFED6D
:10097800437A30EE278AB4EEE78AF1EE10FA6AD4A9
:10098800F7EE007AB4EE678AF1EE10FA37FE888A3D
:10099800394A82ED000AB8E73C4B1A787AB93C4AE2
:1009A8009FED3C7AD2ED007A70EE677AF0EEE77A46
:1009B800F4EEC77AF1EE10FAC3DD01221A700120B5
:1009C8009FED351ADFED350A02F0F6FB344BDFED0B
:1009D800316AD3ED017A30EE677A67EEA67AB0EE27
:1009E800C77AB4EEE77AF1EE10FA0DDDFCEEC07AC4
:1009F8002C4C1968002083ED010A17EE902A086034
:100A0800A24228BF22460A61274BDFED226AD3EDB6
:100A1800017A30EE677A67EEA67AB0EEC77AB4EE5E
:100A2800E77AF1EE10FA0DDDFCEEC07A1D4C19687C
:100A3800002083ED010A17EE902A0860A24228BF21
:100A480022460A61194BBDEC028B83ED000A10BDEA
:100A5800B0EE678A59E7B0EE678A99E78C040024FC
:100A680014070024ABAAAA2AC509002418070024E1
:100A780010070024040700240807002400000000D1
:100A8800C4000024C60900245807002411070024C4
:100A98000C0700240AD7A33B0050C34600606A48ED
:100AA800A0090024BF270900A8090024A4000024E5
:100AB80010B501215B482DED028B04F035FF5A4833
:100AC8005A4B02685A4901320C7883FB0231D3171A
:100AD800C3EB611303EB4303A2EB8313554A036093
:100AE8007CBB1178002938D05348544914700470DD
:100AF80081ED000A524ADFED537A92ED008A38EE12
:100B0800278AB4EEE78AF1EE10FA7FD4F7EE007A7E
:100B1800B4EE678AF1EE10FA37FE888AD3B94A48EC
:100B280002F0FAFBF0EE400AB7EE000A474B4848DD
:100B3800197830EE480ABDEC028BBDE8104002F08F
:100B4800D5BD13788BBB0124424843491470037008
:100B580081ED000ABDEC028B10BD374A117879B9D6
:100B680036499FED3E7AD1ED007A70EE677AF0EE65
:100B7800E77AF4EEC77AF1EE10FABBDD01211170C5
:100B8800DFED307A30EE278AB4EEE78AF1EE10FA1C
:100B98003FD4F7EE007AB4EE678AF1EE10FA37FE2A
:100BA800888A274A82ED000AB8E72A4B1A787AB968
:100BB800294A9FED2A7AD2ED007A70EE677AF0EE34
:100BC800E77AF4EEC77AF1EE10FAC3DD01221A7063
:100BD800F0EE080A00209FED1B1A02F0EDFAB8FEAD
:100BE800400AFCEEC07A17EE903A013BDBB2022BCA
:100BF80012D9B7EE008AB0EE480A134802F09EFBFD
:100C0800174B83ED018ABDEC028B10BDB0EE678AED
:100C180084E7B0EE678AC4E7124A02EB830393EDD8
:100C2800008AE8E78C0400242C070024ABAAAA2A2F
:100C3800C5090024300700242907002420070024C0
:100C48002407002400000000C4000024C609002472
:100C58007C080024280700241C0700240AD7A33B8B
:100C6800A400002444D7000810B5022157482DEDF0
:100C7800028B04F059FE564BB7EE007A554A1B78A2
:100C880077EE407A93BB117800293BD052485349FC
:100C980013700370C1ED007A514BDFED527A93ED7A
:100CA800000A30EE270AB4EEE70AF1EE10FA00F176
:100CB8008780F7EE007AB4EE670AF1EE10FA37FE95
:100CC800800AB7EE041A0020DFED460A02F074FA33
:100CD800454B9FED467AD3ED007A30EE670ABDECBE
:100CE800028BE0EE077AC3ED007A10BD13788BBB58
:100CF80001243F483F4914700370C1ED007ABDECF0
:100D0800028B10BD344B1A787AB9344ADFED3A6A4F
:100D180092ED007A37EEC77AB0EEC77AB4EEE67A8B
:100D2800F1EE10FAB8DD01221A709FED2E7A37EE37
:100D3800870AB4EEC70AF1EE10FA44D4B7EE007A87
:100D4800B4EE470AF1EE10FA37FE000A244BC3ED61
:100D5800007AB6E7264B1A787AB9264ADFED266A72
:100D680092ED007A37EEC77AB0EEC77AB4EEE67A3B
:100D7800F1EE10FAC3DD01221A70B0EE670A9FED9A
:100D88001F1ADFED1F0A012002F016FAB0EE408AA2
:100D98001C480BF0F1FC1C48B0EE480A0BF0ECFCC8
:100DA800B0EE480A19480BF0E7FCB0EE480A1848BC
:100DB8000BF0E2FC174B83ED048ABDEC028B10BDEF
:100DC800B0EE670A7DE7B0EE470ABFE78C0400245F
:100DD800C5090024F2060024F1060024E8060024D0
:100DE800EC06002400000000B00900246F12033D47
:100DF800F0060024E40600240AD7A33B0000484478
:100E08000000C842D804002424050024BC020024A1
:100E180010030024A400002410B5032159482DED27
:100E2800028B04F081FD584BB7EE007A574A1B78C5
:100E380077EE407A93BB117800293BD0544C554843
:100E4800554913702370C0ED007AC1ED007A9FED0B
:100E5800537A37EE870AB4EEC70AF1EE10FA00F1BA
:100E68008780F7EE007AB4EE670AF1EE10FA37FEE3
:100E7800800AB7EE041A0020DFED480A02F09CF958
:100E8800474B9FED487AD3ED007A30EE670ABDEC08
:100E9800028BE0EE077AC3ED007A10BD13788BBBA6
:100EA80001244148414914700370C1ED007ABDEC3A
:100EB800028B10BD364B1A787AB9374ADFED3C6A97
:100EC80092ED007A37EEC77AB0EEC77AB4EEE67ADA
:100ED800F1EE10FA52DD01221A709FED307A37EEEA
:100EE800870AB4EEC70AF1EE10FA44D4B7EE007AD6
:100EF800B4EE470AF1EE10FA37FE000A254BC3EDAF
:100F0800007AB6E7284B1A787AB9284ADFED286ABA
:100F180092ED007A37EEC77AB0EEC77AB4EEE67A89
:100F2800F1EE10FAC3DD01221A70B0EE670A9FEDE8
:100F3800211ADFED210A012002F03EF9B0EE408AC5
:100F48001E480BF019FC1E48B0EE480A0BF014FCC2
:100F5800B0EE480A1B480BF00FFCB0EE480A1A48DE
:100F68000BF00AFC194B83ED058ABDEC028B10BD12
:100F7800B0EE470A7DE7B0EE470ABFE7054BD3ED71
:100F8800007A64E78C040024C509002402070024C1
:100F980001070024FC060024F806002400000000D5
:100FA800B40900246F12033D00070024F40600244E
:100FB8000AD7A33B00803B460080BB447005002451
:100FC800BC05002464030024B8030024A400002402
:100FD80010B5042176482DED028B04F0A5FC754B65
:100FE800F7EE007A744A1B7837EEC00A6BBB1178AB
:100FF800002937D0714872491370037081ED000AD7
:10100800704B9FED710AD3ED007A77EE807AF4EE9B
:10101800C07AF1EE10FA00F1AF80B7EE007AF4EE84
:10102800C77AF1EE10FA40F3B280B7EE000A674BC8
:101038009FED677AD3ED007A30EE670ABDEC028B3C
:10104800E0EE077AC3ED007A10BD1378002B4BD180
:101058000124604860491470037081ED000ABDECFA
:10106800028B10BD554B1A787AB9554A9FED5B7AB9
:10107800D2ED007A70EE677AF0EEE77AF4EEC77A8E
:10108800F1EE10FABCDD01221A709FED4F7A70EE76
:10109800077AF4EEC77AF1EE10FA70D4B7EE007A58
:1010A800F4EEC77AF1EE10FA6EDDF0EE477AB7EE9D
:1010B800006B444B83ED000A9FED375BB4EEC56BC4
:1010C800F1EE10FAB1DA9FED365BB4EEC56BF1EED6
:1010D80010FA51D9B0EE670A0020B7EE001ADFED1A
:1010E8003A0A02F069F8A2E73A4B1A787AB93A4A0A
:1010F8009FED3A7AD2ED007A70EE677AF0EEE77AF1
:10110800F4EEC77AF1EE10FAA9DD01221A70B6EEF4
:10111800001ADFED2D0A002002F04EF8B0EE408AEA
:101128002F480BF08DFB2F48B0EE480A0BF088FBD8
:10113800B0EE480A2C480BF083FBB0EE480A2B4867
:101148000BF07EFBB0EE480A29480BF079FBB0EEB5
:10115800480A28480BF074FBB0EE480A26480BF002
:101168006FFBB0EE480A25480BF06AFB244B83ED71
:10117800068ABDEC028B10BD9FED130A57E79FED61
:101188000A6BF0EE477A94E7B7EEE76A91E7B7EEB5
:10119800E76A91E7AFF300805C8FC2F5285CEF3F08
:1011A8007B14AE47E17A943F000000000000000085
:1011B8008C040024C5090024D4060024CC0600248D
:1011C800C4060024C806002400000000040000240F
:1011D8006F12833CC0060024D00600240AD7A33B24
:1011E80070050024BC050024D8040024240500242C
:1011F80064030024B8030024BC0200241003002464
:10120800A400002410B5052152482DED028B04F0EE
:101218008BFB514BB0EE408A504A1B78A3BB117828
:1012280000293DD04E484F491370037081ED000AE4
:101238004D4BDFED4E7A93ED000A30EE270AB4EEFF
:10124800E70AF1EE10FA7FD4F7EE007AB4EE670AF7
:10125800F1EE10FA37FE800AB6EE001A0020DFED34
:10126800430A01F0A9FF424B9FED427AD3ED007A81
:10127800414A30EE670ABDEC028BE0EE077AC3ED17
:10128800007AC2ED007A10BD1378C3BB01243B4835
:101298003B491470037081ED000ABDEC028B10BD50
:1012A8002F4B1A787AB92F4A9FED367AD2ED007A09
:1012B80070EE677AF0EEE77AF4EEC77AF1EE10FA9C
:1012C800B6DD01221A70DFED297A38EE270AB4EE6E
:1012D800E70AF1EE10FA3AD4F7EE007AB4EE670AAC
:1012E800F1EE10FA37FE800AB6EE001A0020DFEDA4
:1012F8001F0A01F061FF1C4B83ED008AB3E71F4B07
:101308001A787AB91E4A9FED1F7AD2ED007A70EEEC
:10131800677AF0EEE77AF4EEC77AF1EE10FABCDD00
:1013280001221A70B0EE480A00209FED171ADFED6F
:101338000F0A01F041FF154A154B82ED000A83EDB3
:10134800020ABDEC028B10BDB0EE670A84E7B0EE6E
:10135800670AC9E78C040024C5090024BA060024DA
:10136800B8060024BC060024B006002400000000D3
:10137800080000246F12033D04040024B906002469
:10138800B40600240AD7A33B0000FA4370010024E6
:10139800A400002410B5062142482DED028B04F06C
:1013A800C3FA414BB0EE408A404A1B78FBB911782A
:1013B80049B33F483F491370037081ED000A3E4B23
:1013C800B7EE001A0120DFED3D0A93ED000A01F0A7
:1013D800F3FE3B4B9FED3B7AD3ED007A30EE670A84
:1013E800BDEC028BE0EE077AC3ED007A10BD1378EE
:1013F8004BBB0124344835491470037081ED000A51
:10140800BDEC028B10BD2A4B1A787AB9294A9FED98
:10141800307AD2ED007A70EE677AF0EEE77AF4EE81
:10142800C77AF1EE10FACADD01221A70B7EE001A77
:101438000120B0EE480ADFED210A01F0BDFE1E4B87
:1014480083ED008AC5E7204B1A787AB91F4A9FEDC9
:10145800207AD2ED007A70EE677AF0EEE77AF4EE51
:10146800C77AF1EE10FACBDD01221A70DFED197A96
:10147800B4EEE78AF1EE10FA08D5174B00221A707D
:10148800164B83ED078ABDEC028B10BDDFED147A95
:10149800B4EEE78AF1EE10FAF2DD0F4B01221A7072
:1014A800EEE700BF8C040024C5090024420700248D
:1014B80041070024380700243C07002400000000EE
:1014C800B80900246F12033D4007002434070024A4
:1014D8000AD7A33B6666E63E74010024A4000024F4
:1014E800CDCC0C3F08B50721064804F01DFA0020B2
:1014F8009FED051ADFED050A01F05EFE044B83ED52
:10150800000A08BD8C04002400004843000048C3BA
:10151800BC09002438B5154A154C164D164B94EDE8
:10152800007AD5ED007A92ED006AD3ED006A36EEC6
:10153800476ADFED125A76EEE76A1148A6EE257A79
:10154800E6EEA57A84ED007AC5ED007A0BF0D8F9BD
:1015580095ED007AD4ED007A0A4AE0EE077A0A4B54
:10156800C2ED3F7AC3ED3F7A38BD00BFBC09002405
:10157800A8060024AC060024700100240AD7233CE6
:10158800B0040024580700247C08002410B50A4C35
:10159800204603F0DDFD63797F2B00D010BD07489E
:1015A80001F078FE0028F9D0044801F0B9FE04489B
:1015B800BDE8104002F06CB9F8000024C400002413
:1015C800C8090024164808B502F070F9144802F05A
:1015D800B1F9B8B9134B1B68114AB1EE086A07EEA6
:1015E800903ADFED116AD2ED0C5AF8EEE77A0F4A1D
:1015F80085EE867A0E4BA7EEA67A82ED487A83EDC1
:10160800487A08BD07490B4B0A68013283FB02037D
:10161800A3EBE27303EB4303A2EB43030B60DBE7AB
:10162800C809002444070024920A863F580700246A
:101638007C080024ABAAAA2A9FEDCF7AD0ED007AC5
:10164800F4EEC77A38B5F1EE10FA0446CB4BC0F287
:10165800FD809FEDCB7AF4EEC77AF1EE10FA00F236
:10166800F58093ED017A9FEDC76A77EEC76A27EE9A
:10167800067AF0EEE66AF4EEC76AF1EE10FA0FDDCC
:10168800BCEEE77AC04D19680020C3ED017A17EE69
:10169800102A0860D4ED007AAA4228BF2A460A61B7
:1016A800BA4B9FEDB86A93ED017A77EEC76A27EED9
:1016B800067AF0EEE66AF4EEC76AF1EE10FA00F385
:1016C8004B81F7EE007A94ED010AB4EEE70AF1EEE9
:1016D80010FA06DBF0EE087AB4EEE70AF1EE10FA3B
:1016E80001D9B7EE000AAA4801F028FED4ED027A23
:1016F800F5EEC07AF1EE10FAC0F22B81DFEDA56AA3
:101708009FEDA57AF4EEE67AF1EE10FA88BFF0EED6
:10171800477A94ED030A9FEDA17AA14BB4EEC70A6C
:10172800A04DC3ED007AF1EE10FA06DBF2EE047A72
:10173800B4EEE70AF1EE10FA01D99FED9B0A2846AC
:1017480085ED020A0BF0BEFADFED987A85ED060A00
:1017580094ED050AB4EEE70AF1EE10FA07DBDFEDC7
:10176800947AB4EEE70AF1EE10FA40F2DF809FEDCA
:10177800900A90480BF000F89FED8D0A8E480AF009
:10178800FBFF9FED8B0A8D480AF0F6FF9FED880A54
:101798008B480AF0F1FF94ED040ADFED8A7AB4EE83
:1017A800E70AF1EE10FA07DBDFED877AB4EEE70A15
:1017B800F1EE10FA40F2A7809FED840A84480AF0FF
:1017C800DBFF9FED820A83480AF0D6FF9FED7F0A70
:1017D80081480AF0D1FF9FED7D0A80480AF0CCFFCE
:1017E80094ED060AB5EEC00AF1EE10FA06DBF6EE45
:1017F800007AB4EEE70AF1EE10FA5DD99FED660AB9
:101808006E480BF01DF89FED640A73480BF018F84A
:101818009FED610A6A480BF013F89FED5F0A6F4865
:101828000BF00EF8D4ED077A9FED6D7A6D4BF4EE60
:10183800C77AF1EE10FA3CD49FED6B7AF4EEC77AD2
:10184800F1EE10FA35DD01221A7038BDD3ED017AB8
:10185800DFED666A9FED4B6A36EEE77A67EE867AC9
:10186800B0EEC77AB4EEE77AF1EE10FA06DD1A6840
:1018780000215F48C3ED016A10611160434BDFED41
:101888005B6AD3ED017A9FED3F6A36EEE77A67EE41
:10189800867AB0EEC77AB4EEE77AF1EE10FA7FF7FF
:1018A80010AF1A6800215248C3ED016A1061116037
:1018B80007E700221A7038BD3E480AF0C1FF94EDD0
:1018C800060A43480AF0BCFF94ED060A3A480AF0B3
:1018D800B7FF94ED060A3F480AF0B2FF94ED060AF6
:1018E80036480AF0ADFF94ED060A3B480AF0A8FF17
:1018F80094ED060A32480AF0A3FF94ED060A374829
:101908000AF09EFF8EE732480AF036FF94ED040A8B
:1019180030480AF031FF94ED040A2F480AF02CFFF2
:1019280094ED040A2D480AF027FF59E721480AF0E8
:1019380023FF94ED050A20480AF01EFF94ED050ADE
:101948001E480AF019FF94ED050A1D480AF014FF15
:1019580021E7DFED117ADCE6BCEEE77A0A4D19687B
:101968000020C3ED017A17EE102A0860AA4228BFAA
:101978002A460A61A5E600BF0050C346A009002414
:1019880000606A480AD7A33BBF270900A8090024BA
:10199800C40000240000FA4300000000CDCCCC3D78
:1019A80070010024B00400249A99A1400080BB442F
:1019B80000803B4670050024BC0500246403002415
:1019C800B80300240000C84200004844000048430F
:1019D800D804002424050024BC0200241003002499
:1019E8006666E63E74010024CDCC0C3F00650148D4
:1019F8009405020080B5D148BCB002F025FA002158
:101A0800CE48B2EE088A02F0B1FA0C2002F03CFA95
:101A1800034606200224ADF80C3002F035FA0346DE
:101A2800C6489FEDC79AF7EE008AADF8103002F06D
:101A380045FA012380EE080A049A4FF07C55039971
:101A48001F46C04801F07AFF0D2002F01DFA034638
:101A58000720DFF85483ADF8143002F015FA034676
:101A6800B648B94EADF8183002F028FA069A80EE5A
:101A7800080A05993B46B54801F060FF0A2002F0C4
:101A880003FA03462046DFF82493ADF81C3002F031
:101A9800FBF90346A948ADF8203002F00FFA089A7E
:101AA80080EE080A07990023A94801F047FF0B2098
:101AB80002F0EAF903460320ADF8243002F0E4F915
:101AC80003469E48ADF8283002F0F8F90A9A80EEED
:101AD800080A099900239F4801F030FF182002F0F6
:101AE800D3F903460420ADF82C3002F0CDF90346B3
:101AF8009248ADF8303002F0E1F9234680EE080A4A
:101B08000C9A0B99944801F019FF002002F0BCF9D7
:101B180003468A48ADF8343002F0D0F93A460D99B8
:101B280080EE090A3B468D48009403F0C1FA384616
:101B380002F0AAF903468148ADF8383002F0BEF940
:101B48003A460E9980EE090A3B468548009403F010
:101B5800AFFA172002F098F903467848ADF83C3000
:101B680002F0ACF90F9980EE090A7E4803F0D4FA26
:101B7800052002F089F903467048ADF8403002F0BC
:101B88009DF91099784803F0C7FA6C4802F096F965
:101B980040460AF00DFC6948C8ED008A734CC8F845
:101BA8000850C8F81450C8F80C6002F087F9484685
:101BB800DFF8FC810AF0FCFB6048C9F80850C9F856
:101BC8001450C9F80C60C9ED008A02F077F9204674
:101BD8009FED678A0AF0ECFB5848C4ED008AA660BE
:101BE800E660666102F06AF94046624C0AF0E0FB82
:101BF8006149624A624B0D6015601D600F71177173
:101C08001F714E48C8ED008AC8F80860C8F80C6013
:101C1800C8F8146002F052F9FEF75AFD474802F07E
:101C28004DF958480AF022FDB0EE480A55480AF026
:101C380007FE9FED550A53480AF09EFD9FED5D0A89
:101C480050480AF043FE3D4802F038F94F480AF080
:101C58000DFDB0EE480A4D480AF0F2FD9FED4A0A24
:101C68004A480AF089FD9FED530A48480AF02EFEBB
:101C7800324802F023F946480AF0F8FCB0EE480A68
:101C880043480AF0DDFD9FED430A41480AF074FD20
:101C98009FED480A3E480AF019FE284802F00EF95E
:101CA8003D480AF0E3FCB0EE480A3B480AF0C8FD9C
:101CB8009FED380A38480AF05FFD9FED3E0A364826
:101CC8000AF004FE1D4802F0F9F834480AF0CEFC88
:101CD800B0EE480A31480AF0B3FD9FED2B0A2F48B1
:101CE8000AF04AFD9FED330A2C480AF0EFFD13482D
:101CF80002F0E4F82A480AF0B9FCB0EE480A28488D
:101D08000AF09EFD9FED200A25480AF035FD9FED5B
:101D1800290A23480AF0DAFD084802F0CFF82148DA
:101D28000AF0A4FCB0EE480A1E480AF089FD9FEDAF
:101D3800190A1C480AF020FD3EE000BF7404002484
:101D4800000040423C0100240AD7233C080100243B
:101D580078010024AC01002410020024E0010024D2
:101D6800F001002400020024F800002440060024AA
:101D780000000000B0040024340400243C040024C3
:101D8800040400247005002400803B46BC050024A0
:101D9800D8040024000048432405002464030024D8
:101DA800B8030024BC020024440200247C0200245E
:101DB800080600243333333F1FED020A70480AF047
:101DC80085FD704802F07AF86F480AF04FFCB0EED3
:101DD800480A6D480AF034FD9FED6C0A6A480AF01B
:101DE800CBFC9FED6B0A68480AF070FD654802F06D
:101DF80065F868480AF072FF624802F05FF86648C2
:101E08000AF06CFF5F4802F059F8F0EE407A9FED57
:101E1800637A20466560C8EEA76A84ED027AC4ED4D
:101E2800037A84ED058A5E4DB0EE470AC4ED046A74
:101E38000AF048FF40F20113F0EE407A204627707E
:101E4800A384B0EE680AC4ED067AC4ED028A0AF0EB
:101E580039FFF0EE407A41F270725021B7EE040A71
:101E68005048C4ED018AC4ED067A01F0FDF9182046
:101E78004D4C02F009F803464248ADF8443002F0F0
:101E88001DF81199494801F0B9FC464801F048FA93
:101E9800464801F0FDFC454801F004FD4048FFF7C5
:101EA800CBFB0FCD0FC495E80F0084E80F000F207F
:101EB80001F0EAFF03461AA8ADF84830129903F07A
:101EC8006DF9102001F0E0FF03460DF17900ADF83F
:101ED8004C30139903F062F9112001F0D5FF034645
:101EE8000DF18A00ADF85030149903F057F912201B
:101EF80001F0CAFF03460DF19B00ADF85430159967
:101F080003F04CF9132001F0BFFF03462BA8ADF8EE
:101F18005830169903F042F9142001F0B5FF034632
:101F28000DF1BD00ADF85C30179903F037F91520B5
:101F380001F0AAFF03460DF1CE00ADF86030189904
:101F480003F02CF9162001F09FFF03460DF1DF0086
:101F5800ADF86430199903F021F91AA9042308226D
:101F6800134803F029F9124803F0C8FC394605481C
:101F780001F0A8FF0F49034801F09CFFFEE700BFEE
:101F8800BC02002474040024100300240000484309
:101F98003333333F0C040024180400240000C842E3
:101FA80050D70008C4000024A4000024C809002455
:101FB8008C0400245122000808B59FED1E0A1E4813
:101FC80001F0B6FC9FED1B0A1C4801F0B1FC1C484F
:101FD8009FED180A01F0ACFC1A4801F023FDC8B9BE
:101FE80018489FED140A01F02FFD174801F01AFD5B
:101FF800D0B99FED100A144801F026FD9FED0D0A97
:10200800124801F021FD9FED0B0A1148BDE8084078
:1020180001F01ABD0B48B7EE000A01F015FD0A4899
:1020280001F000FD0028E4D0B7EE000A064801F0F0
:102038000BFDE3E700000000C80900245C0700244A
:102048008008002478010024AC0100243C0100240D
:102058000801002470B5674801F0A8FC664801F043
:10206800A5FC664801F0A2FC654C664801F09EFCA0
:10207800654801F09BFC204603F06AF8634803F0CA
:1020880067F8634803F064F8624803F061F863791D
:102098007F2B00F099805D4B5B797F2B00F090805F
:1020A80054485D4C01F0C0FC28B123680133032B70
:1020B800236000F08D804F4801F0BEFC10B123680A
:1020C800013B23604C4801F0AFFC28B12368013381
:1020D800032B236000F08180474801F0ADFC10B16C
:1020E8002368013B2360484801F09EFC002852D138
:1020F800454801F0A1FC38B1236800224748013B5C
:102108004749027023600A703F4801F08BFC90B980
:102118002368032B1CD03E4B42485B794249A3F10C
:10212800FF03424AB3FA83F35B09037081F81E3157
:1021380082F81E3170BD04F0ABFB3D4B1B68C01A22
:102148003228E5D9354B01221A702368032BE2D1D6
:10215800384E04F09DFB40F6B8333268801A984236
:10216800D9D9244801F010FC234801F00DFC324D68
:10217800FFF722FF294B00222F48304C1A70FFF737
:102188005BFA0FCD0FC495E80F0084E80F0004F048
:102198007FFB3060BFE72A4801F07CF810BB294874
:1021A80001F080FB04F074FB2368214A01331060BE
:1021B800032B23609CD104F06BFB1E4B186097E740
:1021C8000D4801F0E1FB6BE70A4801F0DDFB62E72F
:1021D80004F05EFB174B18606DE704F059FB154BD4
:1021E800186079E7164801F09BF8164801F050FB93
:1021F800D5E700BF78010024AC0100243C0100248D
:10220800E00100240801002410020024F001002449
:1022180000020024F8000024D8060024C509002480
:10222800C0090024C6090024580700247C0800249B
:10223800E0060024DC06002450D70008A40000248F
:10224800C4000024C8090024DFF884C0DCF800308A
:102258002DE9F04F01331C4C0646154684FB03025A
:10226800DC170F4619491A44C4EBE204C4EB041402
:102278001B1B2DED0E8BCCF80030BFF35B8F0B785A
:1022880093B0BFF35B8F7BB9DCF80030072B0BD81A
:10229800DFE813F08D05930597059B059F05A305BA
:1022A80008008905FEF7AEFF002D00F062850023C7
:1022B800013DDFF82080B346029325F00103DFF8E3
:1022C800189000970593AFE189888888C40900248D
:1022D800500700247806002490060024DF49605C3B
:1022E8006318002840F04B83DD480127013A255C3C
:1022F80020446754002D40F03A85E260DDED017A14
:10230800B7EE007A039AB8EE676AD2ED006AC7EEB4
:10231800067A77EEA67AF4EEC77AF1EE10FA40F371
:102328002D85039A002182ED007A0122197002702E
:1023380006AA5946CB480AF031F918EE101A07AA2E
:10234800C948F0EE408A0AF029F9C848B0EE408A38
:1023580001F070F80346C6481B68089301F06AF854
:1023680003680993FFF72EF9B0EE007ADDED087ADD
:10237800F4EEC77AF1EE10FA00F3CC84B8EE007AE6
:10238800F4EE477AF1EE10FA48BFF0EE477AB0EE75
:10239800007A9DED090ACDED087AB4EEC70AF1EE90
:1023A80010FA00F31F84B8EE007AB24B1B78B4EE33
:1023B800470AF1EE10FA48BFB0EE470A8DED090A58
:1023C800002B00F01884AC4BD8ED042AD3ED004A5A
:1023D800AA4B98ED006A93ED007AA94BF4EEC74A30
:1023E800D9ED043A99ED054A99ED032AF1EE10FA70
:1023F80098ED053A98ED031ADFEDA21A58BF74EE6E
:10240800C74A93ED007AA04BD3ED006A67EEA44A61
:10241800D9ED007AB4EEE67A9C4BF1EE10FA58BF8B
:1024280037EE667AF7EE006A20EE070A36EEE25AD1
:1024380076EEE35A36EEC37A25EE065A93ED006A35
:1024480065EEA75A76EEC47AA4EEA25AE0EE235AB5
:1024580067EE827A27EE017A76EEC66A34EEC52AEE
:1024680088ED005A70EE652AC9ED005A66EE005AEA
:10247800F0EEC23A88ED022AB0EEE25AC9ED022A1D
:1024880026EE246AA3EE837AC8ED013AE5EE047AD3
:1024980089ED015AE6EEA45AA6EE806AB4EEE17A16
:1024A80088ED037AC9ED037AF1EE10FAC0F297834A
:1024B80037EE617AF0EE086A27EE267ADFED716A68
:1024C8006E4BF4EEE67A83ED007AF1EE10FAC0F284
:1024D800838377EEE67AB0EE087A67EE877A6A4BFE
:1024E80038EEA50A38EE068AC3ED007AF0EE007AD7
:1024F800B4EEE70AF1EE10FA00F31384F8EE007A6E
:10250800B4EE670AF1EE10FA48BFB0EE670AF0EED3
:10251800007AB4EEE78AF1EE10FA00F3FF83F8EEE2
:10252800007AB4EE678AF1EE10FA48BFB0EE678A17
:1025380057480AF0DBFB11A94C488DED110A01F050
:1025480011F85448B0EE480A0AF0D0FB11A94848DF
:102558008DED110A01F006F809AA08A94E480AF0FB
:102568001DF808AA09A94C488DED0A0A0AF016F8C0
:10257800B0EE007ADDED0A7AF4EEC77AF1EE10FAE1
:1025880000F3D383B8EE007AF4EE477AF1EE10FA4E
:1025980048BFF0EE477AB0EE007ACDED0A7AB4EE95
:1025A800C70AF1EE10FA00F37E82B8EE007A314BDA
:1025B8001B78B4EE470AF1EE10FA48BFB0EE470AAE
:1025C8008DED0B0A002B40F07782344BF6EE006A53
:1025D80093ED007AB4EEE67AF1EE10FA40F1528209
:1025E80037EE077A9BED006ADBED016AA7EE276AF2
:1025F800E7EE006AF0EE467AB0EE660A284B1B78E2
:10260800002B00F0FB810023009A13605360009BAD
:102618000BF1080B029A059908338A42009302F1DC
:10262800020300F0A6830293FEF7B0FFDFF884A050
:10263800FEF770FF1B4801F0F5F901461A48F7EE5E
:1026480000AA09F0D3FE1948F0EE40BA01F0EAF901
:102658000146174809F0CAFE2EE000BF249F240057
:102668001C9F2400340400243C0400245807002440
:102678007C08002474010024B009002448070024C1
:10268800B4090024CDCCCC3E4C07002454070024C8
:102698000C0400241804002404040024040000246A
:1026A800C00900247801002444020024AC0100245D
:1026B8007C020024209F2400D348B0EE409A01F009
:1026C800B1F90146D14809F091FED148B0EE408AEF
:1026D80001F0A8F90146CF4809F088FECE48CF4B53
:1026E800F0EE407AC0ED00BAF6EE028ACC481D68DA
:1026F80080ED009ACB4805EB0A039FEDCBAA80ED4D
:10270800008ACA4893ED00BA80ED008AC8482BEECB
:102718000A0A04933AEECBCA80ED008AC54BC64834
:102728001B6880ED008AC548DFEDC59AC0ED007AC8
:10273800C4489FEDC59AC0ED007AC448D5E9026740
:10274800C0ED007A05EB8702C14805EB8601D2EDA2
:1027580006DAC04AC0ED007A1360BF4A91ED06EA76
:102768001360BE4A1360BE4A13600AF055FDF0EECE
:1027780040BA2BEE290A0AF04FFDB0EE408A2CEE43
:102788000A0A0AF049FD28EE098AABEEA88AF0EE9B
:1027980040BA2CEE290A0AF03FFD60EE097AB14BE7
:1027A800EBEEA87A1C6838EE088A04EB0A01D4E933
:1027B800022391ED00CA77EEA77A04EB820204EBBC
:1027C80083037AEECCAA2CEE0A0A92ED06DA67EEBB
:1027D8008E7AD3ED06CA0391EDEE887ACDED067AAE
:1027E8000AF01AFDF0EE40BA2CEE290A0AF014FDA0
:1027F800B0EE408A2AEE8A0A0AF00EFDF0EE407A20
:102808002AEEA90A28EE098AF0EE679A0AF004FD72
:10281800954860EE097A954BABEEA88A0644D5F840
:1028280004E0E9EEA87A3844A3FB06C1DFF850C2F9
:1028380005EB8E0A890C38EE088A0CFB11618C4E68
:1028480037EEA70ADBED007A01917644A3FB001E60
:10285800A3FB061301994FEA9E4E20EE0D0A9B0C2E
:102868000CFB1E00ACEE880A0CFB1363D5E904725E
:10287800CAED067A3A44DFF804A2013255F80AE0B4
:1028880007F1FF3A8DED070AC5E90210B2FBF7F12F
:10289800AAEB0E0A07FB11226B6052456A6140F2EF
:1028A8008B807449685C6A18002840F08A807248F6
:1028B8000127013B2E5C28446F54002E40F05582BE
:1028C800EB6007EE90EAB7EE007AF8EE676AC7EEBB
:1028D800267A37EE8BBAB4EEC7BAF1EE10FA40F3A7
:1028E8003082049B002183ED007A0123117003706C
:1028F80021690BF104036069656808EE103A084421
:102908005B4F04EB850E584B421C2F4401F1FF3CF2
:10291800DBED017AD4E9020500EB030A1D4403F15B
:10292800E043B2FBF1F001FB10205449A3F540133A
:102938006158A3F63A23CEED067A0191A3FB07620C
:10294800DFF83CE1A3FB0A61A3FB0563019E920C3F
:102958006061890CACEB060C9B0C0EFB12720EFB33
:1029680011A160450EFB1353C4E90121E3603FF652
:10297800B5AC404BE25C2344002A3FF4D9AC3E4A54
:10298800A018A25C002A3FF4B9ACDDED017AB7EEDD
:10299800006A03990022F8EE676AD1ED007A86EEA4
:1029A800267A77EEC77AF5EEC07AF1EE10FA00F1E2
:1029B800E981C1ED007ABBE42E4AAB5C2A44002BC6
:1029C80096D02D4BE818EB5C002B3FF47AAF07EE5E
:1029D80090EAF7EE006A0023B8EE677AC6EE877AC7
:1029E8003BEE67BAB5EEC0BAF1EE10FA40F1A98134
:1029F8000021049D2B601170017079E7009BC3EDE5
:102A0800007A83ED010A02E6080100240806002482
:102A18003C0100244006002434040024A0090024BA
:102A28003C040024B4020024DB0FC93F080300243F
:102A380044040024B80900244C0400245C03002446
:102A4800E4CB9640B00300240000803D54040024E9
:102A58005C040024240400242C04002464040024BE
:102A68006C040024A8090024BF270900851DD96F1C
:102A7800C1270900249F24001C9F2400189F2400BC
:102A8800C027090040F35481F7EE006ADBED005AD5
:102A98009BED016A36EEC77A37EE077AE7EE257ABC
:102AA800A7EE060AAAE5CF4BB0EE470A1B788DEDD4
:102AB8000B0A002B3FF489AD9FEDCB8ACB4D27EE57
:102AC800880ACB4C284609F0F7FD9DED0B0A2046F5
:102AD80020EE080A09F0F0FDF2EE046A95ED0C7A92
:102AE8000AA9D4ED0C7A0CAA27EE267AC14867EE1B
:102AF800A67A8DED0C7ACDED0D7A09F04FFD0BA974
:102B08000DAABD488DED0E0A09F048FDF0EE006AE9
:102B18009DED0E7AF0EE407AB4EEE67AF1EE10FA18
:102B280000F31681F8EE006AB4EEE67AF1EE10FAD8
:102B380000F12F8127EE080AF0EE006A8DED0E7A7B
:102B4800F4EEE67AF1EE10FA00F3FF80B8EE007AC0
:102B5800F4EE477AF1EE10FA48BFF0EE477AA74D47
:102B6800A74C2846CDED0F7A09F0A6FDDFED9E7A39
:102B78009DED0F0A204620EE270A09F09DFDF2EE92
:102B8800046A95ED0D7A0EA9D4ED0D7A10AA27EEF8
:102B9800267A9C4867EEA67A8DED107ACDED117AEB
:102BA80009F0FCFC0FA911AA97488DED0E0A09F04F
:102BB800F5FC0EAA0AA995488DED0F0A09F0EEFC5E
:102BC8000FAA0BA992488DED0A0A09F0E7FCDDED82
:102BD8000A7A8DED0B0AF8E4DFED8E7A7FE49FED3B
:102BE8008D7A6BE47F4BB0EE470A1B788DED090AAE
:102BF800002B7FF4E8AB9FED7C9A874D27EE890A7E
:102C0800864C284609F058FD9DED090A204620EE1D
:102C1800090A09F051FDF2EE046A95ED0C7A0CAA46
:102C2800D4ED0C7A08A927EE267A7D4867EEA67AB5
:102C38008DED0C7ACDED0D7A09F0B0FC0DAA09A93D
:102C480078488DED0E0A09F0A9FCF0EE006A9DEDBA
:102C58000E7AF0EE407AB4EEE67AF1EE10FA7FDC06
:102C6800F8EE006AB4EEE67AF1EE10FA00F196801A
:102C780027EE090AF0EE006A8DED0E7AF4EEE67A98
:102C8800F1EE10FA69DCB8EE007AF4EE477AF1EE6C
:102C980010FA48BFF0EE477A634D644C2846CDEDF4
:102CA8000F7A09F009FDDFED507A9DED0F0A2046F5
:102CB80020EE270A09F000FDF2EE046A95ED0D7A80
:102CC8000EA9D4ED0D7A10AA27EE267A584867EE99
:102CD800A67A8DED107ACDED117A09F05FFC0FA977
:102CE80011AA54488DED0E0A09F058FC0EAA08A93D
:102CF80051488DED0F0A09F051FC0FAA09A94F4858
:102D08008DED080A09F04AFCDDED087A8DED090A17
:102D1800FFF759BBF0EE477AFFF739BBB0EE678A89
:102D280006E4B0EE670AFFF7F2BBF0EE477A32E44A
:102D3800DBED006A9BED017A77EEA67A30EE070AA2
:102D48005CE4049B83ED00BAD2E5F0EE667A06E710
:102D5800B0EE667A9FED3A0AEEE6F0EE667A9BE709
:102D6800B0EE667A9FED360A84E7AB602FE6A26084
:102D78000BE613B0BDEC0E8BBDE8F08FC2ED007A08
:102D8800FFF7D6BA0021039C226019700170FFF783
:102D9800CFBAB0EE667A9FED2B0ACDE6B0EE667A32
:102DA8009FED280A66E7FEF7F5FAFFF77DBAFFF709
:102DB80051F9FEF797FBFFF777BAFDF76FFDFFF7BD
:102DC80073BAFDF775FEFFF76FBAFDF74DFFFFF712
:102DD8006BBAFEF721F8FFF767BAFEF7F9F8FFF7C5
:102DE80063BA00BF74010024CDCCCC3D6403002439
:102DF800B8030024540400245C040024BC0200240A
:102E080010030024440400244C0400246404002417
:102E18006C0400240000000070050024BC05002498
:102E28005C030024B0030024D804002424050024F3
:102E3800B402002408030024240400242C040024E1
:102E4800CDCC4C3ECDCC4CBE2DE9F0419648002669
:102E5800964C974D224697494661066209F058FFFD
:102E680022462946944809F053FF224629469348AA
:102E780009F04EFF22462946914809F049FF2246AB
:102E88002946904809F044FF224629468E4809F011
:102E98003FFF224629468D4809F03AFF2246294637
:102EA8008B4809F035FF224629468A4809F030FF49
:102EB800224689490025894809F02AFF884F894810
:102EC8002246894905604560C5608560076147619C
:102ED80009F01EFF8548DFF8DC822246824905603A
:102EE8004560C56007614761856009F011FF804F43
:102EF800224641467F4809F00BFF224641467E485C
:102F080009F006FF7D4D224639467D4809F000FF4D
:102F1800224639467B4809F0FBFE7B4F224629466C
:102F28007A4809F0F5FE224629467948794D09F094
:102F3800EFFE22463946784809F0EAFE224639462D
:102F4800764809F0E5FE22462946754809F0E0FE74
:102F580022462946734809F0DBFE22462946724874
:102F680009F0D6FE22462946704809F0D1FE704F76
:102F7800224629466F4809F0CBFE22466E496F4823
:102F880009F0C6FE224639466D4809F0C1FE2246C0
:102F980039466C486C4D09F0BBFE224639466B48F1
:102FA80009F0B6FE22463946694809F0B1FE2246C4
:102FB8002946684809F0ACFE22462946664809F0C9
:102FC800A7FE22462946654809F0A2FE2246294660
:102FD800634809F09DFE22462946624809F098FE9A
:102FE80022462946604809F093FE224629465F4852
:102FF80009F08EFE224629465D4809F089FE2246E0
:1030080029465C4809F084FE224629465A4809F0B8
:103018007FFE22462946594809F07AFE224629466B
:10302800574809F075FE22462946564809F070FEB1
:10303800554F22462946554809F06AFE2246294638
:10304800534809F065FE22463946524809F060FEA9
:1030580022463946504809F05BFE224639464F4819
:1030680009F056FE224639464D4809F051FE4FF008
:103078007E554C484FF4FA6E4B494FF0500C4B4F6D
:103088000A23224680F8246086608162C76205634D
:1030980047490362C0E90366C0E90666C0E900CE95
:1030A800BDE8F04109F034BE740400240000002497
:1030B800B1060008A506000870050024BC05002418
:1030C800D80400242405002464030024B803002441
:1030D800BC02002410030024AD060008B00400243C
:1030E80017B7D13878060024BD06000890060024DA
:1030F800D10600080C04002418040024D506000892
:10310800D8B6B2C0503E49C0CD060008289F24C09A
:10311800000000C0C9060008580700247C080024E5
:103128003C0100240801002478010024AC0100249B
:10313800A906000810020024C5060008C8090024D2
:10314800440200247C020024B5060008400600243E
:1031580008060024340400243C0400240404002449
:103168005C030024B0030024B402002408030024F4
:10317800540400245C040024440400244C04002467
:10318800240400242C040024A1060008640400245C
:103198006C040024E0010024F00100240002002453
:1031A800F8000024C40000240000A03F0000FA43F7
:1031B800C1060008B9060008DFED297AF4EEE70A2F
:1031C80010B5F1EE10FA04462DED048BF0EE418AAD
:1031D800B0EE409A54BFB0EE600AB0EE670AB0EEA7
:1031E800608A09F00DFEF0EE409AB0EE680A09F028
:1031F80007FE032C30D8DFE804F00F18230229EE6D
:10320800090A78EEC88A20EE099AB0EE480AA9EEB3
:10321800280ABDEC048B10BD78EEC88AB0EE480AC7
:10322800A8EE890ABDEC048B10BD29EE099A78EE48
:10323800C88AB0EE480AA9EE280ABDEC048B10BD76
:1032480070EE697AB0EE690AA7EE890ABDEC048BC4
:10325800BDE8104009F062BD9FED020AD9E700BF42
:1032680095BFD63300000000002380ED0A0A30B471
:103278004FF07E54064D80F82430C5620463C0E9DF
:10328800001230BCC0E90433C0E90233704700BF04
:103298000000FA4310B5044603F0FAFAE36822681E
:1032A800C31A934263616268C4E902001ED3934261
:1032B80020D894F8240007EE903A00BBB8EE677A5D
:1032C800D4ED047AD4ED0A6AF8EE677A67EEA67A46
:1032D800B4EEE77AF1EE10FA0CDAD4ED0C6A0120BC
:1032E8002361C7EE267AC4ED0B7A10BD934201D84C
:1032F800002010BD0123002084F8243010BDF8EE12
:10330800676A94ED0C7A00222361C6EE877A84F806
:103318002420C4ED0B7A10BD90ED0B0A704700BF56
:103328009FED057AB7EE000AD0ED0B6AC6EE877AF4
:1033380080EE270A704700BF00007A4480ED0C0A2F
:10334800704700BF2DE9F04383B0374C0546ADF810
:103358000410016880ED440A01F184030C44002242
:1033680043F8042BA342FAD100202F4E02270A4625
:10337800034608608F5100260133002742F8046F86
:10338800216817649942F6D84FF07E544FF001082F
:103398000199281D95ED440A4FF07C5900F02EFA4A
:1033A800C5F8D840C5F8DC40C5F8F840A5F8CC8089
:1033B80003F06EFA95ED440AC5F8000105F15C00CA
:1033C80085F80C61C5F8FC70C5F8187185F81C61A2
:1033D800164F174E85F8048185F85080C5F84C9033
:1033E80008F0E6FF05F1940095ED440AEC65C5F890
:1033F800E040C5F8E840C5F8549085F858806F66F5
:103408002F67AE6608F0D4FFC5F89C70C5F8A060B9
:10341800C5F8A870C5F89440C5F8E440C5F8EC4074
:1034280003B0BDE8F08300BF847869000AD7233C65
:10343800ACC5273790F81E312DE9F04F04462DED25
:10344800028B83B0002B7FD090ED480A043094F8AB
:103458001D1100F041FA002304F1D00504F1CC0954
:1034680004F15C0804F14C060027C4F818310193F4
:103478002368DFF8E4E094ED3F7A03EB8701D5EDAC
:10348800067A53F80EE077EE877A314ABE45DFF8C0
:10349800CCB0DFF8CCC0C5ED047A52D9BDEEE77ADE
:1034A80017EE100AB8EEC77A824277EEC77A28BFBD
:1034B80002464A601868C1ED117A024402F1010E11
:1034C800510A4FEA5E2AABFB0101ABFB0AA00CFBD9
:1034D80011220CFB10E103EB820203EB810392ED56
:1034E800217AD3ED216A76EEC76AA6EEA77AF0EEC6
:1034F800477AAA4619F8011B4046C5ED087A08F034
:1035080075FF05F12002AAEC010A304686ED000A93
:1035180001A99AED018A09F041F8D4ED467A08F13B
:10352800380855460836E8EE007AC4ED467A37B1D1
:1035380004F58C7003B0BDEC028BBDE8F08F012759
:1035480096E7DFED047AD4E7043000F0AFF982E7BC
:10355800FF5D1A000000000084786900076B130003
:10356800005E1A000068094A70B40E680168084DC8
:103578000A4400EB8101074C530AC1F88460A5FB9B
:10358800031304FB132370BC03607047FF5D1A002C
:10359800076B1300005E1A00DFED477AB4EEE70A06
:1035A800F1EE10FA05D500239FED440A80F81D318D
:1035B8007047DFED437AB4EEE70AF1EE10FA05D56D
:1035C80001239FED400A80F81D317047DFED3E7AF8
:1035D800B4EEE70AF1EE10FA0CD4DFED3C7AB4EE63
:1035E800E70AF1EE10FA0BD503239FED390A80F8AC
:1035F8001D3170470223B5EE000A80F81D3170476F
:10360800DFED347AB4EEE70AF1EE10FA0CD4DFED10
:10361800327AB4EEE70AF1EE10FA0BD50523B7EECD
:10362800000A80F81D3170470423B6EE000A80F8BE
:103638001D317047DFED297AB4EEE70AF1EE10FA92
:1036480005D50623B0EE000A80F81D317047DFED7E
:10365800247AB4EEE70AF1EE10FA05D50723B0EEA6
:10366800080A80F81D317047DFED1E7AB4EEE70ACC
:10367800F1EE10FA05D50823B1EE000A80F81D31E5
:103688007047DFED197AB4EEE70AF1EE10FA05D5C6
:103698000923B1EE040A80F81D317047F7EE007A6D
:1036A800B4EEE70AF1EE10FAB8D80A23B1EE080A28
:1036B80080F81D31704700BFC729BA3DABAA2A3E22
:1036C800C7293A3ECDCC4C3E569F8B3EC729BA3EC1
:1036D800ABAAAA3E39B4E83EE3A50B3F1CEB223F58
:1036E80055303A3F8E75513FC7BA683F38B50446E2
:1036F8002DED028B002947D0FFF74EFF60EE200A20
:103708009FED3A8A20EE888AD4ED3E7ADFED386A5A
:1037180038EE677A67EEA67AB0EEC77AF4EEC77A23
:10372800F1EE10FA4ED494F81C31BBBB03F0B0F89C
:10373800D4F80031C01A19283FD994F80C51FDB1BA
:10374800B4F8CC3094F8042183F4807382F0010239
:1037580083F0010384F80421A4F8CC3003F098F82E
:1037680094ED447AB7EE000A0023C8EE077AC4F84D
:10377800000184F80C31201D80EE270A00F088F83B
:103788002846BDEC028B38BD02209FED1A1ADFEDEA
:103798001A0AFFF711FDB0EE408AB5E794F8043134
:1037A80003BB84ED3A8A002384F81C3103F070F8D7
:1037B800D4F80031C01A1928BFD80025BDEC028BF7
:1037C800284638BD03F064F80025012384ED3E8ABD
:1037D800C4F80001284684F80C3184F81C31BDEC8B
:1037E800028B38BD84ED3B8ADDE700BF0000404214
:1037F8000AD7A33B00606A480000704510B52DED5C
:10380800048B82B004469FED209AB0EE408AADF852
:10381800041000220199F7EE008A01F0EFFBB0EEE8
:10382800490A204601F00EFC204601F01DFCC8EEB6
:10383800887A4FF07C539FED150A04F11C0084ED43
:103848000A8A236284ED0C9A84ED090A0090C4ED7B
:103858000B7A00F0EDFAF0EE007A40F20112042340
:10386800009884ED0D0AB0EE670AC4ED088AA4F842
:1038780040202377C4ED097A00F0DAFA84ED0D0AC6
:1038880002B0BDEC048B10BD000000000000C8426F
:1038980010B5044680ED090A1C3000F0C9FA84ED21
:1038A8000D0A10BD00230363704700BF10B504461E
:1038B8001C3000F0DBF8B7EE007AF6EE007A20460E
:1038C80030EE070A20EE270A01F0BCFB2046BDE8CF
:1038D800104001F0C9BB00BF0A2900B583B01FD84A
:1038E800114B03EB8101D1ED007A20EE270A0190FC
:1038F80009F092FC9FED0D7AF7EE007A0198B4EE8C
:10390800C70AF1EE10FA54BFB0EE670AB0EE470AE4
:1039180001F098FB019803B05DF804EB01F0A4BB3B
:10392800F1EE087AE1E700BF70D700080000000058
:1039380001F088BB90F84100704700BF70B582B0B5
:1039480000F1140604460430ADF800201D46ADF819
:103958000410009901F0E0FB30469FED090A0022AF
:10396800019901F04BFB002330469FED060A84F8CD
:103978003050237002B0BDE8704001F063BB00BF57
:1039880000001643000000000378143083F00103A0
:1039980000F8143C1BB1B7EE000A01F053BB9FEDD1
:1039A800020A01F04FBB00BF0000000038B500F16B
:1039B80014050446284601F057FB201D01F0C8FBFA
:1039C80094F83030012B17D0022B09D003B138BD41
:1039D800637A7F2BFBD12046BDE83840FFF7D4BF80
:1039E800637AFF2B13D0002328469FED0D0A23701E
:1039F800BDE8384001F026BB627AFF2AF3D028469A
:103A08002370B7EE000ABDE8384001F01BBB012364
:103A18002846B7EE000A2370BDE8384001F012BB13
:103A28000000000000787047407AA0F17F00B0FAEB
:103A380080F04009704700BF407AA0F18000B0FADA
:103A480080F04009704700BF143001F0FBBA00BF96
:103A580003480023034A04494361036209F058B943
:103A6800100A002400000024A5060008037810B5F9
:103A780004462DED028B072B00F2C881DFE813F016
:103A88005F009400A900BA00C900D90036010800F7
:103A9800D0ED057AB7EE000A9FEDE07AFFEE008AD6
:103AA800DFEDDF6A90ED068AF4EEE67A28EE078A03
:103AB80067EE877AF1EE10FAF4EEC87A48BFF0EEB6
:103AC800408AF1EE10FA00F1968130EE487AF4EE71
:103AD800C77AF1EE10FA00F34B819FEDD20AB6EEE9
:103AE800007AF7EE000A78EE808A37EE870A09F046
:103AF8009FFCB4EEC80AF1EE10FA00F16281B7EE4D
:103B0800007A77EE487AB4EEE70AF1EE10FA0DDDA6
:103B180030EE470AC0EE087AF0EE676AE7EEA76A69
:103B280077EEA67A77EE877A78EEE78A9FEDBE0A77
:103B380094ED058A28EE800A94ED067A07E090ED68
:103B4800058AB0EE480A09F067FB94ED067A78EE2C
:103B5800077ADFEDB66AF4EEE67AC4ED057AF1EE9F
:103B680010FA40F3F48077EEE67A012384F82530E2
:103B7800C4ED057A37EEC77ADFEDA96AB4EEE67AC6
:103B8800F1EE10FA40F1E180F4EEE67AF1EE10FA87
:103B9800ACBF01230023D4ED017A84F8243020EE51
:103BA800270ABDEC028B10BD90ED058ABFEE000A16
:103BB800DFED9A6AF6EE007A38EE086A90ED067A3A
:103BC800A6EE260AB0EEC00A30EE670A30EE000A0A
:103BD800BDE790ED058AF0EE006ADFED907ABFEE62
:103BE800000A90ED067A68EE277AA7EEA60AB1EEEB
:103BF800400AACE790ED058AF0EE006ADFED877ABF
:103C0800BFEE000A90ED067A68EE277AA7EEA60ABC
:103C18009DE790ED058ADFED827A90ED067AB4EEA5
:103C2800E78AF1EE10FA4CBFB7EE000ABFEE000AC1
:103C38008DE7D0ED057AB7EE007ADFED786AFFEE12
:103C4800008A9FED776A90ED068AF4EEC67A28EE30
:103C5800268A67EEA67AF1EE10FAF4EEC87A48BF23
:103C6800F0EE478AF1EE10FA00F1BA8077EE486A72
:103C7800F4EEE67AF1EE10FA6DDC9FED6A7AB6EEB4
:103C8800000AF7EE000A78EE878A37EE800A09F014
:103C9800CFFBB4EEC80AF1EE10FA76D4B7EE007A8C
:103CA80077EE487AB4EEE70AF1EE10FA0DDD30EE61
:103CB800470AC0EE087AF0EE676AE7EEA76A77EE81
:103CC800A67A77EE877A78EEE78AB7EE000A94ED5F
:103CD800067AD4ED077A94ED058A30EE470A20EE8D
:103CE800270AA7EE280A84ED070A30E7DFED4B7AAA
:103CF800B0EE006A90ED058ABFEE000A90ED067AF4
:103D080068EE276A67EE277AA6EE860AF4EEE76A77
:103D1800F1EE10FA48D4F7EE005A35EEE76AF4EE01
:103D2800C66AF1EE10FA0DDD76EEE56A86EEA76A50
:103D3800F0EE467AE6EE067A36EE276A36EE256A21
:103D480030EE460AB1EE400A01E7002323E70023DC
:103D580084F825300EE737EEC76AC6EE086AB0EE7B
:103D6800666AA6EEA66A76EE866A36EE877A86E7F1
:103D780077EEC06A86EE887AF0EE476AE7EE076A61
:103D880037EE267A37EE000AA9E680EE087AB0EE1A
:103D9800006AF7EE006A67EE477AE7EE067A77EE92
:103DA800E67A78EEE78A90E7C6EEA75AF7EE006A59
:103DB80065EEE57AE5EE867A77EEE67A30EE670A22
:103DC800C0E780EE087AB0EE006AF7EE006A67EEA8
:103DD800477AE7EE067A77EEE67A78EEE78AA5E69E
:103DE80087EE886AF0EE005A66EE466AE6EE256AC5
:103DF80036EEC77A43E7C7EE886AB0EE006A26EE69
:103E0800E67AA6EE867A37EE400A68E690ED058AED
:103E180090ED067A9FED030A99E600BF83F9223EEA
:103E2800DB0F494000000000F4FD343FDB0FC940C0
:103E3800DFED047A20EE270AD0ED047A20EE270A77
:103E4800704700BFDB0FC9400B4A40F207110B4B0C
:103E580002604FF4877243600623C184428503746D
:103E680080F8293070B40224054E064D80F82540AC
:103E7800C0E9026570BC7047000705000105080528
:103E88000905070506050A061F2882B009D8084B48
:103E980003EB400213F81030507843EA002002B0D8
:103EA800704701230C2043EA002002B0704700BF8E
:103EB8009CD70008143001F083B800BF143001F01B
:103EC8007BB800BF38B500F1140504462DED028B10
:103ED800284601F063F8284601F06EF82846B0EE4F
:103EE800408A01F057F8D0ED007AF8EE677A88EE4C
:103EF800277ABDEC028B84ED0E7A38BDF0B51A4DE9
:103F080091B000210446079505F100754FF4417002
:103F1800002201230326012705F540750691029129
:103F280006A9ADF8240002A808953025CDE90C2390
:103F3800CDE90E23CDE90A6702F062FB40F60133B2
:103F48004FF07E56ADF80430019800F04DF8032389
:103F5800029A03A904F114000596CDE9035300F071
:103F6800E5FF11B0F0BD00BF0402040430B50446FB
:103F78002DED028B83B089B3012240F20113009228
:103F8800ADF80430694604F1300002F067FD2046C0
:103F980000F04CF8E01C01F0CFFE04F1250001F020
:103FA800CFFD04F1140504F1290001F0C9FD2046F4
:103FB800FFF7A4FF284600F0FFFF2846B0EE408A2E
:103FC80000F0E8FFD0ED007AF8EE677A88EE277AFD
:103FD80084ED0E7A03B0BDEC028B30BD40F20113C4
:103FE8000091ADF80430CDE710B584B00346012444
:103FF800ADF8040003A8ADF80C30ADF80E4001F0A0
:104008009FFD214603A801F085FE204602F042FCF0
:1040180003A8002101F07EFE204602F03BFC214669
:1040280003A801F077FE04B010BD00BF2DE9F043EE
:10403800444C8BB0A063037823B1002528460BB00D
:10404800BDE8F083404A0A2300260127626008225F
:104058000893202302A9201DC4E90267C4E90423A8
:1040680040264FF4C07700224FF40063C4E9066786
:10407800C4E908234FF48056002702220723C4E925
:104088000A67CDE902230426032200230827CDE985
:104098000623CDE9046707F025FD054600284CD125
:1040A8004FF001084FF010090126002702A94FF42C
:1040B80080520190201DCDE902894FF002084FF08F
:1040C8001009CDE9046707F037FD642002F016FEF9
:1040D80002A94FF48052201DCDE90467CDE9028979
:1040E80004264FF003084FF01009002707F024FDBD
:1040F80002A94FF48052201DCDE90467CDE9028959
:1041080007F01AFD40F232234FF0010C0426019308
:104118001027019B02A94FF48052201DCDE904C34A
:10412800CDE9026707F008FD201D40F6060107F0FB
:1041380023FD28460BB0BDE8F083012528460BB0C7
:10414800BDE8F083500A002440410052694A2DE935
:10415800F04315688FB015B10FB0BDE8F083664B1A
:1041680001210C24002611600327D3F8D4204FF630
:1041780083784FF0020908A942F480525F48C3F8D7
:10418800D420D3F8D42002F480520092009AD3F8B5
:10419800E02042F01002C3F8E020D3F8E02002F05B
:1041A80010020192019AD3F8E02042F04002C3F8CD
:1041B800E020D3F8E02002F040020292029AD3F8FD
:1041C800E02042F00802C3F8E020D3F8E02002F033
:1041D80008020392039AD3F8E02042F48072C3F8ED
:1041E800E020D3F8E02002F480720492049AD3F815
:1041F800E02042F08002C3F8E020D3F8E02002F08B
:1042080080020592059AD3F8E02042F02002C3F814
:10421800E020D3F8E02002F020020692069AD3F8B4
:10422800E02042F00402C3F8E020D3F8E0300C9418
:1042380003F004030793079BCDE90A67CDE90889D2
:1042480004F06CFB48F23712022308A92C480C949E
:10425800DFF8C080CDE90A67CDE9082304F05EFBEA
:104268004CF20372022308A926480C94CDE90A6788
:10427800CDE9082304F052FB40F2FF62022308A9AB
:1042880021480C94CDE90A67CDE9082304F046FBE0
:104298004FF60C72022308A91C480C94CDE90A6752
:1042A800CDE9082304F03AFB4FF63F02022308A9A0
:1042B80017480C94CDE90823CDE90A6704F02EFBD2
:1042C800D8F83800013002F0A1FCD8F8383006469A
:1042D800581C02F0A3FC02220746032308A9304613
:1042E8000C9408970B93CDE9092504F017FB0FB040
:1042F800BDE8F0834C0A002400440258001002581C
:1043080000180258000C025800200258001C0258DD
:1043180000140258500A00242DE9F04FDFF82884D1
:1043280006460D46144608F114002DED028B89B09F
:1043380000AF02F055FAD8F814305BB3D8F818304B
:104348004269002B0BBF022304234FF008094FF0EA
:104358001009FB61D8F804304BB3A100E946012AE3
:1043680001F1070121F00701ADEB010D6846ADEB46
:10437800010D694600F04281022A00F0DB80002A24
:1043880074D022469847CD462437BD46BDEC028BF3
:10439800BDE8F08FD8F81830002BF5D002234FF085
:1043A80008094269FB61D8F80430002BD5D1D8F848
:1043B8000030BA617B61002BE6D06B46DA4808EE24
:1043C800103A02F055FA8646F869BA69022800F0F0
:1043D8008E816B46C7F810903969A3EBC4039D46DC
:1043E8006300E946B3FBF0F3A9EBC40CC7F81890D7
:1043F80009EB830AB869E546ADEB010D0CEB8301C7
:10440800EB46F9603969C7F810A00AEB830AADEBEF
:10441800010DCBF80000F9680AEB8300E94601EBCF
:104428008301CBF80C00386901EB8303C9F800C09D
:10443800CBE9010AF868C9E90213C9F80400012A9E
:1044480000F08283022A00F07C82002A00F0868134
:104458006208494658467B69984718EE103A24374F
:104468009D46BD46BDEC028BBDE8F08F002C88D080
:1044780098ED0B6A864606F1040CDFEDB66A36F94C
:1044880022A00EF1080E07EE10AA3CF922A0023273
:1044980007EE90AAB8EEC77A9442F8EEE77A27EECC
:1044A800267A67EEA67A27EE067A67EE867A0EED0A
:1044B800027A4EED017AE2D8F961224698479B4E7E
:1044C800F9690020D8ED046A2B1D9FEDA37A9FEDB2
:1044D800986ADFED985A22E0F4EEC67AF1EE10FA07
:1044E800C0F2EF8447F6FE72D1ED017A45F820203C
:1044F80066EEA77AF4EEC77AF1EE10FA40F2F5808C
:10450800F4EEC67AF1EE10FAC0F2FC8447F6FE72B9
:1045180043F820200230083184427FF634AFD1EDD1
:10452800007A66EEA77AF4EEC77AF1EE10FAD3D8DD
:104538003246D9E7002C3FF424AF98ED0B6A864643
:10454800002206F1040CDFED7C6A06EB820A0EF10C
:10455800080E9AED007A0CEB820A0232DAED007A44
:10456800B8EEC77A9442F8EEE77A27EE267A67EE35
:10457800A67A27EE067A67EE867A0EED027A4EED77
:10458800017AE2D8F961224698476C4EF969002011
:10459800D8ED046A2B1D9FED707ADFF8B0C19FED4E
:1045A800646A20E0F4EEC67AF1EE10FAC0F2A28452
:1045B8003246D1ED017A45F8202066EEA77AF4EE6E
:1045C800C77AF1EE10FA40F28E80F4EEC67AF1EE78
:1045D80010FAC0F28784324643F8202002300831AE
:1045E80084427FF6D0AED1ED007A66EEA77AF4EE7B
:1045F800C77AF1EE10FAD5D86246DAE7002C3FF414
:10460800C0AE06F1040CFD6198ED0B6A1D468346A9
:1046180063464FF0000ADFED4A6AB4465CF82A2088
:104628000BF1080B53F82A600AF1020A82F400021F
:1046380086F4000E5445A2F5000207EE102AAEF5E6
:10464800000207EE902AB8EEC77AF8EEE77A27EE6E
:10465800267A67EEA67A27EE067A67EE867A0BED5B
:10466800027A4BED017AD9D82B46FD692246F961C9
:104678009847344EF9690020D8ED046A2B1D9FED48
:10468800367ADFF8CCC09FED2A6A1FE0F4EEC67ACE
:10469800F1EE10FAC0F21E843246D1ED017A45F8E7
:1046A800202066EEA77AF4EEC77AF1EE10FA18D950
:1046B800F4EEC67AF1EE10FAC0F2FB83324643F804
:1046C80020200230083184427FF65DAED1ED007AB9
:1046D80066EEA77AF4EEC77AF1EE10FAD6D86246FB
:1046E800DBE76246EBE7624676E7324610E7A3006F
:1046F8006008073323F00703ADEB030DEC46ADEB81
:10470800030DEA46ADEB090D0CEB8003C7F818C0A2
:10471800EB46ADEB090D0AEB80003B61E946CBE9BE
:1047280000C3C9E900A08AE6A40A00240280FFFFAA
:1047380004FF7F3F00FEFF46000000300082FF7F3D
:104748000000003482FF7F008C0A0024007E008075
:104758007E0080FF0000003804FF7FBF002C00F0BF
:10476800EC82F969D8F82030022900F01B8303EBAA
:104778008E0ADBF80C104FEA8E03C7F800B006F17A
:10478800040C5FED0C5A7B60DBF80830D7F818E0B2
:10479800FB600AF10403C7F818909B46D7F81090FD
:1047A800B9603D613CF9221036F9223006EE901AC4
:1047B8003AF9221006EE103A98ED0B5A07EE101A45
:1047C800F8EEE66AB8EEC66A3BF92210B8EEC77A88
:1047D800530807EE901A66EEA56A26EE256AF96870
:1047E80027EE257A09EB8300F8EEE77A0EEB8305CE
:1047F80026EE056A01EB830127EE057A023266EEA2
:10480800856A67EEA57A85ED006A9442C0ED006A74
:1048180081ED007A98ED0B7AB86867EE877A00EB3D
:104828008303C3ED007ABDD8D7F800B0D7F8189045
:104838003D69620849467B6958469847D8F8283048
:1048480079680022D8ED046A1944D9F800E0D9F84B
:1048580004C02B1D01F104088A461FED417AC7F8F0
:104868001880B14E9FEDB16ADFEDB15AD7F81C80C0
:1048780052E0F4EEC67AF1EE10FAC0F2DC8247F6A6
:10488800FE7B0CEB010045F822B0D0ED007A66EE15
:10489800A77AF4EEC77AF1EE10FA4CD9F4EEC67A9C
:1048A800F1EE10FAC0F2D08247F6FE70B8F1020FAE
:1048B80043F822002CD0D9F808000844D0ED007A3B
:1048C80066EEA77AF4EEC77AF1EE10FA37D9F4EE6D
:1048D800C67AF1EE10FAC0F2E38247F6FE7BD9F809
:1048E8000C004AF822B00144D1ED007A66EEA77AAE
:1048F800F4EEC77AF1EE10FA1FD9F4EEC67AF1EEAB
:1049080010FAC0F2C58247F6FE71B86940F8221065
:10491800023294427FF6A1AD51080EEB8100890066
:10492800D0ED007A66EEA77AF4EEC77AF1EE10FAC7
:104938009FD8B346A5E73046B8E73146E5E7B34622
:10494800CDE7002C00F0F981FA69D8F82030022A66
:1049580000F0FA8103EB8E0ADBF80830C7F800B0E4
:1049680006F1040CFB604FEA8E030AF10402DFED46
:10497800715A7B60DBF80C309346D7F818E0BB60BF
:104988000023C7F81890D7F810903D6156F8231007
:104998005A0898ED0B5A07EE901A5CF8231009EBA9
:1049A8008200B8EEE76A07EE901A5AF823100EEB69
:1049B8008205F8EEE76A07EE901A0BEB830126EE04
:1049C800256A0233B8EEE77AD1ED007A66EEA56A79
:1049D800F968F8EEE77A9C4227EE257A01EB820126
:1049E80026EE056A66EE856A27EE057A67EEA57AF1
:1049F80085ED006AC0ED006A81ED007A98ED0B7ACA
:104A0800B86867EE877A00EB8202C2ED007ABDD8FB
:104A1800D7F800B0D7F818903D695846620849465B
:104A28007B699847D8F8283079680022D8ED046A5D
:104A380019442B1DD9F800C08B460431D9F80480DD
:104A4800C7F814B09FED3F7AD7F81CB0DFF8ECE058
:104A58009FED366A384EB961FB6150E0F4EEC67AD4
:104A6800F1EE10FAC0F20682304608EB010A45F86A
:104A78002200DAED007A66EEA77AF4EEC77AF1EE54
:104A880010FA4BD9F4EEC67AF1EE10FAC0F2F981B9
:104A98003046FB69BBF1020F43F822002BD0D9F84E
:104AA80008000844D0ED007A66EEA77AF4EEC77ADB
:104AB800F1EE10FA36D9F4EEC67AF1EE10FAC0F239
:104AC800D2813046D9F80CA07B69514443F82200C2
:104AD800D1ED007A66EEA77AF4EEC77AF1EE10FA15
:104AE8001ED9F4EEC67AF1EE10FAC0F2B58131465D
:104AF800BB6943F82210023294427FF6AEAC5108EB
:104B08000CEB81008900D0ED007A66EEA77AF4EE0E
:104B1800C77AF1EE10FAA1D87046A6E77046B8E752
:104B28007146E5E77046CDE70280FFFF04FF7F3F4F
:104B380000FEFF46000000300082FF7F007E0080FC
:104B48000000003404FF7FBF002C00F0F680D8F886
:104B580020304FEA8E02BD60002103EB8E0E06F175
:104B6800040C1FED096A0EF104003D69D7F818A07E
:104B7800FA60C7F8189056F821204FEA51095CF8F6
:104B8800213082F40002D8ED0B6A83F40003A2F509
:104B98000002A3F5000307EE102A05EB890207EED1
:104BA800903A0AEB8903B8EEC77A4FEA8909F8EE1A
:104BB800E77A27EE067A67EE867A27EE267A67EE98
:104BC800A67A83ED007AFB69C2ED007A022B27D022
:104BD8005EF8212050F8213082F4000283F40003AB
:104BE800A2F50002A3F5000307EE902ADBF80820DF
:104BF800B8EEE77A07EE903A4A44DBF80C30F8EE64
:104C0800E77A27EE067A4B4467EE867A27EE267A0D
:104C180082ED007A98ED0B7A67EE877AC3ED007A19
:104C280002318C42A7D8D7F81890584662087B6999
:104C38004946BD689847D8F82830F9680022D8ED69
:104C4800046A19442B1DD9F800C08B460431D9F8E1
:104C58000480C7F814B01FED457AD7F81CB0DFF808
:104C6800C8E29FEDAD6AAD4EB961FB6150E0F4EE6C
:104C7800C67AF1EE10FAC0F2C280304608EB010A9B
:104C880045F82200DAED007A66EEA77AF4EEC77AE4
:104C9800F1EE10FA4BD9F4EEC67AF1EE10FAC0F242
:104CA800BC803046FB69BBF1020F43F822002BD0D1
:104CB800D9F808000844D0ED007A66EEA77AF4EE39
:104CC800C77AF1EE10FA36D9F4EEC67AF1EE10FA98
:104CD800C0F2AA803046D9F80CA07B69514443F849
:104CE8002200D1ED007A66EEA77AF4EEC77AF1EEEB
:104CF80010FA1ED9F4EEC67AF1EE10FAC0F28680E8
:104D08003146BB6943F82210023294427FF6A5ABC4
:104D180051080CEB81008900D0ED007A66EEA77A85
:104D2800F4EEC77AF1EE10FAA1D87046A6E77046FD
:104D3800B8E77146E5E77046CDE72246494658464A
:104D48007B699847FFF789BB98ED0B6A002306F14A
:104D5800040CDFED736AB869D7F810A006EB83027C
:104D68000CEB830192ED007A5A08D1ED007A0233F8
:104D7800B8EEC77A00EB8201F8EEE77A0AEB820216
:104D88009C4227EE267A67EEA67A27EE067A67EE29
:104D9800867A81ED007AC2ED007ADFD84FEA8E0379
:104DA8007B603AE698ED0B6A06F1040CDFED5D6A6C
:104DB800B869D7F810A036F922303CF9221007EE6E
:104DC800103A530807EE901A0232B8EEC77A00EB91
:104DD8008301F8EEE77A0AEB8303944227EE267AFA
:104DE80067EEA67A27EE067A67EE867A81ED007A74
:104DF800C3ED007ADFD84FEA8E037B6019E5F0EE49
:104E0800675AFEEEE45A15EE900A37E7F0EE675A55
:104E1800FEEEE45A15EE901A73E7F0EE675AFEEECE
:104E2800E45A15EE900A3DE7F0EE675AFEEEE45AB2
:104E380015EE900A4FE767EEA57AFDEEE77A17EED2
:104E4800900A0FFA80FB1CE567EEA57AFDEEE77A7B
:104E580017EE900A00B229E5F0EE675AFEEEE05A26
:104E680015EE901A44E6F0EE675AFEEEE05A15EE9B
:104E7800900A27E6F0EE675AFEEEE05A15EE900A21
:104E8800F3E5F0EE675AFEEEE05A15EE900A00E6FA
:104E980067EEA57AFDEEE77A17EE901A09B234E5C7
:104EA80067EEA57AFDEEE77A17EE900A0FFA80FB17
:104EB80015E5F0EE675AFEEEE45A15EE902AFFF774
:104EC800FEBB67EEA57AFDEEE77A17EE902A12B2DE
:104ED800FFF70ABBF0EE675AFEEEE45A15EE902A89
:104EE800FFF7DBBBF0EE675AFEEEE05A15EE902AAC
:104EF800FFF772BBF0EE675AFEEEE05A15EE902A05
:104F0800FFF757BB67EEA57AFDEEE77A17EE902A12
:104F180012B2FFF7FDBA00BF04FF7F3F82FF7F0098
:104F280000000030000000387E0080FF70B5164C8D
:104F3800154684B0046004F1080601AB07C986E889
:104F48000700D4ED047AF5EEC07A83E80700F1EEA5
:104F580010FA15DDF7EE006A86EEA77A84ED0B7A73
:104F680075B1204640F8145F01F03AFC0346074A41
:104F780000201969064BE160E261636204B070BD0C
:104F8800012004B070BD00BF8C0A0024002000304E
:104F98000000003000680830704700BFB1F5806F2E
:104FA80003680A4628BF4FF48062B1F5806F9A60A3
:104FB80094BF0020012070470068143001F046BCFF
:104FC80070B5046882B0084E0D46A36804F1140059
:104FD800626AE1699B00009601F004FC0020C4E9C4
:104FE800000502B070BD00BF21430008024B00223B
:104FF800C3E90522704700BF8C0A002430B52DEDA7
:10500800028B83B0044601231546ADF8041017300F
:10501800BDF80410B0EE408A0180637600F090FD80
:10502800B5FA85F3002100225B09257584ED048A11
:10503800A5756375A160C4E9002203B0BDEC028BBD
:1050480030BD00BF20EE007ADFED067A27EE000AB9
:1050580060EE277A80ED020AFCEEE77AC0ED017A6D
:10506800704700BF00FF7F4790ED046AB7EE007AF3
:10507800DFED0E5A0346D0ED036AC5EE867A77EE69
:10508800A67AF4EEC77AF1EE10FAC8BF77EEC77ABF
:1050980090ED027AB4EEE77AC0ED037A1730F1EEBC
:1050A80010FACCBF597D997D00F034BE0000F04263
:1050B800B7EE007AA3F10103B3FA83F3C7EE007ADF
:1050C8005B0930B482B00025ADF80410002183716B
:1050D8009DF81030BDF80440012B0270C560A0F89F
:1050E80001404171C170C0ED027A08D0022B0DD089
:1050F80001230130C37002B030BC00F021BD02238F
:105108000130C37002B030BC00F01ABD017101302B
:1051180002B030BC00F014BDB7EE007A012203469D
:10512800C7EE007A70B4002683B0C1F307250024C7
:10513800ADF80410C660417010449D70DC701A70A0
:105148009A809A71C3ED027A03B070BC00F0F8BC83
:1051580038B54479054683790130640064B2B3B147
:1051680000F0CAFDB0FA80F35B092343DBB2A3F178
:105178007F026B71012A0ED9FF2B07D1D5ED037A77
:1051880095ED027A77EE877AC5ED037A38BD00F09F
:10519800B3FD43B2E9E70023EB6038BD82B00023DA
:1051A8000322ADF80410BDF8041082700180037466
:1051B800C37002B0704700BF2DE9F04FDB4F0026E7
:1051C800DB4C8FB007F13805426003709646A4F8AF
:1051D8000961844603960696BE61C4F8FD60C4F86A
:1051E8000161C4F80561C4F82461C4E94A75C7E9D6
:1051F8000066C7E90266C7E90466C4E94366C4E90C
:105208004566C4E94766CDE90466CDE90766CDE998
:105218000966CDE90B6684F8FC20426884F80C62C4
:10522800002A00F091820D460868A0464968EB689C
:10523800AA683E80A8E80F002B7C88F800302B7CF9
:1052480084F8FD302B7C002B40F09F82DCF8043082
:10525800012B40F2B4812B46B64A002153F8119F26
:105268007980D3F804809E68D868C4F81190C2F891
:1052780004809660D0601B7C137495F8213084F804
:10528800FE3095F82130002B40F08382DCF80430A2
:10529800022B40F294812B46A74A002153F8229F03
:1052A800B980D3F804809E68D868C4F82290C2F800
:1052B80004809660D0601B7C137495F8323084F8B3
:1052C800FF3095F83230002B40F05B82DCF8043078
:1052D800032B40F274812B46984A002153F8339FE0
:1052E800F980D3F804809E68D868C4F83390C2F86F
:1052F80004809660D0601B7C137495F8433084F862
:10530800003195F84330002B40F04782DCF8043038
:10531800042B40F25481A8460023894E58F8440FC4
:105328003B81D8F80410D8F80C30D8F808200FC6FC
:1053380098F81030337095F8543084F8013195F8A6
:10534800543013B1012384F80C32DCF80430052BF7
:1053580040F235812B467B4A002153F8559F7981CD
:10536800D3F804809E68D868C4F85590C2F80480C1
:105378009660D0601B7C137495F8653084F8023110
:1053880095F8653013B1012384F80C32DCF8043049
:10539800062B40F214812B466B4A002153F8669F76
:1053A800B981D3F804809E68D868C4F86690C2F8BA
:1053B80004809660D0601B7C137495F8763084F86E
:1053C800033195F8763013B1012384F80C32DCF8F8
:1053D8000430072B40F2F3802B465C4A002153F837
:1053E800779FF981D3F804809E68D868C4F87790CD
:1053F800C2F804809660D0601B7C137495F88730DF
:1054080084F8043195F88730002B40F0CA81DCF825
:105418000430082B40F2D380A84600234C4E58F89D
:10542800880F3B82D8F80410D8F80C30D8F8082038
:105438000FC698F81030337095F8983084F8053115
:1054480095F89830002B40F01D82DCF80430092BC9
:1054580040F2B5802B463F4A002153F8999F798244
:10546800D3F804809E68D868C4F89990C2F804807C
:105478009660D0601B7C137495F8A93084F80631C7
:1054880095F8A930002B40F0F981DCF804300A2B9C
:1054980040F295802B46304A002153F8AA9FB982E2
:1054A800D3F804809E68D868C4F8AA90C2F804802B
:1054B8009660D0601B7C137495F8BA3084F8073175
:1054C80095F8BA30002B40F0D581DCF804300B2B6E
:1054D80075D92B46214A002153F8BB9FF982D3F88E
:1054E80004809E68D868C4F8BB90C2F804809660AF
:1054F800D0601B7C137495F8CB3084F8083195F88C
:10550800CB30002B40F0A881DCF804300C2B56D9A6
:10551800A8460023124E58F8CC0F3B83D8F8041045
:10552800D8F80C30D8F808200FC61BE0004000302F
:10553800C00A0024D10A0024E20A0024F30A002445
:10554800040B0024150B0024260B0024370B002421
:10555800480B0024590B00246A0B00247B0B002401
:105568008C0B002498F81030337095F8DC3084F8F0
:10557800093195F8DC3013B1012384F80C32DCF8DA
:1055880004300D2B1BD92B46C64A002153F8DD9F4A
:105598007983D3F804809E68D868C4F8DD90C2F88F
:1055A80004809660D0601B7C137495F8ED3084F805
:1055B8000A3195F8ED3013B1012384F80C325FFA03
:1055C8008EF2B9484FF480210023C4F84821012203
:1055D800C4F830010820C4F8341194F80C12C4F847
:1055E800383184F84431C4E95533C4E94F200029DF
:1055F80000F0BD8084F8453184F84C21C4F85C2162
:105608009CF8003000200021C4E95801F3B10122C0
:105618000021013B84F86821C4E95D12082B0ED8EB
:10562800DFE813F009001E012301D100D600DB00DA
:10563800E000C300CA0003234022C4E95B329B4850
:1056480001F09CFF034648B1FFBEFEE7974884F887
:10565800683101F093FF03460028F5D103A9934868
:10566800039302F0E7F80546002840F0F38040F283
:10567800FF73022204200021CDE9082394F8FC30AE
:10568800CDE90A01002B00F0E2800627DFF848B2D6
:1056980021E0022B00F0AC80012B40F0FB809AF84F
:1056A8000130012B00F0F480002B814B18BF002340
:1056B80006A97E480693079701F084FB002840F06E
:1056C800E580013594F8FC30EDB2AB4240F2BF8082
:1056D800784B53F825700FFA85F808EB081804EB97
:1056E800080A504600F02CFA05EB051323441B7CEE
:1056F800042B00F3AA80022B00F3A58000F084801D
:105708006319002283F8EE2014F80830002BC0D16A
:105718009AF80130062B00F0E380072B00F0DE80BA
:10572800022B00F0BD80032B00F0B880002B00F0A6
:10573800B380012B00F0D680042B00F0D580052B18
:105748005D4B18BF0023B3E75FFA8EF3564D4FF455
:1057580080200121C4F848310823C4F8382184F88E
:105768004421C4E95522C4E94C50C4E94F1301212E
:105778000022032384F8451184F84C21C4F85C31D5
:105788003EE7012384F80C32A0E5012384F80C32AB
:105798005CE5012384F80C3278E5012384F80C32A7
:1057A800B4E5012384F80C3231E640F2FF134FF4DC
:1057B8009072C4E95B3242E740F2FF334FF4A072C3
:1057C800C4E95B323BE71F23A022C4E95B3236E71A
:1057D8003F23C022C4E95B3231E77F23E022C4E9DA
:1057E8005B322CE7FF234FF48072C4E95B3226E773
:1057F8009AF80130042B24D0052B20D0EBB1012BD3
:105808002E4B18BF002353E70121631908F104093F
:10581800002201971E462F46A144154683F8EE1034
:105828004846013500F08CF996F8EE3009F1040984
:10583800AB42F5DC3D46019F66E7214B38E7214B3B
:1058480036E7214B34E70221DFE70321DDE70FB01C
:10585800BDE8F08FFFBEFEE7012384F80C3253E663
:1058680007236022C4E95B32E9E60F238022C4E9FA
:105878005B32E4E6012384F80C3226E6012384F83F
:105888000C3202E6012384F80C32DEE5FFBEFEE7A7
:105898005B460DE700230BE70C4B09E70C4B07E7CA
:1058A8000C4B05E79D0B002400200240F00B002460
:1058B8000002B025DCD700080000B84F0008302EE1
:1058C8000004002A000180211000C01000002143BC
:1058D8000080F03E0040C03A2000F014034BE7E699
:1058E800034BE5E6034BE3E6034BE1E68000501D7E
:1058F8000800900C000052470000844B38B5094C52
:1059080040F2FF724FF0011104F59875284601F036
:105918003FFF284694F8FC20D4F82811BDE8384009
:1059280001F0A4BCC00A0024064B0D29D3F8283185
:1059380098BF03EB41031B8800EE103ABBEEC80A80
:10594800704700BFC00A0024224B02689A4200D068
:105958007047214B09200021D3F8D820F0B51F4CFF
:1059680042F02002002583B094F80C624FF480675F
:10597800C4F8B451C4F8B851AE42C3F8D82004F5FD
:10598800CA75D3F8D83014BF00224FF48072144E71
:1059980003F02003C4F8946100260193019B4FF49F
:1059A8000053C4F8B0214FF40062C4E966012846E8
:1059B800C4E96867C4E96A2302F05EF908B1FFBE6A
:1059C800FEE704F59873C4F87C51C4F8CC3103B0F1
:1059D800F0BD00BF0020024000440258C00A002465
:1059E80040000240014802F039BC00BF540C0024BA
:1059F80002682DE9F84F4C4B9A4201D0BDE8F88F68
:105A08004A4E96F80C32002BF8D096F8FC20002A63
:105A180076D00024371D06F5867506F1FC09A046E8
:105A280016E05FFA83FA03F0010119F80FBC384653
:105A380000F070F9381DBBF1010FCAF3400123D8FB
:105A480096F8FC20013411370235A3B29A4227D9BF
:105A580019F8013F002BF5D0D6F828210021D6F8F7
:105A68002C3132F814008A462A7803EB041323F801
:105A780012002B8801339BB22B8099F800209A42A0
:105A8800CFD8A5F80080D0E700F044F9BBF1020FA9
:105A980007F10800CAF38001D2D000F03BF9CFE744
:105AA80096F80C224FF009084FF00009204B002A05
:105AB8004FF000044FF480654FF400604FF400513C
:105AC80014BF00224FF48072C6F89431C6E9668983
