:020000040800F2
:100000000000022055060008510600085D63000844
:1000100051060008510600085106000800000000C3
:100020000000000000000000000000005106000871
:100030005106000800000000510600084D6300084A
:100040005106000851060008510600085106000834
:100050005106000851060008510600085106000824
:10006000510600085106000851060008B55F000857
:10007000C15F0008B5540008CD5F0008D95F0008D3
:100080005106000839B8000851060008510600085A
:1000900051060008510600085106000851060008E4
:1000A00051060008510600085106000851060008D4
:1000B0005106000851060008510600085DB8000806
:1000C0005106000869B800085106000851060008EA
:1000D00051060008510600085106000851060008A4
:1000E00051060008510600080000000051060008F3
:1000F0005106000851060008510600085106000884
:100100005106000851060008510600085106000873
:100110005106000851060008510600085106000863
:100120005106000851060008510600085106000853
:100130005106000851060008510600085106000843
:1001400000000000000000000000000000000000AF
:100150005106000851060008510600085106000823
:1001600075B800085106000851060008510600083D
:100170005106000851060008510600085106000803
:1001800051060008510600085106000851060008F3
:1001900051060008510600085106000851060008E3
:1001A00051060008510600085106000851060008D3
:1001B000FD5C0008510600085106000851060008C1
:1001C00051060008510600085106000851060008B3
:1001D00051060008510600085106000851060008A3
:1001E0005106000851060008510600085106000893
:1001F0005106000851060008510600085106000883
:100200005106000851060008510600085106000872
:100210005106000851060008510600085106000862
:1002200051060008510600085106000800000000B1
:1002300051060008510600080000000051060008A1
:100240005106000851060008510600085106000832
:100250005106000851060008510600085106000822
:100260005106000851060008510600085106000812
:100270005106000851060008510600080000000061
:100280005106000851060008510600080000000051
:08029000000000005106000807
:1002980010B5054C237833B9044B13B10448AFF3B8
:1002A80000800123237010BD880000240000000096
:1002B80048D8000808B5034B1BB103490348AFF3FE
:1002C800008008BD000000008C00002448D8000809
:1002D80081F0004102E000BF83F0004330B54FEAEF
:1002E80041044FEA430594EA050F08BF90EA020F5C
:1002F8001FBF54EA000C55EA020C7FEA645C7FEAEF
:10030800655C00F0E2804FEA5454D4EB5555B8BF11
:100318006D420CDD2C4480EA020281EA030382EA82
:10032800000083EA010180EA020281EA0303362D14
:1003380088BF30BD11F0004F4FEA01314FF4801CE7
:100348004CEA113102D0404261EB410113F0004FF9
:100358004FEA03334CEA133302D0524263EB4303B0
:1003680094EA050F00F0A780A4F10104D5F1200E4E
:100378000DDB02FA0EFC22FA05F2801841F10001A9
:1003880003FA0EF2801843FA05F359410EE0A5F17D
:1003980020050EF1200E012A03FA0EFC28BF4CF0AE
:1003A800020C43FA05F3C01851EBE37101F0004564
:1003B80007D54FF0000EDCF1000C7EEB00006EEB71
:1003C8000101B1F5801F1BD3B1F5001F0CD34908FB
:1003D8005FEA30004FEA3C0C04F101044FEA445252
:1003E80012F5800F80F09A80BCF1004F08BF5FEAD9
:1003F800500C50F1000041EB045141EA050130BDB9
:100408005FEA4C0C404141EB0101013C28BFB1F5CA
:10041800801FE9D291F0000F04BF01460020B1FA15
:1004280081F308BF2033A3F10B03B3F120020CDAE8
:100438000C3208DD02F1140CC2F10C0201FA0CF0C6
:1004480021FA02F10CE002F11402D8BFC2F1200C2B
:1004580001FA02F120FA0CFCDCBF41EA0C019040E1
:10046800E41AA2BF01EB0451294330BD6FEA04042A
:100478001F3C1CDA0C340EDC04F11404C4F1200215
:1004880020FA04F001FA02F340EA030021FA04F327
:1004980045EA030130BDC4F10C04C4F1200220FA7E
:1004A80002F001FA04F340EA0300294630BD21FABC
:1004B80004F0294630BD94F0000F83F4801306BF82
:1004C80081F480110134013D4EE77FEA645C18BF76
:1004D8007FEA655C29D094EA050F08BF90EA020F0D
:1004E80005D054EA000C04BF1946104630BD91EA05
:1004F800030F1EBF0021002030BD5FEA545C05D108
:100508004000494128BF41F0004130BD14F5800446
:100518003CBF01F5801130BD01F0004545F0FE41BA
:1005280041F470014FF0000030BD7FEA645C1ABFEF
:10053800194610467FEA655C1CBF0B46024650EA26
:10054800013406BF52EA033591EA030F41F4002152
:1005580030BD00BF90F0000F04BF0021704730B5D8
:100568004FF4806404F132044FF000054FF00001AD
:1005780050E700BF90F0000F04BF0021704730B56E
:100588004FF4806404F1320410F0004548BF404243
:100598004FF000013EE700BF42004FEAE2014FEA98
:1005A80031014FEA02701FBF12F07F4393F07F4F73
:1005B80081F06051704732F07F4208BF704793F076
:1005C8007F4F04BF41F40021704730B54FF4607489
:1005D80001F0004521F000411CE700BF50EA01028C
:1005E80008BF704730B54FF000050AE050EA010235
:1005F80008BF704730B511F0004502D5404261EBA5
:1006080041014FF4806404F132045FEA915C3FF4E5
:10061800D8AE4FF003025FEADC0C18BF03325FEA82
:10062800DC0C18BF033202EBDC02C2F1200300FA33
:1006380003FC20FA02F001FA03FE40EA0E0021FA58
:1006480002F11444BDE600BFFEE700BF0D4B0E4AA1
:10065800934206D00D4951F8040B43F8040B93421A
:10066800F9D10B4B0B4A934204D0002143F8041BE9
:100678009342FBD105F0EEFF0CF090FD01F01CF960
:10068800FEE700BF000000248800002460D80008AE
:100698008800002434160024704700BF704700BF4C
:1006A800704700BF704700BF704700BF704700BF6A
:1006B800704700BF704700BF704700BF704700BF5A
:1006C800704700BF704700BF704700BF704700BF4A
:1006D800624B6349F0B5A3F1840585B02846002232
:1006E80043F8042B8B42FAD100225E4C02261346B3
:1006F8002A602E5100220133002440F8042F0A6892
:1007080004649A42F6D8584B5849A3F184063046F7
:10071800002243F8042B8B42FAD10022514C0227C5
:1007280013463260375100220133002440F8042F69
:100738000A6804649A42F6D84D4C08204D4F8DED56
:10074800010A3D6046F2A815266003F0B7F8034693
:100758009DED010A3846ADF80830029902F0D2FD45
:10076800092003F0ABF803469DED010A2046ADF8D9
:100778000C30039902F0C6FD9FED3F0A384602F09F
:1007880039FE20463D4C9FED3C0A02F033FE3C4AC0
:1007980045F6C05004F118033A492561A0500022DB
:1007A80043F8042B8B42FAD1374846F2A811344D4E
:1007B80045F6C0560161002146510435334E00F11B
:1007C80018036155E160324D6161A1552A60C4E9A1
:1007D80001113049002243F8042B8B42FAD12E49EB
:1007E8000023DFED2E6AD1ED017A9FED2D6A36EEFA
:1007F800E77A2C4D67EE867A244E4355B0EEC77AD9
:10080800294DC3604361B4EEE77A83550C602A60D2
:10081800F1EE10FAC0E90133244B186004DD244DD1
:10082800C1ED016A22602561D3ED017ADFED1B6A13
:100838009FED1B6A36EEE77A67EE867AB0EEC77AE6
:10084800B4EEE77AF1EE10FA05DD0021184AC3ED9F
:10085800016A0160026105B0F0BD00BF5CB7B2C0BB
:100868005C2F1CC184786900D43E49C0D4B6B2C09C
:1008780018080024FC0600240000FA43289F24C01E
:10088800189F2400403E49C0000000C0249F240057
:10089800483E49C0189F24C03C09002400409C479A
:1008A8000AD7A33B1C9F2400209F24C0440900248E
:1008B8008038010001220721344810B504F098FD62
:1008C800334BF0EE407A1B787BBB324AF7EE006A76
:1008D800F6EE005A304B92ED007AB0EE006A83EDE6
:1008E800000A36EEC77A37EE657AE7EE067AF5EE55
:1008F800C07AF1EE10FA46D4F4EE667AF1EE10FA08
:1009080036FEA70AB7EE041A0020DFED240A02F02B
:1009180037FC234B9FED237AD3ED007A30EE670A3C
:10092800E0EE077AC3ED007A10BD1B4BDFED1E6ABF
:1009380093ED007A77EE407AF0EEE77AF4EEE67A15
:10094800F1EE10FAF0DD9FED191A0120DFED180A1B
:10095800184C02F015FC184884ED000A0BF070FCE6
:1009680094ED000A15480BF06BFC94ED000A14484E
:100978000BF066FC94ED000A12480BF061FC22684B
:10098800114B1A6110BD9FED050ABBE780040024D6
:100998007109002458090024C00600240000000042
:1009A800540900246F12033D0AD7A33B00004844B2
:1009B8000000C842C4060024CC0400241805002402
:1009C800B002002404030024A40000240422072108
:1009D800344810B504F00CFD334BF0EE407A1B7828
:1009E8007BBB324AF7EE006AF6EE005A304B92EDC6
:1009F800007AB0EE006A83ED000A36EEC77A37EE69
:100A0800657AE7EE067AF5EEC07AF1EE10FA46D48A
:100A1800F4EE667AF1EE10FA36FEA70AB7EE041A7B
:100A28000020DFED240A02F0ABFB234B9FED237A75
:100A3800D3ED007A30EE670AE0EE077AC3ED007A6C
:100A480010BD1B4BDFED1E6A93ED007A77EE407AFE
:100A5800F0EEE77AF4EEE67AF1EE10FAF0DD9FEDCB
:100A6800191A0120DFED180A184C02F089FB184802
:100A780084ED000A0BF0E4FB94ED000A15480BF036
:100A8800DFFB94ED000A14480BF0DAFB94ED000A42
:100A980012480BF0D5FB2268114B5A6110BD9FED2F
:100AA800050ABBE7800400247109002460090024BA
:100AB800C8060024000000005C0900246F12033DF2
:100AC8000AD7A33B00803B460080BB44CC060024E9
:100AD80064050024B005002458030024AC03002456
:100AE800A400002400000000052207214C4810B58E
:100AF80004F07EFC4B4BF0EE407A1B783BBB4A4A35
:100B0800B7EE001AB6EE006A484B92ED007AF0EEA6
:100B1800006A83ED000A31EE477A37EE467AE7EE4F
:100B2800267AF5EEC07AF1EE10FA52D4F4EEC17AD4
:100B3800F1EE10FA50DD3E4B9FED3E7AD3ED007A90
:100B480031EE671AE1EE077AC3ED007A10BD374B34
:100B5800DFED396A93ED007A77EE407AF0EEE77AC6
:100B6800F4EEE67AF1EE10FAF0DDB6EE001ADFEDFB
:100B7800330A334C002002F003FB324884ED000AAC
:100B88000BF0C2FB94ED000A2F480BF0BDFB94ED6F
:100B9800000A2E480BF0B8FB94ED000A2C480BF025
:100BA800B3FB94ED000A2B480BF0AEFB94ED000A62
:100BB80029480BF0A9FB94ED000A28480BF0A4FB88
:100BC80094ED000A26480BF09FFB2268254B9A619A
:100BD80010BD9FED1A1AAEE7B7EEE76A9FED0C5B02
:100BE800B4EEC56BF1EE10FAA5DA9FED0B5BB4EE2F
:100BF800C56BF1EE10FAECD9B0EE670A0120DFED13
:100C08000F0A02F0BDFAB0EE401A94E7AFF3008085
:100C18005C8FC2F5285CEF3F7B14AE47E17A943FC6
:100C2800800400247109002450090024AC06002423
:100C3800080000246F12833C0AD7A33B0000000081
:100C4800B006002464050024B0050024CC04002468
:100C58001805002458030024AC030024B002002423
:100C680004030024A400002407222E4808B51146D6
:100C780004F0BEFB2C4BF0EE407A1B7893BB2B4A5A
:100C8800F7EE006AF6EE005A294B92ED007AB0EEC4
:100C9800006A83ED000A36EEC77A37EE657AE7EE2A
:100CA800067AF5EEC07AF1EE10FA37D4F4EE667AE9
:100CB800F1EE10FA36FEA70AF6EE000A00209FEDC4
:100CC8001D1A02F05DFA1C4B9FED1C7AD3ED007AD9
:100CD8001B4A30EE670AE0EE077AC3ED007AC2EDF0
:100CE800007A08BD124B9FED177AD3ED006A70EEBB
:100CF800667AF0EEE77AF4EEC77AF1EE10FAF0DDF4
:100D080000209FED111ADFED0B0A02F039FA0F4AA5
:100D18000F4B82ED000A83ED020A08BD9FED050A1C
:100D2800CAE700BF8004002471090024B809002420
:100D3800A8060024000000000C0000246F12033DE8
:100D4800F80300240AD7A33B0000FA4364010024F7
:100D5800A400002420480022072138B504F048FBED
:100D68001E4B18781E4B18B393ED007ADFED1D6A01
:100D780077EE407AF0EEE77AF4EEE67AF1EE10FAE2
:100D880000DC38BD184CB2EE041A0020DFED170A5B
:100D9800174D02F0F5F9204684ED020A85ED000AA8
:100DA8000BF0F4FC2A68134B84ED060ADA6038BDB0
:100DB800B7EE001ADFED100A83ED000A02F0E0F941
:100DC8000E4B9FED0F7AD3ED007A30EE670AE0EE16
:100DD800077AC3ED007A38BD800400247109002425
:100DE800E40600240AD7A33BA4040024CDCCCC3DC0
:100DF800E8060024A400002400000000F8060024EF
:100E08006F12033D08B503220721224804F0F0FAC7
:100E1800214BF0EE407A1B7813B3204BDFED206AAC
:100E280093ED007A37EE407AB0EEC77AB4EEE67A00
:100E3800F1EE10FA13DD9FED1B7AB4EEC70AF1EE5E
:100E480010FA23D49FED187AB4EEC70AF1EE10FA1F
:100E580002DD164B01221A70154BC3ED077A08BD47
:100E68000E4BB7EE001A0120DFED120A83ED000ADF
:100E780002F086F9104B9FED117AD3ED007A30EE2F
:100E8800670AE0EE077AC3ED007A08BD074B002237
:100E98001A70E1E78004002471090024E0060024A8
:100EA8000AD7A33B6666E63ECDCC0C3F680100241A
:100EB800A400002400000000640900246F12033D10
:100EC80008B50621064804F083FA00209FED051AAC
:100ED800DFED050A02F054F9044B83ED000A08BD62
:100EE8008004002400004843000048C36809002427
:100EF80030B51E4A1E4C1F4B1F4D94ED007A92EDE3
:100F0800006AD5ED007AD3ED006A36EE476ADFED68
:100F18001B5A76EEE76A1A48A6EE257AE6EEA57A17
:100F28002DED028B83B084ED007AC5ED007A0BF0CD
:100F38004BFAD5ED008AB0EE408AD4ED007A01A9CB
:100F48001048E0EE287ACDED017A02F087FBD4ED67
:100F5800007A01A90C48E8EE287ACDED017A02F072
:100F68007DFB03B0BDEC028B30BD00BF68090024D7
:100F78009C06002464010024A00600240AD7233C10
:100F8800A4040024FC0600241808002410B5184CFA
:100F9800204603F0F7FD63797F2B00D010BD0023B6
:100FA800144C1548236002F0B1FB2368002BF5D1DF
:100FB800124802F051F90028F0D0104802F090F9D8
:100FC8000D4802F099FB0E4B1B78002BE6D00D4B19
:100FD8001B78052B08D90C4B1B78052BDED80B4842
:100FE800BDE8104002F092BB094802F08FFBF2E71F
:100FF800EC000024A406002474090024C400002482
:10100800720900244C0900244D0900241C080024FE
:10101800000700240F4810B502F07CFB0D4802F0D1
:1010280091FB28B10C4C23784BB90C4C237803B9AD
:1010380010BD0B4802F06AFB0023237010BD09485D
:1010480002F064FB00232370044C2378002BEFD0BC
:10105800EFE700BF74090024040000240500002401
:101068001C08002400070024DFED417AB4EEE70AEB
:10107800F1EE10FA04D500239FED3E0A0370704785
:10108800DFED3D7AB4EEE70AF1EE10FA04D501235C
:101098009FED3A0A03707047DFED397AB4EEE70A3C
:1010A800F1EE10FA0BD4DFED377AB4EEE70AF1EE81
:1010B80010FA09D503239FED340A03707047022301
:1010C800B5EE000A03707047DFED307AB4EEE70A38
:1010D800F1EE10FA0BD4DFED2E7AB4EEE70AF1EE5A
:1010E80010FA09D50523B7EE000A037070470423E8
:1010F800B6EE000A03707047DFED267AB4EEE70A11
:10110800F1EE10FA04D50623B0EE000A037070471A
:10111800DFED217AB4EEE70AF1EE10FA04D50723E1
:10112800B0EE080A03707047DFED1C7AB4EEE70AE8
:10113800F1EE10FA04D50823B1EE000A03707047E7
:10114800DFED177AB4EEE70AF1EE10FA04D50923B9
:10115800B1EE040A03707047F7EE007AB4EEE70ABE
:10116800F1EE10FABED80A23B1EE080A03707047F0
:10117800C729BA3DABAA2A3EC7293A3ECDCC4C3E38
:10118800569F8B3EC729BA3EABAAAA3E39B4E83E61
:10119800E3A50B3F1CEB223F55303A3F8E75513F7C
:1011A800C7BA683F10B5062207214E482DED028BBD
:1011B80004F01EF94C484D4BF0EE407A02684C4959
:1011C80001320C7883FB0231D317C3EB611303EBB5
:1011D8004303A2EB83130360002C45D14549F7EE86
:1011E800006AF6EE005A444A91ED007AB0EE006AC1
:1011F80082ED000A36EEC77A37EE657AE7EE067AB0
:10120800F5EEC07AF1EE10FA0DD4F4EE667A3B4AA8
:101218001278F1EE10FA36FEA78A52B9002B52D096
:10122800BDEC028B10BD354A9FED358A1278002A35
:10123800F4D0002BF4D1334802F04EF83248B0EE27
:10124800407AB0EE480AFFF70FFFDFED307A3048FA
:1012580027EE277A27EE000A02F0CCF80028DFD024
:101268002C4B01221A70DBE7234BDFED2B6A93ED41
:10127800007A77EE407AF0EEE77AF4EEE67AF1EE6D
:1012880010FACDDDF0EE080A00209FED1D1A01F0DE
:1012980077FFB8FE400AFCEEC07A17EE903A013BA1
:1012A800DBB2022B1BD81D4A02EB830393ED008AA5
:1012B800B0EE480A134802F021F8194B83ED018A71
:1012C800BDEC028B10BDB7EE000A0121104830EECC
:1012D800480ABDEC028BBDE8104002F0FBB8B7EE3F
:1012E800008AE5E780040024DC060024ABAAAA2AC9
:1012F8007109002438090024D80600247209002442
:1013080000000000C40000244D09002400004042F1
:1013180018080024050000240AD7A33B0CD20008B3
:10132800A400002410B50222072160482DED028B8D
:1013380004F05EF85E485F4BF0EE407A02685E4962
:1013480001320C7883FB0231D317C3EB611303EB33
:101358004303A2EB83130360002C45D15749F7EEF2
:10136800006AF6EE005A564A91ED007AB0EE006A2D
:1013780082ED000A36EEC77A37EE657AE7EE067A2E
:10138800F5EEC07AF1EE10FA0DD4F4EE667A4D4A15
:101398001278F1EE10FA36FEA78A52B9002B78D0EF
:1013A800BDEC028B10BD474A9FED478A1278002A90
:1013B800F4D0002BF4D1454801F08EFF4448B0EE3C
:1013C800407AB0EE480AFFF74FFEDFED427A424816
:1013D80027EE277A27EE000A02F00CF80028DFD063
:1013E8003E4B01221A70DBE7354B9FED3D8A93EDAA
:1013F800007A77EE407AF0EEE77AF4EEC87AF1EE0A
:1014080010FACDDD01209FED371ADFED370A01F024
:10141800B7FE364BD3ED017A30EE677A27EE888A2D
:10142800F0EEC77AF4EEC87AF1EE10FA0DDDFCEEB4
:10143800C07A2F4C1968002083ED010A17EE902A14
:101448000860A24228BF22460A612A4BDFED246ABF
:10145800D3ED017A30EE677A67EEA67AB0EEC77AF6
:10146800B4EEE77AF1EE10FA0DDDFCEEC07A204C0E
:101478001968002083ED010A17EE902A0860A2423D
:1014880028BF22460A611C4BBDEC028B83ED000A83
:1014980010BDB7EE000A01210F4830EE480ABDEC36
:1014A800028BBDE8104002F015B800BF800400248C
:1014B800D4060024ABAAAA2A7109002434090024FE
:1014C800D00600247209002400000000C400002493
:1014D8004C09002400004042FC06002404000024BB
:1014E8000AD7A33B0050C34600606A483C09002461
:1014F800BF27090044090024A40000249FEDCF7AE7
:10150800D0ED007AF4EEC77A38B5F1EE10FA044659
:10151800CB4BC0F2FD809FEDCB7AF4EEC77AF1EEAB
:1015280010FA00F2F58093ED017A9FEDC76A77EE25
:10153800C76A27EE067AF0EEE66AF4EEC76AF1EEBD
:1015480010FA0FDDBCEEE77AC04D19680020C3ED34
:10155800017A17EE102A0860D4ED007AAA4228BF53
:101568002A460A61BA4B9FEDB86A93ED017A77EE85
:10157800C76A27EE067AF0EEE66AF4EEC76AF1EE7D
:1015880010FA00F34B81F7EE007A94ED010AB4EEFD
:10159800E70AF1EE10FA06DBF0EE087AB4EEE70A95
:1015A800F1EE10FA01D9B7EE000AAA4801F0A6FE3A
:1015B800D4ED027AF5EEC07AF1EE10FAC0F22B8182
:1015C800DFEDA56A9FEDA57AF4EEE67AF1EE10FA62
:1015D80088BFF0EE477A94ED030A9FEDA17AA14BFC
:1015E800B4EEC70AA04DC3ED007AF1EE10FA06DB9F
:1015F800F2EE047AB4EEE70AF1EE10FA01D99FEDA3
:101608009B0A284685ED020A0BF0C0F8DFED987AB0
:1016180085ED060A94ED050AB4EEE70AF1EE10FA34
:1016280007DBDFED947AB4EEE70AF1EE10FA40F248
:10163800DF809FED900A90480AF002FE9FED8D0A28
:101648008E480AF0FDFD9FED8B0A8D480AF0F8FDE3
:101658009FED880A8B480AF0F3FD94ED040ADFED4C
:101668008A7AB4EEE70AF1EE10FA07DBDFED877A43
:10167800B4EEE70AF1EE10FA40F2A7809FED840A73
:1016880084480AF0DDFD9FED820A83480AF0D8FD00
:101698009FED7F0A81480AF0D3FD9FED7D0A8048BF
:1016A8000AF0CEFD94ED060AB5EEC00AF1EE10FA86
:1016B80006DBF6EE007AB4EEE70AF1EE10FA5DD931
:1016C8009FED660A6E480AF01FFE9FED640A734894
:1016D8000AF01AFE9FED610A6A480AF015FE9FEDAE
:1016E8005F0A6F480AF010FED4ED077A9FED6D7A15
:1016F8006D4BF4EEC77AF1EE10FA3CD49FED6B7A9D
:10170800F4EEC77AF1EE10FA35DD01221A7038BD11
:10171800D3ED017ADFED666A9FED4B6A36EEE77A24
:1017280067EE867AB0EEC77AB4EEE77AF1EE10FA91
:1017380006DD1A6800215F48C3ED016A1061116077
:10174800434BDFED5B6AD3ED017A9FED3F6A36EEDE
:10175800E77A67EE867AB0EEC77AB4EEE77AF1EE0A
:1017680010FA7FF710AF1A6800215248C3ED016ADA
:101778001061116007E700221A7038BD3E480AF070
:10178800C3FD94ED060A43480AF0BEFD94ED060A2F
:101798003A480AF0B9FD94ED060A3F480AF0B4FD4C
:1017A80094ED060A36480AF0AFFD94ED060A3B4868
:1017B8000AF0AAFD94ED060A32480AF0A5FD94ED58
:1017C800060A37480AF0A0FD8EE732480AF038FDCD
:1017D80094ED040A30480AF033FD94ED040A2F48CA
:1017E8000AF02EFD94ED040A2D480AF029FD59E768
:1017F80021480AF025FD94ED050A20480AF020FD4D
:1018080094ED050A1E480AF01BFD94ED050A1D48D3
:101818000AF016FD21E7DFED117ADCE6BCEEE77A87
:101828000A4D19680020C3ED017A17EE102A0860E6
:10183800AA4228BF2A460A61A5E600BF0050C3464F
:101848003C09002400606A480AD7A33BBF27090067
:1018580044090024C40000240000FA4300000000EA
:10186800CDCCCC3D64010024A40400249A99A14065
:101878000080BB4400803B4664050024B00500247A
:1018880058030024AC0300240000C8420000484468
:1018980000004843CC04002418050024B0020024AA
:1018A800040300246666E63E68010024CDCC0C3FA4
:1018B800006501489405020080B5D148BEB001F02A
:1018C800DDFF0021CE48B2EE088A02F069F81D203B
:1018D80001F0F4FF034606200224ADF8083001F0B9
:1018E800EDFF0346C6489FEDC79AF7EE008AADF8AC
:1018F8000C3001F0FDFF012380EE080A039A4FF037
:101908007C5502991F46C04801F020FF1E2001F0B7
:10191800D5FF03460720DFF85483ADF8103001F0F7
:10192800CDFF0346B648B94EADF8143001F0E0FFDC
:10193800059A80EE080A04993B46B54801F006FF6F
:101948000A2001F0BBFF03462046DFF82493ADF8D8
:10195800183001F0B3FF0346A948ADF81C3001F078
:10196800C7FF079A80EE080A06990023A94801F0E4
:10197800EDFE0B2001F0A2FF03460320ADF8203056
:1019880001F09CFF03469E48ADF8243001F0B0FFFB
:10199800099A80EE080A089900239F4801F0D6FEAC
:1019A800182001F08BFF03460420ADF8283001F021
:1019B80085FF03469248ADF82C3001F099FF234685
:1019C80080EE080A0B9A0A99944801F0BFFE00209D
:1019D80001F074FF03468A48ADF8303001F088FF03
:1019E8003A460C9980EE090A3B468D48009403F06C
:1019F80079F8384601F062FF03468148ADF8343083
:101A080001F076FF3A460D9980EE090A3B46854873
:101A1800009403F067F8172001F050FF0346784858
:101A2800ADF8383001F064FF0E9980EE090A7E485F
:101A380003F08CF8052001F041FF03467048ADF82B
:101A48003C3001F055FF0F99784803F07FF86C4857
:101A580001F04EFF40460AF00FFA6948C8ED008AC7
:101A6800734CC8F80850C8F81450C8F80C6001F056
:101A78003FFF4846DFF8FC810AF0FEF96048C9F8E4
:101A88000850C9F81450C9F80C60C9ED008A01F073
:101A98002FFF20469FED678A0AF0EEF95848C4EDFB
:101AA800008AA660E660666101F022FF4046624C4B
:101AB8000AF0E2F96149624A624B0D6015601D60E7
:101AC8000F7117711F714E48C8ED008AC8F8086079
:101AD800C8F80C60C8F8146001F00AFFFEF7F8FDBA
:101AE800474801F005FF58480AF024FBB0EE480AC1
:101AF80055480AF009FC9FED550A53480AF0A0FB27
:101B08009FED5D0A50480AF045FC3D4801F0F0FEA3
:101B18004F480AF00FFBB0EE480A4D480AF0F4FBB4
:101B28009FED4A0A4A480AF08BFB9FED530A484842
:101B38000AF030FC324801F0DBFE46480AF0FAFAB7
:101B4800B0EE480A43480AF0DFFB9FED430A4148DC
:101B58000AF076FB9FED480A3E480AF01BFC28482D
:101B680001F0C6FE3D480AF0E5FAB0EE480A3B48E7
:101B78000AF0CAFB9FED380A38480AF061FB9FED6E
:101B88003E0A36480AF006FC1D4801F0B1FE34480A
:101B98000AF0D0FAB0EE480A31480AF0B5FB9FEDDA
:101BA8002B0A2F480AF04CFB9FED330A2C480AF009
:101BB800F1FB134801F09CFE2A480AF0BBFAB0EE8C
:101BC800480A28480AF0A0FB9FED200A25480AF099
:101BD80037FB9FED290A23480AF0DCFB084801F08F
:101BE80087FE21480AF0A6FAB0EE480A1E480AF015
:101BF8008BFB9FED190A1C480AF022FB3EE000BF50
:101C08006804002400004042300100240AD7233C25
:101C1800FC0000246C010024A0010024040200241C
:101C2800D4010024E4010024F4010024EC00002481
:101C38003406002400000000A40400242804002422
:101C480030040024F80300246405002400803B4687
:101C5800B0050024CC0400240000484318050024E3
:101C680058030024AC030024B002002438020024E6
:101C780070020024FC0500243333333F1FED020AB1
:101C88007B480AF087FB7B4801F032FE7A480AF06D
:101C980051FAB0EE480A78480AF036FB9FED770A09
:101CA80075480AF0CDFA9FED760A73480AF072FB80
:101CB800704801F01DFE73480AF074FD6D4801F08C
:101CC80017FE71480AF06EFD6A4801F011FEF0EE49
:101CD800407A9FED6E7A20466560C8EEA76A84ED6B
:101CE800027AC4ED037A84ED058A694DB0EE470A9D
:101CF800C4ED046A0AF04AFD40F20113F0EE407A9E
:101D080020462770A384B0EE680AC4ED067AC4EDB5
:101D1800028A0AF03BFDF0EE407A41F270725021DF
:101D2800B7EE040A5B48C4ED018AC4ED067A01F0F7
:101D38007FFA1820584C01F0C1FD03464D48ADF814
:101D4800403001F0D5FD1099544801F08BFC514802
:101D580001F0C6FA514801F0CFFC504801F0D6FC1A
:101D68004B48FFF7CBFB0FCD0FC495E80F0084E875
:101D78000F000F2001F0A2FD03461CA8ADF8443067
:101D8800119902F025FF102001F098FD03460DF18E
:101D98008100ADF84830129902F01AFF112001F0C5
:101DA8008DFD03460DF19200ADF84C30139902F009
:101DB8000FFF122001F082FD03460DF1A300ADF8DC
:101DC8005030149902F004FF132001F077FD034608
:101DD8002DA8ADF85430159902F0FAFE142001F040
:101DE8006DFD03460DF1C500ADF85830169902F0A7
:101DF800EFFE162001F062FD03460DF1D600ADF8A6
:101E08005C30179902F0E4FE192001F057FD0346F3
:101E18000E20ADF8603001F051FD03460D20ADF8FD
:101E2800643001F04BFD03460C20ADF8683001F03A
:101E380045FDBDF868100822199BADF804000DF1A6
:101E4800E700ADF80010189902F0D0FE1CA906238F
:101E58000822134802F004FF114803F0A3FA394698
:101E6800044801F049FD0F49024801F03DFDFEE735
:101E7800B00200246804002404030024000048433E
:101E88003333333F000400240C0400240000C8420C
:101E980018D20008C4000024A400002474090024F7
:101EA800800400246121000808B59FED1E0A1E4821
:101EB80001F046FC9FED1B0A1C4801F041FC1C4840
:101EC8009FED180A01F03CFC1A4801F0B3FCC8B9B0
:101ED80018489FED140A01F0BFFC174801F0AAFC4E
:101EE800D0B99FED100A144801F0B6FC9FED0D0A19
:101EF800124801F0B1FC9FED0B0A1148BDE80840FB
:101F080001F0AABC0B48B7EE000A01F0A5FC0A488C
:101F180001F090FC0028E4D0B7EE000A064801F072
:101F28009BFCE3E70000000074090024000700247C
:101F38001C0800246C010024A001002430010024A6
:101F4800FC000024F8B56D4801F038FC6C4801F03D
:101F580035FC6C4801F032FC6B4C6C4801F02EFCEF
:101F68006B4801F02BFC204602F00CFE694802F099
:101F780009FE694802F006FE684802F003FE63792C
:101F88007F2B00F09F80634B5B797F2B00F096805E
:101F98005A48634C01F050FC28B123680133032BE5
:101FA800236000F09380554801F04EFC10B123687F
:101FB800013B2360524801F03FFC28B123680133FC
:101FC800032B236000F087804D4801F03DFC10B1E1
:101FD8002368013B23604E4801F02EFC002855D1B0
:101FE800504D4B4801F030FC38B1236800224E4870
:101FF800013B4E49027023600A70454801F01AFC03
:10200800A0B92368032B1ED0434B5B79A3F1FF02D1
:102018007F2BB2FA82F24FEA52122A7000D0F8BD32
:1020280001234349434A0B701370F8BD04F094F937
:10203800414B1B68C01AFA28E3D93B4B01221A709E
:102048002368032BE0D13D4F04F086F940F6B833FE
:102058003A68801A9842D7D9284801F09DFB284849
:1020680001F09AFB364EFFF71FFF2F4B0022344832
:10207800344C1A70FFF742FA0FCE0FC496E80F00DF
:1020880084E80F0004F068F93860BDE72E4801F0D5
:10209800E3F860BB234D2D4801F038FB2B78FBB9E2
:1020A80004F05AF92368244A01331060032B236093
:1020B80097D104F051F9214B186092E7104801F0CC
:1020C8006BFB65E70D4801F067FB5CE704F044F93A
:1020D8001A4B186067E704F03FF9184B186073E76C
:1020E8001B4801F013FB1B4801F010FBD8E716480A
:1020F80001F0F6F8154801F0FFFACBE76C0100246F
:10210800A001002430010024D4010024FC00002494
:1021180004020024E4010024F4010024EC0000245B
:10212800B406002472090024710900246C090024F3
:102138000400002405000024BC060024B80600247E
:1021480018D20008A4000024C40000247409002444
:10215800000700241C080024DFF894C0DCF80030D5
:102168002DE9F04F0133204C0646154684FB030247
:10217800DC170F461D491A44C4EBE204C4EB0414EF
:102188001B1B2DED0E8BCCF80030BFF35B8F0B784B
:1021980093B0BFF35B8FB3B9DCF800300E2B12D8C5
:1021A800DFE813F026061D06190610060C060306BE
:1021B800FF05F605F205E905E505DC05D8050F007C
:1021C800D405FEF7C7FD002D00F0A8850023013DCA
:1021D800DFF82080B346029325F00103DFF818905A
:1021E800009705938FE000BF8988888870090024CC
:1021F800F40600246C06002484060024F8EE007A15
:10220800B4EE678AF1EE10FA48BFB0EE678AD84894
:102218000AF0D0FA11A9D7488DED110A01F004FA95
:10222800D548B0EE480A0AF0C5FA11A9D3488DED91
:10223800110A01F0F9F909AA08A9D14809F012FF11
:1022480008AA09A9CE488DED0A0A09F00BFFB0EEDD
:10225800007ADDED0A7AF4EEC77AF1EE10FA00F3AF
:102268000285B8EE007AF4EE477AF1EE10FA48BF2C
:10227800F0EE477AB0EE007ACDED0A7AB4EEC70AEE
:10228800F1EE10FA00F35784B8EE007ABD4B1B78D4
:10229800B4EE470AF1EE10FA48BFB0EE470A8DEDEA
:1022A8000B0A002B40F05084B74BF6EE006A93ED12
:1022B800007AB4EEE67AF1EE10FA40F12A8437EEAD
:1022C800077A9BED006ADBED016AA7EE276AE7EE65
:1022D800006AF0EE467AB0EE660AAC4B1B78002B2B
:1022E80000F010840023009A13605360009B0BF1E8
:1022F800080B029A059908338A42009302F10203F7
:1023080000F00C850293FEF741FEDFF808A3FEF704
:10231800EFFD9F4801F08EFA01469E48F7EE00AAAD
:1023280009F0C8FD9C48F0EE40BA01F083FA014676
:102338009A4809F0BFFD9A48B0EE409A01F07AFA3F
:102348000146984809F0B6FD9748B0EE408A01F07A
:1023580071FA0146954809F0ADFD9548954BF0EEA8
:10236800407AC0ED00BAF6EE028A93481D6880ED07
:10237800009A924805EB0A039FED91AA80ED008A26
:10238800904893ED00BA80ED008A8F482BEE0A0A38
:1023980004933AEECBCA80ED008A8C4B8C481B68BC
:1023A80080ED008A8B48DFED8C9AC0ED007A8B486F
:1023B8009FED8B9AC0ED007A8A48D5E90267C0ED97
:1023C800007A05EB8702884805EB8601D2ED06DA2C
:1023D800864AC0ED007A1360854A91ED06EA1360DB
:1023E800844A1360844A13600AF07AFCF0EE40BA1B
:1023F8002BEE290A0AF074FCB0EE408A2CEE0A0A89
:102408000AF06EFC28EE098AABEEA88AF0EE40BA14
:102418002CEE290A0AF064FC60EE097A774BEBEEA1
:10242800A87A1C6838EE088A04EB0A01D4E902236A
:1024380091ED00CA77EEA77A04EB820204EB8303DE
:102448007AEECCAA2CEE0A0A92ED06DA67EE8E7ABC
:10245800D3ED06CA0391EDEE887ACDED067A0AF03F
:102468003FFCF0EE40BA2CEE290A0AF039FCB0EE37
:10247800408A2AEE8A0A0AF033FCF0EE407A2AEE05
:10248800A90A28EE098AF0EE679A0AF029FC5C4846
:1024980060EE097A5B4BABEEA88A0644D5F804E0F7
:1024A800E9EEA87A3844A3FB06C1DFF86CC105EB56
:1024B8008E0A890C38EE088A0CFB1161524E37EEF1
:1024C800A70ADBED007A01917644A3FB001EA3FB6B
:1024D800061301994FEA9E4E20EE0D0A9B0C0CFB49
:1024E8001E00ACEE880A0CFB1363D5E90472CAED32
:1024F800067A3A44DFF824A1013255F80AE007F1D8
:10250800FF3A8DED070AC5E90210B2FBF7F1AAEB15
:102518000E0A07FB11226B6052456A6140F2CF82B6
:102528003A49685C6A18002840F0CF823848012789
:10253800013B2E5C28446F54002E40F0EB83EB6087
:1025480007EE90EAB7EE007AF8EE676AC7EE267AE9
:1025580037EE8BBAB4EEC7BAF1EE10FA40F39183B6
:10256800049B002183ED007A01231170037057E06A
:1025780000040024FC0600240C040024180800248D
:10258800F803002468010024080000246C090024D2
:102598006C01002438020024A001002470020024E9
:1025A800FC000024FC05002430010024340600242B
:1025B800280400243C09002430040024A802002434
:1025C800DB0FC93FFC0200243804002464090024FE
:1025D8004004002450030024E4CB9640A4030024C4
:1025E8000000803D480400245004002418040024FE
:1025F8002004002458040024600400244409002412
:10260800BF270900851DD96FC1270900249F240011
:102618001C9F2400209F2400C0270900189F240025
:1026280021690BF104036069656808EE103A0844F3
:10263800B14F04EB850EB14B421C2F4401F1FF3C16
:10264800DBED017AD4E9020500EB030A1D4403F12E
:10265800E043B2FBF1F001FB1020A949A3F54013B8
:102668006158A3F63A23CEED067A0191A3FB0762DF
:10267800DFF8C8E2A3FB0A61A3FB0563019E920C85
:102688006061890CACEB060C9B0C0EFB12720EFB06
:1026980011A160450EFB1353C4E90121E36040F228
:1026A800EB819849605C6318002840F0EB819648FC
:1026B8000127013A255C20446754002D40F02C8303
:1026C800E260DDED017AB7EE007A039AB8EE676A48
:1026D800D2ED006AC7EE067A77EEA67AF4EEC77AEC
:1026E800F1EE10FA40F31F83039A002182ED007A7D
:1026F80001221970027006AA5946844809F0B2FCF2
:1027080018EE101A07AA8248F0EE408A09F0AAFCCF
:102718008048B0EE408A00F0FBFE03467E481B6806
:10272800089300F0F5FE03680993FEF773FCB0EE1A
:10273800007ADDED087AF4EEC77AF1EE10FA00F3CC
:102748009881B8EE007AF4EE477AF1EE10FA48BFB5
:10275800F0EE477AB0EE007A9DED090ACDED087AE1
:10276800B4EEC70AF1EE10FA00F3EA80B8EE007A88
:102778006A4B1B78B4EE470AF1EE10FA48BFB0EE88
:10278800470A8DED090A002B00F0E380644BD8ED71
:10279800042AD3ED004A634B98ED006A93ED007A62
:1027A800614BF4EEC74AD9ED043A99ED054A99ED23
:1027B800032AF1EE10FA98ED053A98ED031ADFEDC9
:1027C8005B1A58BF74EEC74A93ED007A584BD3EDA5
:1027D800006A67EEA44AD9ED007AB4EEE67A554B62
:1027E800F1EE10FA58BF37EE667AF7EE006A20EE7F
:1027F800070A36EEE25A76EEE35A36EEC37A25EE4B
:10280800065A93ED006A65EEA75A76EEC47AA4EEEE
:10281800A25AE0EE235A67EE827A27EE017A76EE24
:10282800C66A34EEC52A88ED005A70EE652AC9EDED
:10283800005A66EE005AF0EEC23A88ED022AB0EE6F
:10284800E25AC9ED022A26EE246AA3EE837AC8ED7D
:10285800013AE5EE047A89ED015AE6EEA45AA6EEAD
:10286800806AB4EEE17A88ED037AC9ED037AF1EE75
:1028780010FA3DDB37EE617AF0EE086A27EE267A29
:10288800DFED2A6A274BF4EEE67A83ED007AF1EE63
:1028980010FA2ADB77EEE67AB0EE087A67EE877AE6
:1028A800234B38EEA50A38EE068AC3ED007AF0EE1F
:1028B800007AB4EEE70AF1EE10FA13DCF8EE007ACB
:1028C800B4EE670AF1EE10FA48BFB0EE670AF0EE10
:1028D800007AB4EEE78AF1EE10FA7FF78FACB0EE2B
:1028E800678A94E4B0EE670AF1E7DFED137AD7E779
:1028F8009FED117AC4E700BFC1270900BF2709006F
:10290800189F2400249F24001C9F240028040024CE
:1029180030040024FC060024180800246801002460
:1029280054090024EC0600245C090024CDCCCC3EDC
:10293800F0060024F806002400000000C027090063
:10294800D64BB0EE470A1B788DED090A002B7FF4B1
:102958001DAF9FEDD39AD34D27EE890AD24C284656
:1029680009F00EFC9DED090A204620EE090A09F03F
:1029780007FCF2EE046A95ED0C7A0CAAD4ED0C7AF9
:1029880008A927EE267AC94867EEA67A8DED0C7A53
:10299800CDED0D7A09F066FB0DAA09A9C4488DEDA5
:1029A8000E0A09F05FFBF0EE006A9DED0E7AF0EE7C
:1029B800407AB4EEE67AF1EE10FA00F3A681F8EE6A
:1029C800006AB4EEE67AF1EE10FA00F1B58127EE6E
:1029D800090AF0EE006A8DED0E7AF4EEE67AF1EE71
:1029E80010FA00F38F81B8EE007AF4EE477AF1EE30
:1029F80010FA48BFF0EE477AAE4DAF4C2846CDED01
:102A08000F7A09F0BDFBDFEDA67A9DED0F0A20468F
:102A180020EE270A09F0B4FBF2EE046A95ED0D7A70
:102A28000EA9D4ED0D7A10AA27EE267AA34867EEF0
:102A3800A67A8DED107ACDED117A09F013FB0FA966
:102A480011AA9F488DED0E0A09F00CFB0EAA08A9E1
:102A58009C488DED0F0A09F005FB0FAA09A99A48B1
:102A68008DED080A09F0FEFADDED087A8DED090A08
:102A78008CE6F0EE477A6DE6944BE25C2344002A3C
:102A88003FF439AE924AA018A25C002A3FF419AE6E
:102A9800DDED017AB7EE006A03990022F8EE676A65
:102AA800D1ED007A86EE267A77EEC77AF5EEC07A0F
:102AB800F1EE10FA00F13A81C1ED007A1BE6834A83
:102AC800AB5C2A44002B3FF4ABAD814BE818EB5CC0
:102AD800002B3FF435AD07EE90EAF7EE006A0023CD
:102AE800B8EE677AC6EE877A3BEE67BAB5EEC0BA3B
:102AF800F1EE10FA40F1C5800021049D2B601170A1
:102B080001708DE5009BC3ED007A83ED010AFFF7A4
:102B1800EDBB40F3AC80F7EE006ADBED005A9BEDAD
:102B2800016A36EEC77A37EE077AE7EE257AA7EE1E
:102B3800060AFFF7D2BB594BB0EE470A1B788DED5A
:102B48000B0A002B3FF4B0AB9FED558A614D27EE81
:102B5800880A614C284609F013FB9DED0B0A2046B4
:102B680020EE080A09F00CFBF2EE046A95ED0C7AE7
:102B78000AA9D4ED0C7A0CAA27EE267A574867EEF4
:102B8800A67A8DED0C7ACDED0D7A09F06BFA0BA9CA
:102B98000DAA53488DED0E0A09F064FAF0EE006AAA
:102BA8009DED0E7AF0EE407AB4EEE67AF1EE10FA88
:102BB8006EDCF8EE006AB4EEE67AF1EE10FA00F197
:102BC800C08027EE080AF0EE006A8DED0E7AF4EE6A
:102BD800E67AF1EE10FA58DCB8EE007AF4EE477AAD
:102BE800F1EE10FA48BFF0EE477A3E4D3E4C2846CB
:102BF800CDED0F7A09F0C4FADFED297A9DED0F0AC1
:102C0800204620EE270A09F0BBFAF2EE046A95ED99
:102C18000D7A0EA9D4ED0D7A10AA27EE267A33483C
:102C280067EEA67A8DED107ACDED117A09F01AFAD1
:102C38000FA911AA2E488DED0E0A09F013FA0EAA53
:102C48000AA92C488DED0F0A09F00CFA0FAA0BA956
:102C580029488DED0A0A09F005FADDED0A7A8DEDAD
:102C68000B0AFFF721BBF0EE477AFFF703BBDBED5A
:102C7800006A9BED017A77EEA67A30EE070AFFF735
:102C88002CBB049B83ED00BACAE4F0EE667AACE78D
:102C9800B0EE667A9FED190A95E700BF6801002437
:102CA800CDCCCC3D64050024B0050024500300249D
:102CB800A4030024CC04002418050024A80200243E
:102CC800FC0200241804002420040024249F24006B
:102CD8001C9F240058030024AC030024480400244B
:102CE80050040024B0020024040300243804002403
:102CF800400400245804002460040024CDCC4C3E39
:102D0800CDCC4CBEF0EE667A76E6B0EE667A1FED74
:102D1800050A5EE6AB60DEE6A260B9E613B0BDEC7C
:102D28000E8BBDE8F08FC2ED007AE4E40021039C2D
:102D3800226019700170DEE4B0EE667A1FED100AA9
:102D480047E6B0EE667A1FED120A3CE7FEF75AF83E
:102D5800FFF739BAFDF788FFFFF735BA052127488D
:102D680002F036FB264B83ED000AFFF72CBAFDF77D
:102D7800BBFEFFF728BA0421204802F029FB214BAB
:102D880083ED000AFFF71FBAFDF720FEFFF71BBA15
:102D980003211A4802F01CFB1B4B83ED000AFFF7C6
:102DA80012BAFDF787FDFFF70EBA0221134802F0A9
:102DB8000FFB164B83ED000AFFF705BAFEF7F2F991
:102DC800FFF701BA01210D4802F002FB104B83ED19
:102DD800000AFFF7F8B9FEF7A5FAFFF7F4B90021E2
:102DE800064802F0F5FA0B4B83ED000AFFF7EBB942
:102DF800FFF7A8F8FEF764F8FFF7E5B980040024A8
:102E0800B809002450090024600900245809002446
:102E180038090024340900242DE9F041944800269B
:102E2800944C954D224695494661066209F0D4FCBA
:102E380022462946924809F0CFFC22462946914865
:102E480009F0CAFC224629468F4809F0C5FC2246EB
:102E580029468E4809F0C0FC224629468C4809F0CC
:102E6800BBFC224629468B4809F0B6FC2246294677
:102E7800894809F0B1FC22462946884809F0ACFC8B
:102E8800224687490025874809F0A6FC864F8748CF
:102E98002246874905604560C560856007614761CE
:102EA80009F09AFC8348DFF8D08222468049056001
:102EB8004560C56007614761856009F08DFC7E4FFC
:102EC800224641467D4809F087FC224641467C4817
:102ED80009F082FC7B4D224639467B4809F07CFC90
:102EE80022463946794809F077FC794F2246294627
:102EF800784809F071FC224629467748774D09F051
:102F08006BFC22463946764809F066FC224639466B
:102F1800744809F061FC22462946734809F05CFCB4
:102F280022462946714809F057FC2246294670482E
:102F380009F052FC224629466E4809F04DFC6E4FB6
:102F4800224629466D4809F047FC22466C496D48DF
:102F580009F042FC224639466B4809F03DFC2246FE
:102F680039466A486A4D09F037FC224639466948AD
:102F780009F032FC22463946674809F02DFC224602
:102F88002946664809F028FC22462946644809F083
:102F980023FC22462946634809F01EFC224629469E
:102FA800614809F019FC22462946604809F014FCDA
:102FB800224629465E4809F00FFC224629465D480C
:102FC80009F00AFC224629465B4809F005FC22461E
:102FD80029465A4809F000FC22462946584809F073
:102FE800FBFB22462946574809F0F6FB22462946AC
:102FF800554809F0F1FB22462946544809F0ECFBF4
:10300800534F22462946534809F0E6FB22462946F3
:10301800514809F0E1FB22463946504809F0DCFBEB
:10302800224639464E4809F0D7FB224639464D48D4
:1030380009F0D2FB224639464B4809F0CDFB502710
:103048004A484FF4FA6CDFF834E14FF07E53484DAC
:10305800224606768660C0F81CE005624549436250
:10306800C0E90366C0E9007CBDE8F04109F0B4BBE3
:103078006804002400000024B1060008A506000822
:1030880064050024B0050024CC040024180500249D
:1030980058030024AC030024B002002404030024D5
:1030A800AD060008A404002417B7D1386C06002424
:1030B800BD06000884060024D10600080004002488
:1030C8000C040024D5060008D8B6B2C0503E49C04A
:1030D800CD060008289F24C0000000C0C9060008CB
:1030E800FC0600241808002430010024FC000024F9
:1030F8006C010024A0010024A90600080402002491
:10310800C50600087409002438020024700200244F
:10311800B506000834060024FC0500242804002411
:1031280030040024F803002450030024A4030024DE
:10313800A8020024FC0200244804002450040024AF
:103148003804002440040024180400242004002427
:10315800A10600085804002460040024D4010024B7
:10316800E4010024F4010024EC000024C40000243D
:103178000000FA43C1060008B90600080000A03F95
:10318800DFED297AF4EEE70A10B5F1EE10FA0446FD
:103198002DED048BF0EE418AB0EE409A54BFB0EEAC
:1031A800600AB0EE670AB0EE608A09F08DFBF0EEB7
:1031B800409AB0EE680A09F087FB032C30D8DFE8A4
:1031C80004F00F18230229EE090A78EEC88A20EEC7
:1031D800099AB0EE480AA9EE280ABDEC048B10BD86
:1031E80078EEC88AB0EE480AA8EE890ABDEC048BCE
:1031F80010BD29EE099A78EEC88AB0EE480AA9EE01
:10320800280ABDEC048B10BD70EE697AB0EE690A2D
:10321800A7EE890ABDEC048BBDE8104009F0E2BABC
:103228009FED020AD9E700BF95BFD6330000000022
:10323800002380ED070A30B44FF07E54054D037625
:1032480005624462C0E9001230BCC0E90433C0E939
:10325800023370470000FA4310B5044603F07CF8C7
:10326800E3682268C31A934263616268C4E9020092
:103278001DD393421FD8207E07EE903AF8B9B8EED6
:10328800677AD4ED047AD4ED076AF8EE677A67EEC8
:10329800A67AB4EEE77AF1EE10FA0CDAD4ED096A00
:1032A80001202361C7EE267AC4ED087A10BD934247
:1032B80001D8002010BD01230020237610BDF8EEB0
:1032C800676A94ED097A00222361C6EE877A22762E
:1032D800C4ED087A10BD00BF90ED080A704700BF22
:1032E8009FED057AB7EE000AD0ED086AC6EE877A38
:1032F80080EE270A704700BF00007A4480ED090A73
:10330800704700BF2DE9F04383B0374C0546ADF850
:103318000410016880ED430A01F184030C44002283
:1033280043F8042BA342FAD100202F4E02270A4665
:10333800034608608F5100260133002742F8046FC6
:10334800216817649942F6D84FF07E544FF001086F
:103358000199281D95ED430A4FF07C5900F082F938
:10336800C5F8D440C5F8D840C5F8F440A5F8C880D9
:1033780002F0F2FF95ED430AC5F8FC0005F158008C
:1033880085F80861C5F8F870C5F8147185F81861F2
:10339800164F174E85F8008185F84C80C5F848907F
:1033A80008F06AFD05F1900095ED430AAC65C5F893
:1033B800DC40C5F8E440C5F8509085F854802F6685
:1033C800EF666E6608F058FDC5F89870C5F89C6001
:1033D800C5F8A470C5F89040C5F8E040C5F8E840C5
:1033E80003B0BDE8F08300BF847869000AD7233CA6
:1033F800ACC52737D0ED3D7ADFED356A30EE677A18
:1034080067EEA67AB0EEC77A38B5F4EEC77A044606
:103418002DED028BF1EE10FAB0EE408A44D490F80C
:1034280018316BBB02F098FFD4F8FC30C01A192889
:1034380035D994F80851FDB1B4F8C83094F8002192
:1034480083F4807382F0010283F0010384F8002181
:10345800A4F8C83002F080FF94ED437AB7EE000A72
:103468000023C8EE077AC4F8FC0084F80831201D50
:1034780080EE270A00F040F92846BDEC028B38BDE3
:1034880090F8003103BB84ED390A002384F8183121
:1034980002F062FFD4F8FC30C01A1928C9D80025F8
:1034A800BDEC028B284638BD02F056FF00250123EB
:1034B80084ED3D8AC4F8FC00284684F8083184F875
:1034C8001831BDEC028B38BD84ED3A0ADDE700BF48
:1034D8000AD7A33B10B50446022051B99FED0A1A3A
:1034E800DFED0A0AFFF74CFE2046BDE81040FFF763
:1034F80081BF9FED061ADFED040AFFF741FE204663
:10350800BDE81040FFF776BF00606A4800007045CC
:103518002DE9F04F04460430002704F1CC0504F1EE
:10352800C80904F1580804F148062DED028B83B050
:1035380000F0F0F80023C4F8143101932368DFF891
:10354800DCE094ED3E7A03EB8701D5ED067A53F87B
:103558000EE077EE877A2F4ABE45DFF8C4B0DFF871
:10356800C4C0C5ED047A52D9BDEEE77A17EE100A49
:10357800B8EEC77A824277EEC77A28BF02464A6019
:103588001868C1ED117A024402F1010E510A4FEA9E
:103598005E2AABFB0101ABFB0AA00CFB11220CFB62
:1035A80010E103EB820203EB810392ED217AD3ED64
:1035B800216A76EEC76AA6EEA77AF0EE477AAA469F
:1035C80019F8011B4046C5ED087A08F073FC05F1AF
:1035D8002002AAEC010A304686ED000A01A99AEDFC
:1035E800018A08F03FFDD4ED457A08F138085546C0
:1035F8000836E8EE007AC4ED457A37B104F58A70EA
:1036080003B0BDEC028BBDE8F08F012796E7DFED34
:10361800027AD4E7FF5D1A00000000008478690090
:10362800076B1300005E1A000068094A70B40E6840
:103638000168084D0A4400EB8101074C530AC1F8A0
:103648008460A5FB031304FB132370BC036070475D
:10365800FF5D1A00076B1300005E1A000B68C0F8C4
:10366800F830704710B52DED048B82B004469FEDFD
:10367800209AB0EE408AADF8041000220199F7EEC6
:10368800008A01F0D5F9B0EE490A204601F0F4F9B4
:10369800204601F003FAC8EE887A4FF07C539FED7C
:1036A800150A04F11C0084ED0A8A236284ED0C9A41
:1036B80084ED090A0090C4ED0B7A09F067F8F0EE82
:1036C800007A40F201120423009884ED0D0AB0EE4E
:1036D800670AC4ED088AA4F840202377C4ED097A64
:1036E80009F054F884ED0D0A02B0BDEC048B10BD4E
:1036F800000000000000C84210B5044680ED090A29
:103708001C3009F043F884ED0D0A10BD0023036353
:10371800704700BF10B504461C3008F055FEB7EEE0
:10372800007AF6EE007A204630EE070A20EE270AE5
:1037380001F0A2F92046BDE8104001F0AFB900BF82
:1037480001F09AB990F84100704700BF70B582B097
:1037580000F1140604460430ADF800201D46ADF80B
:103768000410009901F0F2F930469FED090A002291
:10377800019901F05DF9002330469FED060A84F8AF
:103788003050237002B0BDE8704001F075B900BF39
:1037980000001643000000000378143083F0010392
:1037A80000F8143C1BB1B7EE000A01F065B99FEDB3
:1037B800020A01F061B900BF0000000038B500F14D
:1037C80014050446284601F069F9201D01F0DAF9CC
:1037D80094F83030012B17D0022B09D003B138BD33
:1037E800637A7F2BFBD12046BDE83840FFF7D4BF72
:1037F800637AFF2B13D0002328469FED0D0A237010
:10380800BDE8384001F038B9627AFF2AF3D028467B
:103818002370B7EE000ABDE8384001F02DB9012346
:103828002846B7EE000A2370BDE8384001F024B9F5
:103838000000000000787047407AA0F17F00B0FADD
:1038480080F04009704700BF407AA0F18000B0FACC
:1038580080F04009704700BF143001F00DB900BF77
:1038680003480023034A04494361036208F0B4BFD4
:10387800BC09002400000024A50600080B4A40F2F9
:1038880007110B4B02604FF4877243600623C18413
:103898004285037480F8293070B40224054E064D21
:1038A80080F82540C0E9026570BC70470007050034
:1038B800010508050905070506050A061F2882B03F
:1038C80009D8084B03EB400213F81030507843EA4C
:1038D800002002B0704701230C2043EA002002B008
:1038E800704700BF38D20008143001F083B800BF19
:1038F800143001F07BB800BF38B500F11405044658
:103908002DED028B284601F063F8284601F06EF889
:103918002846B0EE408A01F057F8D0ED007AF8EE6C
:10392800677A88EE277ABDEC028B84ED0E7A38BD73
:10393800F0B51A4D91B000210446079505F10075C0
:103948004FF44170002201230326012705F5407535
:103958000691029106A9ADF8240002A80895302521
:10396800CDE90C23CDE90E23CDE90A6702F0ACFBC3
:1039780040F601334FF07E56ADF80430019800F060
:103988004DF80323029A03A904F114000596CDE922
:10399800035300F0E5FF11B0F0BD00BF04020404BA
:1039A80030B504462DED028B83B089B3012240F275
:1039B80001130092ADF80430694604F1300002F0BA
:1039C800B1FD204600F04CF8E01C01F019FF04F1AD
:1039D800250001F019FE04F1140504F1290001F095
:1039E80013FE2046FFF7A4FF284600F0FFFF2846F5
:1039F800B0EE408A00F0E8FFD0ED007AF8EE677A82
:103A080088EE277A84ED0E7A03B0BDEC028B30BDC8
:103A180040F201130091ADF80430CDE710B584B041
:103A280003460124ADF8040003A8ADF80C30ADF846
:103A38000E4001F0E9FD214603A801F0CFFE204623
:103A480002F08CFC03A8002101F0C8FE204602F019
:103A580085FC214603A801F0C1FE04B010BD00BFDB
:103A68002DE9F043444C8BB0A063037823B10025C3
:103A780028460BB0BDE8F083404A0A2300260127F8
:103A8800626008220893202302A9201DC4E9026766
:103A9800C4E9042340264FF4C07700224FF40063A2
:103AA800C4E90667C4E908234FF4805600270222B8
:103AB8000723C4E90A67CDE9022304260322002369
:103AC8000827CDE90623CDE9046707F06FFD054611
:103AD80000284CD14FF001084FF0100901260027AB
:103AE80002A94FF480520190201DCDE902894FF0C0
:103AF80002084FF01009CDE9046707F081FD642042
:103B080002F060FE02A94FF48052201DCDE904673F
:103B1800CDE9028904264FF003084FF01009002769
:103B280007F06EFD02A94FF48052201DCDE904670D
:103B3800CDE9028907F064FD40F232234FF0010C11
:103B4800042601931027019B02A94FF48052201DDF
:103B5800CDE904C3CDE9026707F052FD201D40F608
:103B6800060107F06DFD28460BB0BDE8F08301257E
:103B780028460BB0BDE8F083000A002440410052FB
:103B8800694A2DE9F04315688FB015B10FB0BDE84B
:103B9800F083664B01210C24002611600327D3F81B
:103BA800D4204FF683784FF0020908A942F48052D6
:103BB8005F48C3F8D420D3F8D42002F4805200928E
:103BC800009AD3F8E02042F01002C3F8E020D3F8BE
:103BD800E02002F010020192019AD3F8E02042F0AE
:103BE8004002C3F8E020D3F8E02002F0400202923D
:103BF800029AD3F8E02042F00802C3F8E020D3F894
:103C0800E02002F008020392039AD3F8E02042F47D
:103C18008072C3F8E020D3F8E02002F480720492A6
:103C2800049AD3F8E02042F08002C3F8E020D3F8E9
:103C3800E02002F080020592059AD3F8E02042F0D5
:103C48002002C3F8E020D3F8E02002F02002069218
:103C5800069AD3F8E02042F00402C3F8E020D3F833
:103C6800E0300C9403F004030793079BCDE90A673F
:103C7800CDE9088904F0B6FB48F23712022308A9F7
:103C88002C480C94DFF8C080CDE90A67CDE90823F9
:103C980004F0A8FB4CF20372022308A926480C94EE
:103CA800CDE90A67CDE9082304F09CFB40F2FF62E6
:103CB800022308A921480C94CDE90A67CDE9082315
:103CC80004F090FB4FF60C72022308A91C480C94D0
:103CD800CDE90A67CDE9082304F084FB4FF63F02DB
:103CE800022308A917480C94CDE90823CDE90A67EF
:103CF80004F078FBD8F83800013002F0EBFCD8F873
:103D080038300646581C02F0EDFC02220746032311
:103D180008A930460C9408970B93CDE9092504F0BF
:103D280061FB0FB0BDE8F083F80900240044025895
:103D38000010025800180258000C025800200258BF
:103D4800001C025800140258000A00242DE9F04F04
:103D5800DFF8288406460D46144608F114002DEDB8
:103D6800028B89B000AF02F09FFAD8F814305BB329
:103D7800D8F818304269002B0BBF022304234FF0F8
:103D880008094FF01009FB61D8F804304BB3A100C3
:103D9800E946012A01F1070121F00701ADEB010D08
:103DA8006846ADEB010D694600F04281022A00F039
:103DB800DB80002A74D022469847CD462437BD467A
:103DC800BDEC028BBDE8F08FD8F81830002BF5D089
:103DD80002234FF008094269FB61D8F80430002B30
:103DE800D5D1D8F80030BA617B61002BE6D06B469C
:103DF800DA4808EE103A02F09FFA8646F869BA697E
:103E0800022800F08E816B46C7F810903969A3EB41
:103E1800C4039D466300E946B3FBF0F3A9EBC40C69
:103E2800C7F8189009EB830AB869E546ADEB010DB0
:103E38000CEB8301EB46F9603969C7F810A00AEB6F
:103E4800830AADEB010DCBF80000F9680AEB83009B
:103E5800E94601EB8301CBF80C00386901EB8303D9
:103E6800C9F800C0CBE9010AF868C9E90213C9F822
:103E78000400012A00F08283022A00F07C82002AD2
:103E880000F086816208494658467B69984718EED3
:103E9800103A24379D46BD46BDEC028BBDE8F08F35
:103EA800002C88D098ED0B6A864606F1040CDFEDED
:103EB800B66A36F922A00EF1080E07EE10AA3CF9F0
:103EC80022A0023207EE90AAB8EEC77A9442F8EE22
:103ED800E77A27EE267A67EEA67A27EE067A67EE65
:103EE800867A0EED027A4EED017AE2D8F961224621
:103EF80098479B4EF9690020D8ED046A2B1D9FED69
:103F0800A37A9FED986ADFED985A22E0F4EEC67A1C
:103F1800F1EE10FAC0F2EF8447F6FE72D1ED017AA5
:103F280045F8202066EEA77AF4EEC77AF1EE10FA8B
:103F380040F2F580F4EEC67AF1EE10FAC0F2FC8495
:103F480047F6FE7243F820200230083184427FF69B
:103F580034AFD1ED007A66EEA77AF4EEC77AF1EEC7
:103F680010FAD3D83246D9E7002C3FF424AF98EDA5
:103F78000B6A8646002206F1040CDFED7C6A06EB2C
:103F8800820A0EF1080E9AED007A0CEB820A0232D0
:103F9800DAED007AB8EEC77A9442F8EEE77A27EEBF
:103FA800267A67EEA67A27EE067A67EE867A0EED0F
:103FB800027A4EED017AE2D8F961224698476C4EB2
:103FC800F9690020D8ED046A2B1D9FED707ADFF89F
:103FD800B0C19FED646A20E0F4EEC67AF1EE10FA03
:103FE800C0F2A2843246D1ED017A45F8202066EE6F
:103FF800A77AF4EEC77AF1EE10FA40F28E80F4EE6A
:10400800C67AF1EE10FAC0F28784324643F82020CF
:104018000230083184427FF6D0AED1ED007A66EEE8
:10402800A77AF4EEC77AF1EE10FAD5D86246DAE745
:10403800002C3FF4C0AE06F1040CFD6198ED0B6A4C
:104048001D46834663464FF0000ADFED4A6AB446D0
:104058005CF82A200BF1080B53F82A600AF1020ACF
:1040680082F4000286F4000E5445A2F5000207EE21
:10407800102AAEF5000207EE902AB8EEC77AF8EEDD
:10408800E77A27EE267A67EEA67A27EE067A67EEB3
:10409800867A0BED027A4BED017AD9D82B46FD6969
:1040A8002246F9619847344EF9690020D8ED046A30
:1040B8002B1D9FED367ADFF8CCC09FED2A6A1FE0F2
:1040C800F4EEC67AF1EE10FAC0F21E843246D1ED53
:1040D800017A45F8202066EEA77AF4EEC77AF1EE69
:1040E80010FA18D9F4EEC67AF1EE10FAC0F2FB8392
:1040F800324643F820200230083184427FF65DAE14
:10410800D1ED007A66EEA77AF4EEC77AF1EE10FAEE
:10411800D6D86246DBE76246EBE7624676E7324688
:1041280010E7A3006008073323F00703ADEB030D86
:10413800EC46ADEB030DEA46ADEB090D0CEB800345
:10414800C7F818C0EB46ADEB090D0AEB80003B61E0
:10415800E946CBE900C3C9E900A08AE6540A00246D
:104168000280FFFF04FF7F3F00FEFF460000003093
:104178000082FF7F0000003482FF7F003C0A002499
:10418800007E00807E0080FF0000003804FF7FBFB3
:10419800002C00F0EC82F969D8F82030022900F0F0
:1041A8001B8303EB8E0ADBF80C104FEA8E03C7F86B
:1041B80000B006F1040C5FED0C5A7B60DBF80830A8
:1041C800D7F818E0FB600AF10403C7F818909B467B
:1041D800D7F81090B9603D613CF9221036F92230C9
:1041E80006EE901A3AF9221006EE103A98ED0B5A9C
:1041F80007EE101AF8EEE66AB8EEC66A3BF9221026
:10420800B8EEC77A530807EE901A66EEA56A26EE4E
:10421800256AF96827EE257A09EB8300F8EEE77A34
:104228000EEB830526EE056A01EB830127EE057A7E
:10423800023266EE856A67EEA57A85ED006A9442D9
:10424800C0ED006A81ED007A98ED0B7AB86867EEE8
:10425800877A00EB8303C3ED007ABDD8D7F800B0A6
:10426800D7F818903D69620849467B6958469847CF
:10427800D8F8283079680022D8ED046A1944D9F8AA
:1042880000E0D9F804C02B1D01F104088A461FED8F
:10429800417AC7F81880B14E9FEDB16ADFEDB15A87
:1042A800D7F81C8052E0F4EEC67AF1EE10FAC0F2AC
:1042B800DC8247F6FE7B0CEB010045F822B0D0ED1E
:1042C800007A66EEA77AF4EEC77AF1EE10FA4CD9C6
:1042D800F4EEC67AF1EE10FAC0F2D08247F6FE701C
:1042E800B8F1020F43F822002CD0D9F8080008448E
:1042F800D0ED007A66EEA77AF4EEC77AF1EE10FAFE
:1043080037D9F4EEC67AF1EE10FAC0F2E38247F636
:10431800FE7BD9F80C004AF822B00144D1ED007AAE
:1043280066EEA77AF4EEC77AF1EE10FA1FD9F4EE2A
:10433800C67AF1EE10FAC0F2C58247F6FE71B86986
:1043480040F82210023294427FF6A1AD51080EEBDC
:1043580081008900D0ED007A66EEA77AF4EEC77A7C
:10436800F1EE10FA9FD8B346A5E73046B8E73146D4
:10437800E5E7B346CDE7002C00F0F981FA69D8F8F3
:104388002030022A00F0FA8103EB8E0ADBF80830AD
:10439800C7F800B006F1040CFB604FEA8E030AF17F
:1043A8000402DFED715A7B60DBF80C309346D7F8D6
:1043B80018E0BB600023C7F81890D7F810903D614B
:1043C80056F823105A0898ED0B5A07EE901A5CF825
:1043D800231009EB8200B8EEE76A07EE901A5AF844
:1043E80023100EEB8205F8EEE76A07EE901A0BEB46
:1043F800830126EE256A0233B8EEE77AD1ED007A1A
:1044080066EEA56AF968F8EEE77A9C4227EE257A07
:1044180001EB820126EE056A66EE856A27EE057ACB
:1044280067EEA57A85ED006AC0ED006A81ED007A35
:1044380098ED0B7AB86867EE877A00EB8202C2EDD6
:10444800007ABDD8D7F800B0D7F818903D6958461B
:10445800620849467B699847D8F82830796800226D
:10446800D8ED046A19442B1DD9F800C08B460431D5
:10447800D9F80480C7F814B09FED3F7AD7F81CB07C
:10448800DFF8ECE09FED366A384EB961FB6150E029
:10449800F4EEC67AF1EE10FAC0F20682304608EB66
:1044A800010A45F82200DAED007A66EEA77AF4EE02
:1044B800C77AF1EE10FA4BD9F4EEC67AF1EE10FA9B
:1044C800C0F2F9813046FB69BBF1020F43F82200C4
:1044D8002BD0D9F808000844D0ED007A66EEA77A08
:1044E800F4EEC77AF1EE10FA36D9F4EEC67AF1EEA8
:1044F80010FAC0F2D2813046D9F80CA07B69514439
:1045080043F82200D1ED007A66EEA77AF4EEC77A76
:10451800F1EE10FA1ED9F4EEC67AF1EE10FAC0F2F6
:10452800B5813146BB6943F82210023294427FF6C6
:10453800AEAC51080CEB81008900D0ED007A66EE34
:10454800A77AF4EEC77AF1EE10FAA1D87046A6E77A
:104558007046B8E77146E5E77046CDE70280FFFF91
:1045680004FF7F3F00FEFF46000000300082FF7F0F
:10457800007E00800000003404FF7FBF002C00F0A4
:10458800F680D8F820304FEA8E02BD60002103EB98
:104598008E0E06F1040C1FED096A0EF104003D6948
:1045A800D7F818A0FA60C7F8189056F821204FEAF3
:1045B80051095CF8213082F40002D8ED0B6A83F4CB
:1045C8000003A2F50002A3F5000307EE102A05EB8D
:1045D800890207EE903A0AEB8903B8EEC77A4FEAE8
:1045E8008909F8EEE77A27EE067A67EE867A27EEEB
:1045F800267A67EEA67A83ED007AFB69C2ED007A27
:10460800022B27D05EF8212050F8213082F40002D6
:1046180083F40003A2F50002A3F5000307EE902A35
:10462800DBF80820B8EEE77A07EE903A4A44DBF860
:104638000C30F8EEE77A27EE067A4B4467EE867A76
:1046480027EE267A82ED007A98ED0B7A67EE877A64
:10465800C3ED007A02318C42A7D8D7F81890584693
:1046680062087B694946BD689847D8F82830F968D8
:104678000022D8ED046A19442B1DD9F800C08B46D6
:104688000431D9F80480C7F814B01FED457AD7F87B
:104698001CB0DFF8C8E29FEDAD6AAD4EB961FB61B1
:1046A80050E0F4EEC67AF1EE10FAC0F2C28030465D
:1046B80008EB010A45F82200DAED007A66EEA77ADF
:1046C800F4EEC77AF1EE10FA4BD9F4EEC67AF1EEB1
:1046D80010FAC0F2BC803046FB69BBF1020F43F808
:1046E80022002BD0D9F808000844D0ED007A66EEF5
:1046F800A77AF4EEC77AF1EE10FA36D9F4EEC67A54
:10470800F1EE10FAC0F2AA803046D9F80CA07B6905
:10471800514443F82200D1ED007A66EEA77AF4EE10
:10472800C77AF1EE10FA1ED9F4EEC67AF1EE10FA55
:10473800C0F286803146BB6943F8221002329442A7
:104748007FF6A5AB51080CEB81008900D0ED007A0B
:1047580066EEA77AF4EEC77AF1EE10FAA1D87046A1
:10476800A6E77046B8E77146E5E77046CDE722460A
:10477800494658467B699847FFF789BB98ED0B6A0D
:10478800002306F1040CDFED736AB869D7F810A0AE
:1047980006EB83020CEB830192ED007A5A08D1ED07
:1047A800007A0233B8EEC77A00EB8201F8EEE77AB6
:1047B8000AEB82029C4227EE267A67EEA67A27EE5B
:1047C800067A67EE867A81ED007AC2ED007ADFD844
:1047D8004FEA8E037B603AE698ED0B6A06F1040C0B
:1047E800DFED5D6AB869D7F810A036F922303CF9D8
:1047F800221007EE103A530807EE901A0232B8EE6C
:10480800C77A00EB8301F8EEE77A0AEB8303944258
:1048180027EE267A67EEA67A27EE067A67EE867A7C
:1048280081ED007AC3ED007ADFD84FEA8E037B6012
:1048380019E5F0EE675AFEEEE45A15EE900A37E7EE
:10484800F0EE675AFEEEE45A15EE901A73E7F0EEB2
:10485800675AFEEEE45A15EE900A3DE7F0EE675A05
:10486800FEEEE45A15EE900A4FE767EEA57AFDEEE4
:10487800E77A17EE900A0FFA80FB1CE567EEA57A37
:10488800FDEEE77A17EE900A00B229E5F0EE675AD6
:10489800FEEEE05A15EE901A44E6F0EE675AFEEE88
:1048A800E05A15EE900A27E6F0EE675AFEEEE05A57
:1048B80015EE900AF3E5F0EE675AFEEEE05A15EEB3
:1048C800900A00E667EEA57AFDEEE77A17EE901AF1
:1048D80009B234E567EEA57AFDEEE77A17EE900A9D
:1048E8000FFA80FB15E5F0EE675AFEEEE45A15EE76
:1048F800902AFFF7FEBB67EEA57AFDEEE77A17EE82
:10490800902A12B2FFF70ABBF0EE675AFEEEE45A9D
:1049180015EE902AFFF7DBBBF0EE675AFEEEE05A81
:1049280015EE902AFFF772BBF0EE675AFEEEE05ADA
:1049380015EE902AFFF757BB67EEA57AFDEEE77AEA
:1049480017EE902A12B2FFF7FDBA00BF04FF7F3FAF
:1049580082FF7F0000000030000000387E0080FFEA
:1049680070B5164C154684B0046004F1080601AB16
:1049780007C986E80700D4ED047AF5EEC07A83E823
:104988000700F1EE10FA15DDF7EE006A86EEA77A59
:1049980084ED0B7A75B1204640F8145F01F084FC71
:1049A8000346074A00201969064BE160E261636229
:1049B80004B070BD012004B070BD00BF3C0A0024E3
:1049C800002000300000003000680830704700BF49
:1049D800B1F5806F03680A4628BF4FF48062B1F5CD
:1049E800806F9A6094BF00200120704700681430DF
:1049F80001F090BC70B5046882B0084E0D46A368FB
:104A080004F11400626AE1699B00009601F04EFC13
:104A18000020C4E9000502B070BD00BF553D000884
:104A2800024B0022C3E90522704700BF3C0A00245C
:104A380030B52DED028B83B0044601231546ADF841
:104A480004101730BDF80410B0EE408A0180637678
:104A580000F0DAFDB5FA85F3002100225B0925751F
:104A680084ED048AA5756375A160C4E9002203B0CA
:104A7800BDEC028B30BD00BF20EE007ADFED067A78
:104A880027EE000A60EE277A80ED020AFCEEE77A4C
:104A9800C0ED017A704700BF00FF7F4790ED046AC0
:104AA800B7EE007ADFED0E5A0346D0ED036AC5EE85
:104AB800867A77EEA67AF4EEC77AF1EE10FAC8BFD6
:104AC80077EEC77A90ED027AB4EEE77AC0ED037A12
:104AD8001730F1EE10FACCBF597D997D00F07EBEFB
:104AE8000000F042B7EE007AA3F10103B3FA83F3B2
:104AF800C7EE007A5B0930B482B00025ADF8041027
:104B0800002183719DF81030BDF80440012B02701C
:104B1800C560A0F801404171C170C0ED027A08D0AB
:104B2800022B0DD001230130C37002B030BC00F05D
:104B38006BBD02230130C37002B030BC00F064BD0D
:104B48000171013002B030BC00F05EBDB7EE007AF2
:104B580001220346C7EE007A70B4002683B0C1F381
:104B680007250024ADF80410C660417010449D70FC
:104B7800DC701A709A809A71C3ED027A03B070BC27
:104B880000F042BD38B544790546837901306400A8
:104B980064B2B3B100F014FEB0FA80F35B092343AA
:104BA800DBB2A3F17F026B71012A0ED9FF2B07D16B
:104BB800D5ED037A95ED027A77EE877AC5ED037A1B
:104BC80038BD00F0FDFD43B2E9E70023EB6038BDD6
:104BD80082B000230322ADF80410BDF804108270DF
:104BE80001800374C37002B0704700BF70B483B013
:104BF8000325082A06ACADF804108570114634F870
:104C0800046B28BF0821ADF80030042ABDF8043031
:104C18002488BDF8005003804FF00003068185808A
:104C280084810174C37008D8022A10D802D10122E5
:104C3800C371827103B070BC70470122C371C37223
:104C4800C37382718272827303B070BC7047012291
:104C5800C371C3728271827203B070BC704700BFA7
:104C68002DE9F04FDB4F0026DB4C8FB007F13805FC
:104C7800426003709646A4F8096184460396069636
:104C8800BE61C4F8FD60C4F80161C4F80561C4F8E8
:104C98002461C4E94A75C7E90066C7E90266C7E93D
:104CA8000466C4E94366C4E94566C4E94766CDE9D4
:104CB8000466CDE90766CDE90966CDE90B6684F897
:104CC800FC20426884F80C62002A00F091820D46AC
:104CD8000868A0464968EB68AA683E80A8E80F0003
:104CE8002B7C88F800302B7C84F8FD302B7C002B43
:104CF80040F09F82DCF80430012B40F2B4812B464F
:104D0800B64A002153F8119F7980D3F804809E6831
:104D1800D868C4F81190C2F804809660D0601B7CF3
:104D2800137495F8213084F8FE3095F82130002B63
:104D380040F08382DCF80430022B40F294812B4649
:104D4800A74A002153F8229FB980D3F804809E68AF
:104D5800D868C4F82290C2F804809660D0601B7CA2
:104D6800137495F8323084F8FF3095F83230002B00
:104D780040F05B82DCF80430032B40F274812B4650
:104D8800984A002153F8339FF980D3F804809E682D
:104D9800D868C4F83390C2F804809660D0601B7C51
:104DA800137495F8433084F8003195F84330002B9C
:104DB80040F04782DCF80430042B40F25481A846C6
:104DC8000023894E58F8440F3B81D8F80410D8F8CE
:104DD8000C30D8F808200FC698F81030337095F8C2
:104DE800543084F8013195F8543013B1012384F814
:104DF8000C32DCF80430052B40F235812B467B4A17
:104E0800002153F8559F7981D3F804809E68D868AB
:104E1800C4F85590C2F804809660D0601B7C137467
:104E280095F8653084F8023195F8653013B101239F
:104E380084F80C32DCF80430062B40F214812B463F
:104E48006B4A002153F8669FB981D3F804809E68A5
:104E5800D868C4F86690C2F804809660D0601B7C5D
:104E6800137495F8763084F8033195F8763013B1D9
:104E7800012384F80C32DCF80430072B40F2F3806D
:104E88002B465C4A002153F8779FF981D3F80480B8
:104E98009E68D868C4F87790C2F804809660D0609D
:104EA8001B7C137495F8873084F8043195F88730A3
:104EB800002B40F0CA81DCF80430082B40F2D38084
:104EC800A84600234C4E58F8880F3B82D8F80410A7
:104ED800D8F80C30D8F808200FC698F8103033707E
:104EE80095F8983084F8053195F89830002B40F003
:104EF8001D82DCF80430092B40F2B5802B463F4A6E
:104F0800002153F8999F7982D3F804809E68D86865
:104F1800C4F89990C2F804809660D0601B7C137422
:104F280095F8A93084F8063195F8A930002B40F09F
:104F3800F981DCF804300A2B40F295802B46304A80
:104F4800002153F8AA9FB982D3F804809E68D868D4
:104F5800C4F8AA90C2F804809660D0601B7C1374D1
:104F680095F8BA3084F8073195F8BA30002B40F03C
:104F7800D581DCF804300B2B75D92B46214A00214A
:104F880053F8BB9FF982D3F804809E68D868C4F8A8
:104F9800BB90C2F804809660D0601B7C137495F8AF
:104FA800CB3084F8083195F8CB30002B40F0A8813D
:104FB800DCF804300C2B56D9A8460023124E58F8BA
:104FC800CC0F3B83D8F80410D8F80C30D8F8082058
:104FD8000FC61BE000400030700A0024810A00243C
:104FE800920A0024A30A0024B40A0024C50A002453
:104FF800D60A0024E70A0024F80A0024090B002432
:105008001A0B00242B0B00243C0B002498F81030BA
:10501800337095F8DC3084F8093195F8DC3013B139
:10502800012384F80C32DCF804300D2B1BD92B46F5
:10503800C64A002153F8DD9F7983D3F804809E681F
:10504800D868C4F8DD90C2F804809660D0601B7CF4
:10505800137495F8ED3084F80A3195F8ED3013B1F2
:10506800012384F80C325FFA8EF2B9484FF480219C
:105078000023C4F848210122C4F830010820C4F8EC
:10508800341194F80C12C4F8383184F84431C4E966
:105098005533C4E94F20002900F0BD8084F845311C
:1050A80084F84C21C4F85C219CF8003000200021D1
:1050B800C4E95801F3B101220021013B84F86821B9
:1050C800C4E95D12082B0ED8DFE813F009001E01B1
:1050D8002301D100D600DB00E000C300CA0003238F
:1050E8004022C4E95B329B4801F0ACFF034648B15B
:1050F800FFBEFEE7974884F8683101F0A3FF034636
:105108000028F5D103A99348039302F0F7F8054660
:10511800002840F0F38040F2FF73022204200021AF
:10512800CDE9082394F8FC30CDE90A01002B00F002
:10513800E2800627DFF848B221E0022B00F0AC80BD
:10514800012B40F0FB809AF80130012B00F0F4802D
:10515800002B814B18BF002306A97E4806930797AA
:1051680001F094FB002840F0E580013594F8FC300C
:10517800EDB2AB4240F2BF80784B53F825700FFA7E
:1051880085F808EB081804EB080A504600F03CFACA
:1051980005EB051323441B7C042B00F3AA80022B88
:1051A80000F3A58000F084806319002283F8EE20C4
:1051B80014F80830002BC0D19AF80130062B00F003
:1051C800E380072B00F0DE80022B00F0BD80032B6C
:1051D80000F0B880002B00F0B380012B00F0D680DF
:1051E800042B00F0D580052B5D4B18BF0023B3E7D7
:1051F8005FFA8EF3564D4FF480200121C4F84831F0
:105208000823C4F8382184F84421C4E95522C4E9A4
:105218004C50C4E94F1301210022032384F845119F
:1052280084F84C21C4F85C313EE7012384F80C3241
:10523800A0E5012384F80C325CE5012384F80C32E4
:1052480078E5012384F80C32B4E5012384F80C32A4
:1052580031E640F2FF134FF49072C4E95B3242E743
:1052680040F2FF334FF4A072C4E95B323BE71F23DF
:10527800A022C4E95B3236E73F23C022C4E95B328F
:1052880031E77F23E022C4E95B322CE7FF234FF4A8
:105298008072C4E95B3226E79AF80130042B24D0E7
:1052A800052B20D0EBB1012B2E4B18BF002353E761
:1052B8000121631908F10409002201971E462F46AF
:1052C800A144154683F8EE104846013500F09CF9D4
:1052D80096F8EE3009F10409AB42F5DC3D46019F32
:1052E80066E7214B38E7214B36E7214B34E70221AB
:1052F800DFE70321DDE70FB0BDE8F08FFFBEFEE773
:10530800012384F80C3253E607236022C4E95B3298
:10531800E9E60F238022C4E95B32E4E6012384F83E
:105328000C3226E6012384F80C3202E6012384F8C5
:105338000C32DEE5FFBEFEE75B460DE700230BE718
:105348000C4B09E70C4B07E70C4B05E74D0B00240A
:1053580000200240A00B00240002B02578D20008EB
:105368000000B84F0008302E0004002A00018021F8
:105378001000C010000021430080F03E0040C03AF9
:105388002000F014034BE7E6034BE5E6034BE3E6A6
:10539800034BE1E68000501D0800900C00005247C6
:1053A8000000844B38B5094C40F2FF724FF00111F0
:1053B80004F59875284601F04FFF284694F8FC201C
:1053C800D4F82811BDE8384001F0B4BC700A0024B4
:1053D800064B0D29D3F8283198BF03EB41031B88EE
:1053E80000EE103ABBEEC80A704700BF700A0024EE
:1053F800064B0D29D3F82C3198BF03EB011333F872
:10540800123000EE103ABBEEC80A7047700A00244A
:10541800224B02689A4200D07047214B0920002194
:10542800D3F8D820F0B51F4C42F02002002583B0F5
:1054380094F80C624FF48067C4F8B451C4F8B851BA
:10544800AE42C3F8D82004F5CA75D3F8D83014BFD3
:1054580000224FF48072144E03F02003C4F89461C4
:1054680000260193019B4FF40053C4F8B0214FF478
:105478000062C4E966012846C4E96867C4E96A238A
:1054880002F05EF908B1FFBEFEE704F59873C4F8B0
:105498007C51C4F8CC3103B0F0BD00BF00200240FD
:1054A80000440258700A002440000240014802F0FB
:1054B80039BC00BF040C002402682DE9F84F4C4B9E
:1054C8009A4201D0BDE8F88F4A4E96F80C32002B6C
:1054D800F8D096F8FC20002A76D00024371D06F56F
:1054E800867506F1FC09A04616E05FFA83FA03F018
:1054F800010119F80FBC384600F070F9381DBBF1EE
:10550800010FCAF3400123D896F8FC200134113763
:105518000235A3B29A4227D919F8013F002BF5D0DA
:10552800D6F828210021D6F82C3132F814008A4602
:105538002A7803EB041323F812002B8801339BB25B
:105548002B8099F800209A42CFD8A5F80080D0E7A0
:1055580000F044F9BBF1020F07F10800CAF380011B
:10556800D2D000F03BF9CFE796F80C224FF00908AB
:105578004FF00009204B002A4FF000044FF48065DB
:105588004FF400604FF4005114BF00224FF48072B2
:10559800C6F89431C6E96689C6E96845C6E96A016C
:1055A80000231648C6E96C23C6F8B83102F0C8F8DB
:1055B80008B1FFBEFEE796F8FC20D6F8281110487F
:1055C800BDE8F84F01F0B6BB0B4B092400250020BD
:1055D8004FF480614FF400684FF40059C6F89431D5
:1055E800C6E96645C6E96801C6E96A89D8E700BF21
:1055F80000200240700A002440000240040C0024ED
:10560800A00B0024704700BF30B583788FB00446E4
:10561800022B37D0032B33D0012B31D000230A9330
:10562800E378012B2AD0022B28D000230B930023E8
:1056380020460C9301F04EF80546204601F052F83A
:1056480023780990082B13D8DFE803F01F32455858
:105658006B7E91A40500594BD3F8E02042F4807288
:10566800C3F8E020D3F8E03003F480730893089B74
:10567800284609A902F0B6FE0FB030BD0B93D6E755
:105688000A93CDE711230A93CAE74C4B284609A988
:10569800D3F8E02042F00102C3F8E020D3F8E0306C
:1056A80003F001030093009B02F09CFE0FB030BD95
:1056B800424B284609A9D3F8E02042F00202C3F879
:1056C800E020D3F8E03003F002030193019B02F0DD
:1056D80089FE0FB030BD394B284609A9D3F8E02020
:1056E80042F00402C3F8E020D3F8E03003F00403EA
:1056F8000293029B02F076FE0FB030BD2F4B284676
:1057080009A9D3F8E02042F00802C3F8E020D3F852
:10571800E03003F008030393039B02F063FE0FB02D
:1057280030BD264B284609A9D3F8E02042F01002E4
:10573800C3F8E020D3F8E03003F010030493049B8F
:1057480002F050FE0FB030BD1C4B284609A9D3F813
:10575800E02042F02002C3F8E020D3F8E03003F064
:1057680020030593059B02F03DFE0FB030BD134B9F
:10577800284609A9D3F8E02042F04002C3F8E02007
:10578800D3F8E03003F040030693069B02F02AFEAC
:105798000FB030BD094B284609A9D3F8E02042F0E4
:1057A8008002C3F8E020D3F8E03003F080030793C9
:1057B800079B02F017FE0FB030BD00BF004402582F
:1057C80038B5054600F086FF0446284600F08AFFF3
:1057D80001462046BDE8384002F0F6BF70B50646DF
:1057E8000D4600F077FF0446304600F07BFF2A1E86
:1057F8000146204618BF0122BDE8704002F0EABF0A
:105808002DE9F04FA44C0346ABB0204623655F78E2
:1058180093F8008003F066F9E8B9012F4FF001050D
:105828009E49034614BF4FF480124FF40002E06013
:10583800A560C4E9001592FAA2F2B2FA82F24FF416
:105848008076E0612046013A2362C4E9042603F029
:10585800DDF8034618B101202BB0BDE8F08F4FF0FA
:10586800660C41F2883220460EA9149617931393BA
:105878001B93CDF838C0CDE91533CDE9193303F0C2
:105888004FF90028E7D1992341F288320EA9204622
:105898000E9303F045F90028DDD14FF0000B4FF0CF
:1058A800010C4FF0050A4FF08079249008AA219046
:1058B8001CA9299041F28833CDF870A0CDF89490B6
:1058C800CDE908BC4FF0100B4FF0010CCDE90ABC34
:1058D8004FF0000B4FF4800CCDE92260CDE9270092
:1058E8002046CDE90CBC03F087FA0028B3D1ADF807
:1058F80008001390CDE91460CDE91609CDE91850D8
:10590800CDE91A00002F00F0CB80F023ADF8083065
:10591800C02341F288320EA95F480E9303F000F9C4
:10592800002898D141F288325B4802A903F062F955
:10593800044600288FD1002601274FF480754FF0C8
:1059480080794FF0000A4FF4800B219441F288339C
:10595800299408AA1CA950482295CDF89490CDE91D
:105968000867CDE9234410260127CDE927440524FB
:10597800CDE90A671C94CDE90CAB03F03DFA002889
:105988007FF469AF012406238DF8070041F28832BD
:1059980013901CA91B90219029900E941C93CDE97B
:1059A8001450CDE91609CDE91900CDE92250CDE909
:1059B8002400CDE92700384803F0B2F800287FF426
:1059C8004AAF10260127052041F2883308AA1CA9EE
:1059D8001C903148CDF89490CDE90A670226022739
:1059E800CDE90CABCDE9086703F006FA00287FF48F
:1059F80032AF41F288320EA9274803F091F8002807
:105A08007FF429AF402341F288320DF10701224883
:105A18008DF8073003F0EEF800287FF41CAF10264D
:105A28000127052002AA41F288330EA90E901A48D0
:105A3800CDF85C90CDE9046740264027CDE906AB58
:105A4800CDE9026703F0D8F9064600287FF403AFD2
:105A58002295002521960520299601271C9008AA41
:105A680041F288331CA90C48CDF89490CDE92366FF
:105A7800CDE927660126CDE908561026CDE90CABFD
:105A8800CDE90A6703F0B8F900287FF4E4AEB8F16D
:105A9800000F50D00020DFE6800C00240050005298
:105AA800612341F288320EA920460E9303F038F89C
:105AB80000287FF4D0AE41F2883202A9204603F0D4
:105AC80017F900287FF4C7AEBDF8083006252590E1
