:020000040800F2
:10000000000002205506000851060008CD830008B4
:1000100051060008510600085106000800000000C3
:100020000000000000000000000000005106000871
:100030005106000800000000510600085183000826
:100040005106000851060008510600085106000834
:100050005106000851060008510600085106000824
:10006000510600085106000851060008697F000883
:10007000757F000871640008817F00088D7F00088B
:1000800051060008596A0008510600085106000888
:1000900051060008510600085106000851060008E4
:1000A00051060008510600085106000851060008D4
:1000B0005106000851060008510600088D6A000824
:1000C00051060008996A0008510600085D0D0108F4
:1000D00051060008510600085106000851060008A4
:1000E00051060008510600080000000051060008F3
:1000F000510600085106000851060008690D010864
:100100005106000851060008510600085106000873
:100110005106000851060008510600085106000863
:100120005106000851060008510600085106000853
:100130005106000851060008510600085106000843
:1001400000000000000000000000000000000000AF
:100150005106000851060008510600085106000823
:10016000A56A00085106000861830008858300081D
:1001700051060008A983000851060008510600082E
:1001800051060008510600085106000851060008F3
:1001900051060008510600085106000851060008E3
:1001A00051060008510600085106000851060008D3
:1001B000897C000851060008510600085106000815
:1001C00051060008510600085106000851060008B3
:1001D00051060008510600085106000851060008A3
:1001E0005106000851060008510600085106000893
:1001F0005106000851060008510600085106000883
:100200005106000851060008510600085106000872
:100210005106000851060008510600085106000862
:1002200051060008510600085106000800000000B1
:1002300051060008510600080000000051060008A1
:100240005106000851060008510600085106000832
:100250005106000851060008510600085106000822
:100260005106000851060008510600085106000812
:100270005106000851060008510600080000000061
:100280005106000851060008510600080000000051
:08029000000000005106000807
:1002980010B5054C237833B9044B13B10448AFF3B8
:1002A80000800123237010BDD80100240000000045
:1002B800783D010808B5034B1BB103490348AFF368
:1002C800008008BD00000000DC010024783D010822
:1002D80081F0004102E000BF83F0004330B54FEAEF
:1002E80041044FEA430594EA050F08BF90EA020F5C
:1002F8001FBF54EA000C55EA020C7FEA645C7FEAEF
:10030800655C00F0E2804FEA5454D4EB5555B8BF11
:100318006D420CDD2C4480EA020281EA030382EA82
:10032800000083EA010180EA020281EA0303362D14
:1003380088BF30BD11F0004F4FEA01314FF4801CE7
:100348004CEA113102D0404261EB410113F0004FF9
:100358004FEA03334CEA133302D0524263EB4303B0
:1003680094EA050F00F0A780A4F10104D5F1200E4E
:100378000DDB02FA0EFC22FA05F2801841F10001A9
:1003880003FA0EF2801843FA05F359410EE0A5F17D
:1003980020050EF1200E012A03FA0EFC28BF4CF0AE
:1003A800020C43FA05F3C01851EBE37101F0004564
:1003B80007D54FF0000EDCF1000C7EEB00006EEB71
:1003C8000101B1F5801F1BD3B1F5001F0CD34908FB
:1003D8005FEA30004FEA3C0C04F101044FEA445252
:1003E80012F5800F80F09A80BCF1004F08BF5FEAD9
:1003F800500C50F1000041EB045141EA050130BDB9
:100408005FEA4C0C404141EB0101013C28BFB1F5CA
:10041800801FE9D291F0000F04BF01460020B1FA15
:1004280081F308BF2033A3F10B03B3F120020CDAE8
:100438000C3208DD02F1140CC2F10C0201FA0CF0C6
:1004480021FA02F10CE002F11402D8BFC2F1200C2B
:1004580001FA02F120FA0CFCDCBF41EA0C019040E1
:10046800E41AA2BF01EB0451294330BD6FEA04042A
:100478001F3C1CDA0C340EDC04F11404C4F1200215
:1004880020FA04F001FA02F340EA030021FA04F327
:1004980045EA030130BDC4F10C04C4F1200220FA7E
:1004A80002F001FA04F340EA0300294630BD21FABC
:1004B80004F0294630BD94F0000F83F4801306BF82
:1004C80081F480110134013D4EE77FEA645C18BF76
:1004D8007FEA655C29D094EA050F08BF90EA020F0D
:1004E80005D054EA000C04BF1946104630BD91EA05
:1004F800030F1EBF0021002030BD5FEA545C05D108
:100508004000494128BF41F0004130BD14F5800446
:100518003CBF01F5801130BD01F0004545F0FE41BA
:1005280041F470014FF0000030BD7FEA645C1ABFEF
:10053800194610467FEA655C1CBF0B46024650EA26
:10054800013406BF52EA033591EA030F41F4002152
:1005580030BD00BF90F0000F04BF0021704730B5D8
:100568004FF4806404F132044FF000054FF00001AD
:1005780050E700BF90F0000F04BF0021704730B56E
:100588004FF4806404F1320410F0004548BF404243
:100598004FF000013EE700BF42004FEAE2014FEA98
:1005A80031014FEA02701FBF12F07F4393F07F4F73
:1005B80081F06051704732F07F4208BF704793F076
:1005C8007F4F04BF41F40021704730B54FF4607489
:1005D80001F0004521F000411CE700BF50EA01028C
:1005E80008BF704730B54FF000050AE050EA010235
:1005F80008BF704730B511F0004502D5404261EBA5
:1006080041014FF4806404F132045FEA915C3FF4E5
:10061800D8AE4FF003025FEADC0C18BF03325FEA82
:10062800DC0C18BF033202EBDC02C2F1200300FA33
:1006380003FC20FA02F001FA03FE40EA0E0021FA58
:1006480002F11444BDE600BFFEE700BF0D4B0E4AA1
:10065800934206D00D4951F8040B43F8040B93421A
:10066800F9D10B4B0B4A934204D0002143F8041BE9
:100678009342FBD108F076F812F090FF01F0BAFB34
:10068800FEE700BF00000024D40100249C3D0108BF
:10069800D8010024902A0024704700BF704700BF8B
:1006A800704700BF704700BF704700BF704700BF6A
:1006B800704700BF704700BF704700BF704700BF5A
:1006C800704700BF704700BF704700BF704700BF4A
:1006D8005D4B5E49F0B5A3F1840585B0284600223C
:1006E80043F8042B8B42FAD10022594C02261346B8
:1006F8002A602E5100220133002440F8042F0A6892
:1007080004649A42F6D8534B5349A3F18406304601
:10071800002243F8042B8B42FAD100224C4C0227CA
:1007280013463260375100220133002440F8042F69
:100738000A6804649A42F6D8484C0820484F8DED60
:10074800010A3D6046F2A815266004F0C1F8034688
:100758009DED010A3846ADF80830029903F05AFABF
:10076800092004F0B5F8034620463E4CADF80C309D
:1007780003999DED010A03F04DFA3B4A45F6C05036
:1007880004F1180339492561A050002243F8042BCD
:100798008B42FAD1364846F2A811334D45F6C05679
:1007A8000161002146510435324E00F118036155AC
:1007B800E160314D6161A1552A60C4E901112F49F9
:1007C800002243F8042B8B42FAD12D490023DFED98
:1007D8002D6AD1ED017A9FED2C6A36EEE77A2B4D22
:1007E80067EE867A234E4355B0EEC77A284DC3602C
:1007F8004361B4EEE77A83550C602A60F1EE10FA93
:10080800C0E90133234B186004DD234DC1ED016AB3
:1008180022602561D3ED017ADFED1A6A9FED1A6A2D
:1008280036EEE77A67EE867AB0EEC77AB4EEE77A04
:10083800F1EE10FA05DD0021174AC3ED016A0160E7
:10084800026105B0F0BD00BF5CB7B2C05C2F1CC12F
:1008580084786900D43E49C0D4B6B2C0A409002443
:100868008C080024289F24C0189F2400403E49C0BB
:10087800000000C0249F2400483E49C0189F24C09F
:10088800C40A002400409C470AD7A33B1C9F2400AD
:10089800209F24C0CC0A00248038010010B5022211
:1008A8000721764805F082FD7549764B0A68764837
:1008B8000132007883FB0243D417C4EB631303EBC4
:1008C8004303A2EB8313714A0B6080BB11780029A4
:1008D80038D06F4C6F491070207081ED000A6E4956
:1008E800F7EE006AF6EE005A6C4A91ED007AB0EE27
:1008F800006AD2ED007A36EEC77A37EE657AE7EE0F
:10090800067AF5EEC07AF1EE10FA00F1B180F4EE55
:10091800667AF1EE10FA76FEA77A93B9604BB0EEDC
:10092800670A60481978BDE8104003F065BB137882
:10093800002B3CD101245C485C491470037081EDA4
:10094800000A10BD524A117879B952499FED587A78
:10095800D1ED007A70EE677AF0EEE77AF4EEC77AB6
:10096800F1EE10FABBDD012111704B4AB7EE007AA7
:10097800B6EE006AD2ED007AF0EE006A77EE677A9A
:1009880077EEC67AB0EE406AA7EEA66AB5EEC06A00
:10099800F0EE467AF1EE10FA6DD4F4EE477AF1EE05
:1009A80010FA77FE277A3D4A82ED000AB5E73E4BFA
:1009B8001A787AB93D4A9FED3E7AD2ED007A70EE08
:1009C800677AF0EEE77AF4EEC77AF1EE10FAB8DD5E
:1009D80001221A7001209FED371ADFED370A02F065
:1009E800C5FF364BDFED326AD3ED017A30EE677A18
:1009F80067EEA67AB0EEC77AB4EEE77AF1EE10FAAF
:100A08000DDDFCEEC07A2E4C1968002083ED010A3A
:100A180017EE902A0860A24228BF22460A61294B95
:100A2800DFED236AD3ED017A30EE677A67EEA67AB6
:100A3800B0EEC77AB4EEE77AF1EE10FA0DDDFCEE0F
:100A4800C07A1F4C1968002083ED010A17EE902A1E
:100A58000860A24228BF22460A611B4901221B4B9B
:100A680081ED000ABFF35B8F1A70BFF35B8F10BD77
:100A7800DFED177A51E7DFED167A94E7B405002425
:100A880030080024ABAAAA2AF50A00243408002456
:100A98002C08002420080024BC0A00242408002470
:100AA800F60A00248C0800242D08002428080024B5
:100AB8000AD7A33B0050C34600606A48C40A002412
:100AC800BF270900CC0A0024F4010024F40A0024FA
:100AD8000000000010B50622072169482DED028BA1
:100AE80005F064FC6749684B0A6868480132007879
:100AF80083FB0243D417C4EB631303EB4303A2EB5A
:100B08008313634A0B6090BB117800293CD0614C79
:100B180061491070207081ED000A6049F7EE006AA3
:100B2800F6EE005A5E4A91ED007AB0EE006AD2ED18
:100B3800007A36EEC77A37EE657AE7EE067AF5EE92
:100B4800C07AF1EE10FA00F18C80F4EE667AF1EEDC
:100B580010FA76FEA77AA3B9524BB0EE670A52484C
:100B68001978BDEC028BBDE8104003F045BA137844
:100B7800002B3ED101244D484D491470037081ED7E
:100B8800000ABDEC028B10BD424A117879B942497E
:100B98009FED487AD1ED007A70EE677AF0EEE77A49
:100BA800F4EEC77AF1EE10FAB7DD012111703B4A75
:100BB800B7EE007AB6EE006AD2ED007AF0EE006A7F
:100BC80077EE677A77EEC67AB0EE406AA7EEA66A45
:100BD800B5EEC06AF0EE467AF1EE10FA44D4F4EEBF
:100BE800477AF1EE10FA77FE277A2D4A82ED000A4D
:100BF800B1E72E4B1A787AB92D4A9FED2E7AD2EDAD
:100C0800007A70EE677AF0EEE77AF4EEC77AF1EEE2
:100C180010FAB6DD01221A70F0EE080A00209FEDE6
:100C2800261A02F0A3FEB8FE400AFCEEC07A17EEC0
:100C3800903A013BDBB2022B19D9B7EE008AB0EE2D
:100C4800480A1E4802F0DAFF1D491E4B012281EDB9
:100C5800018ABFF35B8F1A70BFF35B8FBDEC028B09
:100C680010BDDFED157A76E7DFED137ABDE7164A9A
:100C780002EBC30393ED008BB7EEC88BDFE700BF31
:100C8800B405002448080024ABAAAA2AF50A0024BF
:100C98004C080024450800243C080024C00A00240D
:100CA80040080024F60A0024A4090024440800246B
:100CB800380800240AD7A33B0000000020020024C3
:100CC800F4010024F40A002438360108012207211F
:100CD800654810B52DED028B05F068FB634B644A3F
:100CE8001B78002B3DD11178002947D06148624913
:100CF8001370037081ED000A604AF7EE006AF6EEA1
:100D0800005A5F4B92ED007AB0EE006AD3ED007A9C
:100D180036EEC77A37EE657AE7EE067AF5EEC07AF0
:100D2800F1EE10FA00F19A80F4EE667AF1EE10FA1C
:100D380076FEA77AB0EE670A0020B7EE041ADFED58
:100D4800510A02F013FE504B9FED507AD3ED007A12
:100D580030EE670ABDEC028BE0EE077AC3ED007A4D
:100D680010BD1378002B3ED101244948494914701D
:100D7800037081ED000ABDEC028B10BD3D4B1A7863
:100D88007AB93D4A9FED447AD2ED007A70EE677ADF
:100D9800F0EEE77AF4EEC77AF1EE10FAACDD012254
:100DA8001A70364BB7EE007AB6EE006AD3ED007AC9
:100DB800F0EE006A77EE677A77EEC67AB0EE406AB0
:100DC800A7EEA66AB5EEC06AF0EE467AF1EE10FA22
:100DD80047D4F4EE477AF1EE10FA77FE277A284BDB
:100DE80083ED000AA6E72A4B1A787AB9294A9FEDBB
:100DF8002A7AD2ED007A70EE677AF0EEE77AF4EEAE
:100E0800C77AF1EE10FAB6DD01221A709FED231AA7
:100E18000120DFED230A02F0A9FDB0EE408A214847
:100E280011F026FC2048B0EE480A11F021FCB0EE83
:100E3800480A1E4811F01CFCB0EE480A1C4811F084
:100E480017FC1C491C4B012281ED048ABFF35B8F00
:100E58001A70BFF35B8FBDEC028B10BDDFED097A12
:100E680068E7DFED087ABAE7B4050024F50A00243C
:100E78000E0800240D08002404080024DC0A0024BD
:100E88000808002400000000D80A00246F12033D5F
:100E98000C080024000800240AD7A33B000048449B
:100EA8000000C842000600244C060024FC0300246D
:100EB80050040024F4010024F40A00240422072129
:100EC800654810B52DED028B05F070FA634B644A46
:100ED8001B78002B3DD11178002947D06148624921
:100EE8001370037081ED000A604AF7EE006AF6EEAF
:100EF800005A5F4B92ED007AB0EE006AD3ED007AAB
:100F080036EEC77A37EE657AE7EE067AF5EEC07AFE
:100F1800F1EE10FA00F19A80F4EE667AF1EE10FA2A
:100F280076FEA77AB0EE670A0020B7EE041ADFED66
:100F3800510A02F01BFD504B9FED507AD3ED007A19
:100F480030EE670ABDEC028BE0EE077AC3ED007A5B
:100F580010BD1378002B3ED101244948494914702B
:100F6800037081ED000ABDEC028B10BD3D4B1A7871
:100F78007AB93D4A9FED447AD2ED007A70EE677AED
:100F8800F0EEE77AF4EEC77AF1EE10FAACDD012262
:100F98001A70364BB7EE007AB6EE006AD3ED007AD7
:100FA800F0EE006A77EE677A77EEC67AB0EE406ABE
:100FB800A7EEA66AB5EEC06AF0EE467AF1EE10FA30
:100FC80047D4F4EE477AF1EE10FA77FE277A284BE9
:100FD80083ED000AA6E72A4B1A787AB9294A9FEDC9
:100FE8002A7AD2ED007A70EE677AF0EEE77AF4EEBC
:100FF800C77AF1EE10FAB6DD01221A709FED231AB6
:101008000120DFED230A02F0B1FCB0EE408A21484E
:1010180011F02EFB2048B0EE480A11F029FBB0EE83
:10102800480A1E4811F024FBB0EE480A1C4811F08B
:101038001FFB1C491C4B012281ED058ABFF35B8F06
:101048001A70BFF35B8FBDEC028B10BDDFED097A20
:1010580068E7DFED087ABAE7B4050024F50A00244A
:101068001E0800241D08002414080024E40A002493
:101078001808002400000000E00A00246F12033D55
:101088001C080024100800240AD7A33B00803B4614
:101098000080BB4498060024E4060024A40400242D
:1010A800F8040024F4010024F40A002400000000DD
:1010B80005220721824810B52DED028B05F076F93F
:1010C800804B814A1B78B3BB1178002940D07F48F8
:1010D8007F491370037081ED000A7E4AF7EE006ABB
:1010E800F6EE005A7C4B92ED007AB0EE006AD3ED32
:1010F800007A36EEC77A37EE657AE7EE067AF5EECD
:10110800C07AF1EE10FA00F1C180F4EEE67AF1EE61
:1011180010FA40F3C680B7EE000A704B9FED707A64
:10112800D3ED007A30EE670ABDEC028BE0EE077A69
:10113800C3ED007A10BD1378002B58D101246948FB
:1011480069491470037081ED000ABDEC028B10BD73
:101158005E4B1A787AB95E4A9FED647AD2ED007ACE
:1011680070EE677AF0EEE77AF4EEC77AF1EE10FAED
:10117800B3DD01221A70574BB7EE007AB6EE006A5B
:10118800D3ED007AF0EE006A77EE677A77EEC67AEA
:10119800B0EE406AA7EEA66AB5EEC06AF0EE467AEF
:1011A800F1EE10FA75D4F4EEC77AF1EE10FA75DDA7
:1011B800F0EE477AB7EE006B474B83ED000A9FEDE0
:1011C8003A5BB4EEC56BF1EE10FAA4DA9FED385B2A
:1011D800B4EEC56BF1EE10FA58D9B0EE670A0020EC
:1011E800B7EE001ADFED420A02F0C0FB95E73D4B6F
:1011F8001A787AB93C4A9FED3D7AD2ED007A70EEC2
:10120800677AF0EEE77AF4EEC77AF1EE10FA9CDD31
:1012180001221A70B6EE001ADFED350A002002F03E
:10122800A5FBB0EE408A334811F086FA3248B0EE9A
:10123800480A11F081FAB0EE480A304811F07CFAF9
:10124800B0EE480A2E4811F077FAB0EE480A2D4859
:1012580011F072FAB0EE480A2B4811F06DFAB0EEB0
:10126800480A2A4811F068FAB0EE480A284811F0EE
:1012780063FA2849284B012281ED068ABFF35B8F68
:101288001A70BFF35B8FBDEC028B10BD9FED180A7F
:1012980043E79FED096BDFED167A8DE7B7EEE76A56
:1012A8008AE7B7EEE76A8AE75C8FC2F5285CEF3F0A
:1012B8007B14AE47E17A943F000000000000000074
:1012C800B4050024F50A0024F0070024E8070024E8
:1012D800E0070024D40A0024E407002404000024C2
:1012E8006F12833CDC070024EC0700240AD7A33BD9
:1012F8000000000098060024E406002400060024EC
:101308004C060024A4040024F8040024FC03002450
:1013180050040024F4010024F40A0024072263483E
:10132800114610B52DED028B05F040F8604BB0EE7C
:10133800408A604A1B78002B3ED11178002948D09A
:101348005D485E491370037081ED000A5C4AB7EE90
:10135800007AB6EE006A5B4BD2ED007AF0EE006AD6
:1013680093ED000A77EE677A77EEC67AA7EEA60ABB
:10137800B5EEC00AF1EE10FA00F19180B4EE470A1A
:10138800F1EE10FA37FE000AF6EE000A00209FED93
:101398004E1A02F0EBFA4D4B9FED4D7AD3ED007AE1
:1013A8004C4A30EE670ABDEC028BE0EE077AC3EDDB
:1013B800007AC2ED007A10BD1378002B43D10124C6
:1013C800454846491470037081ED000ABDEC028B54
:1013D80010BD394B1A787AB9384A9FED417AD2ED67
:1013E800007A70EE677AF0EEE77AF4EEC77AF1EEFB
:1013F80010FAABDD01221A70314BB7EE007AB6EE67
:10140800006AD3ED007AF0EE006AB0EE480A77EE93
:10141800677A77EEC67AA7EEA60AB5EEC00AF1EEAD
:1014280010FA3FD4B4EE470AF1EE10FA37FE000A7C
:10143800F6EE000A00209FED241A02F097FA214BDD
:1014480083ED008AA7E7244B1A787AB9234A9FEDDF
:10145800247AD2ED007A70EE677AF0EEE77AF4EE4D
:10146800C77AF1EE10FAB1DD01221A70B0EE480A1F
:1014780000209FED1C1ADFED140A02F077FA1A48D3
:1014880001221A491A4B80ED000A81ED020ABFF3C6
:101498005B8F1A70BFF35B8FBDEC028B10BD9FEDA5
:1014A8000A0A71E79FED080AC2E700BFB4050024E5
:1014B800F50A0024D6070024D4070024D8070024FE
:1014C800400B0024CC070024000000000800002482
:1014D8006F12033D44050024D5070024D0070024DB
:1014E8000AD7A33B0000FA43D4020024F4010024E5
:1014F800F40A002400220721454810B52DED028B7F
:1015080004F054FF434BB0EE408A434A1B78FBB9C2
:10151800117849B3414842491370037081ED000ABC
:10152800404BB7EE001A0020DFED3F0A93ED000AAA
:1015380002F01CFA3D4B9FED3E7AD3ED007A30EE77
:10154800670ABDEC028BE0EE077AC3ED007A10BDA6
:1015580013784BBB0124374837491470037081ED69
:10156800000ABDEC028B10BD2C4B1A787AB92C4AB4
:101578009FED327AD2ED007A70EE677AF0EEE77A74
:10158800F4EEC77AF1EE10FACADD01221A70B7EE4E
:10159800001A0020B0EE480ADFED230A02F0E6F94F
:1015A800204B83ED008AC5E7224B1A787AB9224A84
:1015B8009FED227AD2ED007A70EE677AF0EEE77A44
:1015C800F4EEC77AF1EE10FACBDD01221A701C4C4A
:1015D800B0EE480AB2EE041A0020DFED1A0A02F053
:1015E800C5F92046B0EE408A84ED020A11F0E6FA09
:1015F8001549164B012281ED038A84ED060ABFF3D3
:101608005B8F1A70BFF35B8FBDEC028B10BD00BF00
:10161800B4050024F50A0024750800247408002481
:101628006C080024700800240000000088080024CA
:101638006F12033D68080024640800240AD7A33BFE
:10164800D8050024CDCCCC3DF4010024F40A0024B4
:1016580003220721464810B52DED028B04F0A6FEA3
:10166800444BB0EE408A444A1B78FBB9117849B321
:10167800424843491370037081ED000A414BB7EEAD
:10168800001A0120DFED400A93ED000A02F06EF91E
:101698003E4B9FED3F7AD3ED007A30EE670ABDEC02
:1016A800028BE0EE077AC3ED007A10BD13784BBBCE
:1016B8000124384838491470037081ED000ABDECE4
:1016C800028B10BD2D4B1A787AB92D4A9FED337ACB
:1016D800D2ED007A70EE677AF0EEE77AF4EEC77A28
:1016E800F1EE10FACADD01221A70B7EE001A0120D5
:1016F800B0EE480ADFED240A02F038F9214B83EDF9
:10170800008AC5E7234B1A787AB9234A9FED237AD2
:10171800D2ED007A70EE677AF0EEE77AF4EEC77AE7
:10172800F1EE10FACBDD01221A70DFED1D7AB4EE6E
:10173800E78AF1EE10FA0FD51A4B00221A701A49EF
:1017480001221A4B81ED078ABFF35B8F1A70BFF332
:101758005B8FBDEC028B10BDDFED157AB4EEE78A26
:10176800F1EE10FAEBDD0F4B01221A70E7E700BF2C
:10177800B4050024F50A00245E0800245D0800244E
:10178800540800245808002400000000E80A002437
:101798006F12033D5C080024500800240AD7A33BBD
:1017A8006666E63EDC020024F4010024F40A002404
:1017B800CDCC0C3F08B50621064804F0E7FD002013
:1017C8009FED051ADFED050A02F0D0F8044B83ED12
:1017D800000A08BDB405002400004843000048C3BF
:1017E800EC0A002438B5154A154C164D164B94EDE5
:1017F800007AD5ED007A92ED006AD3ED006A36EEF4
:10180800476ADFED125A76EEE76A1148A6EE257AA6
:10181800E6EEA57A84ED007AC5ED007A10F0ECFFCB
:1018280095ED007AD4ED007A0A4AE0EE077A0A4B81
:10183800C2ED3A7AC3ED3A7A38BD00BFEC0A00240B
:10184800C0070024C4070024D40200240AD7233C7C
:10185800D80500248C080024A409002410B5124CD3
:10186800124823680133236004F06CFA00B910BDF4
:1018780021680F4802F040F910B90023236010BD19
:101888000B4802F0ADF90B4802F08CFC084802F056
:10189800BDF909490122094B81ED080ABFF35B8FA5
:1018A8001A70BFF35B8FE8E7C807002468020024BA
:1018B80020020024F80A0024F4010024F40A002479
:1018C80008B5064802F060F9054B044883ED440A60
:1018D80002F05AF9034B83ED440A08BD20020024A4
:1018E8008C080024A409002410B5054C054821786B
:1018F80002F0B2FA21780448BDE8104002F0ACBA10
:10190800F60A00248C080024A4090024184808B505
:1019180002F056FC164802F097FCD0B9154B1B682C
:10192800134AB1EE086A07EE903ADFED136AD2ED7A
:101938000C5AF8EEE77A114985EE867A104A114B6F
:10194800A7EEA67A81ED437A82ED437A83ED007A99
:1019580008BD08490C4B0A68013283FB0203A3EB5C
:10196800E27303EB4303A2EB43030B60D8E700BF2A
:10197800F80A002460080024920A863F8C08002494
:10198800A4090024D8020024ABAAAA2A9FEDDA7A77
:10199800D0ED007AF4EEC77A38B5F1EE10FA0446C5
:1019A800D64BC0F232819FEDD67AF4EEC77AF1EECB
:1019B80010FA00F22A8193ED017A9FEDD26A77EE50
:1019C800C76A27EE067AF0EEE66AF4EEC76AF1EE29
:1019D80010FA0FDDBCEEE77ACB4D19680020C3ED95
:1019E800017A17EE102A0860D4ED007AAA4228BFBF
:1019F8002A460A61C54B9FEDC36A93ED017A77EEDB
:101A0800C76A27EE067AF0EEE66AF4EEC76AF1EEE8
:101A180010FA00F3D381F7EE007A94ED010AB4EEE0
:101A2800E70AF1EE10FA06DBF0EE087AB4EEE70A00
:101A3800F1EE10FA01D9B7EE000AB54802F0DEF867
:101A4800D4ED027AF5EEC07AF1EE10FAC0F2B38165
:101A5800DFEDB06A9FEDB07AF4EEE67AF1EE10FAB7
:101A680088BFF0EE477A94ED030A9FEDAC7AAC4B51
:101A7800B4EEC70AAB4DC3ED007AF1EE10FA06DBFF
:101A8800F2EE047AB4EEE70AF1EE10FA01D99FED0E
:101A9800A60A284685ED020A11F090F8DFEDA37A30
:101AA80085ED060A94ED050AB4EEE70AF1EE10FAA0
:101AB80007DBDFED9F7AB4EEE70AF1EE10FA40F2A9
:101AC80067819FED9B0A9B4810F0D2FD9FED980A15
:101AD800994810F0CDFD9FED960A984810F0C8FD82
:101AE8009FED930A964810F0C3FD94ED040ADFEDCC
:101AF800957AB4EEE70AF1EE10FA07DBDFED927A99
:101B0800B4EEE70AF1EE10FA40F2E3809FED8F0A97
:101B18008F4810F0ADFD9FED8D0A8E4810F0A8FD9E
:101B28009FED8A0A8C4810F0A3FD9FED880A8B4828
:101B380010F09EFD94ED060AB5EEC00AF1EE10FA1B
:101B480007DBF6EE007AB4EEE70AF1EE10FA40F29F
:101B580099809FED710A794810F0EEFD9FED6E0AAD
:101B68007D4810F0E9FD9FED6C0A754810F0E4FD22
:101B78009FED690A794810F0DFFDD4ED077A9FEDF3
:101B8800787A784BF4EEC77AF1EE10FA06D49FED26
:101B9800767AF4EEC77AF1EE10FA70DC00221A7049
:101BA80094ED080ADFED717AB4EEE70AF1EE10FA67
:101BB80006DBDFED6F7AB4EEE70AF1EE10FA01D931
:101BC8009FED6C0A524802F01DF8514802F008F8DF
:101BD800694802F0E7FADFED697A94ED097A684816
:101BE800B4EEE77AF1EE10FA42DD02F0A9FBDFED80
:101BF800637A94ED0A7A6348B4EEE77AF1EE10FA64
:101C080039DDBDE8384002F09BBBD3ED017ADFED4A
:101C18005E6A9FED3C6A36EEE77A67EE867AB0EE4A
:101C2800C77AB4EEE77AF1EE10FA06DD1A680021F9
:101C38005648C3ED016A10611160344BDFED526AFA
:101C4800D3ED017A9FED2F6A36EEE77A67EE867A52
:101C5800B0EEC77AB4EEE77AF1EE10FA7FF7DBAEB2
:101C68001A6800214948C3ED016A10611160D2E683
:101C780002F06EFBBBE7BDE8384002F069BB012209
:101C88001A708DE72B4810F057FD94ED060A30487E
:101C980010F052FD94ED060A274810F04DFD94ED22
:101CA800060A2C4810F048FD94ED060A234810F067
:101CB80043FD94ED060A284810F03EFD94ED060A0F
:101CC8001F4810F039FD94ED060A244810F034FD41
:101CD80053E71F4810F0CCFC94ED040A1D4810F09F
:101CE800C7FC94ED040A1C4810F0C2FC94ED040AE9
:101CF8001A4810F0BDFC1DE70050C346C40A002472
:101D080000606A480AD7A33BBF270900CC0A002411
:101D1800200200240000FA4300000000CDCCCC3D96
:101D2800D4020024D80500249A99A1400080BB441D
:101D380000803B4698060024E4060024A4040024FE
:101D4800F80400240000C84200004844000048434A
:101D5800000600244C060024FC0300245004002440
:101D68006666E63EDC020024CDCC0C3F00007044E1
:101D780000A08C480080BB46F80A002448E1FA3EDF
:101D8800E0020024100300240065014894050200C5
:101D9800124810F06DFC94ED050A114810F068FC2B
:101DA80094ED050A0F4810F063FC94ED050A0E48FF
:101DB80010F05EFC99E6DFED0D7A54E6BCEEE77AAA
:101DC8000B4D19680020C3ED017A17EE102A086040
:101DD800AA4228BF2A460A611DE600BF98060024C9
:101DE800E4060024A4040024F804002400000000F1
:101DF800BF27090080B5DB48D4B002F067FD002199
:101E0800D848B2EE0E8A02F005FE1D2002F060FDF1
:101E1800034606200224ADF80C3002F059FD0346B3
:101E2800D0484FF00108D04EADF8103002F06AFDEE
:101E3800012380EE080ACD484FF07C59CC4DCD4F98
:101E4800F7EE008ADDE9031202F002FA1E2002F022
:101E58003FFD03460720ADF8143002F039FD034674
:101E6800C048ADF8183002F04DFD012380EE080A95
:101E7800C148DDE9051202F0EBF90A2002F028FD5D
:101E880003460220ADF81C3002F022FD0346B54897
:101E9800ADF8203002F036FD002380EE080AB7487E
:101EA800DDE9071202F0D4F90B2002F011FD034618
:101EB8000320ADF8243002F00BFD0346A948ADF825
:101EC800283002F01FFD002380EE080AAC48DDE947
:101ED800091202F0BDF9182002F0FAFC03460420AA
:101EE800ADF82C3002F0F4FC03469E48ADF83030D3
:101EF80002F008FD234680EE080AA248DDE90B122D
:101F080002F0A6F9002002F0E3FC03469548ADF87C
:101F1800343002F0F7FC0D9980EE080A4246434639
:101F28009948009403F07CFF404602F0D1FC034638
:101F38008C48ADF8383002F0E5FC424680EE080ADD
:101F48000E9943469148009403F06AFF172002F067
:101F5800BFFC03468348ADF83C3002F0D3FC0F9930
:101F680080EE080A8A4803F087FF8A498A4803F006
:101F7800E1FE7C4802F0C6FC304641469FED878A68
:101F880010F038F9304600EE109A414610F0A2F9E8
:101F9800214630469FED820A10F09CF93046042114
:101FA80000EE109A10F096F96E48C6ED008A02F01D
:101FB800A9FC284641467B4E10F01CF9284600EE45
:101FC800109A414610F086F9214628469FED740A7A
:101FD80010F080F92846042100EE109A10F07AF9E2
:101FE8006048C5ED008A02F08DFC304641466E4DD2
:101FF80010F000F930469FED6A0A414610F06AF980
:10200800214630469FED660A10F064F930460421F7
:102018009FED630A10F05EF95248C6ED008A02F09F
:1020280071FC28464146614E10F0E4F828469FEDC1
:102038005C0A414610F04EF9214628469FED580AA1
:1020480010F048F928469FED560A042110F042F98D
:102058005749584A584BC1F8009081F80480C2F893
:10206800009082F80480C3F8009083F804803D480B
:10207800C5ED008A02F046FC504CFEF729FB3948B2
:1020880002F040FC4E4810F06DFAB0EE480A4C4899
:1020980010F052FB9FED4B0A494810F0E9FA9FED0A
:1020A8004A0A474810F08EFB2E4802F02BFC47489E
:1020B80010F058FAB0EE480A444810F03DFB9FED86
:1020C800410A424810F0D4FA9FED3F0A3F4810F009
:1020D80079FB244802F016FC3D4810F043FAB0EEB4
:1020E800480A3B4810F028FB9FED3A0A384810F0A0
:1020F800BFFA9FED350A364810F064FB194802F024
:1021080001FC354810F02EFAB0EE480A324810F0BB
:1021180013FB9FED300A304810F0AAFA9FED2A0A07
:102128002D4810F04FFB0F4802F0ECFB2B4810F045
:1021380019FAB0EE480A294810F0FEFA9FED210A74
:10214800264810F095FA9FED200A244810F03AFB33
:10215800044802F0D7FB224810F004FAB0EE480A0F
:1021680040E000BF9C05002494030024A40200243E
:10217800C4030024D805002474020024E0020024CB
:102188001003002464030024400300244C030024AB
:102198005803002470020024680200240000000094
:1021A8000AD7233C6007002430070024780800245D
:1021B8005C0500246405002444050024F40A002476
:1021C8009806002400803B463333333FE40600245E
:1021D80000060024000048434C060024A404002400
:1021E800F8040024AA4810F0A7FA9FEDAA0AA84804
:1021F80010F03EFA9FEDA80AA54810F0E3FAA748A8
:1022080002F080FBA64810F0ADF9B0EE480AA448E9
:1022180010F092FA9FEDA30AA14810F029FA9FED59
:102228009E0A9F4810F0CEFA9C4802F06BFB9E482D
:1022380010F098F9B0EE480A9B4810F07DFA9FED2F
:10224800990A994810F014FA9FED930A964810F0ED
:10225800B9FA924802F056FBF0EE407A9FED930AE5
:102268003846C7F8049088EEA77AC7ED037A87ED59
:10227800058A87ED020A8E4D87ED047A10F09EFCE0
:1022880040F20113F0EE407A384687F80080BB84AC
:10229800B0EE680AC7ED067AC7ED028A10F08EFC28
:1022A800F0EE407A834A44F62061B7EE040A182318
:1022B8008148C7ED018AC7ED067A01F0AFFB182007
:1022C8001CAF02F005FB03467448ADF8403002F03D
:1022D80019FB1099794801F01BFF774801F080FC41
:1022E800764801F05FFF754801F066FF1CA802F010
:1022F8009BF81CA8FFF74AFBDFF8CCC10FCFACE86E
:102308000F000FCFACE80F0097E807008CE8070034
:102318000F2002F0DDFA034632A8ADF844301199D7
:1023280003F0E2FD102002F0D3FA03460DF1D900C4
:10233800ADF84830129903F0D7FD112002F0C8FA21
:1023480003460DF1EA00ADF84C30139903F0CCFDCB
:10235800122002F0BDFA03460DF1FB00ADF8503033
:10236800149903F0C1FD132002F0B2FA034643A802
:10237800ADF85430159903F0B7FD142002F0A8FA0F
:1023880003460DF21D10ADF85830169903F0ACFD58
:10239800162002F09DFA03460DF59770ADF85C30F3
:1023A800179903F0A1FD192002F092FA03460E20B6
:1023B800ADF8603002F08CFA03460D20ADF86430B9
:1023C80002F086FA03460C20ADF8683002F080FA75
:1023D800BDF868100822199BADF80010ADF804008C
:1023E8001899ADF86C000DF23F1003F08BFD32A97F
:1023F80006230822324803F0BFFD314803F0B0FF3E
:102408004146264802F082FA2E49244802F076FA1C
:10241800BFF35B8F237800210122BFF35B8F4BB1A1
:10242800BFF35B8F2170BFF35B8F2A7005F0CCFF81
:102438003060EDE72B78012B0BD0022BE8D105F0AB
:10244800C3FF33680022C01AB0F5966FE0D92A702E
:10245800DEE705F0B9FF3368C01AB0F57A7F01D816
:102468002B78EAE7DFF860C027AF4FF0020EBCE830
:102478000F000FC7BCE80F000FC79CE8070087E8EC
:10248800070027A885F800E001F082FFE8E700BF11
:10249800F804002400803B463333333F9C05002476
:1024A800FC03002400004843500400240000C842F4
:1024B800F10A0024808D5B0020020024F80A002421
:1024C800B405002425280008F401002408B59FED70
:1024D8001E0A1E4801F0B6FE9FED1B0A1C4801F0BB
:1024E800B1FE1C489FED180A01F0ACFE1A4801F035
:1024F80039FFC8B918489FED140A01F045FF17487D
:1025080001F030FFD0B99FED100A144801F03CFFEC
:102518009FED0D0A124801F037FF9FED0B0A114895
:10252800BDE8084001F030BF0B48B7EE000A01F0E3
:102538002BFF0A4801F016FF0028E4D0B7EE000A86
:10254800064801F021FFE3E700000000F80A002434
:1025580090080024A8090024E002002410030024A5
:10256800A40200247402002470B5984801F0ACFE5F
:10257800974801F0A9FE974801F0A6FE964C9748A7
:1025880001F0A2FE964801F09FFE204603F088FC69
:10259800944803F085FC944803F082FC63797F2B10
:1025A80000F0DC808F4B5B797F2B00F0BE80874882
:1025B8008E4C01F0D9FED0B123680133032B236080
:1025C80000F0E580814801F0CDFEF7EE007A9FED3E
:1025D800887A002887494FF00102874B47FE277AFF
:1025E800C1ED097ABFF35B8F1A70BFF35B8F774831
:1025F80001F0C2FE10B12368013B2360744801F06A
:10260800B3FED0B123680133032B236000F0C480EC
:102618006F4801F0A7FEF7EE007A9FED757A002863
:1026280074494FF00102744B47FE277AC1ED0A7ACC
:10263800BFF35B8F1A70BFF35B8F654801F09CFE98
:1026480010B12368013B2360654801F08DFE002826
:1026580055D1634801F090FE38B1236800226748DD
:10266800013B6749027023600A705D4801F07AFEF9
:1026780060B92368032B16D05B4B624A5B79A3F1E0
:10268800FF03B3FA83F35B09137070BD05F09CFE7A
:102698005D4B1B68C01A3228EBD9584B01221A70BF
:1026A8002368032BE8D1594E05F08EFE40F6B83367
:1026B8003268801A9842DFD9444801F0F3FD444853
:1026C80001F0F0FD524DFFF701FF4C4B002250483E
:1026D800484C1A70FFF75AF90FCD0FC40FCD0FC42D
:1026E80095E8070084E8070005F06EFE424B0122DA
:1026F8003060BFF35B8F1A70BFF35B8FBCE7454850
:1027080001F0AEF900284CD1434801F055FD05F021
:102718005BFE23683C4A01331060032B236098D189
:1027280005F052FE394B186093E7294801F0BAFDCD
:10273800274801F017FEF7EE007A9FED2D7A002862
:102748002C494FF001022C4B47FE277AC1ED0A7A3B
:10275800BFF35B8F1A70BFF35B8F28E71B4801F04C
:10276800A1FD1A4801F0FEFDF7EE007A9FED207AF0
:10277800002820494FF001021F4B47FE277AC1ED80
:10278800097ABFF35B8F1A70BFF35B8F0AE705F016
:102798001BFE1E4B186015E705F016FE1B4B186054
:1027A80036E71C4801F01CFA1B4801F0FBFC1948ED
:1027B80001F02CFA0F4901220F4B81ED080ABFF3F3
:1027C8005B8F1A70BFF35B8F9EE700BFE0020024A7
:1027D80010030024A40200244003002474020024EF
:1027E800640300244C03002458030024F407002445
:1027F80000000000F4010024F40A0024F50A002473
:10280800F00A0024F60A0024FC070024F807002434
:102818005036010820020024F80A00242DE9F04F60
:102828001B4D1C4B2C682DED108B99B0CDE9060182
:10283800611C059283FB0132CB170A44C3EBE20308
:10284800C3EB0313CB1A2B600E2B17D8DFE813F05A
:102858009B050F00A305AC05B505F605FF050806A1
:1028680011061A0623062C0635063E069205002197
:10287800094803F08BFD094B83ED000A059B002BEB
:1028880000F05A850023DFF81C90054E019358E1AB
:102898008408002489888888B4050024BC0A002498
:1028A800A807002490070024B8EE007AF4EE477ACF
:1028B800F1EE10FA48BFF0EE477AB0EE007A9DEDDF
:1028C8000D0ACDED0C7AB4EEC70AF1EE10FA00F35A
:1028D8007284B8EE007ADA4B1B78B4EE470AF1EE50
:1028E80010FA48BFB0EE470A8DED0D0A002B00F034
:1028F8006B84D44BD9ED042AD3ED004AD24B99ED21
:10290800006A93ED007AD14BF4EEC74AD6ED043A4B
:1029180096ED054A96ED032AF1EE10FA99ED053A7F
:1029280099ED031ADFEDCA1A58BF74EEC74A93ED42
:10293800007AC84BD3ED006A67EEA44AD6ED007A58
:10294800B4EEE67AC44BF1EE10FA58BF37EE667A69
:10295800F7EE006A20EE070A36EEE25A76EEE35A00
:1029680036EEC37A25EE065A93ED006A65EEA75A4D
:1029780076EEC47AA4EEA25AE0EE235A67EE827A83
:1029880027EE017A76EEC66A34EEC52A89ED005A3A
:1029980070EE652AC6ED005A66EE005AF0EEC23AAD
:1029A80089ED022AB0EEE25AC6ED022A26EE246A22
:1029B800A3EE837AC9ED013AE5EE047A86ED015A71
:1029C800E6EEA45AA6EE806AB4EEE17A89ED037ABF
:1029D800C6ED037AF1EE10FAC0F2EA8337EE617AB7
:1029E800F0EE086A27EE267ADFED996A964BF4EE48
:1029F800E67A83ED007AF1EE10FAC0F2D68377EE2C
:102A0800E67AB0EE087A67EE877A924B78EEA58A76
:102A180038EE066AC3ED007AF0EE007AF4EEE78A43
:102A2800F1EE10FA00F36384F8EE007AF4EE678AA8
:102A3800F1EE10FA48BFF0EE678AF0EE007ACDEDBD
:102A48000E8AB4EEE76AF1EE10FA00F34C84F8EE61
:102A5800007AB4EE676AF1EE10FA48BFB0EE676A22
:102A68000EA97E488DED0F6A01F002FA0FA97C4885
:102A780001F0FEF90DAA0CA97A480FF00BFD0CAA7B
:102A88000DA978488DED100A0FF004FDB0EE007A1C
:102A9800DDED107AF4EEC77AF1EE10FA00F32B842C
:102AA800B8EE007AF4EE477AF1EE10FA48BFF0EE8D
:102AB800477AB0EE007ACDED107AB4EEC70AF1EE9F
:102AC80010FA00F3D982B8EE007A5D4B1B78B4EEA9
:102AD800470AF1EE10FA48BFB0EE470A8DED110A29
:102AE800002B40F0D282604BF6EE006A93ED007A3C
:102AF800B4EEE67AF1EE10FA40F18F8237EE077AFB
:102B08009DED086ADDED096AA7EE276AE7EE006A1F
:102B1800F0EE467AB0EE660A544B1B78002B00F0B4
:102B28007182079B002102981A685B68024403447B
:102B380011601960019B059A01339A42019300F0D4
:102B4800FB83FEF78BFEDFF88881FEF74BFE9FEDD7
:102B580048AAFEF7B5FE474801F004FC014646487E
:102B6800F7EE00AA0FF03EFC4448B0EE40CA01F070
:102B7800F9FB014642480FF035FC019C4148B0EE94
:102B8800409AA300DFED409AF6EE028ADFF844A1EE
:102B9800029301F0E7FB01463C480FF023FC3C4858
:102BA800B0EE408A01F0DEFB01463A480FF01AFC0D
:102BB8000699394AF0EE407A0B68156803EB8402EF
:102BC8004B6805EB0800EF6892ED00FA03EB84030D
:102BD80090ED00BA05EB8702049030482BEE0A0A04
:102BE8008DED08FA7AEECBCAD3ED00BA80ED00CAB3
:102BF8002B482C4B80ED009A2B481B6880ED008AEF
:102C08002A4892ED06EA80ED008A2948294A80ED93
:102C1800008A2948136080ED008A2848284AC0EDB8
:102C2800007A28481360C0ED007A274A2748D5F86B
:102C380008B0C0ED007A136005EB8B014CE000BFD3
:102C4800DC020024D80A00247C080024E00A0024BE
:102C5800CDCCCC3E80080024880800248C080024B1
:102C6800A40900244405002404000024F00A0024D8
:102C7800DB0FC93FE0020024940300241003002462
:102C8800C403002474020024E4CB964030070024D7
:102C9800A402002460070024C40A00245C05002460
:102CA80064050024E80A0024F403002448040024EE
:102CB8006C0500244C050024740500249C040024A1
:102CC80054050024F00400248C0500247C0500240D
:102CD800209F2400C1270900D848D94AC0ED007AAE
:102CE8001360D1ED06EACDED09BA10F0F9F9B0EEAE
:102CF80040CA9FEDD49A2BEE290A10F0F1F9B0EEF4
:102D0800408A2CEE8A0A10F0EBF928EE098AACEE1C
:102D1800288AB0EE40CA2CEEA90A10F0E1F960EE5C
:102D2800097AC94BECEE287A1C6838EE088A08EB59
:102D38000401D4E90223D1ED00CA77EEA77A04EBA7
:102D4800820204EB83037AEEECAA2CEE8A0AD2ED17
:102D580006DA67EEAE7A93ED06DA0391EEEE087ABC
:102D6800CDED0A7A10F0BCF9B0EE40CA2CEEA90AF3
:102D780010F0B6F9B0EE408A2AEE8A0A10F0B0F9DF
:102D8800F0EE407A2AEEA90A28EE098AF0EE679A50
:102D980010F0A6F960EE097A6968ACEE288A8A44D0
:102DA80005EB8103E9EEA87AA849D5E904E20BEB23
:102DB800010C83ED06FAA64B0F44724438EE088ADC
:102DC80037EEA70AA3FB0C10A3FB0A81DFF89CB21D
:102DD8000132800C20EE2D0A890CA3FB07830BFB24
:102DE80011A1ADEE080A0BFB10C09B0CDFF880C2E6
:102DF80069600BFB13730EF1FF3BB2FBFEFA0EFB8F
:102E08001A228DED0B0A6A61A86055F80C00EB6078
:102E1800ABEB000B5A4540F2D4808E4AAF5CAB183E
:102E2800002F40F0D4808C4F4FF0010E013915F877
:102E380007C02F4405F802E0BCF1000F40F078828B
:102E4800E96007EE900AB7EE007AF8EE676AC7EE17
:102E5800267A37EE8BBAB4EEC7BAF1EE10FA40F321
:102E6800CD800499002281ED007A01211A70397011
:102E78006568DFF800C2A76804EB85037349AC44B2
:102E8800E5680F44DFF8E8A10D4454F80AA0D4E936
:102E98000402C3ED06BA02446D4B00F1FF3E013255
:102EA800A3FB0C81AEEB0A0E890CB2FBF0FB00FB16
:102EB8001B22DFF8B8B1A3FB0780A3FB058372458B
:102EC8004FEA90400BFB11C14FEA934362610BFB41
:102ED80010700BFB1353C4E90110E36050D95D4A2D
:102EE800A05CA318002850D15B4801270139255C54
:102EF8002044A754002D40F01D82E16007EE90AAFF
:102F0800B7EE007A039AB8EE676AD2ED006AC7EEA8
:102F1800067A77EEA67AF4EEC77AF1EE10FA40F365
:102F28001C82039A002182ED007A01221970027036
:102F38000AAA08A949480FF0ADFA0BAA09A94848F6
:102F4800F0EE408A0FF0A6FA4648B0EE408A00F04C
:102F5800F9FE034644481B680C9300F0F3FE03682F
:102F68000D93FEF7D3FCB0EE007ADDED0C7AF4EEAB
:102F7800C77AF1EE10FA7FF797ACF0EE477A9CE447
:102F8800344BE25C2344002AD2D0334AA018A25C16
:102F9800002AB3D007EE90AAB7EE006A0399002280
:102FA800F8EE676AD1ED007A86EE267A77EEC77A70
:102FB800F5EEC07AF1EE10FA00F1C381C1ED007AA6
:102FC800B6E7244BEA5C2B44002A3FF451AF224A6F
:102FD800AF18AA5C002A3FF434AF07EE900AF7EE68
:102FE800006A0021B8EE677AC6EE877A3BEE67BAC8
:102FF800B5EEC0BAF1EE10FA00F1A981049B83ED99
:1030080000BA35E7079B02991A685B680A440B44C3
:10301800C2ED007A83ED000A8CE540F37081F7EE8B
:10302800006ADDED085A9DED096A36EEC77A37EE7B
:10303800077AE7EE257AA7EE060A6DE584050024EF
:10304800940500240000803DCC0A0024BF27090015
:10305800851DD96F249F24001C9F24005C05002433
:10306800640500248C080024A4090024C027090052
:10307800189F2400C1270900D44BB0EE470A1B78DB
:103088008DED110A002B3FF42EAD9FEDD18AD14D65
:1030980027EE880AD04C28460FF08AFA9DED110ACF
:1030A800204620EE080A0FF083FAF2EE046A95ED46
:1030B8000C7A10A9D4ED0C7A12AA27EE267AC74802
:1030C80067EEA67A8DED127ACDED137A0FF0E2F95C
:1030D80011A913AAC2488DED140A0FF0DBF9F0EE1E
:1030E800006A9DED147AF0EE407AB4EEE67AF1EEDD
:1030F80010FA00F30D81F8EE006AB4EEE67AF1EE0C
:1031080010FA00F12D8127EE080AF0EE006A8DED25
:10311800147AF4EEE67AF1EE10FA00F30681B8EECE
:10312800007AF4EE477AF1EE10FA48BFF0EE477AEB
:10313800AC4DAD4C2846CDED157A0FF039FADFEDE0
:10314800A47A9DED150A204620EE270A0FF030FAE2
:10315800F2EE046A95ED0D7A14A9D4ED0D7A16AA4B
:1031680027EE267AA14867EEA67A8DED167ACDED80
:10317800177A0FF08FF915A917AA9D488DED140A33
:103188000FF088F914AA10A99A488DED150A0FF0C6
:1031980081F915AA11A998488DED100A0FF07AF94E
:1031A800DDED107A8DED110A9DE4DFED947A2CE4C3
:1031B8009FED927A18E4854BB0EE470A1B788DEDA7
:1031C8000D0A002B7FF495AB9FED819A8C4D27EE6D
:1031D800890A8C4C28460FF0EBF99DED0D0A204624
:1031E80020EE090A0FF0E4F9F2EE046A95ED0C7A84
:1031F80012AAD4ED0C7A0CA927EE267A824867EE3B
:10320800A67A8DED127ACDED137A0FF043F913AA51
:103218000DA97E488DED140A0FF03CF9F0EE006A16
:103228009DED147AF0EE407AB4EEE67AF1EE10FAFB
:1032380076DCF8EE006AB4EEE67AF1EE10FA00F108
:10324800948027EE090AF0EE006A8DED147AF4EE08
:10325800E67AF1EE10FA60DCB8EE007AF4EE477A1E
:10326800F1EE10FA48BFF0EE477A694D694C2846EE
:10327800CDED157A0FF09CF9DFED557A9DED150A25
:10328800204620EE270A0FF093F9F2EE046A95ED36
:103298000D7A14A9D4ED0D7A16AA27EE267A5E487F
:1032A80067EEA67A8DED167ACDED177A0FF0F2F863
:1032B80015A917AA59488DED140A0FF0EBF814AAAE
:1032C8000CA957488DED150A0FF0E4F815AA0DA9B9
:1032D80054488DED0C0A0FF0DDF8DDED0C7A8DED1C
:1032E8000D0AFFF706BBB0EE676AFFF7B9BBF0EE51
:1032F800678AFFF7A2BBF0EE477AFFF7DABBDDED8E
:10330800086A9DED097A77EEA67A30EE070A03E49B
:10331800B0EE667A9FED440AF7E6F0EE667AA4E727
:10332800B0EE667A9FED400A8DE7F0EE667AFFE62A
:10333800A96052E6A1602DE619B0BDEC108BBDE87E
:10334800F08F0021039C226019700170F0E50022C3
:10335800049801601A703A708AE5C2ED007AE7E5D0
:10336800B0EE667A9FED310ACFE6B0EE667A9FED51
:103378002F0A68E72E4B1B78022B3FF47FAAFEF733
:1033880067F9FFF77BBAFFF7EFF8FEF713FAFEF7D6
:10339800ABFAFFF773BA264B1B78022B3FF46EAAE1
:1033A800FDF77CFAFFF76ABA0121224802F0EEFF26
:1033B800214B83ED000AFFF761BA1D4B1B78022BE6
:1033C8003FF45CAAFDF786FBFFF758BADC0200243D
:1033D800CDCCCC3DA4040024F80400247C050024B2
:1033E80084050024FC030024500400246C050024F8
:1033F800740500248C0500249405002400000000B6
:1034080098060024E40600249C040024F004002408
:10341800000600244C060024F40300244804002479
:103428004C05002454050024CDCC4C3ECDCC4CBEDC
:10343800F10A0024B4050024C00A00240221284807
:1034480002F0A4FF274B83ED000AFFF717BA264BBB
:103458001B78022B3FF412AAFDF738FCFFF70EBACF
:1034680003211F4802F092FF204B83ED000AFFF76B
:1034780005BA1D4B1B78022B3FF400AAFDF71EFD71
:10348800FFF7FCB90421164802F080FF184B83EDC2
:10349800000AFFF7F3B9144B1B78022B3FF4EEA98F
:1034A800FDF706FEFFF7EAB905210D4802F06EFFA9
:1034B800104B83ED000AFFF7E1B90B4B1B78022B89
:1034C8003FF4DCA9FDF72AFFFFF7D8B9064B1B78B4
:1034D800022B3FF4D3A9FEF70DF8FFF7CFB900BFD1
:1034E800B4050024DC0A0024F10A0024E40A0024BC
:1034F800D40A0024400B00242DE9F843BB480027D8
:10350800BB4DBC4C2A46BC490760476107620FF0B7
:1035180061FB2A462146B9480FF05CFB2A46214642
:10352800B7480FF057FB2A462146B6480FF052FB22
:103538002A462146B4480FF04DFB2A462146B34897
:103548000FF048FB2A462146B1480FF043FB2A46B4
:103558002146B0480FF03EFB2A462146AE480FF000
:1035680039FB2A46AD490024AD480FF033FBDFF89C
:103578005083AC482A46AC4904604460C460846007
:10358800C0F81080C0F814800FF024FBA748DFF8BB
:1035980034932A46A44904604460C460C0F810808B
:1035A800C0F8148084600FF015FBDFF81C832A46EE
:1035B80049469F480FF00EFB2A4649469D480FF0A2
:1035C80009FB2A4641469C480FF004FB2A4641461F
:1035D8009A489B4E0FF0FEFA9A482A469A49C465C3
:1035E800046684668467C467C0F88040A0F8887061
:1035F800C0F88C40C0F89040C0F89840C0F8A84087
:10360800C0F8AC40C0F8B040A0F8B8704666C666CE
:1036180006674667C0F89460C0F89C60C0F8A06070
:10362800C0F8A4600FF0D6FA8848DFF8A0822A46CE
:103638008549C465046646668466C6660667466745
:103648008467C467C0F88040A0F88870C0F88C40D0
:10365800C0F89040C0F89460C0F89840C0F89C60EA
:10366800C0F8A060C0F8A460C0F8A840C0F8AC409A
:10367800C0F8B040A0F8B8700FF0ACFA2A4641463E
:1036880073480FF0A7FA2A46414672480FF0A2FA8B
:103698002A46414670480FF09DFA2A4641466F482F
:1036A8000FF098FA2A4641466D480FF093FA2A46D9
:1036B8006C496D480FF08EFA6C482A466C490460D4
:1036C80044608660C460066146618661C4610462C4
:1036D800446287850FF07EFA66482A46644904608A
:1036E80044608660C460066146618661C4610462A4
:1036F800446287850FF06EFA5F482A465C49046089
:1037080044608660C460066146618661C461046283
:10371800446287850FF05EFA5848DFF8B4812A467C
:103728005349046044608660C460066146618661EE
:103738004FF07E56C4610462446287850FF04AFAEE
:103748002A4641464E480FF045FA2A4641464D481A
:103758000FF040FA2A4641464B480FF03BFA2A46FA
:1037680041464A480FF036FA2A46414648480FF083
:1037780031FA2A46414647480FF02CFA2A46414674
:1037880045480FF027FA2A46414644480FF022FAE6
:103798002A46414642480FF01DFA2A46414641480A
:1037A8000FF018FA2A4641463F480FF013FA2A4606
:1037B80041463E480FF00EFA2A4641463C480FF073
:1037C80009FADFF810912A4641463A480FF002FA02
:1037D8002A46414638480FF0FDF92A4649463748F7
:1037E8000FF0F8F92A46494676E000BF9C05002408
:1037F80000000024B5060008A90600089806002461
:10380800E4060024000600244C060024A404002436
:10381800F8040024FC03002450040024B106000826
:10382800D805002490070024BD060008A807002436
:10383800D8B6B2C0503E49C0289F24C0000000C07E
:10384800000080BF8C080024CD060008A4090024CD
:10385800A402002474020024E002002410030024BF
:1038680064030024C5060008F80A00249403002411
:10387800AD060008C40300246007002430070024B4
:103888005C05002464050024440500249C040024ED
:10389800F0040024F4030024480400247C050024D8
:1038A800840500246C050024740500244C050024BC
:1038B800540500248C0500249405002440030024AA
:1038C80017B7D138D1060008D5060008C906000880
:1038D800B9060008A10600081A480FF07BF92A4625
:1038E800494619480FF076F9052000F0F1FF174B0B
:1038F80004462A46164917481C800FF06BF9DFF872
:10390800648044F6206E144842F21074134901236F
:10391800DFF854C02A4680F834700761C0F8388050
:103928004160C0F800E00664846243640C49C0F852
:103938003CC0C0E90577C0E90877BDE8F8430FF057
:1039480049B900BF4C030024580300247002002426
:10395800A50600086802002420020024808D5B0070
:10396800C10600080000A03F0024F448DFED297AD2
:10397800F4EEE70A10B5F1EE10FA04462DED048BCB
:10398800F0EE418AB0EE409A54BFB0EE600AB0EE55
:10399800670AB0EE608A0FF095F9F0EE409AB0EE43
:1039A800680A0FF08FF9032C30D8DFE804F00F18FD
:1039B800230229EE090A78EEC88A20EE099AB0EEA9
:1039C800480AA9EE280ABDEC048B10BD78EEC88A17
:1039D800B0EE480AA8EE890ABDEC048B10BD29EEAA
:1039E800099A78EEC88AB0EE480AA9EE280ABDEC12
:1039F800048B10BD70EE697AB0EE690AA7EE890AE9
:103A0800BDEC048BBDE810400FF0EAB89FED020A48
:103A1800D9E700BF95BFD6330000000070B44FF45B
:103A280070750D4C4FF07E56436480ED0E0A0664A7
:103A380095FBF3F594FBF3F4C0E900120023074A61
:103A4800C0E90254C26380F8343070BCC0E9063360
:103A5800C0E90433704700BF006504000024F4483F
:103A680010B5044604F0B2FC63692268C31A934295
:103A7800E3616268C4E9040022D3934224D894F82D
:103A8800340007EE903A20BBB8EE677AD4ED067A98
:103A9800D4ED0E6AF8EE677A67EEA67AB4EEE77AA6
:103AA800F1EE10FA10DA94ED106A0120DFED116AD8
:103AB800C7EE067AA36167EEA67AC4ED0F7A10BD49
:103AC800934201D8002010BD0123002084F834302F
:103AD80010BDB8EE676AD4ED106A9FED067A002231
:103AE800A361C6EE267A84F8342067EE877AC4ED9F
:103AF8000F7A10BDA69B443D83688B4237D8C368B4
:103B08008B42F0B405462FD3466C0022DFF874C010
:103B1800182E184FDCF800000CBF18240224431C90
:103B280093FBF4F004FB10303B4607EB8404CCF81D
:103B3800000047F8201053F8041BA3420A44FAD1A6
:103B4800182E09D0520807EE902A0120F8EE677A5D
:103B5800C5ED0F7AF0BC7047074C0849084B04FBC9
:103B68000010B3EBB00FEED20020F0BC704700207D
:103B7800704700BF4C0B0024ABAAAAAAA8AAAA2A7D
:103B880054555515AC0B0024124BF6EE006A90ED17
:103B98000F7AB1EE046AD3ED007A416C37EE677A9A
:103BA800DFED0D5A18290D4A46FEA56AE6EE877A1A
:103BB80092ED000A37EEC07AC3ED007AB0EEC77A0C
:103BC800B4EEC67AF1EE10FA03DDB0EE670AC2ED84
:103BD800007A7047480B00245839343C440B0024C1
:103BE8009FED057AB7EE000AD0ED0F7A67EE877A77
:103BF80080EE270A704700BF2CC3AE3780ED100A4D
:103C0800704700BF80ED0F0A704700BF90ED0F0AA4
:103C1800704700BF2DE9F04F83B0474C0546ADF81B
:103C28000410016880ED3F0A01F184030C4400226E
:103C380043F8042BA342FAD100203F4E02270A463C
:103C4800034608608F5100260133002742F8046FAD
:103C5800216817649942F6D8F2EE0E7A95ED3F0A7C
:103C68004FF07E544FF0010805F15C0A019980EE8F
:103C7800270A281D4FF07C5B00F04AFAC5F8C840B7
:103C880005F18C09C5F8CC40C5F81441A5F8BC80ED
:103C980004F09AFB414695ED3F0AC5F8EC00504602
:103CA80085F8F08085F8508085F8F860C5F8E870E8
:103CB800C5F8047185F80861C5F84CB00EF09AFA99
:103CC800414650469FED1D0A0EF004FB50469FEDFD
:103CD8001C0A02210EF0FEFA50469FED180A042134
:103CE8000EF0F8FA4146484695ED3F0AC5F854B03B
:103CF800EC65C5F8D040C5F8D84085F858800EF076
:103D080079FA414648469FED0D0A0EF0E3FA484617
:103D18009FED0B0A02210EF0DDFA48469FED070AD7
:103D280004210EF0D7FAC5F88C40C5F8D440C5F880
:103D3800DC4003B0BDE8F08F847869000AD7233CE3
:103D4800ACC527372DE9F04F00230027044600F1C2
:103D5800C00500F1BC0900F15C0800F14C062DED2E
:103D6800028B83B0C0F8043101932368DFF8DCE0EC
:103D780094ED3A7A03EB8701D5ED067A53F80EE015
:103D880077EE877A2F4ABE45DFF8C4B0DFF8C4C0A3
:103D9800C5ED047A52D9BDEEE77A17EE100AB8EEEF
:103DA800C77A824277EEC77A28BF02464A60186807
:103DB800C1ED117A024402F1010E510A4FEA5E2A5E
:103DC800ABFB0101ABFB0AA00CFB11220CFB10E1C1
:103DD80003EB820203EB810392ED217AD3ED216A92
:103DE80076EEC76AA6EEA77AF0EE477AAA4619F8E1
:103DF800011B4046C5ED087A0EF0F4FA05F12002E1
:103E0800AAEC010A304686ED000A01A99AED018A5A
:103E18000EF040FBD4ED417A08F1300855460836DB
:103E2800E8EE007AC4ED417A37B104F5827003B048
:103E3800BDEC028BBDE8F08F012796E7DFED027A33
:103E4800D4E700BFFF5D1A00000000008478690015
:103E5800076B1300005E1A00034631B190ED430A68
:103E6800043093F8091100F0C1B9043000F0A8B982
:103E78000068094A70B40E680168084D0A4400EBEE
:103E88008101074C530AC1F88460A5FB031304FBA6
:103E9800132370BC03607047FF5D1A00076B1300A3
:103EA800005E1A00DFED477AB4EEE70AF1EE10FA89
:103EB80005D500239FED440A80F809317047DFEDEE
:103EC800437AB4EEE70AF1EE10FA05D501239FED27
:103ED800400A80F809317047DFED3E7AB4EEE70A10
:103EE800F1EE10FA0CD4DFED3C7AB4EEE70AF1EE0D
:103EF80010FA0BD503239FED390A80F80931704772
:103F08000223B5EE000A80F809317047DFED347AF4
:103F1800B4EEE70AF1EE10FA0CD4DFED327AB4EE23
:103F2800E70AF1EE10FA0BD50523B7EE000A80F880
:103F3800093170470423B6EE000A80F8093170474A
:103F4800DFED297AB4EEE70AF1EE10FA05D506237B
:103F5800B0EE000A80F809317047DFED247AB4EE3C
:103F6800E70AF1EE10FA05D50723B0EE080A80F843
:103F780009317047DFED1E7AB4EEE70AF1EE10FA68
:103F880005D50823B1EE000A80F809317047DFED46
:103F9800197AB4EEE70AF1EE10FA05D50923B1EE65
:103FA800040A80F809317047F7EE007AB4EEE70AA0
:103FB800F1EE10FAB8D80A23B1EE080A80F80931F0
:103FC800704700BFC729BA3DABAA2A3EC7293A3E67
:103FD800CDCC4C3E569F8B3EC729BA3EABAAAA3ED3
:103FE80039B4E83EE3A50B3F1CEB223F55303A3F7E
:103FF8008E75513FC7BA683F38B504462DED028B20
:10400800002949D0FFF74EFF90ED448A20EE088A38
:1040180094ED457A9FED3A5B38EE476AB7EEC77A7A
:10402800B0EEC66A27EE057BB7EEC66AB4EEC76B7C
:10403800F1EE10FA4EDC94F80831BBBB04F0C4F979
:10404800D4F8EC30C01A19283FD994F8F850FDB1CB
:10405800B4F8BC3094F8F02083F4807382F0010245
:1040680083F0010384F8F020A4F8BC3004F0ACF924
:1040780094ED3F7AB7EE000A0023C8EE077AC4F839
:10408800EC0084F8F830201D80EE270A00F08AF84A
:104098002846BDEC028B38BD02209FED1B1ADFEDD0
:1040A8001B0AFFF763FCB0EE408AB1E794F8F030E2
:1040B80003BB84ED368A002384F8083104F084F9C0
:1040C800D4F8EC30C01A1928BFD80025BDEC028BF3
:1040D800284638BD04F078F90025012384ED458A87
:1040E800C4F8EC00284684F8F83084F80831BDECB0
:1040F800028B38BD84ED378ADDE700BFAFF300805F
:10410800FCA9F1D24D62503F00606A48000070453A
:1041180010B52DED048B82B004469FED209AB0EEC9
:10412800408AADF8041000220199F7EE008A01F0E8
:104138001DFEB0EE490A204601F03CFE204601F083
:104148004BFEC8EE887A4FF07C539FED150A04F1B8
:104158001C0084ED0A8A236284ED0C9A84ED090A16
:104168000090C4ED0B7A00F0A5FBF0EE007A40F267
:1041780001120423009884ED0D0AB0EE670AC4ED1D
:10418800088AA4F840202377C4ED097A00F092FB4E
:1041980084ED0D0A02B0BDEC048B10BD00000000D8
:1041A8000000C84210B5044680ED090A1C3000F032
:1041B80081FB84ED0D0A10BD00230363704700BF27
:1041C80010B504461C3000F093F9B7EE007AF6EE0D
:1041D800007A204630EE070A20EE270A01F0EAFDB1
:1041E8002046BDE8104001F0F7BD00BF0A2900B520
:1041F80083B01FD8114B03EB8101D1ED007A20EE7B
:10420800270A01900EF06CFF9FED0D7AF7EE007A09
:104218000198B4EEC70AF1EE10FA54BFB0EE670A7F
:10422800B0EE470A01F0C6FD019803B05DF804EB53
:1042380001F0D2BDF1EE087AE1E700BF7C36010853
:104248000000000001F0B6BD90F84100704700BFC3
:1042580070B52DED028B82B0B0EE408A00F11006E9
:104268000446ADF800200430ADF804101D4600994E
:1042780001F002FEB0EE480A30460022019901F032
:1042880075FD002330469FED060A84F82C502370F4
:1042980002B0BDEC028BBDE8704001F08BBD00BFE1
:1042A800000000000378103083F0010300F8103C90
:1042B8001BB1B7EE000A01F07DBD9FED020A01F0C7
:1042C80079BD00BF0000000038B500F110050446B4
:1042D800284601F081FD201D01F0E2FD94F82C3004
:1042E800012B17D0022B09D003B138BD637A7F2B7D
:1042F800FBD12046BDE83840FFF7D4BF637AFF2BD7
:1043080013D0002328469FED0D0A2370BDE83840DE
:1043180001F050BD627AFF2AF3D028462370B7EE29
:10432800000ABDE8384001F045BD01232846B7EE34
:10433800000A2370BDE8384001F03CBD00000000D1
:104348000123B7EE000A00F8103B01F033BD00BFAF
:1043580000239FED030A00F8103B01F02BBD00BFBE
:104368000000000000787047407AA0F17F00B0FAA2
:1043780080F04009704700BF407AA0F18000B0FA91
:1043880080F04009704700BF103001F013BD00BF36
:10439800F0B5456899B08668002202950CA9C568F1
:1043A80002AC03960F46066904954569059606957D
:1043B8008669C5698DF8302007960268066A0895EF
:1043C800456A806A019209960A950B9001E054F8B3
:1043D800042BC2F30726C2F30745C2F30760BC42A9
:1043E8004A708E70CD7001F8040FF0D10C4C0D4856
:1043F80000F090FB0B4800F07DFB2168094801F1B3
:10440800B40203F099FA21680CABB422054803F012
:104418008FFA0446034800F07BFB204619B0F0BD34
:104428000C000024B00B00242DE9F041804698B020
:104438002548264D00F072FB23480CAC00F05AFBCF
:104448000CAE0FCD0FC40FCD0FC495E80F0007C4F5
:10445800237001AC00251C48274600F059FB6B4629
:10446800324612F8011B03F8011BA342F9D10435A7
:10447800009B04362C2D47F8043BF0D101994046A7
:10448800029A039B049CC8F80010C8F804200599F8
:10449800069AC8F80830079BC8F80C40C8F81010EE
:1044A800089C0999C8F81420C8F818300A9A0B9B78
:1044B800C8F81C40C8F82010C8F82420C8F82830CC
:1044C80018B0BDE8F08100BFB00B002400000090D8
:1044D80004480023044A05490360436103620EF05F
:1044E80079BB00BFB00B002400000024A906000817
:1044F800037810B504462DED028B072B00F2C88116
:10450800DFE813F05F009400A900BA00C900D900E1
:1045180036010800D0ED057AB7EE000A9FEDE07A83
:10452800FFEE008ADFEDDF6A90ED068AF4EEE67AA8
:1045380028EE078A67EE877AF1EE10FAF4EEC87A69
:1045480048BFF0EE408AF1EE10FA00F1968130EEA5
:10455800487AF4EEC77AF1EE10FA00F34B819FED3A
:10456800D20AB6EE007AF7EE000A78EE808A37EEC5
:10457800870A0EF0C1FEB4EEC80AF1EE10FA00F197
:104588006281B7EE007A77EE487AB4EEE70AF1EE88
:1045980010FA0DDD30EE470AC0EE087AF0EE676AD1
:1045A800E7EEA76A77EEA67A77EE877A78EEE78A5B
:1045B8009FEDBE0A94ED058A28EE800A94ED067AEE
:1045C80007E090ED058AB0EE480A0EF089FD94EDFB
:1045D800067A78EE077ADFEDB66AF4EEE67AC4ED8D
:1045E800057AF1EE10FA40F3F48077EEE67A0123CB
:1045F80084F82530C4ED057A37EEC77ADFEDA96A6D
:10460800B4EEE67AF1EE10FA40F1E180F4EEE67AE3
:10461800F1EE10FAACBF01230023D4ED017A84F83F
:10462800243020EE270ABDEC028B10BD90ED058AE0
:10463800BFEE000ADFED9A6AF6EE007A38EE086AF5
:1046480090ED067AA6EE260AB0EEC00A30EE670AAA
:1046580030EE000ABDE790ED058AF0EE006ADFED66
:10466800907ABFEE000A90ED067A68EE277AA7EEF8
:10467800A60AB1EE400AACE790ED058AF0EE006AB2
:10468800DFED877ABFEE000A90ED067A68EE277AAA
:10469800A7EEA60A9DE790ED058ADFED827A90EDF8
:1046A800067AB4EEE78AF1EE10FA4CBFB7EE000ACC
:1046B800BFEE000A8DE7D0ED057AB7EE007ADFEDA0
:1046C800786AFFEE008A9FED776A90ED068AF4EE2D
:1046D800C67A28EE268A67EEA67AF1EE10FAF4EE8C
:1046E800C87A48BFF0EE478AF1EE10FA00F1BA80B6
:1046F80077EE486AF4EEE67AF1EE10FA6DDC9FED9B
:104708006A7AB6EE000AF7EE000A78EE878A37EE84
:10471800800A0EF0F1FDB4EEC80AF1EE10FA76D474
:10472800B7EE007A77EE487AB4EEE70AF1EE10FABF
:104738000DDD30EE470AC0EE087AF0EE676AE7EE64
:10474800A76A77EEA67A77EE877A78EEE78AB7EEE9
:10475800000A94ED067AD4ED077A94ED058A30EED6
:10476800470A20EE270AA7EE280A84ED070A30E751
:10477800DFED4B7AB0EE006A90ED058ABFEE000AD5
:1047880090ED067A68EE276A67EE277AA6EE860A23
:10479800F4EEE76AF1EE10FA48D4F7EE005A35EE77
:1047A800E76AF4EEC66AF1EE10FA0DDD76EEE56A18
:1047B80086EEA76AF0EE467AE6EE067A36EE276AC5
:1047C80036EE256A30EE460AB1EE400A01E70023CC
:1047D80023E7002384F825300EE737EEC76AC6EED4
:1047E800086AB0EE666AA6EEA66A76EE866A36EEC5
:1047F800877A86E777EEC06A86EE887AF0EE476AAF
:10480800E7EE076A37EE267A37EE000AA9E680EE69
:10481800087AB0EE006AF7EE006A67EE477AE7EECC
:10482800067A77EEE67A78EEE78A90E7C6EEA75A38
:10483800F7EE006A65EEE57AE5EE867A77EEE67AD7
:1048480030EE670AC0E780EE087AB0EE006AF7EE4D
:10485800006A67EE477AE7EE067A77EEE67A78EE50
:10486800E78AA5E687EE886AF0EE005A66EE466AA1
:10487800E6EE256A36EEC77A43E7C7EE886AB0EEF9
:10488800006A26EEE67AA6EE867A37EE400A68E6F1
:1048980090ED058A90ED067A9FED030A99E600BF30
:1048A80083F9223EDB0F494000000000F4FD343F4D
:1048B800DB0FC940DFED047A20EE270AD0ED047A39
:1048C80020EE270A704700BFDB0FC940704700BFC2
:1048D8001F2882B009D8084B03EB400213F81030A8
:1048E800507843EA002002B0704701230C2043EAC5
:1048F800002002B0704700BFA8360108143001F04C
:10490800EFB900BF143001F0E7B900BF38B500F1C6
:10491800140504462DED028B284601F0CFF92846F0
:1049280001F0DAF92846B0EE408A01F0C3F9D0ED7B
:10493800007AF8EE677A88EE277ABDEC028B84ED70
:104948000E7A38BDF0B5032299B000272D4B01250A
:10495800129240F20452064609A81395ADF8402079
:10496800CDE90E73284BCDE91475099301F028FEA3
:1049780009A801F001FF002835D1044604AF2348F7
:104988001022234B3946CDF8420068468DF8202086
:10499800059304950094CDE91654CDE9065402F028
:1049A80083F80823009A01A909A8ADF804508DF8E6
:1049B800064002950994039300F0F4F800230EA929
:1049C80038464FF07E550493302403F055FB0323FB
:1049D80009A9049A06F114000B95CDE9094301F0E1
:1049E80035F919B0F0BD40F60132084B169704AFFF
:1049F800ADF8242009981795CDF8423000F092F8C8
:104A0800DCE700BF040204040303000104060403F6
:104A18000704010B70B504462DED028B82B0002906
:104A280042D0012140F2011200230091ADF8042088
:104A38008DF806302C4A40F207112C4B02202C4DE1
:104A4800012662600622A3604FF48773E560E18463
:104A5800268284F8250084F82920638503F038FE2F
:104A68000546694604F1300035B38DF8066003F059
:104A780099FD072D33D104F114052046FFF762FF95
:104A8800284601F029F92846B0EE408A01F012F9CB
:104A9800D0ED007AF8EE677A88EE277A84ED0E7A00
:104AA80002B0BDEC028B70BD40F2011300918DF88D
:104AB8000610ADF80430BDE703F074FD211D204653
:104AC80002F046FE04F1250001F07AFD04F1290008
:104AD80001F076FD04F1120000F098F9CBE7211DF2
:104AE800204602F035FEC6E7050805090507050654
:104AF800050A060610B5044603F0EAFD072800D1AA
:104B080010BD211D2046BDE8104002F021BE00BFA7
:104B180002F0F6BE01234374704700BF00234374BC
:104B2800704700BF10B584B003460124ADF80400F7
:104B380003A8ADF80C30ADF80E4001F041FD214658
:104B480003A801F027FE204603F046FC03A8002135
:104B580001F020FE204603F03FFC214603A801F0A7
:104B680019FE04B010BD00BF30B50D46C2F30024D5
:104B780085B0FA2344EA4504017C8DF80D2003AA88
:104B8800009302238DF80C4002F024F818B1012498
:104B9800204605B030BD04460A2003F01DFC20461F
:104BA80005B030BD70B50446154684B0234607C924
:104BB80043F8045B83E80700A37983B91A210B46FD
:104BC800FA251E26237403AA022320460095ADF871
:104BD8000C6001F0FFFF28B1012004B070BD1B215B
:104BE8000B46EDE70A204FF4B85603F0F5FB0095A5
:104BF800022303AA217C2046ADF80C6001F0EAFFED
:104C08000028E9D10A2041F2027603F0E5FB00957D
:104C1800022303AA217C2046ADF80C6001F0DAFFDC
:104C28000028D9D10A20042603F0D6FB00950223D8
:104C380003AA217C2046ADF80C6001F0CBFF0028C8
:104C4800CAD10A20062603F0C7FB0095022303AA4F
:104C5800217C2046ADF80C6001F0BCFF0028BBD1D8
:104C68000A2041F2082603F0B7FB0095022303AAA5
:104C7800217C2046ADF80C6001F0ACFF0028ABD1D8
:104C88000A20064603F0A8FB0095022303AA217C0C
:104C98002046ADF80C6001F09DFF00289CD13046FD
:104CA80003F09AFB23790C210095002B20460DEB8D
:104CB80001028DF80C1014BF622542250223217CC5
:104CC8008DF80D5001F086FF002885D1304603F09D
:104CD80083FB2279D4E902310B43D9B20AB941F0F6
:104CE800400163790BB141F02001FA250E268DF8B9
:104CF8000D100223009503AA2046217C8DF80C6034
:104D080001F068FF00287FF467AF0A20102603F03F
:104D180063FB0095022303AA217C2046ADF80C60B2
:104D280001F058FF00287FF457AF0A20122603F03D
:104D380053FB009503AA0223217C2046ADF80C60A2
:104D480001F048FF00287FF447AF0A2003F044FB36
:104D5800204601220921FFF707FF003818BF01206C
:104D68003BE700BF2DE9F043274C87B04FF001081F
:104D78004FF0100900250126002702A94FF48052A0
:104D880020460195CDE902894FF002084FF010093D
:104D9800CDE904670AF088FA642003F03BFF02A912
:104DA80020464FF48052CDE90467CDE902890426F4
:104DB8004FF003084FF0100900270AF075FA02A90E
:104DC80020464FF48052CDE90467CDE902890AF004
:104DD8006BFA40F232234FF0010C0426019310279E
:104DE800019B02A94FF480522046CDE904C3CDE9C6
:104DF80002670AF059FA204640F606010AF074FAEA
:104E0800284607B0BDE8F083F40B00242DE9F043F1
:104E18001D4B40221D4C20219A6100225C604FF4FA
:104E2800C07489B00826596105464FF480514FF483
:104E38000060DC6101249A6007271A624FF00408B9
:104E4800DA620A221E614FF0080958620226996246
:104E5800181DDC601023069203226946CDE900671D
:104E6800CDE90289CDE904230AF0F4F940B92846CE
:104E7800FFF778FF003818BF012009B0BDE8F083BC
:104E8800204609B0BDE8F083F00B002440410052F1
:104E9800614A136803B17047604B012160482DE9EE
:104EA800704311608EB0D3F8D420002403250C265B
:104EB80042F480524FF683784FF0020908A9C3F8EC
:104EC800D420D3F8D42002F480520092009AD3F868
:104ED800E02042F01002C3F8E020D3F8E02002F00E
:104EE80010020192019AD3F8E02042F04002C3F880
:104EF800E020D3F8E02002F040020292029AD3F8B0
:104F0800E02042F00802C3F8E020D3F8E02002F0E5
:104F180008020392039AD3F8E02042F48072C3F89F
:104F2800E020D3F8E02002F480720492049AD3F8C7
:104F3800E02042F08002C3F8E020D3F8E02002F03D
:104F480080020592059AD3F8E02042F02002C3F8C7
:104F5800E020D3F8E02002F020020692069AD3F867
:104F6800E02042F00402C3F8E020D3F8E0300C96C9
:104F780003F004030793079BCDE90889CDE90A45A7
:104F880005F0F6FC48F23712022308A925480C96CA
:104F9800CDE90823CDE90A4505F0EAFC4CF2037295
:104FA800022308A920480C96CDE90823CDE90A4533
:104FB80005F0DEFC40F2FF62022308A91B480C96AC
:104FC800CDE90823CDE90A4505F0D2FC4FF60C726D
:104FD800022308A916480C96CDE90823CDE90A450D
:104FE80005F0C6FC4FF63F02022308A911480C96AB
:104FF800CDE90823CDE90A4505F0BAFC20220223B1
:1050080008A90B480C96CDE90A45CDE9082305F017
:10501800AFFC0EB0BDE87083EC0B002400440258CE
:105028000010025800180258000C025800200258BC
:10503800001C0258001402582DE9F04FDFF82884AC
:1050480006460D46144608F114002DED028B89B072
:1050580000AF03F001F9D8F814305BB3D8F8183072
:105068004269002B0BBF022304234FF008094FF0BD
:105078001009FB61D8F804304BB3A100E946012AB6
:1050880001F1070121F00701ADEB010D6846ADEB19
:10509800010D694600F04281022A00F0DB80002AF7
:1050A80074D022469847CD462437BD46BDEC028BC6
:1050B800BDE8F08FD8F81830002BF5D002234FF058
:1050C80008094269FB61D8F80430002BD5D1D8F81B
:1050D8000030BA617B61002BE6D06B46DA4808EEF7
:1050E800103A03F02BF98646F869BA69022800F0ED
:1050F8008E816B46C7F810903969A3EBC4039D46AF
:105108006300E946B3FBF0F3A9EBC40CC7F81890A9
:1051180009EB830AB869E546ADEB010D0CEB830199
:10512800EB46F9603969C7F810A00AEB830AADEBC2
:10513800010DCBF80000F9680AEB8300E94601EBA2
:105148008301CBF80C00386901EB8303C9F800C070
:10515800CBE9010AF868C9E90213C9F80400012A71
:1051680000F08283022A00F07C82002A00F0868107
:105178006208494658467B69984718EE103A243722
:105188009D46BD46BDEC028BBDE8F08F002C88D053
:1051980098ED0B6A864606F1040CDFEDB66A36F91F
:1051A80022A00EF1080E07EE10AA3CF922A0023246
:1051B80007EE90AAB8EEC77A9442F8EEE77A27EE9F
:1051C800267A67EEA67A27EE067A67EE867A0EEDDD
:1051D800027A4EED017AE2D8F961224698479B4E51
:1051E800F9690020D8ED046A2B1D9FEDA37A9FED85
:1051F800986ADFED985A22E0F4EEC67AF1EE10FADA
:10520800C0F2EF8447F6FE72D1ED017A45F820200E
:1052180066EEA77AF4EEC77AF1EE10FA40F2F5805E
:10522800F4EEC67AF1EE10FAC0F2FC8447F6FE728C
:1052380043F820200230083184427FF634AFD1EDA4
:10524800007A66EEA77AF4EEC77AF1EE10FAD3D8B0
:105258003246D9E7002C3FF424AF98ED0B6A864616
:10526800002206F1040CDFED7C6A06EB820A0EF1DF
:10527800080E9AED007A0CEB820A0232DAED007A17
:10528800B8EEC77A9442F8EEE77A27EE267A67EE08
:10529800A67A27EE067A67EE867A0EED027A4EED4A
:1052A800017AE2D8F961224698476C4EF9690020E4
:1052B800D8ED046A2B1D9FED707ADFF8B0C19FED21
:1052C800646A20E0F4EEC67AF1EE10FAC0F2A28425
:1052D8003246D1ED017A45F8202066EEA77AF4EE41
:1052E800C77AF1EE10FA40F28E80F4EEC67AF1EE4B
:1052F80010FAC0F28784324643F820200230083181
:1053080084427FF6D0AED1ED007A66EEA77AF4EE4D
:10531800C77AF1EE10FAD5D86246DAE7002C3FF4E6
:10532800C0AE06F1040CFD6198ED0B6A1D4683467C
:1053380063464FF0000ADFED4A6AB4465CF82A205B
:105348000BF1080B53F82A600AF1020A82F40002F2
:1053580086F4000E5445A2F5000207EE102AAEF5B9
:10536800000207EE902AB8EEC77AF8EEE77A27EE41
:10537800267A67EEA67A27EE067A67EE867A0BED2E
:10538800027A4BED017AD9D82B46FD692246F9619C
:105398009847344EF9690020D8ED046A2B1D9FED1B
:1053A800367ADFF8CCC09FED2A6A1FE0F4EEC67AA1
:1053B800F1EE10FAC0F21E843246D1ED017A45F8BA
:1053C800202066EEA77AF4EEC77AF1EE10FA18D923
:1053D800F4EEC67AF1EE10FAC0F2FB83324643F8D7
:1053E80020200230083184427FF65DAED1ED007A8C
:1053F80066EEA77AF4EEC77AF1EE10FAD6D86246CE
:10540800DBE76246EBE7624676E7324610E7A30041
:105418006008073323F00703ADEB030DEC46ADEB53
:10542800030DEA46ADEB090D0CEB8003C7F818C075
:10543800EB46ADEB090D0AEB80003B61E946CBE991
:1054480000C3C9E900A08AE6400C00240280FFFFDF
:1054580004FF7F3F00FEFF46000000300082FF7F10
:105468000000003482FF7F00280C0024007E0080AA
:105478007E0080FF0000003804FF7FBF002C00F092
:10548800EC82F969D8F82030022900F01B8303EB7D
:105498008E0ADBF80C104FEA8E03C7F800B006F14D
:1054A800040C5FED0C5A7B60DBF80830D7F818E085
:1054B800FB600AF10403C7F818909B46D7F81090D0
:1054C800B9603D613CF9221036F9223006EE901A97
:1054D8003AF9221006EE103A98ED0B5A07EE101A18
:1054E800F8EEE66AB8EEC66A3BF92210B8EEC77A5B
:1054F800530807EE901A66EEA56A26EE256AF96843
:1055080027EE257A09EB8300F8EEE77A0EEB8305A0
:1055180026EE056A01EB830127EE057A023266EE74
:10552800856A67EEA57A85ED006A9442C0ED006A47
:1055380081ED007A98ED0B7AB86867EE877A00EB10
:105548008303C3ED007ABDD8D7F800B0D7F8189018
:105558003D69620849467B6958469847D8F828301B
:1055680079680022D8ED046A1944D9F800E0D9F81E
:1055780004C02B1D01F104088A461FED417AC7F8C3
:105588001880B14E9FEDB16ADFEDB15AD7F81C8093
:1055980052E0F4EEC67AF1EE10FAC0F2DC8247F679
:1055A800FE7B0CEB010045F822B0D0ED007A66EEE8
:1055B800A77AF4EEC77AF1EE10FA4CD9F4EEC67A6F
:1055C800F1EE10FAC0F2D08247F6FE70B8F1020F81
:1055D80043F822002CD0D9F808000844D0ED007A0E
:1055E80066EEA77AF4EEC77AF1EE10FA37D9F4EE40
:1055F800C67AF1EE10FAC0F2E38247F6FE7BD9F8DC
:105608000C004AF822B00144D1ED007A66EEA77A80
:10561800F4EEC77AF1EE10FA1FD9F4EEC67AF1EE7D
:1056280010FAC0F2C58247F6FE71B86940F8221038
:10563800023294427FF6A1AD51080EEB8100890039
:10564800D0ED007A66EEA77AF4EEC77AF1EE10FA9A
:105658009FD8B346A5E73046B8E73146E5E7B346F5
:10566800CDE7002C00F0F981FA69D8F82030022A39
:1056780000F0FA8103EB8E0ADBF80830C7F800B0B7
:1056880006F1040CFB604FEA8E030AF10402DFED19
:10569800715A7B60DBF80C309346D7F818E0BB6092
:1056A8000023C7F81890D7F810903D6156F82310DA
:1056B8005A0898ED0B5A07EE901A5CF8231009EB7C
:1056C8008200B8EEE76A07EE901A5AF823100EEB3C
:1056D8008205F8EEE76A07EE901A0BEB830126EED7
:1056E800256A0233B8EEE77AD1ED007A66EEA56A4C
:1056F800F968F8EEE77A9C4227EE257A01EB8201F9
:1057080026EE056A66EE856A27EE057A67EEA57AC3
:1057180085ED006AC0ED006A81ED007A98ED0B7A9C
:10572800B86867EE877A00EB8202C2ED007ABDD8CE
:10573800D7F800B0D7F818903D695846620849462E
:105748007B699847D8F8283079680022D8ED046A30
:1057580019442B1DD9F800C08B460431D9F80480B0
:10576800C7F814B09FED3F7AD7F81CB0DFF8ECE02B
:105778009FED366A384EB961FB6150E0F4EEC67AA7
:10578800F1EE10FAC0F20682304608EB010A45F83D
:105798002200DAED007A66EEA77AF4EEC77AF1EE27
:1057A80010FA4BD9F4EEC67AF1EE10FAC0F2F9818C
:1057B8003046FB69BBF1020F43F822002BD0D9F821
:1057C80008000844D0ED007A66EEA77AF4EEC77AAE
:1057D800F1EE10FA36D9F4EEC67AF1EE10FAC0F20C
:1057E800D2813046D9F80CA07B69514443F8220095
:1057F800D1ED007A66EEA77AF4EEC77AF1EE10FAE8
:105808001ED9F4EEC67AF1EE10FAC0F2B58131462F
:10581800BB6943F82210023294427FF6AEAC5108BD
:105828000CEB81008900D0ED007A66EEA77AF4EEE1
:10583800C77AF1EE10FAA1D87046A6E77046B8E725
:105848007146E5E77046CDE70280FFFF04FF7F3F22
:1058580000FEFF46000000300082FF7F007E0080CF
:105868000000003404FF7FBF002C00F0F680D8F859
:1058780020304FEA8E02BD60002103EB8E0E06F148
:10588800040C1FED096A0EF104003D69D7F818A051
:10589800FA60C7F8189056F821204FEA51095CF8C9
:1058A800213082F40002D8ED0B6A83F40003A2F5DC
:1058B8000002A3F5000307EE102A05EB890207EEA4
:1058C800903A0AEB8903B8EEC77A4FEA8909F8EEED
:1058D800E77A27EE067A67EE867A27EE267A67EE6B
:1058E800A67A83ED007AFB69C2ED007A022B27D0F5
:1058F8005EF8212050F8213082F4000283F400037E
:10590800A2F50002A3F5000307EE902ADBF80820B1
:10591800B8EEE77A07EE903A4A44DBF80C30F8EE36
:10592800E77A27EE067A4B4467EE867A27EE267AE0
:1059380082ED007A98ED0B7A67EE877AC3ED007AEC
:1059480002318C42A7D8D7F81890584662087B696C
:105958004946BD689847D8F82830F9680022D8ED3C
:10596800046A19442B1DD9F800C08B460431D9F8B4
:105978000480C7F814B01FED457AD7F81CB0DFF8DB
:10598800C8E29FEDAD6AAD4EB961FB6150E0F4EE3F
:10599800C67AF1EE10FAC0F2C280304608EB010A6E
:1059A80045F82200DAED007A66EEA77AF4EEC77AB7
:1059B800F1EE10FA4BD9F4EEC67AF1EE10FAC0F215
:1059C800BC803046FB69BBF1020F43F822002BD0A4
:1059D800D9F808000844D0ED007A66EEA77AF4EE0C
:1059E800C77AF1EE10FA36D9F4EEC67AF1EE10FA6B
:1059F800C0F2AA803046D9F80CA07B69514443F81C
:105A08002200D1ED007A66EEA77AF4EEC77AF1EEBD
:105A180010FA1ED9F4EEC67AF1EE10FAC0F28680BA
:105A28003146BB6943F82210023294427FF6A5AB97
:105A380051080CEB81008900D0ED007A66EEA77A58
:105A4800F4EEC77AF1EE10FAA1D87046A6E77046D0
:105A5800B8E77146E5E77046CDE72246494658461D
:105A68007B699847FFF789BB98ED0B6A002306F11D
:105A7800040CDFED736AB869D7F810A006EB83024F
:105A88000CEB830192ED007A5A08D1ED007A0233CB
:105A9800B8EEC77A00EB8201F8EEE77A0AEB8202E9
:105AA8009C4227EE267A67EEA67A27EE067A67EEFC
:105AB800867A81ED007AC2ED007ADFD84FEA8E034C
:105AC8007B603AE698ED0B6A06F1040CDFED5D6A3F
