:020000040800F2
:100000000000022055060008510600085D75000832
:1000100051060008510600085106000800000000C3
:100020000000000000000000000000005106000871
:100030005106000800000000510600084D75000838
:100040005106000851060008510600085106000834
:100050005106000851060008510600085106000824
:10006000510600085106000851060008B971000841
:10007000C571000811630008D1710008DD71000826
:100080005106000885CA00085106000851060008FC
:1000900051060008510600085106000851060008E4
:1000A00051060008510600085106000851060008D4
:1000B000510600085106000851060008A9CA0008A8
:1000C00051060008B5CA000851060008510600088C
:1000D00051060008510600085106000851060008A4
:1000E00051060008510600080000000051060008F3
:1000F0005106000851060008510600085106000884
:100100005106000851060008510600085106000873
:100110005106000851060008510600085106000863
:100120005106000851060008510600085106000853
:100130005106000851060008510600085106000843
:1001400000000000000000000000000000000000AF
:100150005106000851060008510600085106000823
:10016000C1CA0008510600085106000851060008DF
:100170005106000851060008510600085106000803
:1001800051060008510600085106000851060008F3
:1001900051060008510600085106000851060008E3
:1001A00051060008510600085106000851060008D3
:1001B000016F0008510600085106000851060008AA
:1001C00051060008510600085106000851060008B3
:1001D00051060008510600085106000851060008A3
:1001E0005106000851060008510600085106000893
:1001F0005106000851060008510600085106000883
:100200005106000851060008510600085106000872
:100210005106000851060008510600085106000862
:1002200051060008510600085106000800000000B1
:1002300051060008510600080000000051060008A1
:100240005106000851060008510600085106000832
:100250005106000851060008510600085106000822
:100260005106000851060008510600085106000812
:100270005106000851060008510600080000000061
:100280005106000851060008510600080000000051
:08029000000000005106000807
:1002980010B5054C237833B9044B13B10448AFF3B8
:1002A80000800123237010BD880000240000000096
:1002B800E8EA000808B5034B1BB103490348AFF34C
:1002C800008008BD000000008C000024E8EA000857
:1002D80081F0004102E000BF83F0004330B54FEAEF
:1002E80041044FEA430594EA050F08BF90EA020F5C
:1002F8001FBF54EA000C55EA020C7FEA645C7FEAEF
:10030800655C00F0E2804FEA5454D4EB5555B8BF11
:100318006D420CDD2C4480EA020281EA030382EA82
:10032800000083EA010180EA020281EA0303362D14
:1003380088BF30BD11F0004F4FEA01314FF4801CE7
:100348004CEA113102D0404261EB410113F0004FF9
:100358004FEA03334CEA133302D0524263EB4303B0
:1003680094EA050F00F0A780A4F10104D5F1200E4E
:100378000DDB02FA0EFC22FA05F2801841F10001A9
:1003880003FA0EF2801843FA05F359410EE0A5F17D
:1003980020050EF1200E012A03FA0EFC28BF4CF0AE
:1003A800020C43FA05F3C01851EBE37101F0004564
:1003B80007D54FF0000EDCF1000C7EEB00006EEB71
:1003C8000101B1F5801F1BD3B1F5001F0CD34908FB
:1003D8005FEA30004FEA3C0C04F101044FEA445252
:1003E80012F5800F80F09A80BCF1004F08BF5FEAD9
:1003F800500C50F1000041EB045141EA050130BDB9
:100408005FEA4C0C404141EB0101013C28BFB1F5CA
:10041800801FE9D291F0000F04BF01460020B1FA15
:1004280081F308BF2033A3F10B03B3F120020CDAE8
:100438000C3208DD02F1140CC2F10C0201FA0CF0C6
:1004480021FA02F10CE002F11402D8BFC2F1200C2B
:1004580001FA02F120FA0CFCDCBF41EA0C019040E1
:10046800E41AA2BF01EB0451294330BD6FEA04042A
:100478001F3C1CDA0C340EDC04F11404C4F1200215
:1004880020FA04F001FA02F340EA030021FA04F327
:1004980045EA030130BDC4F10C04C4F1200220FA7E
:1004A80002F001FA04F340EA0300294630BD21FABC
:1004B80004F0294630BD94F0000F83F4801306BF82
:1004C80081F480110134013D4EE77FEA645C18BF76
:1004D8007FEA655C29D094EA050F08BF90EA020F0D
:1004E80005D054EA000C04BF1946104630BD91EA05
:1004F800030F1EBF0021002030BD5FEA545C05D108
:100508004000494128BF41F0004130BD14F5800446
:100518003CBF01F5801130BD01F0004545F0FE41BA
:1005280041F470014FF0000030BD7FEA645C1ABFEF
:10053800194610467FEA655C1CBF0B46024650EA26
:10054800013406BF52EA033591EA030F41F4002152
:1005580030BD00BF90F0000F04BF0021704730B5D8
:100568004FF4806404F132044FF000054FF00001AD
:1005780050E700BF90F0000F04BF0021704730B56E
:100588004FF4806404F1320410F0004548BF404243
:100598004FF000013EE700BF42004FEAE2014FEA98
:1005A80031014FEA02701FBF12F07F4393F07F4F73
:1005B80081F06051704732F07F4208BF704793F076
:1005C8007F4F04BF41F40021704730B54FF4607489
:1005D80001F0004521F000411CE700BF50EA01028C
:1005E80008BF704730B54FF000050AE050EA010235
:1005F80008BF704730B511F0004502D5404261EBA5
:1006080041014FF4806404F132045FEA915C3FF4E5
:10061800D8AE4FF003025FEADC0C18BF03325FEA82
:10062800DC0C18BF033202EBDC02C2F1200300FA33
:1006380003FC20FA02F001FA03FE40EA0E0021FA58
:1006480002F11444BDE600BFFEE700BF0D4B0E4AA1
:10065800934206D00D4951F8040B43F8040B93421A
:10066800F9D10B4B0B4A934204D0002143F8041BE9
:100678009342FBD107F0F8F80DF0BCFE01F09EFBA9
:10068800FEE700BF000000248800002400EB0008FB
:10069800880000243C170024704700BF704700BF43
:1006A800704700BF704700BF704700BF704700BF6A
:1006B800704700BF704700BF704700BF704700BF5A
:1006C800704700BF704700BF704700BF704700BF4A
:1006D800704700BF5D4B5E49F0B5A3F1840585B056
:1006E8002846002243F8042B8B42FAD10022594CA9
:1006F800022613462A602E5100220133002440F8B6
:10070800042F0A6804649A42F6D8534B5349A3F15C
:1007180084063046002243F8042B8B42FAD100228B
:100728004C4C022713463260375100220133002413
:1007380040F8042F0A6804649A42F6D8484C082006
:10074800484F8DED010A3D6046F2A815266003F07A
:10075800C7FF03469DED010A3846ADF808300299F7
:1007680003F078F9092003F0BBFF034620463E4C0E
:10077800ADF80C3003999DED010A03F06BF93B4A83
:1007880045F6C05004F1180339492561A0500022EC
:1007980043F8042B8B42FAD1364846F2A811334D60
:1007A80045F6C0560161002146510435324E00F12C
:1007B80018036155E160314D6161A1552A60C4E9B2
:1007C80001112F49002243F8042B8B42FAD12D49FD
:1007D8000023DFED2D6AD1ED017A9FED2C6A36EE0C
:1007E800E77A2B4D67EE867A234E4355B0EEC77AEB
:1007F800284DC3604361B4EEE77A83550C602A60E4
:10080800F1EE10FAC0E90133234B186004DD234DE3
:10081800C1ED016A22602561D3ED017ADFED1A6A24
:100828009FED1A6A36EEE77A67EE867AB0EEC77AF7
:10083800B4EEE77AF1EE10FA05DD0021174AC3EDB0
:10084800016A0160026105B0F0BD00BF5CB7B2C0CB
:100858005C2F1CC184786900D43E49C0D4B6B2C0AC
:10086800B40800248C070024289F24C0189F240063
:10087800403E49C0000000C0249F2400483E49C0B3
:10088800189F24C0E409002400409C470AD7A33BD2
:100898001C9F2400209F24C0EC09002480380100FC
:1008A80010B502220721764805F0D0FC7549764B31
:1008B8000A6876480132007883FB0243D417C4EBF8
:1008C800631303EB4303A2EB8313714A0B6080BBF2
:1008D8001178002938D06F4C6F491070207081ED65
:1008E800000A6E49F7EE006AF6EE005A6C4A91ED7E
:1008F800007AB0EE006AD2ED007A36EEC77A37EEAB
:10090800657AE7EE067AF5EEC07AF1EE10FA00F1B4
:10091800B180F4EE667AF1EE10FA76FEA77A93B912
:10092800604BB0EE670A60481978BDE8104003F0E4
:1009380057BA1378002B3CD101245C485C491470E9
:10094800037081ED000A10BD524A117879B95249F5
:100958009FED587AD1ED007A70EE677AF0EEE77A7B
:10096800F4EEC77AF1EE10FABBDD012111704B4AA3
:10097800B7EE007AB6EE006AD2ED007AF0EE006AC1
:1009880077EE677A77EEC67AB0EE406AA7EEA66A87
:10099800B5EEC06AF0EE467AF1EE10FA6DD4F4EED8
:1009A800477AF1EE10FA77FE277A3D4A82ED000A7F
:1009B800B5E73E4B1A787AB93D4A9FED3E7AD2EDBB
:1009C800007A70EE677AF0EEE77AF4EEC77AF1EE25
:1009D80010FAB8DD01221A7001209FED371ADFEDF9
:1009E800370A02F007FF364BDFED326AD3ED017AA2
:1009F80030EE677A67EEA67AB0EEC77AB4EEE77A99
:100A0800F1EE10FA0DDDFCEEC07A2E4C19680020CC
:100A180083ED010A17EE902A0860A24228BF2246F9
:100A28000A61294BDFED236AD3ED017A30EE677A4C
:100A380067EEA67AB0EEC77AB4EEE77AF1EE10FA6E
:100A48000DDDFCEEC07A1F4C1968002083ED010A09
:100A580017EE902A0860A24228BF22460A611B4965
:100A680001221B4B81ED000ABFF35B8F1A70BFF3A5
:100A78005B8F10BDDFED177A51E7DFED167A94E74B
:100A8800A804002430070024ABAAAA2A150A0024C7
:100A9800340700242C07002420070024DC09002444
:100AA80024070024160A00248C0700242D0700249C
:100AB800280700240AD7A33B0050C34600606A48B1
:100AC800E4090024BF270900EC090024A40000243D
:100AD800140A00240000000010B506220721694806
:100AE8002DED028B05F0B2FB6749684B0A68684830
:100AF8000132007883FB0243D417C4EB631303EB82
:100B08004303A2EB8313634A0B6090BB117800295F
:100B18003CD0614C61491070207081ED000A604939
:100B2800F7EE006AF6EE005A5E4A91ED007AB0EEF2
:100B3800006AD2ED007A36EEC77A37EE657AE7EECC
:100B4800067AF5EEC07AF1EE10FA00F18C80F4EE38
:100B5800667AF1EE10FA76FEA77AA3B9524BB0EE98
:100B6800670A52481978BDEC028BBDE8104003F0C3
:100B780037B91378002B3ED101244D484D491470E4
:100B8800037081ED000ABDEC028B10BD424A11785A
:100B980079B942499FED487AD1ED007A70EE677ACB
:100BA800F0EEE77AF4EEC77AF1EE10FAB7DD01213C
:100BB80011703B4AB7EE007AB6EE006AD2ED007AC1
:100BC800F0EE006A77EE677A77EEC67AB0EE406AA2
:100BD800A7EEA66AB5EEC06AF0EE467AF1EE10FA14
:100BE80044D4F4EE477AF1EE10FA77FE277A2D4ACC
:100BF80082ED000AB1E72E4B1A787AB92D4A9FED9B
:100C08002E7AD2ED007A70EE677AF0EEE77AF4EE9B
:100C1800C77AF1EE10FAB6DD01221A70F0EE080A72
:100C280000209FED261A02F0E5FDB8FE400AFCEE12
:100C3800C07A17EE903A013BDBB2022B19D9B7EE16
:100C4800008AB0EE480A1E4802F0F2FE1D491E4B0B
:100C5800012281ED018ABFF35B8F1A70BFF35B8FAE
:100C6800BDEC028B10BDDFED157A76E7DFED137A68
:100C7800BDE7164A02EBC30393ED008BB7EEC88BB2
:100C8800DFE700BFA804002448070024ABAAAA2A6B
:100C9800150A00244C070024450700243C070024BB
:100CA800E009002440070024160A0024B4080024A0
:100CB80044070024380700240AD7A33B000000009B
:100CC800D0000024A4000024140A002468E40008CA
:100CD80001220721654810B52DED028B05F0B6FA03
:100CE800634B644A1B78002B3DD11178002947D00B
:100CF800614862491370037081ED000A604AF7EE9B
:100D0800006AF6EE005A5F4B92ED007AB0EE006A88
:100D1800D3ED007A36EEC77A37EE657AE7EE067AD3
:100D2800F5EEC07AF1EE10FA00F19A80F4EE667AE8
:100D3800F1EE10FA76FEA77AB0EE670A0020B7EE59
:100D4800041ADFED510A02F055FD504B9FED507A21
:100D5800D3ED007A30EE670ABDEC028BE0EE077A3D
:100D6800C3ED007A10BD1378002B3ED10124494809
:100D780049491470037081ED000ABDEC028B10BD67
:100D88003D4B1A787AB93D4A9FED447AD2ED007A04
:100D980070EE677AF0EEE77AF4EEC77AF1EE10FAC1
:100DA800ACDD01221A70364BB7EE007AB6EE006A57
:100DB800D3ED007AF0EE006A77EE677A77EEC67ABE
:100DC800B0EE406AA7EEA66AB5EEC06AF0EE467AC3
:100DD800F1EE10FA47D4F4EE477AF1EE10FA77FE06
:100DE800277A284B83ED000AA6E72A4B1A787AB9A6
:100DF800294A9FED2A7AD2ED007A70EE677AF0EEF2
:100E0800E77AF4EEC77AF1EE10FAB6DD01221A702D
:100E18009FED231A0120DFED230A02F0EBFCB0EE70
:100E2800408A21480CF048FB2048B0EE480A0CF0F4
:100E380043FBB0EE480A1E480CF03EFBB0EE480AF1
:100E48001C480CF039FB1C491C4B012281ED048A1B
:100E5800BFF35B8F1A70BFF35B8FBDEC028B10BDC5
:100E6800DFED097A68E7DFED087ABAE7A80400241D
:100E7800150A00240E0700240D0700240407002487
:100E8800FC0900240807002400000000F8090024D9
:100E98006F12033D0C070024000700240AD7A33B68
:100EA800000048440000C842F4040024400500241F
:100EB800D80200242C030024A4000024140A0024CF
:100EC80004220721654810B52DED028B05F0BEF907
:100ED800634B644A1B78002B3DD11178002947D019
:100EE800614862491370037081ED000A604AF7EEA9
:100EF800006AF6EE005A5F4B92ED007AB0EE006A97
:100F0800D3ED007A36EEC77A37EE657AE7EE067AE1
:100F1800F5EEC07AF1EE10FA00F19A80F4EE667AF6
:100F2800F1EE10FA76FEA77AB0EE670A0020B7EE67
:100F3800041ADFED510A02F05DFC504B9FED507A28
:100F4800D3ED007A30EE670ABDEC028BE0EE077A4B
:100F5800C3ED007A10BD1378002B3ED10124494817
:100F680049491470037081ED000ABDEC028B10BD75
:100F78003D4B1A787AB93D4A9FED447AD2ED007A12
:100F880070EE677AF0EEE77AF4EEC77AF1EE10FACF
:100F9800ACDD01221A70364BB7EE007AB6EE006A65
:100FA800D3ED007AF0EE006A77EE677A77EEC67ACC
:100FB800B0EE406AA7EEA66AB5EEC06AF0EE467AD1
:100FC800F1EE10FA47D4F4EE477AF1EE10FA77FE14
:100FD800277A284B83ED000AA6E72A4B1A787AB9B4
:100FE800294A9FED2A7AD2ED007A70EE677AF0EE00
:100FF800E77AF4EEC77AF1EE10FAB6DD01221A703C
:101008009FED231A0120DFED230A02F0F3FBB0EE77
:10101800408A21480CF050FA2048B0EE480A0CF0FB
:101028004BFAB0EE480A1E480CF046FAB0EE480AF1
:101038001C480CF041FA1C491C4B012281ED058A21
:10104800BFF35B8F1A70BFF35B8FBDEC028B10BDD3
:10105800DFED097A68E7DFED087ABAE7A80400242B
:10106800150A00241E0700241D0700241407002465
:10107800040A00241807002400000000000A0024C5
:101088006F12033D1C070024100700240AD7A33B56
:1010980000803B460080BB448C050024D805002412
:1010A80080030024D4030024A4000024140A00248C
:1010B80005220721824810B52DED028B05F0C6F8F0
:1010C800804B814A1B78B3BB1178002940D07F48F8
:1010D8007F491370037081ED000A7E4AF7EE006ABB
:1010E800F6EE005A7C4B92ED007AB0EE006AD3ED32
:1010F800007A36EEC77A37EE657AE7EE067AF5EECD
:10110800C07AF1EE10FA00F1C180F4EEE67AF1EE61
:1011180010FA40F3C680B7EE000A704B9FED707A64
:10112800D3ED007A30EE670ABDEC028BE0EE077A69
:10113800C3ED007A10BD1378002B58D101246948FB
:1011480069491470037081ED000ABDEC028B10BD73
:101158005E4B1A787AB95E4A9FED647AD2ED007ACE
:1011680070EE677AF0EEE77AF4EEC77AF1EE10FAED
:10117800B3DD01221A70574BB7EE007AB6EE006A5B
:10118800D3ED007AF0EE006A77EE677A77EEC67AEA
:10119800B0EE406AA7EEA66AB5EEC06AF0EE467AEF
:1011A800F1EE10FA75D4F4EEC77AF1EE10FA75DDA7
:1011B800F0EE477AB7EE006B474B83ED000A9FEDE0
:1011C8003A5BB4EEC56BF1EE10FAA4DA9FED385B2A
:1011D800B4EEC56BF1EE10FA58D9B0EE670A0020EC
:1011E800B7EE001ADFED420A02F004FB95E73D4B2B
:1011F8001A787AB93C4A9FED3D7AD2ED007A70EEC2
:10120800677AF0EEE77AF4EEC77AF1EE10FA9CDD31
:1012180001221A70B6EE001ADFED350A002002F03E
:10122800E9FAB0EE408A33480CF0AAF93248B0EE39
:10123800480A0CF0A5F9B0EE480A30480CF0A0F9BD
:10124800B0EE480A2E480CF09BF9B0EE480A2D483B
:101258000CF096F9B0EE480A2B480CF091F9B0EE74
:10126800480A2A480CF08CF9B0EE480A28480CF0D5
:1012780087F92849284B012281ED068ABFF35B8F45
:101288001A70BFF35B8FBDEC028B10BD9FED180A7F
:1012980043E79FED096BDFED167A8DE7B7EEE76A56
:1012A8008AE7B7EEE76A8AE75C8FC2F5285CEF3F0A
:1012B8007B14AE47E17A943F000000000000000074
:1012C800A8040024150A0024F0060024E8060024D7
:1012D800E0060024F4090024E406002404000024A5
:1012E8006F12833CDC060024EC0600240AD7A33BDB
:1012F800000000008C050024D8050024F404002414
:101308004005002480030024D4030024D8020024CC
:101318002C030024A4000024140A00240722634894
:10132800114610B52DED028B04F090FF604BB0EE26
:10133800408A604A1B78002B3ED11178002948D09A
:101348005D485E491370037081ED000A5C4AB7EE90
:10135800007AB6EE006A5B4BD2ED007AF0EE006AD6
:1013680093ED000A77EE677A77EEC67AA7EEA60ABB
:10137800B5EEC00AF1EE10FA00F19180B4EE470A1A
:10138800F1EE10FA37FE000AF6EE000A00209FED93
:101398004E1A02F02FFA4D4B9FED4D7AD3ED007A9D
:1013A8004C4A30EE670ABDEC028BE0EE077AC3EDDB
:1013B800007AC2ED007A10BD1378002B43D10124C6
:1013C800454846491470037081ED000ABDEC028B54
:1013D80010BD394B1A787AB9384A9FED417AD2ED67
:1013E800007A70EE677AF0EEE77AF4EEC77AF1EEFB
:1013F80010FAABDD01221A70314BB7EE007AB6EE67
:10140800006AD3ED007AF0EE006AB0EE480A77EE93
:10141800677A77EEC67AA7EEA60AB5EEC00AF1EEAD
:1014280010FA3FD4B4EE470AF1EE10FA37FE000A7C
:10143800F6EE000A00209FED241A02F0DBF9214B9A
:1014480083ED008AA7E7244B1A787AB9234A9FEDDF
:10145800247AD2ED007A70EE677AF0EEE77AF4EE4D
:10146800C77AF1EE10FAB1DD01221A70B0EE480A1F
:1014780000209FED1C1ADFED140A02F0BBF91A4890
:1014880001221A491A4B80ED000A81ED020ABFF3C6
:101498005B8F1A70BFF35B8FBDEC028B10BD9FEDA5
:1014A8000A0A71E79FED080AC2E700BFA8040024F2
:1014B800150A0024D6060024D4060024D8060024E1
:1014C800600A0024CC060024000000000800002464
:1014D8006F12033D20040024D5060024D006002402
:1014E8000AD7A33B0000FA4388010024A400002483
:1014F800140A002400220721454810B52DED028B5F
:1015080004F0A4FE434BB0EE408A434A1B78FBB973
:10151800117849B3414842491370037081ED000ABC
:10152800404BB7EE001A0020DFED3F0A93ED000AAA
:1015380002F060F93D4B9FED3E7AD3ED007A30EE34
:10154800670ABDEC028BE0EE077AC3ED007A10BDA6
:1015580013784BBB0124374837491470037081ED69
:10156800000ABDEC028B10BD2C4B1A787AB92C4AB4
:101578009FED327AD2ED007A70EE677AF0EEE77A74
:10158800F4EEC77AF1EE10FACADD01221A70B7EE4E
:10159800001A0020B0EE480ADFED230A02F02AF90B
:1015A800204B83ED008AC5E7224B1A787AB9224A84
:1015B8009FED227AD2ED007A70EE677AF0EEE77A44
:1015C800F4EEC77AF1EE10FACBDD01221A701C4C4A
:1015D800B0EE480AB2EE041A0020DFED1A0A02F053
:1015E80009F92046B0EE408A84ED020A0CF00AFAA6
:1015F8001549164B012281ED038A84ED060ABFF3D3
:101608005B8F1A70BFF35B8FBDEC028B10BD00BF00
:10161800A8040024150A0024750700247407002470
:101628006C070024700700240000000088070024CD
:101638006F12033D68070024640700240AD7A33B00
:10164800CC040024CDCCCC3DA4000024140A0024F2
:1016580003220721464810B52DED028B04F0F6FD54
:10166800444BB0EE408A444A1B78FBB9117849B321
:10167800424843491370037081ED000A414BB7EEAD
:10168800001A0120DFED400A93ED000A02F0B2F8DB
:101698003E4B9FED3F7AD3ED007A30EE670ABDEC02
:1016A800028BE0EE077AC3ED007A10BD13784BBBCE
:1016B8000124384838491470037081ED000ABDECE4
:1016C800028B10BD2D4B1A787AB92D4A9FED337ACB
:1016D800D2ED007A70EE677AF0EEE77AF4EEC77A28
:1016E800F1EE10FACADD01221A70B7EE001A0120D5
:1016F800B0EE480ADFED240A02F07CF8214B83EDB6
:10170800008AC5E7234B1A787AB9234A9FED237AD2
:10171800D2ED007A70EE677AF0EEE77AF4EEC77AE7
:10172800F1EE10FACBDD01221A70DFED1D7AB4EE6E
:10173800E78AF1EE10FA0FD51A4B00221A701A49EF
:1017480001221A4B81ED078ABFF35B8F1A70BFF332
:101758005B8FBDEC028B10BDDFED157AB4EEE78A26
:10176800F1EE10FAEBDD0F4B01221A70E7E700BF2C
:10177800A8040024150A00245E0700245D0700243D
:10178800540700245807002400000000080A002419
:101798006F12033D5C070024500700240AD7A33BBF
:1017A8006666E63E90010024A4000024140A002482
:1017B800CDCC0C3F08B50621064804F037FD0020C3
:1017C8009FED051ADFED050A02F014F8044B83EDCE
:1017D800000A08BDA804002400004843000048C3CC
:1017E8000C0A002438B5154A154C164D164B94EDC5
:1017F800007AD5ED007A92ED006AD3ED006A36EEF4
:10180800476ADFED125A76EEE76A1148A6EE257AA6
:10181800E6EEA57A84ED007AC5ED007A0BF010FFAC
:1018280095ED007AD4ED007A0A4AE0EE077A0A4B81
:10183800C2ED3E7AC3ED3E7A38BD00BF0C0A0024E3
:10184800C4060024C8060024880100240AD7233CC3
:10185800CC0400248C070024B408002408B50F48E1
:1018680004F000F800B908BD0D4802F087F8002818
:10187800F9D00B4802F0C2F80A4802F091FB084878
:1018880002F0D0F808490122084B81ED080ABFF39D
:101898005B8F1A70BFF35B8F08BD00BF1401002473
:1018A800D0000024180A0024A4000024140A0024EC
:1018B80010B5054C0548217802F0D2F92178044882
:1018C800BDE8104002F0CCB9160A00248C070024A9
:1018D800B4080024184808B502F070FB164802F056
:1018E800B1FBD0B9154B1B68134AB1EE086A07EE75
:1018F800903ADFED136AD2ED0C5AF8EEE77A114907
:1019080085EE867A104A114BA7EEA67A81ED487AC1
:1019180082ED487A83ED007A08BD08490C4B0A68C5
:10192800013283FB0203A3EBE27303EB4303A2EB55
:1019380043030B60D8E700BF180A0024600700249F
:10194800920A863F8C070024B40800248C010024E6
:10195800ABAAAA2A9FEDDA7AD0ED007AF4EEC77A1C
:1019680038B5F1EE10FA0446D64BC0F232819FED3D
:10197800D67AF4EEC77AF1EE10FA00F22A8193EDE6
:10198800017A9FEDD26A77EEC76A27EE067AF0EE03
:10199800E66AF4EEC76AF1EE10FA0FDDBCEEE77AFC
:1019A800CB4D19680020C3ED017A17EE102A0860A4
:1019B800D4ED007AAA4228BF2A460A61C54B9FED9A
:1019C800C36A93ED017A77EEC76A27EE067AF0EEDE
:1019D800E66AF4EEC76AF1EE10FA00F3D381F7EE87
:1019E800007A94ED010AB4EEE70AF1EE10FA06DB8C
:1019F800F0EE087AB4EEE70AF1EE10FA01D9B7EE84
:101A0800000AB54802F014F8D4ED027AF5EEC07A6F
:101A1800F1EE10FAC0F2B381DFEDB06A9FEDB07A53
:101A2800F4EEE67AF1EE10FA88BFF0EE477A94ED1C
:101A3800030A9FEDAC7AAC4BB4EEC70AAB4DC3EDCD
:101A4800007AF1EE10FA06DBF2EE047AB4EEE70A59
:101A5800F1EE10FA01D99FEDA60A284685ED020A93
:101A68000BF0D0FFDFEDA37A85ED060A94ED050AA9
:101A7800B4EEE70AF1EE10FA07DBDFED9F7AB4EE79
:101A8800E70AF1EE10FA40F267819FED9B0A9B4846
:101A98000BF012FD9FED980A99480BF00DFD9FED94
:101AA800960A98480BF008FD9FED930A96480BF0AC
:101AB80003FD94ED040ADFED957AB4EEE70AF1EE42
:101AC80010FA07DBDFED927AB4EEE70AF1EE10FACE
:101AD80040F2E3809FED8F0A8F480BF0EDFC9FEDFD
:101AE8008D0A8E480BF0E8FC9FED8A0A8C480BF0B3
:101AF800E3FC9FED880A8B480BF0DEFC94ED060AA8
:101B0800B5EEC00AF1EE10FA07DBF6EE007AB4EE95
:101B1800E70AF1EE10FA40F299809FED710A7948D0
:101B28000BF02EFD9FED6E0A7D480BF029FD9FED11
:101B38006C0A75480BF024FD9FED690A79480BF093
:101B48001FFDD4ED077A9FED787A784BF4EEC77ACB
:101B5800F1EE10FA06D49FED767AF4EEC77AF1EE3C
:101B680010FA70DC00221A7094ED080ADFED717A21
:101B7800B4EEE70AF1EE10FA06DBDFED6F7AB4EEA9
:101B8800E70AF1EE10FA01D99FED6C0A524801F00C
:101B980053FF514801F032FF694802F001FADFEDC6
:101BA800697A94ED097A6848B4EEE77AF1EE10FAAA
:101BB80042DD02F0C3FADFED637A94ED0A7A6348F6
:101BC800B4EEE77AF1EE10FA39DDBDE8384002F0FC
:101BD800B5BAD3ED017ADFED5E6A9FED3C6A36EE69
:101BE800E77A67EE867AB0EEC77AB4EEE77AF1EE76
:101BF80010FA06DD1A6800215648C3ED016A106123
:101C08001160344BDFED526AD3ED017A9FED2F6AF4
:101C180036EEE77A67EE867AB0EEC77AB4EEE77A00
:101C2800F1EE10FA7FF7DBAE1A6800214948C3EDE0
:101C3800016A10611160D2E602F088FABBE7BDE8DC
:101C4800384002F083BA01221A708DE72B480BF056
:101C580097FC94ED060A30480BF092FC94ED060AC6
:101C680027480BF08DFC94ED060A2C480BF088FCF5
:101C780094ED060A23480BF083FC94ED060A2848E5
:101C88000BF07EFC94ED060A1F480BF079FC94EDEE
:101C9800060A24480BF074FC53E71F480BF00CFCB1
:101CA80094ED040A1D480BF007FC94ED040A1C4847
:101CB8000BF002FC94ED040A1A480BF0FDFB1DE73B
:101CC8000050C346E409002400606A480AD7A33BD1
:101CD800BF270900EC090024D00000240000FA43C3
:101CE80000000000CDCCCC3D88010024CC040024A9
:101CF8009A99A1400080BB4400803B468C05002493
:101D0800D805002480030024D40300240000C8421E
:101D18000000484400004843F4040024400500241F
:101D2800D80200242C0300246666E63E90010024B5
:101D3800CDCC0C3F00409C46001BB74A0024F44819
:101D4800180A002448E1FA3E94010024C80100243E
:101D5800006501489405020012480BF0ADFB94EDB4
:101D6800050A11480BF0A8FB94ED050A0F480BF083
:101D7800A3FB94ED050A0E480BF09EFB99E6DFEDF8
:101D88000D7A54E6BCEEE77A0B4D19680020C3EDD6
:101D9800017A17EE102A0860AA4228BF2A460A616B
:101DA8001DE600BF8C050024D8050024800300240C
:101DB800D403002400000000BF27090080B5CF48E5
:101DC800D4B002F06DFC0021CC48B2EE0E8A02F0CD
:101DD800F9FC1D2002F084FC034606200224ADF81D
:101DE8000C3002F07DFC0346C4484FF00108F7EEC2
:101DF800008AADF8103002F08DFC012380EE080A4D
:101E0800BF48C04FC04DC14EDDE9031202F01EF9B4
:101E18001E2002F065FC03460720ADF8143002F0DE
:101E28005FFC0346B548ADF8183002F073FC012397
:101E380080EE080AB648DDE9051202F007F90A2023
:101E480002F04EFC03460220ADF81C3002F048FCBC
:101E58000346AA48ADF8203002F05CFC002380EE6F
:101E6800080AAC48DDE9071202F0F0F80B2002F08E
:101E780037FC03460320ADF8243002F031FC03465A
:101E88009E48ADF8283002F045FC002380EE080A91
:101E9800A148DDE9091202F0D9F8182002F020FC67
:101EA80003460420ADF82C3002F01AFC0346934890
:101EB800ADF8303002F02EFC234680EE080A974831
:101EC800DDE90B1202F0C2F8002002F009FC03461B
:101ED8008A48ADF8343002F01DFC0D9980EE080AEE
:101EE800424643468E48009403F02AFD404602F0DD
:101EF800F7FB03468148ADF8383002F00BFC424648
:101F080080EE080A0E994346864800944FF07C54A8
:101F180003F016FD172002F0E3FB03467748ADF8FF
:101F28003C3002F0F7FB0F9980EE080A7E4803F078
:101F38003BFD7E497E4803F08DFC704802F0EAFBC9
:101F480038460BF0D5F86D48C7ED008ABC607C6157
:101F5800FD6002F0DFFB774F30460BF0C9F86748A9
:101F6800C6ED008AB460F560746102F0D3FB724E6E
:101F780038460BF0BDF86148C7ED008ABD60FD60CA
:101F88007D6102F0C7FB30469FED6C8A0BF0B0F81C
:101F98006B496C4A6C4B0C6014601C6081F80480BF
:101FA80082F8048083F804805448C6ED008AB5603E
:101FB800F560756102F0AEFBFEF78CFB4F4802F04E
:101FC800A9FB62480BF0F2F9B0EE480A5F480BF043
:101FD800D7FA9FED5F0A5D480BF06EFA9FED5D0A38
:101FE8005A480BF013FB454802F094FB5A480BF093
:101FF800DDF9B0EE480A58480BF0C2FA9FED540AD2
:1020080055480BF059FA9FED530A53480BF0FEFA66
:102018003A4802F07FFB51480BF0C8F9B0EE480A85
:102028004E480BF0ADFA9FED530A4C480BF044FABA
:102038009FED480A49480BF0E9FA304802F06AFB7C
:1020480047480BF0B3F9B0EE480A45480BF098FA48
:102058009FED480A42480BF02FFA9FED3E0A404890
:102068000BF0D4FA254802F055FB3E480BF09EF9D8
:10207800B0EE480A3B480BF083FA9FED350A394821
:102088000BF01AFA9FED330A36480BF0BFFA1B48DB
:1020980002F040FB34480BF089F9B0EE480A3248A8
:1020A8000BF06EFA9FED2A0A2F480BF005FA9FED08
:1020B800290A2D480BF0AAFA104802F02BFB2B48EE
:1020C8000BF074F9B0EE480A28480BF059FA9FED66
:1020D800290A26480BF0F0F99FED1E0A23480BF059
:1020E80095FA064802F016FB21480BF05FF9B0EEAE
:1020F800480A1F480BF044FA3EE000BF9004002451
:1021080054010024600200240AD7233C98020024CA
:102118002001002494010024C80100242C0200247A
:10212800FC0100240C0200241C0200241C010024D1
:10213800140100245C06002424060024000000008A
:102148005004002458040024200400248C05002492
:1021580000803B463333333FD8050024F404002481
:102168004005002480030024D4030024D80200245E
:102178002C030024000048431FED020A99480BF085
:102188009BF99FED990A97480BF040FA974802F09F
:10219800C1FA97480BF042FC944802F0BBFA954804
:1021A8000BF03CFC914802F0B5FAF0EE407A924F01
:1021B8009FED920A88EEA77A38467C60C7ED037ACD
:1021C80087ED058A87ED020A8D4C8E4D8E4E87ED80
:1021D800047A0BF017FC40F20113F0EE407A38460F
:1021E80087F80080BB84B0EE680AC7ED067AC7EDB1
:1021F800028A0BF007FCF0EE407A844A44F620612C
:10220800B7EE040A8248C7ED018AC7ED067A01F0E5
:1022180049FB18201CAF02F063FA03467348ADF877
:10222800403002F077FA10997A4801F06FFE78484A
:1022380001F0E4FB774801F0B3FE764801F0BAFEFE
:102248001CA801F0EDFF1CA8FFF784FBDFF8D0C144
:102258000FCFACE80F000FCFACE80F0097E80700EE
:102268008CE807000F2002F03BFA034632A8ADF8CD
:102278004430119903F0DAFB102002F031FA0346DA
:102288000DF1D900ADF84830129903F0CFFB1120B9
:1022980002F026FA03460DF1EA00ADF84C30139926
:1022A80003F0C4FB122002F01BFA03460DF1FB00F9
:1022B800ADF85030149903F0B9FB132002F010FA6E
:1022C800034643A8ADF85430159903F0AFFB14202A
:1022D80002F006FA03460DF21D10ADF858301699B3
:1022E80003F0A4FB162002F0FBF903460DF59770E6
:1022F800ADF85C30179903F099FB192002F0F0F95A
:1023080003460E20ADF8603002F0EAF903460D20CE
:10231800ADF8643002F0E4F903460C20ADF86830FB
:1023280002F0DEF9BDF868100822199BADF800101C
:10233800ADF804001899ADF86C000DF23F1003F0E9
:1023480083FB32A906230822334803F0B7FB32483F
:1023580003F056FF4146254802F0E0F92F4923488B
:1023680002F0D4F9BFF35B8F237800210122BFF379
:102378005B8F4BB1BFF35B8F2170BFF35B8F2A700C
:1023880005F0EAF83060EDE72B78012B0BD0022B33
:10239800E8D105F0E1F833680022C01AB0F5966F6D
:1023A800E0D92A70DEE705F0D7F83368C01AB0F52F
:1023B8007A7F01D82B78EAE7DFF864C027AF4FF0BF
:1023C800020EBCE80F000FC7BCE80F000FC79CE85F
:1023D800070087E8070027A885F800E001F0D6FE87
:1023E800E8E700BF2C0300243333333F9004002474
:1023F8002804002434040024CC0400240000C8422B
:10240800140A0024110A002478070024808D5B0038
:10241800D0000024180A0024A80400247D270008FE
:10242800A400002408B59FED1E0A1E4801F008FE0E
:102438009FED1B0A1C4801F003FE1C489FED180A7B
:1024480001F0FEFD1A4801F08BFEC8B918489FED4F
:10245800140A01F097FE174801F082FED0B99FEDEB
:10246800100A144801F08EFE9FED0D0A124801F083
:1024780089FE9FED0B0A1148BDE8084001F082BEB5
:102488000B48B7EE000A01F07DFE0A4801F068FE2D
:102498000028E4D0B7EE000A064801F073FEE3E72F
:1024A80000000000180A002490070024B80800243F
:1024B80094010024C80100245401002420010024B0
:1024C80070B5984801F0FEFD974801F0FBFD97486C
:1024D80001F0F8FD964C974801F0F4FD964801F09C
:1024E800F1FD204603F07CFA944803F079FA944809
:1024F80003F076FA63797F2B00F0DC808F4B5B79F1
:102508007F2B00F0BE8087488E4C01F02BFED0B1A7
:1025180023680133032B236000F0E580814801F034
:102528001FFEF7EE007A9FED887A002887494FF062
:102538000102874B47FE277AC1ED097ABFF35B8F0B
:102548001A70BFF35B8F774801F014FE10B123684F
:10255800013B2360744801F005FED0B123680133C4
:10256800032B236000F0C4806F4801F0F9FDF7EEFB
:10257800007A9FED757A002874494FF00102744B78
:1025880047FE277AC1ED0A7ABFF35B8F1A70BFF353
:102598005B8F654801F0EEFD10B12368013B2360B5
:1025A800654801F0DFFD002855D1634801F0E2FDE0
:1025B80038B1236800226748013B674902702360ED
:1025C8000A705D4801F0CCFD60B92368032B16D072
:1025D8005B4B624A5B79A3F1FF03B3FA83F35B09B0
:1025E800137070BD04F0B8FF5D4B1B68C01A322829
:1025F800EBD9584B01221A702368032BE8D1594EA6
:1026080004F0AAFF40F6B8333268801A9842DFD93E
:10261800444801F045FD444801F042FD524DFFF7A2
:1026280001FF4C4B00225048484C1A70FFF792F9B2
:102638000FCD0FC40FCD0FC495E8070084E807003D
:1026480004F08AFF424B01223060BFF35B8F1A709F
:10265800BFF35B8FBCE7454801F03EF900284CD139
:10266800434801F0A7FC04F077FF23683C4A013394
:102678001060032B236098D104F06EFF394B18606B
:1026880093E7294801F00CFD274801F069FDF7EEB2
:10269800007A9FED2D7A00282C494FF001022C4B2F
:1026A80047FE277AC1ED0A7ABFF35B8F1A70BFF332
:1026B8005B8F28E71B4801F0F3FC1A4801F050FD36
:1026C800F7EE007A9FED207A002820494FF00102AA
:1026D8001F4B47FE277AC1ED097ABFF35B8F1A704B
:1026E800BFF35B8F0AE704F037FF1E4B186015E74E
:1026F80004F032FF1B4B186036E71C4801F07EF9E6
:102708001B4801F04DFC194801F08CF90F490122D2
:102718000F4B81ED080ABFF35B8F1A70BFF35B8F15
:102728009EE700BF94010024C8010024540100243E
:10273800FC010024200100242C0200240C020024A7
:102748001C020024F406002400000000A400002459
:10275800140A0024150A0024100A0024160A00246A
:10276800FC060024F806002480E40008D0000024B9
:10277800180A0024DFF890C0204B2DE9F04FDCF850
:102788000040154606460F46013483FB0432E31722
:102798002244C3EBE203C3EB0313E31A2DED0E8BC4
:1027A800CCF8003095B00E2B17D8DFE813F09C0555
:1027B8000F00A405AD05B605F705000609061206C3
:1027C8001B0624062D0636063F06930500210C48F5
:1027D80003F02CFD0B4B83ED000A002D00F05C8507
:1027E8000023013DDFF82480B346029325F001035E
:1027F800DFF81C90009705935AE100BF8988888804
:10280800A8040024DC09002484070024940600247A
:10281800AC060024B8EE007AF4EE477AF1EE10FA2E
:1028280048BFF0EE477AB0EE007A9DED090ACDED8B
:10283800087AB4EEC70AF1EE10FA00F36C84B8EE29
:10284800007ADB4B1B78B4EE470AF1EE10FA48BF6A
:10285800B0EE470A8DED090A002B00F06584D54BD0
:10286800D8ED042AD3ED004AD34B98ED006A93EDD6
:10287800007AD24BF4EEC74AD9ED043A99ED054AED
:1028880099ED032AF1EE10FA98ED053A98ED031A3E
:10289800DFEDCB1A58BF74EEC74A93ED007AC94BE7
:1028A800D3ED006A67EEA44AD9ED007AB4EEE67A71
:1028B800C54BF1EE10FA58BF37EE667AF7EE006AAC
:1028C80020EE070A36EEE25A76EEE35A36EEC37A7F
:1028D80025EE065A93ED006A65EEA75A76EEC47A9D
:1028E800A4EEA25AE0EE235A67EE827A27EE017A26
:1028F80076EEC66A34EEC52A88ED005A70EE652A6F
:10290800C9ED005A66EE005AF0EEC23A88ED022A86
:10291800B0EEE25AC9ED022A26EE246AA3EE837AC3
:10292800C8ED013AE5EE047A89ED015AE6EEA45ABB
:10293800A6EE806AB4EEE17A88ED037AC9ED037AEF
:10294800F1EE10FAC0F2E48337EE617AF0EE086A2D
:1029580027EE267ADFED9A6A974BF4EEE67A83ED56
:10296800007AF1EE10FAC0F2D08377EEE67AB0EE94
:10297800087A67EE877A934B78EEA58A38EE066A6E
:10298800C3ED007AF0EE007AF4EEE78AF1EE10FA81
:1029980000F35D84F8EE007AF4EE678AF1EE10FA3F
:1029A80048BFF0EE678AF0EE007ACDED0A8AB4EE01
:1029B800E76AF1EE10FA00F34684F8EE007AB4EE16
:1029C800676AF1EE10FA48BFB0EE676A0AA97F4855
:1029D8008DED0B6A01F050F90BA97D4801F04CF917
:1029E80009AA08A97B480AF079FC08AA09A9794824
:1029F8008DED0C0A0AF072FCB0EE007ADDED0C7A6F
:102A0800F4EEC77AF1EE10FA00F32584B8EE007AF6
:102A1800F4EE477AF1EE10FA48BFF0EE477AB0EEDE
:102A2800007ACDED0C7AB4EEC70AF1EE10FA00F395
:102A3800D382B8EE007A5E4B1B78B4EE470AF1EE0B
:102A480010FA48BFB0EE470A8DED0D0A002B40F092
:102A5800CC82614BF6EE006A93ED007AB4EEE67A2A
:102A6800F1EE10FA40F18F8237EE077A9BED006A9B
:102A7800DBED016AA7EE276AE7EE006AF0EE467A18
:102A8800B0EE660A554B1B78002B00F076820023C7
:102A9800009A13605360009B0BF1080B029A05998A
:102AA80008338A42009302F1020300F0F58302938F
:102AB800FEF7D4FEDFF898A1FEF794FE484800F030
:102AC8009BFF424A034647489FED47AAF7EE00AAF4
:102AD800C2F81431F6EE028A3D4ADFED449AC2F894
:102AE800143101F03DFB014641480AF01FFB414803
:102AF800F0EE40BA01F034FB01463F480AF016FBFD
:102B08003E48B0EE409A01F02BFB01463C480AF0E3
:102B18000DFB3C48B0EE408A01F022FB01463A48E2
:102B28000AF004FB39483A4BF0EE407AC0ED00BA9F
:102B380038481D6880ED009A374805EB0A02374B84
:102B480080ED008A364892ED00BA80ED008A35485B
:102B58002BEE0A0A04923AEECBCA80ED008A32487C
:102B68001B6880ED008A31489FED319AC0ED007AEC
:102B78003048D5E90267C0ED007A05EB87022E4898
:102B880005EB8601D2ED06DA2C4AC0ED007A136017
:102B98002B4A2C4813602C4AC0ED007A13602B4A4C
:102BA80091ED06EA13600BF0C7F9F0EE40BA51E078
:102BB80090010024F80900247C070024000A00245E
:102BC800CDCCCC3E80070024880700248C07002445
:102BD800B40800242004002404000024100A00245F
:102BE800D000002494010024DB0FC93FE4CB9640B9
:102BF80060020024C8010024980200242001002457
:102C080024060024540100245C06002450040024F7
:102C1800E409002458040024D0020024080A0024EF
:102C2800240300246004002468040024780300249A
:102C38000000803DCC0300247004002440040024DC
:102C48004804002478040024800400248804002414
:102C5800209F24002BEE290A0BF06EF9B0EE408A73
:102C68002CEE0A0A0BF068F928EE098AABEEA88A5E
:102C7800F0EE40BA2CEE290A0BF05EF960EE097A04
:102C8800C94BEBEEA87A1C6838EE088A04EB0A01F7
:102C9800D4E9022391ED00CA77EEA77A04EB820209
:102CA80004EB83037AEECCAA2CEE0A0A92ED06DA3C
:102CB80067EE8E7AD3ED06CA0391EDEE887ACDEDF4
:102CC800067A0BF039F9F0EE40BA2CEE290A0BF02F
:102CD80033F9B0EE408A2AEE8A0A0BF02DF9F0EEAD
:102CE800407A2AEEA90A28EE098AF0EE679A0BF0D4
:102CF80023F9AE4860EE097AAD4BABEEA88A0644DC
:102D0800D5F804E0E9EEA87A3844A3FB06C1DFF859
:102D1800C4C205EB8E0A890C38EE088A0CFB1161D7
:102D2800A44E37EEA70ADBED007A01917644A3FBA7
:102D3800001EA3FB061301994FEA9E4E20EE0D0AD2
:102D48009B0C0CFB1E00ACEE880A0CFB1363D5E948
:102D58000472CAED067A3A44DFF864A2013255F8E3
:102D68000AE007F1FF3A8DED070AC5E90210B2FB48
:102D7800F7F1AAEB0E0A07FB11226B6052456A6154
:102D880040F2DA808C49685C6A18002840F0DA80E2
:102D98008A480127013B2E5C28446F54002E40F0DE
:102DA8007782EB6007EE90EAB7EE007AF8EE676A92
:102DB800C7EE267A37EE8BBAB4EEC7BAF1EE10FA40
:102DC80040F3D780049B002183ED007A0123117022
:102DD800037021690BF104036069656808EE103A15
:102DE8000844744F04EB850E704B421C2F4401F1CC
:102DF800FF3CDBED017AD4E9020500EB030A1D4430
:102E080003F1E043B2FBF1F001FB10206C49A3F59C
:102E180040136158A3F63A23CEED067A0191A3FB3D
:102E28000762DFF8B0E1A3FB0A61A3FB0563019E1B
:102E3800920C6061890CACEB060C9B0C0EFB1272B9
:102E48000EFB11A160450EFB1353C4E90121E36099
:102E580051D95949605C6318002851D15748012756
:102E6800013A255C20446754002D40F01382E2604B
:102E7800DDED017AB7EE007A039AB8EE676AD2ED13
:102E8800006AC7EE067A77EEA67AF4EEC77AF1EE14
:102E980010FA40F31282039A002182ED007A01228F
:102EA8001970027006AA594646480AF017FA18EE31
:102EB800101A07AA4448F0EE408A0AF00FFA43486D
:102EC800B0EE408A00F042FE034641481B68089372
:102ED80000F03CFE03680993FEF7FCFCB0EE007AB4
:102EE800DDED087AF4EEC77AF1EE10FA7FF792ACCE
:102EF800F0EE477A97E4304BE25C2344002AD1D0C5
:102F08002E4AA018A25C002AB2D0DDED017AB7EEF5
:102F1800006A03990022F8EE676AD1ED007A86EE1E
:102F2800267A77EEC77AF5EEC07AF1EE10FA00F15C
:102F3800B881C1ED007AB5E71F4AAB5C2A44002B83
:102F48003FF447AF1D4BE818EB5C002B3FF42AAF6A
:102F580007EE90EAF7EE006A0023B8EE677AC6EE4D
:102F6800877A3BEE67BAB5EEC0BAF1EE10FA00F117
:102F78009E81049B83ED00BA2BE7009BC3ED007A8A
:102F880083ED010A87E540F36A81F7EE006ADBED1D
:102F9800005A9BED016A36EEC77A37EE077AE7EEFC
:102FA800257AA7EE060A6DE5EC090024BF2709007B
:102FB800851DD96FC1270900249F24001C9F240068
:102FC800189F240050040024580400248C0700246F
:102FD800B4080024C0270900D44BB0EE470A1B7878
:102FE8008DED0D0A002B3FF434AD9FEDD18AD14D04
:102FF80027EE880AD04C28460AF0FEF99DED0D0A06
:10300800204620EE080A0AF0F7F9F2EE046A95ED78
:103018000C7A0CA9D4ED0C7A0EAA27EE267AC748AA
:1030280067EEA67A8DED0E7ACDED0F7A0AF056F995
:103038000DA90FAAC2488DED100A0AF04FF9F0EE5B
:10304800006A9DED107AF0EE407AB4EEE67AF1EE81
:1030580010FA00F30D81F8EE006AB4EEE67AF1EEAC
:1030680010FA00F12D8127EE080AF0EE006A8DEDC6
:10307800107AF4EEE67AF1EE10FA00F30681B8EE73
:10308800007AF4EE477AF1EE10FA48BFF0EE477A8C
:10309800AC4DAD4C2846CDED117A0AF0ADF9DFED17
:1030A800A47A9DED110A204620EE270A0AF0A4F919
:1030B800F2EE046A95ED0D7A10A9D4ED0D7A12AAF4
:1030C80027EE267AA14867EEA67A8DED127ACDED25
:1030D800137A0AF003F911A913AA9D488DED100A75
:1030E8000AF0FCF810AA0CA99A488DED110A0AF00A
:1030F800F5F811AA0DA998488DED0C0A0AF0EEF81A
:10310800DDED0C7A8DED0D0AA3E4DFED947A32E45F
:103118009FED927A1EE4854BB0EE470A1B788DED41
:10312800090A002B7FF49BAB9FED819A8C4D27EE0B
:10313800890A8C4C28460AF05FF99DED090A204659
:1031480020EE090A0AF058F9F2EE046A95ED0C7AB5
:103158000EAAD4ED0C7A08A927EE267A824867EEE3
:10316800A67A8DED0E7ACDED0F7A0AF0B7F80FAA90
:1031780009A97E488DED100A0AF0B0F8F0EE006A51
:103188009DED107AF0EE407AB4EEE67AF1EE10FAA0
:1031980076DCF8EE006AB4EEE67AF1EE10FA00F1A9
:1031A800948027EE090AF0EE006A8DED107AF4EEAD
:1031B800E67AF1EE10FA60DCB8EE007AF4EE477ABF
:1031C800F1EE10FA48BFF0EE477A694D694C28468F
:1031D800CDED117A0AF010F9DFED557A9DED110A5F
:1031E800204620EE270A0AF007F9F2EE046A95ED68
:1031F8000D7A10A9D4ED0D7A12AA27EE267A5E4828
:1032080067EEA67A8DED127ACDED137A0AF066F89C
:1032180011A913AA59488DED100A0AF05FF810AAEF
:1032280008A957488DED110A0AF058F811AA09A9FA
:1032380054488DED080A0AF051F8DDED087A8DED55
:10324800090AFFF70CBBB0EE676AFFF7BFBBF0EEE9
:10325800678AFFF7A8BBF0EE477AFFF7E0BBDBED24
:10326800006A9BED017A77EEA67A30EE070A09E448
:10327800B0EE667A9FED440AF7E6F0EE667AA4E7C8
:10328800B0EE667A9FED400A8DE7F0EE667AFFE6CB
:10329800AB605DE6A26038E615B0BDEC0E8BBDE80C
:1032A800F08F0021039C226019700170FAE500215B
:1032B800049D2B60117001708BE5C2ED007AF1E579
:1032C800B0EE667A9FED310ACFE6B0EE667A9FEDF2
:1032D8002F0A68E72E4B1B78022B3FF47EAAFEF7D5
:1032E800B7F9FFF77ABAFFF7EBF8FEF763FAFEF7DC
:1032F800DFFAFFF772BA264B1B78022B3FF46DAA50
:10330800FDF7CEFAFFF769BA0121224802F08EFFD5
:10331800214B83ED000AFFF760BA1D4B1B78022B87
:103328003FF45BAAFDF7D8FBFFF757BA90010024DA
:10333800CDCCCC3D80030024D403002470040024A9
:1033480078040024D80200242C03002460040024FC
:10335800680400248004002488040024000000007D
:103368008C050024D805002478030024CC0300240D
:10337800F404002440050024D0020024240300247F
:103388004004002448040024CDCC4C3ECDCC4CBE97
:10339800110A0024A8040024E00900240221284876
:1033A80002F044FF274B83ED000AFFF716BA264BBD
:1033B8001B78022B3FF411AAFDF78AFCFFF70DBA20
:1033C80003211F4802F032FF204B83ED000AFFF76C
:1033D80004BA1D4B1B78022B3FF4FFA9FDF770FDC3
:1033E800FFF7FBB90421164802F020FF184B83EDC4
:1033F800000AFFF7F2B9144B1B78022B3FF4EDA932
:10340800FDF756FEFFF7E9B905210D4802F00EFF5A
:10341800104B83ED000AFFF7E0B90B4B1B78022B2A
:103428003FF4DBA9FDF77AFFFFF7D7B9064B1B7806
:10343800022B3FF4D2A9FEF75DF8FFF7CEB900BF23
:10344800A8040024FC090024110A0024040A00240A
:10345800F4090024600A00242DE9F0419D48002663
:103468009D4C9E4D22469E49466106620AF0DEFA50
:10347800224629469B480AF0D9FA224629469A4804
:103488000AF0D4FA2246294698480AF0CFFA22468A
:10349800294697480AF0CAFA2246294695480AF06A
:1034A800C5FA2246294694480AF0C0FA2246294617
:1034B80092480AF0BBFA2246294691480AF0B6FA21
:1034C80022469049002590480AF0B0FA8F4F90485C
:1034D8002246904905604560C5608560076147617F
:1034E8000AF0A4FA8C48DFF8FC8222468949056074
:1034F8004560C5600761476185600AF097FA874FA4
:103508002246414686480AF091FA224641468548B5
:103518000AF08CFA844D2246394684480AF086FA25
:103528002246394682480AF081FA824F22462946C5
:1035380081480AF07BFA224629468048804D0AF0E5
:1035480075FA224639467F480AF070FA224639460B
:103558007D480AF06BFA224629467C480AF066FA4A
:10356800224629467A480AF061FA224629467948CD
:103578000AF05CFA2246294677480AF057FA774F4C
:103588002246294676480AF051FA22467549764875
:103598000AF04CFA2246394674480AF047FA22469D
:1035A80039467348734D0AF041FA22463946724843
:1035B8000AF03CFA2246394670480AF037FA2246A1
:1035C80029466F480AF032FA224629466D480AF021
:1035D8002DFA224629466C480AF028FA224629463E
:1035E8006A480AF023FA2246294669480AF01EFA70
:1035F8002246294667480AF019FA224629466648AB
:103608000AF014FA2246294664480AF00FFA2246BC
:10361800294663480AF00AFA2246294661480AF010
:1036280005FA2246294660480AF000FA2246294649
:103638005E480AF0FBF9224629465D480AF0F6F989
:103648005C4F224629465C480AF0F0F92246294692
:103658005A480AF0EBF92246394659480AF0E6F981
:103668002246394657480AF0E1F922463946564873
:103678000AF0DCF9052001F033F8544B05462246E0
:1036880053494FF07E5753481D800AF0CFF9DFF8B1
:10369800588142F210755048182350492246DFF8E5
:1036A8004CE1DFF84CC180F83060866106618660C5
:1036B800C0F834804160C0F800E0C76385624849BB
:1036C800C0F82CC00364C0E90866BDE8F0410AF000
:1036D800ADB900BF9004002400000024B50600081E
:1036E800A90600088C050024D8050024F404002449
:1036F8004005002480030024D4030024D8020024B9
:103708002C030024B1060008CC04002417B7D138D4
:1037180094060024C1060008AC060024D50600085B
:103728002804002434040024D9060008D8B6B2C0FE
:10373800503E49C0D1060008289F24C0000000C0A0
:10374800CD0600088C070024B40800245401002486
:103758002001002494010024C8010024AD060008BB
:103768002C020024C9060008180A0024600200245C
:1037780098020024B90600085C06002424060024E8
:103788005004002458040024200400247803002452
:10379800CC030024D0020024240300247004002455
:1037A80078040024600400246804002440040024F1
:1037B80048040024A106000880040024880400248A
:1037C800FC0100240C0200241C0200241C0100241B
:1037D800A506000814010024D000002480841E00DF
:1037E800C5060008BD0600080000A03F803801009B
:1037F80020A10700DFED297AF4EEE70A10B5F1EE13
:1038080010FA04462DED048BF0EE418AB0EE409A92
:1038180054BFB0EE600AB0EE670AB0EE608A0AF0F4
:103828007DF9F0EE409AB0EE680A0AF077F9032CB9
:1038380030D8DFE804F00F18230229EE090A78EEE1
:10384800C88A20EE099AB0EE480AA9EE280ABDEC0B
:10385800048B10BD78EEC88AB0EE480AA8EE890A33
:10386800BDEC048B10BD29EE099A78EEC88AB0EE3B
:10387800480AA9EE280ABDEC048B10BD70EE697ADF
:10388800B0EE690AA7EE890ABDEC048BBDE81040CA
:103898000AF0D2B89FED020AD9E700BF95BFD63328
:1038A80000000000002380ED0D0A30B4C0E90012CA
:1038B8004FF07E54064D074AC562C46382630361B4
:1038C800836080F8303030BCC0E90633704700BFF1
:1038D80020A107000024F44810B5044603F03EFE7A
:1038E80023692268C31AA06020619342E361626879
:1038F80026D3934228D894F8300007EE903A40BB7C
:10390800B8EE677AD4ED067AD4ED0D6AF8EE677AE8
:1039180067EEA67AB4EEE77AF1EE10FA14DAD4ED8F
:103928000F7AB3EE086A0120A361C7EE276AC6EED4
:10393800867AC4ED0E6AFCEEE77AC4ED0B7A10BD08
:10394800934201D8002010BD0123002084F83030B4
:1039580010BDB8EE676AD4ED0F7AF3EE086A00225C
:10396800A36186EE277A84F83020C7EE267A84EDA4
:103978000E7AFCEEE77AC4ED0B7A10BDF8B5054671
:1039880003F0ECFD69692B68411AE86068619942A7
:10399800296227D36B68994224D8DFF858C00022DF
:1039A800114BDCF80060114F013607F15C0483FB12
:1039B8000603F017C0EBA3003B1F00EB4000A6EB8B
:1039C800C000CCF8000047F8201053F8041FA342A9
:1039D8000A44FAD130B9064B0120A3FB023212097E
:1039E800EA62F8BD0020F8BDABAAAA2A640A00243E
:1039F800ABAAAAAAC40A0024C06A7047C36AB7EE71
:103A0800000ADFED076A03EB4303DB0007EE903A99
:103A1800F8EE677A87EEA67A80EE070A704700BF4D
:103A28000024744990ED060AB8EE400A704700BFBA
:103A380080ED0F0A704700BFFCEEC07A90ED0F7A58
:103A480017EE903AC0EE077A8361FCEEE77AC0ED94
:103A58000B7A70472DE9F04383B0394C0546ADF831
:103A68000410016880ED430A01F184030C4400222C
:103A780043F8042BA342FAD10020314E02270A460C
:103A8800034608608F5100260133002742F8046F6F
:103A9800216817649942F6D8F2EE0E7A95ED430A3A
:103AA8004FF07E544FF001080199281D80EE270A37
:103AB8004FF07C5900F02AFAC5F8D840C5F8DC4028
:103AC800C5F82441A5F8CC8003F046FD95ED430ADE
:103AD800C5F8FC0005F15C0085F80861C5F8F870C8
:103AE800C5F8187185F81C61164F174E85F80081C6
:103AF80085F85080C5F84C9009F0FAFA05F1940061
:103B080095ED430AEC65C5F8E040C5F8E840C5F80E
:103B1800549085F858806F662F67AE6609F0E8FA0A
:103B2800C5F89C70C5F8A060C5F8A870C5F89440A1
:103B3800C5F8E440C5F8EC4003B0BDE8F08300BF29
:103B4800847869000AD7233CACC527372DE9F04FA4
:103B580000230027044600F1D00500F1CC0900F14C
:103B68005C0800F14C062DED028B83B0C0F81831CB
:103B780001932368DFF8DCE094ED3E7A03EB8701DC
:103B8800D5ED067A53F80EE077EE877A2F4ABE45D0
:103B9800DFF8C4B0DFF8C4C0C5ED047A52D9BDEE71
:103BA800E77A17EE100AB8EEC77A824277EEC77A3C
:103BB80028BF02464A601868C1ED117A024402F132
:103BC800010E510A4FEA5E2AABFB0101ABFB0AA0CA
:103BD8000CFB11220CFB10E103EB820203EB8103C7
:103BE80092ED217AD3ED216A76EEC76AA6EEA77A1E
:103BF800F0EE477AAA4619F8011B4046C5ED087A47
:103C080009F094FA05F12002AAEC010A304686ED83
:103C1800000A01A99AED018A09F060FBD4ED467A01
:103C280008F1380855460836E8EE007AC4ED467AB9
:103C380037B104F58C7003B0BDEC028BBDE8F08F92
:103C4800012796E7DFED027AD4E700BFFF5D1A008F
:103C58000000000084786900076B1300005E1A00FA
:103C6800034631B190ED480A043093F81D1100F075
:103C7800BBB9043000F0A2B90068094A70B40E68F4
:103C88000168084D0A4400EB8101074C530AC1F84A
:103C98008460A5FB031304FB132370BC0360704707
:103CA800FF5D1A00076B1300005E1A00DFED427A11
:103CB8000346B4EEE70AF1EE10FA04D50022042018
:103CC80083F81D217047DFED3D7AB4EEE70AF1EE87
:103CD80010FA04D50122042083F81D217047DFED76
:103CE800387AB4EEE70AF1EE10FA0BD4DFED357A44
:103CF800B4EEE70AF1EE10FA09D50322082083F89A
:103D08001D2170470222062083F81D217047DFED30
:103D18002E7AB4EEE70AF1EE10FA0BD4DFED2B7A27
:103D2800B4EEE70AF1EE10FA09D50522182083F857
:103D38001D21704704220C2083F81D217047DFEDF8
:103D4800247AB4EEE70AF1EE10FA04D50622302000
:103D580083F81D217047DFED1F7AB4EEE70AF1EE14
:103D680010FA04D50722482083F81D217047DFED9B
:103D78001A7AB4EEE70AF1EE10FA04D508226020A8
:103D880083F81D217047DFED157AB4EEE70AF1EEEE
:103D980010FA04D50922782083F81D217047F7EE20
:103DA800007AB4EEE70AF1EE10FABED80A229020A3
:103DB80083F81D21704700BFC729BA3DC7293A3E7D
:103DC800569F8B3EC729BA3E39B4E83EE3A50B3F60
:103DD8001CEB223F55303A3F8E75513FC7BA683FBA
:103DE80038B504462DED028B002951D0FFF75EFF50
:103DF800D4F814319FED420A03FB00F308EE103AA1
:103E0800B8EE488A28EE008A94ED497A9FED3A5B2D
:103E180038EE476AB7EEC77AB0EEC66A27EE057B7A
:103E2800B7EEC66AB4EEC76BF1EE10FA4EDC94F842
:103E38001C31BBBB03F090FBD4F8FC30C01A192826
:103E48003FD994F80851FDB1B4F8CC3094F800216A
:103E580083F4807382F0010283F0010384F8002167
:103E6800A4F8CC3003F078FB94ED437AB7EE000A5F
:103E78000023C8EE077AC4F8FC0084F80831201D36
:103E880080EE270A00F08CF82846BDEC028B38BD7E
:103E980002209FED1C1ADFED1C0AFFF7ABFCB0EE09
:103EA800408AB1E794F8003103BB84ED3A8A0023D5
:103EB80084F81C3103F050FBD4F8FC30C01A1928E0
:103EC800BFD80025BDEC028B284638BD03F044FB63
:103ED8000025012384ED498AC4F8FC00284684F8AB
:103EE800083184F81C31BDEC028B38BD84ED3B8A67
:103EF800DDE700BFAFF30080FCA9F1D24D62503F6F
:103F0800A69B443D00606A480000704510B52DED41
:103F1800048B82B004469FED209AB0EE408AADF83B
:103F2800041000220199F7EE008A01F0AFFCB0EE10
:103F3800490A204601F0CEFC204601F0DDFCC8EE1F
:103F4800887A4FF07C539FED150A04F11C0084ED2C
:103F58000A8A236284ED0C9A84ED090A0090C4ED64
:103F68000B7A00F091FBF0EE007A40F20112042384
:103F7800009884ED0D0AB0EE670AC4ED088AA4F82B
:103F880040202377C4ED097A00F07EFB84ED0D0A0A
:103F980002B0BDEC048B10BD000000000000C84258
:103FA80010B5044680ED090A1C3000F06DFB84ED65
:103FB8000D0A10BD00230363704700BF10B5044607
:103FC8001C3000F07FF9B7EE007AF6EE007A204652
:103FD80030EE070A20EE270A01F07CFC2046BDE8F7
:103FE800104001F089BC00BF0A2900B583B01FD872
:103FF800114B03EB8101D1ED007A20EE270A0190E5
:1040080009F09AFF9FED0D7AF7EE007A0198B4EE69
:10401800C70AF1EE10FA54BFB0EE670AB0EE470ACD
:1040280001F058FC019803B05DF804EB01F064BCA2
:10403800F1EE087AE1E700BFACE4000800000000F8
:1040480001F048BC90F84100704700BF70B52DEDF5
:10405800028B82B0B0EE408A00F114060446ADF837
:1040680000200430ADF804101D46009901F09CFCB6
:10407800B0EE480A30460022019901F007FC0023FF
:1040880030469FED060A84F83050237002B0BDEC2C
:10409800028BBDE8704001F01DBC00BF00000000AD
:1040A8000378143083F0010300F8143C1BB1B7EE19
:1040B800000A01F00FBC9FED020A01F00BBC00BF23
:1040C8000000000038B500F114050446284601F048
:1040D80013FC201D01F084FC94F83030012B17D01C
:1040E800022B09D003B138BD637A7F2BFBD1204660
:1040F800BDE83840FFF7D4BF637AFF2B13D0002305
:1041080028469FED0D0A2370BDE8384001F0E2BB58
:10411800627AFF2AF3D028462370B7EE000ABDE87A
:10412800384001F0D7BB01232846B7EE000A2370B8
:10413800BDE8384001F0CEBB000000000123B7EE17
:10414800000A00F8143B01F0C5BB00BF00239FED37
:10415800030A00F8143B01F0BDBB00BF00000000DB
:1041680000787047407AA0F17F00B0FA80F04009EB
:10417800704700BF407AA0F18000B0FA80F0400993
:10418800704700BF143001F0A5BB00BFF0B545680B
:1041980099B08668002302950CA9C56802AC0396FD
:1041A8000F46066904954569059606958669C569A9
:1041B8008DF8303007960368066A0895456A806A64
:1041C800019309960A950B9001E054F8043BC3F358
:1041D8000726C3F30745C3F30760BC424B708E70D4
:1041E800CD7001F8040FF0D101230B480B4C00F8F7
:1041F800033F02F033FA206800F1B40102F034FD05
:104208000CAAB421206802F0B1FC044602F0EEFBCF
:10421800204619B0F0BD00BFC80A00240C000024D5
:10422800F0B5074600251E4899B01E4E00F8035FFA
:104238000CAC02F013FA0FCE0FC40FCE0FC496E8E1
:104248000F0007C4237001AC02F0D0FB0CAE20466F
:104258006B46324612F8011B03F8011BA342F9D141
:104268000435009B04362C2D40F8043BF0D101990D
:104278003846029A039B049C39607A600599069A2D
:10428800BB60079BFC603961089C09997A61BB6136
:104298000A9A0B9BFC6139627A62BB6219B0F0BD65
:1042A800C80A00240000009003480023034A044978
:1042B8004361036209F0BABBC80A00240000002465
:1042C800A9060008037810B504462DED028B072BCC
:1042D80000F2C881DFE813F05F009400A900BA007B
:1042E800C900D90036010800D0ED057AB7EE000AFA
:1042F8009FEDE07AFFEE008ADFEDDF6A90ED068A37
:10430800F4EEE67A28EE078A67EE877AF1EE10FA7D
:10431800F4EEC87A48BFF0EE408AF1EE10FA00F1E8
:10432800968130EE487AF4EEC77AF1EE10FA00F38F
:104338004B819FEDD20AB6EE007AF7EE000A78EECE
:10434800808A37EE870A09F003FFB4EEC80AF1EE57
:1043580010FA00F16281B7EE007A77EE487AB4EE8F
:10436800E70AF1EE10FA0DDD30EE470AC0EE087AE2
:10437800F0EE676AE7EEA76A77EEA67A77EE877AB5
:1043880078EEE78A9FEDBE0A94ED058A28EE800A4A
:1043980094ED067A07E090ED058AB0EE480A09F038
:1043A800CBFD94ED067A78EE077ADFEDB66AF4EE87
:1043B800E67AC4ED057AF1EE10FA40F3F48077EE70
:1043C800E67A012384F82530C4ED057A37EEC77AFA
:1043D800DFEDA96AB4EEE67AF1EE10FA40F1E18079
:1043E800F4EEE67AF1EE10FAACBF01230023D4ED27
:1043F800017A84F8243020EE270ABDEC028B10BD28
:1044080090ED058ABFEE000ADFED9A6AF6EE007AB3
:1044180038EE086A90ED067AA6EE260AB0EEC00AD3
:1044280030EE670A30EE000ABDE790ED058AF0EE3F
:10443800006ADFED907ABFEE000A90ED067A68EE2A
:10444800277AA7EEA60AB1EE400AACE790ED058AF6
:10445800F0EE006ADFED877ABFEE000A90ED067A8B
:1044680068EE277AA7EEA60A9DE790ED058ADFEDAC
:10447800827A90ED067AB4EEE78AF1EE10FA4CBF34
:10448800B7EE000ABFEE000A8DE7D0ED057AB7EE69
:10449800007ADFED786AFFEE008A9FED776A90ED8B
:1044A800068AF4EEC67A28EE268A67EEA67AF1EE38
:1044B80010FAF4EEC87A48BFF0EE478AF1EE10FA27
:1044C80000F1BA8077EE486AF4EEE67AF1EE10FA77
:1044D8006DDC9FED6A7AB6EE000AF7EE000A78EE18
:1044E800878A37EE800A09F033FEB4EEC80AF1EE87
:1044F80010FA76D4B7EE007A77EE487AB4EEE70A87
:10450800F1EE10FA0DDD30EE470AC0EE087AF0EE53
:10451800676AE7EEA76A77EEA67A77EE877A78EE8B
:10452800E78AB7EE000A94ED067AD4ED077A94ED9F
:10453800058A30EE470A20EE270AA7EE280A84EDFE
:10454800070A30E7DFED4B7AB0EE006A90ED058A96
:10455800BFEE000A90ED067A68EE276A67EE277AC2
:10456800A6EE860AF4EEE76AF1EE10FA48D4F7EE02
:10457800005A35EEE76AF4EEC66AF1EE10FA0DDD80
:1045880076EEE56A86EEA76AF0EE467AE6EE067AF9
:1045980036EE276A36EE256A30EE460AB1EE400A54
:1045A80001E7002323E7002384F825300EE737EEE0
:1045B800C76AC6EE086AB0EE666AA6EEA66A76EE26
:1045C800866A36EE877A86E777EEC06A86EE887A5C
:1045D800F0EE476AE7EE076A37EE267A37EE000A0A
:1045E800A9E680EE087AB0EE006AF7EE006A67EE98
:1045F800477AE7EE067A77EEE67A78EEE78A90E78A
:10460800C6EEA75AF7EE006A65EEE57AE5EE867A19
:1046180077EEE67A30EE670AC0E780EE087AB0EE09
:10462800006AF7EE006A67EE477AE7EE067A77EEF9
:10463800E67A78EEE78AA5E687EE886AF0EE005A11
:1046480066EE466AE6EE256A36EEC77A43E7C7EEB7
:10465800886AB0EE006A26EEE67AA6EE867A37EE2B
:10466800400A68E690ED058A90ED067A9FED030A08
:1046780099E600BF83F9223EDB0F494000000000A5
:10468800F4FD343FDB0FC940DFED047A20EE270A42
:10469800D0ED047A20EE270A704700BFDB0FC9402F
:1046A8000B4A40F207110B4B02604FF487724360CC
:1046B8000623C1844285037480F8293070B402242B
:1046C800054E064D80F82540C0E9026570BC70476C
:1046D80000070500010508050905070506050A067E
:1046E8001F2882B009D8084B03EB400213F810309A
:1046F800507843EA002002B0704701230C2043EAB7
:10470800002002B0704700BFD8E40008143001F060
:1047180083B800BF143001F07BB800BF38B500F192
:10472800140504462DED028B284601F063F828464F
:1047380001F06EF82846B0EE408A01F057F8D0ED47
:10474800007AF8EE677A88EE277ABDEC028B84ED62
:104758000E7A38BDF0B51A4D91B000210446079580
:1047680005F100754FF4417000220123032601274B
:1047780005F540750691029106A9ADF8240002A836
:1047880008953025CDE90C23CDE90E23CDE90A673C
:1047980002F09AFD40F601334FF07E56ADF8043032
:1047A800019800F04DF80323029A03A904F11400BC
:1047B8000596CDE9035300F0E5FF11B0F0BD00BF49
:1047C8000402040430B504462DED028B83B089B38E
:1047D800012240F201130092ADF80430694604F159
:1047E800300002F0A7FF204600F04CF8E01C01F072
:1047F80035FF04F1250001F035FE04F1140504F13C
:10480800290001F02FFE2046FFF7A4FF284600F0FC
:10481800FFFF2846B0EE408A00F0E8FFD0ED007AAE
:10482800F8EE677A88EE277A84ED0E7A03B0BDEC4D
:10483800028B30BD40F201130091ADF80430CDE792
:1048480010B584B003460124ADF8040003A8ADF800
:104858000C30ADF80E4001F005FE214603A801F02A
:10486800EBFE204602F080FE03A8002101F0E4FEE2
:10487800204602F079FE214603A801F0DDFE04B0CF
:1048880010BD00BF2DE9F043444C8BB0A063037802
:1048980023B1002528460BB0BDE8F083404A0A231F
:1048A80000260127626008220893202302A9201D00
:1048B800C4E90267C4E9042340264FF4C077002204
:1048C8004FF40063C4E90667C4E908234FF480562F
:1048D800002702220723C4E90A67CDE90223042638
:1048E800032200230827CDE90623CDE9046707F052
:1048F80083FF054600284CD14FF001084FF01009FE
:104908000126002702A94FF480520190201DCDE90D
:1049180002894FF002084FF01009CDE9046707F04B
:1049280095FF642003F058F802A94FF48052201D27
:10493800CDE90467CDE9028904264FF003084FF05A
:104948001009002707F082FF02A94FF48052201DAA
:10495800CDE90467CDE9028907F078FF40F23223F8
:104968004FF0010C042601931027019B02A94FF474
:104978008052201DCDE904C3CDE9026707F066FF28
:10498800201D40F6060107F081FF28460BB0BDE860
:10499800F083012528460BB0BDE8F083080B0024FE
:1049A80040410052694A2DE9F04315688FB015B1AE
:1049B8000FB0BDE8F083664B01210C24002611607E
:1049C8000327D3F8D4204FF683784FF0020908A9BB
:1049D80042F480525F48C3F8D420D3F8D42002F4BC
:1049E80080520092009AD3F8E02042F01002C3F8F7
:1049F800E020D3F8E02002F010020192019AD3F8E7
:104A0800E02042F04002C3F8E020D3F8E02002F0B2
:104A180040020292029AD3F8E02042F00802C3F85A
:104A2800E020D3F8E02002F008020392039AD3F8BA
:104A3800E02042F48072C3F8E020D3F8E02002F4CA
:104A480080720492049AD3F8E02042F08002C3F8FE
:104A5800E020D3F8E02002F080020592059AD3F80E
:104A6800E02042F02002C3F8E020D3F8E02002F072
:104A780020020692069AD3F8E02042F00402C3F816
:104A8800E020D3F8E0300C9403F004030793079B6D
:104A9800CDE90A67CDE9088904F0AEFD48F237127E
:104AA800022308A92C480C94DFF8C080CDE90A67D6
:104AB800CDE9082304F0A0FD4CF20372022308A9F3
:104AC80026480C94CDE90A67CDE9082304F094FD43
:104AD80040F2FF62022308A921480C94CDE90A6735
:104AE800CDE9082304F088FD4FF60C72022308A9CB
:104AF8001C480C94CDE90A67CDE9082304F07CFD35
:104B08004FF63F02022308A917480C94CDE9082361
:104B1800CDE90A6704F070FDD8F83800013002F0DA
:104B2800E3FED8F838300646581C02F0E5FE0222AB
:104B38000746032308A930460C9408970B93CDE940
:104B4800092504F059FD0FB0BDE8F083040B0024DB
:104B5800004402580010025800180258000C02586D
:104B680000200258001C025800140258080B0024A8
:104B78002DE9F04FDFF8288406460D46144608F163
:104B880014002DED028B89B000AF02F08DFCD8F82F
:104B980014305BB3D8F818304269002B0BBF0223DE
:104BA80004234FF008094FF01009FB61D8F80430CE
:104BB8004BB3A100E946012A01F1070121F00701E1
:104BC800ADEB010D6846ADEB010D694600F0428181
:104BD800022A00F0DB80002A74D022469847CD468E
:104BE8002437BD46BDEC028BBDE8F08FD8F81830ED
:104BF800002BF5D002234FF008094269FB61D8F871
:104C08000430002BD5D1D8F80030BA617B61002B75
:104C1800E6D06B46DA4808EE103A02F08DFC86467C
:104C2800F869BA69022800F08E816B46C7F81090BF
:104C38003969A3EBC4039D466300E946B3FBF0F36F
:104C4800A9EBC40CC7F8189009EB830AB869E546C4
:104C5800ADEB010D0CEB8301EB46F9603969C7F840
:104C680010A00AEB830AADEB010DCBF80000F96840
:104C78000AEB8300E94601EB8301CBF80C003869A5
:104C880001EB8303C9F800C0CBE9010AF868C9E958
:104C98000213C9F80400012A00F08283022A00F0F6
:104CA8007C82002A00F086816208494658467B6962
:104CB800984718EE103A24379D46BD46BDEC028B46
:104CC800BDE8F08F002C88D098ED0B6A864606F177
:104CD800040CDFEDB66A36F922A00EF1080E07EED5
:104CE80010AA3CF922A0023207EE90AAB8EEC77AC1
:104CF8009442F8EEE77A27EE267A67EEA67A27EE50
:104D0800067A67EE867A0EED027A4EED017AE2D8DF
:104D1800F961224698479B4EF9690020D8ED046A4C
:104D28002B1D9FEDA37A9FED986ADFED985A22E03C
:104D3800F4EEC67AF1EE10FAC0F2EF8447F6FE728E
:104D4800D1ED017A45F8202066EEA77AF4EEC77A0D
:104D5800F1EE10FA40F2F580F4EEC67AF1EE10FAB0
:104D6800C0F2FC8447F6FE7243F820200230083176
:104D780084427FF634AFD1ED007A66EEA77AF4EE7E
:104D8800C77AF1EE10FAD3D83246D9E7002C3FF4AF
:104D980024AF98ED0B6A8646002206F1040CDFED7D
:104DA8007C6A06EB820A0EF1080E9AED007A0CEB8B
:104DB800820A0232DAED007AB8EEC77A9442F8EE47
:104DC800E77A27EE267A67EEA67A27EE067A67EE66
:104DD800867A0EED027A4EED017AE2D8F961224622
:104DE80098476C4EF9690020D8ED046A2B1D9FED99
:104DF800707ADFF8B0C19FED646A20E0F4EEC67AFD
:104E0800F1EE10FAC0F2A2843246D1ED017A45F8EB
:104E1800202066EEA77AF4EEC77AF1EE10FA40F297
:104E28008E80F4EEC67AF1EE10FAC0F2878432462C
:104E380043F820200230083184427FF6D0AED1ED0D
:104E4800007A66EEA77AF4EEC77AF1EE10FAD5D8B2
:104E58006246DAE7002C3FF4C0AE06F1040CFD61AF
:104E680098ED0B6A1D46834663464FF0000ADFED56
:104E78004A6AB4465CF82A200BF1080B53F82A60FA
:104E88000AF1020A82F4000286F4000E5445A2F5E3
:104E9800000207EE102AAEF5000207EE902AB8EEDF
:104EA800C77AF8EEE77A27EE267A67EEA67A27EE33
:104EB800067A67EE867A0BED027A4BED017AD9D83D
:104EC8002B46FD692246F9619847344EF96900205E
:104ED800D8ED046A2B1D9FED367ADFF8CCC09FED24
:104EE8002A6A1FE0F4EEC67AF1EE10FAC0F21E84C8
:104EF8003246D1ED017A45F8202066EEA77AF4EE25
:104F0800C77AF1EE10FA18D9F4EEC67AF1EE10FA73
:104F1800C0F2FB83324643F8202002300831844235
:104F28007FF65DAED1ED007A66EEA77AF4EEC77A29
:104F3800F1EE10FAD6D86246DBE76246EBE7624646
:104F480076E7324610E7A3006008073323F007032B
:104F5800ADEB030DEC46ADEB030DEA46ADEB090DE9
:104F68000CEB8003C7F818C0EB46ADEB090D0AEB54
:104F780080003B61E946CBE900C3C9E900A08AE6A5
:104F88005C0B00240280FFFF04FF7F3F00FEFF460A
:104F9800000000300082FF7F0000003482FF7F00A5
:104FA800440B0024007E00807E0080FF0000003853
:104FB80004FF7FBF002C00F0EC82F969D8F820309C
:104FC800022900F01B8303EB8E0ADBF80C104FEA72
:104FD8008E03C7F800B006F1040C5FED0C5A7B6035
:104FE800DBF80830D7F818E0FB600AF10403C7F8CB
:104FF80018909B46D7F81090B9603D613CF9221093
:1050080036F9223006EE901A3AF9221006EE103AD6
:1050180098ED0B5A07EE101AF8EEE66AB8EEC66A73
:105028003BF92210B8EEC77A530807EE901A66EEDD
:10503800A56A26EE256AF96827EE257A09EB83002A
:10504800F8EEE77A0EEB830526EE056A01EB83019D
:1050580027EE057A023266EE856A67EEA57A85ED57
:10506800006A9442C0ED006A81ED007A98ED0B7AEF
:10507800B86867EE877A00EB8303C3ED007ABDD882
:10508800D7F800B0D7F818903D69620849467B699F
:1050980058469847D8F8283079680022D8ED046A2D
:1050A8001944D9F800E0D9F804C02B1D01F104080F
:1050B8008A461FED417AC7F81880B14E9FEDB16A54
:1050C800DFEDB15AD7F81C8052E0F4EEC67AF1EE63
:1050D80010FAC0F2DC8247F6FE7B0CEB010045F8C3
:1050E80022B0D0ED007A66EEA77AF4EEC77AF1EE38
:1050F80010FA4CD9F4EEC67AF1EE10FAC0F2D0826A
:1051080047F6FE70B8F1020F43F822002CD0D9F808
:1051180008000844D0ED007A66EEA77AF4EEC77A64
:10512800F1EE10FA37D9F4EEC67AF1EE10FAC0F2C1
:10513800E38247F6FE7BD9F80C004AF822B0014416
:10514800D1ED007A66EEA77AF4EEC77AF1EE10FA9E
:105158001FD9F4EEC67AF1EE10FAC0F2C58247F60E
:10516800FE71B86940F82210023294427FF6A1AD70
:1051780051080EEB81008900D0ED007A66EEA77A1F
:10518800F4EEC77AF1EE10FA9FD8B346A5E7304699
:10519800B8E73146E5E7B346CDE7002C00F0F981E2
:1051A800FA69D8F82030022A00F0FA8103EB8E0A57
:1051B800DBF80830C7F800B006F1040CFB604FEAD2
:1051C8008E030AF10402DFED715A7B60DBF80C30C4
:1051D8009346D7F818E0BB600023C7F81890D7F8B3
:1051E80010903D6156F823105A0898ED0B5A07EEB7
:1051F800901A5CF8231009EB8200B8EEE76A07EE14
:10520800901A5AF823100EEB8205F8EEE76A07EEBB
:10521800901A0BEB830126EE256A0233B8EEE77A83
:10522800D1ED007A66EEA56AF968F8EEE77A9C4255
:1052380027EE257A01EB820126EE056A66EE856A7D
:1052480027EE057A67EEA57A85ED006AC0ED006A5B
:1052580081ED007A98ED0B7AB86867EE877A00EBF3
:105268008202C2ED007ABDD8D7F800B0D7F81890FE
:105278003D695846620849467B699847D8F82830FE
:1052880079680022D8ED046A19442B1DD9F800C0AA
:105298008B460431D9F80480C7F814B09FED3F7AE3
:1052A800D7F81CB0DFF8ECE09FED366A384EB961EC
:1052B800FB6150E0F4EEC67AF1EE10FAC0F2068215
:1052C800304608EB010A45F82200DAED007A66EE6E
:1052D800A77AF4EEC77AF1EE10FA4BD9F4EEC67A53
:1052E800F1EE10FAC0F2F9813046FB69BBF1020F0A
:1052F80043F822002BD0D9F808000844D0ED007AF2
:1053080066EEA77AF4EEC77AF1EE10FA36D9F4EE23
:10531800C67AF1EE10FAC0F2D2813046D9F80CA064
:105328007B69514443F82200D1ED007A66EEA77AF2
:10533800F4EEC77AF1EE10FA1ED9F4EEC67AF1EE61
:1053480010FAC0F2B5813146BB6943F82210023227
:1053580094427FF6AEAC51080CEB81008900D0ED89
:10536800007A66EEA77AF4EEC77AF1EE10FAA1D8C1
:105378007046A6E77046B8E77146E5E77046CDE7A0
:105388000280FFFF04FF7F3F00FEFF460000003061
:105398000082FF7F007E00800000003404FF7FBF92
:1053A800002C00F0F680D8F820304FEA8E02BD605D
:1053B800002103EB8E0E06F1040C1FED096A0EF1B5
:1053C80004003D69D7F818A0FA60C7F8189056F895
:1053D80021204FEA51095CF8213082F40002D8ED0F
:1053E8000B6A83F40003A2F50002A3F5000307EE9D
:1053F800102A05EB890207EE903A0AEB8903B8EE0A
:10540800C77A4FEA8909F8EEE77A27EE067A67EE57
:10541800867A27EE267A67EEA67A83ED007AFB690C
:10542800C2ED007A022B27D05EF8212050F82130F7
:1054380082F4000283F40003A2F50002A3F500033E
:1054480007EE902ADBF80820B8EEE77A07EE903AE4
:105458004A44DBF80C30F8EEE77A27EE067A4B443C
:1054680067EE867A27EE267A82ED007A98ED0B7A37
:1054780067EE877AC3ED007A02318C42A7D8D7F855
:105488001890584662087B694946BD689847D8F81D
:105498002830F9680022D8ED046A19442B1DD9F880
:1054A80000C08B460431D9F80480C7F814B01FED4A
:1054B800457AD7F81CB0DFF8C8E29FEDAD6AAD4E6B
:1054C800B961FB6150E0F4EEC67AF1EE10FAC0F271
:1054D800C280304608EB010A45F82200DAED007A6E
:1054E80066EEA77AF4EEC77AF1EE10FA4BD9F4EE2D
:1054F800C67AF1EE10FAC0F2BC803046FB69BBF107
:10550800020F43F822002BD0D9F808000844D0ED48
:10551800007A66EEA77AF4EEC77AF1EE10FA36D979
:10552800F4EEC67AF1EE10FAC0F2AA803046D9F845
:105538000CA07B69514443F82200D1ED007A66EE55
:10554800A77AF4EEC77AF1EE10FA1ED9F4EEC67A0D
:10555800F1EE10FAC0F286803146BB6943F822109A
:10556800023294427FF6A5AB51080CEB810089000A
:10557800D0ED007A66EEA77AF4EEC77AF1EE10FA6B
:10558800A1D87046A6E77046B8E77146E5E77046C9
:10559800CDE72246494658467B699847FFF789BBBD
:1055A80098ED0B6A002306F1040CDFED736AB86905
:1055B800D7F810A006EB83020CEB830192ED007A7A
:1055C8005A08D1ED007A0233B8EEC77A00EB8201AF
:1055D800F8EEE77A0AEB82029C4227EE267A67EE1B
:1055E800A67A27EE067A67EE867A81ED007AC2ED12
:1055F800007ADFD84FEA8E037B603AE698ED0B6AB3
:1056080006F1040CDFED5D6AB869D7F810A036F929
:1056180022303CF9221007EE103A530807EE901A90
:105628000232B8EEC77A00EB8301F8EEE77A0AEBAC
:105638008303944227EE267A67EEA67A27EE067A47
:1056480067EE867A81ED007AC3ED007ADFD84FEAFB
:105658008E037B6019E5F0EE675AFEEEE45A15EE0C
:10566800900A37E7F0EE675AFEEEE45A15EE901A04
:1056780073E7F0EE675AFEEEE45A15EE900A3DE73E
:10568800F0EE675AFEEEE45A15EE900A4FE767EE21
:10569800A57AFDEEE77A17EE900A0FFA80FB1CE573
:1056A80067EEA57AFDEEE77A17EE900A00B229E5D3
:1056B800F0EE675AFEEEE05A15EE901A44E6F0EE68
:1056C800675AFEEEE05A15EE900A27E6F0EE675AA2
:1056D800FEEEE05A15EE900AF3E5F0EE675AFEEE9C
:1056E800E05A15EE900A00E667EEA57AFDEEE77A35
:1056F80017EE901A09B234E567EEA57AFDEEE77A5F
:1057080017EE900A0FFA80FB15E5F0EE675AFEEEE9
:10571800E45A15EE902AFFF7FEBB67EEA57AFDEE78
:10572800E77A17EE902A12B2FFF70ABBF0EE675A33
:10573800FEEEE45A15EE902AFFF7DBBBF0EE675A4F
:10574800FEEEE05A15EE902AFFF772BBF0EE675AAC
:10575800FEEEE05A15EE902AFFF757BB67EEA57AE2
:10576800FDEEE77A17EE902A12B2FFF7FDBA00BFF6
:1057780004FF7F3F82FF7F000000003000000038F8
:105788007E0080FF70B5164C154684B0046004F1A5
:10579800080601AB07C986E80700D4ED047AF5EEE0
:1057A800C07A83E80700F1EE10FA15DDF7EE006A1B
:1057B80086EEA77A84ED0B7A75B1204640F8145F1F
:1057C80001F072FE0346074A00201969064BE160A2
:1057D800E261636204B070BD012004B070BD00BF17
:1057E800440B00240020003000000030006808301E
:1057F800704700BFB1F5806F03680A4628BF4FF4B1
:105808008062B1F5806F9A6094BF002001207047D4
:105818000068143001F07EBE70B5046882B0084E8E
:105828000D46A36804F11400626AE1699B000096C2
:1058380001F03CFE0020C4E9000502B070BD00BFC5
:10584800794B0008024B0022C3E90522704700BFCC
:10585800440B0024098800220180C0F8022000F0CF
:1058680001BE00BF10B543790446037100F0D6FEAF
:1058780000280CBF01230023637104D12079B0FAFA
:1058880080F0400910BD002010BD00BF30B52DEDDF
:10589800028B83B0044601231546ADF80410173077
:1058A800BDF80410B0EE408A0180637600F0DAFD9E
:1058B800B5FA85F3002100225B09257584ED048A79
:1058C800A5756375A160C4E9002203B0BDEC028B25
:1058D80030BD00BF20EE007ADFED067A27EE000A21
:1058E80060EE277A80ED020AFCEEE77AC0ED017AD5
:1058F800704700BF00FF7F4790ED046AB7EE007A5B
:10590800DFED0E5A0346D0ED036AC5EE867A77EED0
:10591800A67AF4EEC77AF1EE10FAC8BF77EEC77A26
:1059280090ED027AB4EEE77AC0ED037A1730F1EE23
:1059380010FACCBF597D997D00F07EBE0000F04280
:10594800B7EE007AA3F10103B3FA83F3C7EE007A46
:105958005B0930B482B00025ADF8041000218371D2
:105968009DF81030BDF80440012B0270C560A0F806
:1059780001404171C170C0ED027A08D0022B0DD0F0
:1059880001230130C37002B030BC00F06BBD0223AC
:105998000130C37002B030BC00F064BD0171013049
:1059A80002B030BC00F05EBDB7EE007A01220346BB
:1059B800C7EE007A70B4002683B0C1F3072500242F
:1059C800ADF80410C660417010449D70DC701A7008
:1059D8009A809A71C3ED027A03B070BC00F042BDA0
:1059E80038B54479054683790130640064B2B3B1AF
:1059F80000F014FEB0FA80F35B092343DBB2A3F195
:105A08007F026B71012A0ED9FF2B07D1D5ED037ADE
:105A180095ED027A77EE877AC5ED037A38BD00F006
:105A2800FDFD43B2E9E70023EB6038BD82B00023F7
:105A38000322ADF80410BDF80410827001800374CD
:105A4800C37002B0704700BF70B483B00325082A42
:105A580006ACADF804108570114634F8046B28BF05
:105A68000821ADF80030042ABDF804302488BDF8B8
:105A7800005003804FF00003068185808481017403
:105A8800C37008D8022A10D802D10122C3718271CA
:105A980003B070BC70470122C371C372C3738271B3
:105AA8008272827303B070BC70470122C371C372E3
:105AB8008271827203B070BC704700BF2DE9F04F4D
:105AC800DB4F0026DB4C8FB007F1380542600370CE
