:020000040800F2
:10000000000002205506000851060008156D000882
:1000100051060008510600085106000800000000C3
:100020000000000000000000000000005106000871
:10003000510600080000000051060008056D000888
:100040005106000851060008510600085106000834
:100050005106000851060008510600085106000824
:100060005106000851060008510600087169000891
:100070007D690008715E00088969000895690008BB
:10008000510600083DC2000851060008510600084C
:1000900051060008510600085106000851060008E4
:1000A00051060008510600085106000851060008D4
:1000B00051060008510600085106000861C20008F8
:1000C000510600086DC200085106000851060008DC
:1000D00051060008510600085106000851060008A4
:1000E00051060008510600080000000051060008F3
:1000F0005106000851060008510600085106000884
:100100005106000851060008510600085106000873
:100110005106000851060008510600085106000863
:100120005106000851060008510600085106000853
:100130005106000851060008510600085106000843
:1001400000000000000000000000000000000000AF
:100150005106000851060008510600085106000823
:1001600079C200085106000851060008510600082F
:100170005106000851060008510600085106000803
:1001800051060008510600085106000851060008F3
:1001900051060008510600085106000851060008E3
:1001A00051060008510600085106000851060008D3
:1001B000B9660008510600085106000851060008FB
:1001C00051060008510600085106000851060008B3
:1001D00051060008510600085106000851060008A3
:1001E0005106000851060008510600085106000893
:1001F0005106000851060008510600085106000883
:100200005106000851060008510600085106000872
:100210005106000851060008510600085106000862
:1002200051060008510600085106000800000000B1
:1002300051060008510600080000000051060008A1
:100240005106000851060008510600085106000832
:100250005106000851060008510600085106000822
:100260005106000851060008510600085106000812
:100270005106000851060008510600080000000061
:100280005106000851060008510600080000000051
:08029000000000005106000807
:1002980010B5054C237833B9044B13B10448AFF3B8
:1002A80000800123237010BD880000240000000096
:1002B800B0E2000808B5034B1BB103490348AFF38C
:1002C800008008BD000000008C000024B0E2000897
:1002D80081F0004102E000BF83F0004330B54FEAEF
:1002E80041044FEA430594EA050F08BF90EA020F5C
:1002F8001FBF54EA000C55EA020C7FEA645C7FEAEF
:10030800655C00F0E2804FEA5454D4EB5555B8BF11
:100318006D420CDD2C4480EA020281EA030382EA82
:10032800000083EA010180EA020281EA0303362D14
:1003380088BF30BD11F0004F4FEA01314FF4801CE7
:100348004CEA113102D0404261EB410113F0004FF9
:100358004FEA03334CEA133302D0524263EB4303B0
:1003680094EA050F00F0A780A4F10104D5F1200E4E
:100378000DDB02FA0EFC22FA05F2801841F10001A9
:1003880003FA0EF2801843FA05F359410EE0A5F17D
:1003980020050EF1200E012A03FA0EFC28BF4CF0AE
:1003A800020C43FA05F3C01851EBE37101F0004564
:1003B80007D54FF0000EDCF1000C7EEB00006EEB71
:1003C8000101B1F5801F1BD3B1F5001F0CD34908FB
:1003D8005FEA30004FEA3C0C04F101044FEA445252
:1003E80012F5800F80F09A80BCF1004F08BF5FEAD9
:1003F800500C50F1000041EB045141EA050130BDB9
:100408005FEA4C0C404141EB0101013C28BFB1F5CA
:10041800801FE9D291F0000F04BF01460020B1FA15
:1004280081F308BF2033A3F10B03B3F120020CDAE8
:100438000C3208DD02F1140CC2F10C0201FA0CF0C6
:1004480021FA02F10CE002F11402D8BFC2F1200C2B
:1004580001FA02F120FA0CFCDCBF41EA0C019040E1
:10046800E41AA2BF01EB0451294330BD6FEA04042A
:100478001F3C1CDA0C340EDC04F11404C4F1200215
:1004880020FA04F001FA02F340EA030021FA04F327
:1004980045EA030130BDC4F10C04C4F1200220FA7E
:1004A80002F001FA04F340EA0300294630BD21FABC
:1004B80004F0294630BD94F0000F83F4801306BF82
:1004C80081F480110134013D4EE77FEA645C18BF76
:1004D8007FEA655C29D094EA050F08BF90EA020F0D
:1004E80005D054EA000C04BF1946104630BD91EA05
:1004F800030F1EBF0021002030BD5FEA545C05D108
:100508004000494128BF41F0004130BD14F5800446
:100518003CBF01F5801130BD01F0004545F0FE41BA
:1005280041F470014FF0000030BD7FEA645C1ABFEF
:10053800194610467FEA655C1CBF0B46024650EA26
:10054800013406BF52EA033591EA030F41F4002152
:1005580030BD00BF90F0000F04BF0021704730B5D8
:100568004FF4806404F132044FF000054FF00001AD
:1005780050E700BF90F0000F04BF0021704730B56E
:100588004FF4806404F1320410F0004548BF404243
:100598004FF000013EE700BF42004FEAE2014FEA98
:1005A80031014FEA02701FBF12F07F4393F07F4F73
:1005B80081F06051704732F07F4208BF704793F076
:1005C8007F4F04BF41F40021704730B54FF4607489
:1005D80001F0004521F000411CE700BF50EA01028C
:1005E80008BF704730B54FF000050AE050EA010235
:1005F80008BF704730B511F0004502D5404261EBA5
:1006080041014FF4806404F132045FEA915C3FF4E5
:10061800D8AE4FF003025FEADC0C18BF03325FEA82
:10062800DC0C18BF033202EBDC02C2F1200300FA33
:1006380003FC20FA02F001FA03FE40EA0E0021FA58
:1006480002F11444BDE600BFFEE700BF0D4B0E4AA1
:10065800934206D00D4951F8040B43F8040B93421A
:10066800F9D10B4B0B4A934204D0002143F8041BE9
:100678009342FBD106F0D4FC0DF0A8FA01F008FB78
:10068800FEE700BF0000002484000024C8E2000840
:1006980088000024C4160024704700BF704700BFBC
:1006A800704700BF704700BF704700BF704700BF6A
:1006B800704700BF704700BF704700BF704700BF5A
:1006C800704700BF704700BF704700BF704700BF4A
:1006D8005D4B5E49F0B5A3F1840585B0284600223C
:1006E80043F8042B8B42FAD10022594C02261346B8
:1006F8002A602E5100220133002440F8042F0A6892
:1007080004649A42F6D8534B5349A3F18406304601
:10071800002243F8042B8B42FAD100224C4C0227CA
:1007280013463260375100220133002440F8042F69
:100738000A6804649A42F6D8484C0820484F8DED60
:10074800010A3D6046F2A815266003F095FD0346B0
:100758009DED010A3846ADF80830029902F0D8FF3D
:10076800092003F089FD034620463E4CADF80C30C5
:1007780003999DED010A02F0CBFF3B4A45F6C050B4
:1007880004F1180339492561A050002243F8042BCD
:100798008B42FAD1364846F2A811334D45F6C05679
:1007A8000161002146510435324E00F118036155AC
:1007B800E160314D6161A1552A60C4E901112F49F9
:1007C800002243F8042B8B42FAD12D490023DFED98
:1007D8002D6AD1ED017A9FED2C6A36EEE77A2B4D22
:1007E80067EE867A234E4355B0EEC77A284DC3602C
:1007F8004361B4EEE77A83550C602A60F1EE10FA93
:10080800C0E90133234B186004DD234DC1ED016AB3
:1008180022602561D3ED017ADFED1A6A9FED1A6A2D
:1008280036EEE77A67EE867AB0EEC77AB4EEE77A04
:10083800F1EE10FA05DD0021174AC3ED016A0160E7
:10084800026105B0F0BD00BF5CB7B2C05C2F1CC12F
:1008580084786900D43E49C0D4B6B2C09408002454
:100868006C070024289F24C0189F2400403E49C0DC
:10087800000000C0249F2400483E49C0189F24C09F
:10088800C409002400409C470AD7A33B1C9F2400AE
:10089800209F24C0CC0900248038010010B5022212
:1008A8000721734805F082FA7249734B0A68734846
:1008B8000132007883FB0243D417C4EB631303EBC4
:1008C8004303A2EB83136E4A0B6080BB11780029A7
:1008D80038D06C4C6C491070207081ED000A6B495F
:1008E800F7EE006AF6EE005A694A91ED007AB0EE2A
:1008F800006AD2ED007A36EEC77A37EE657AE7EE0F
:10090800067AF5EEC07AF1EE10FA00F1AA80F4EE5C
:10091800667AF1EE10FA76FEA77A93B95D4BB0EEDF
:10092800670A5D481978BDE8104003F0C9B8137824
:10093800002B3CD10124594859491470037081EDAA
:10094800000A10BD4F4A117879B94F499FED557A81
:10095800D1ED007A70EE677AF0EEE77AF4EEC77AB6
:10096800F1EE10FABBDD01211170484AB7EE007AAA
:10097800B6EE006AD2ED007AF0EE006A77EE677A9A
:1009880077EEC67AB0EE406AA7EEA66AB5EEC06A00
:10099800F0EE467AF1EE10FA66D4F4EE477AF1EE0C
:1009A80010FA77FE277A3A4A82ED000AB5E73B4B00
:1009B8001A787AB93A4A9FED3B7AD2ED007A70EE0E
:1009C800677AF0EEE77AF4EEC77AF1EE10FAB8DD5E
:1009D80001221A7001209FED341ADFED340A02F06B
:1009E800A3FD334BDFED2F6AD3ED017A30EE677A42
:1009F80067EEA67AB0EEC77AB4EEE77AF1EE10FAAF
:100A08000DDDFCEEC07A2B4C1968002083ED010A3D
:100A180017EE902A0860A24228BF22460A61264B98
:100A2800DFED206AD3ED017A30EE677A67EEA67AB9
:100A3800B0EEC77AB4EEE77AF1EE10FA0DDDFCEE0F
:100A4800C07A1C4C1968002083ED010A17EE902A21
:100A58000860A24228BF22460A61184B83ED000AAB
:100A680010BDDFED177A58E7DFED157A9BE700BF79
:100A78008C04002414070024ABAAAA2AF509002430
:100A8800180700241007002404070024BC090024C8
:100A980008070024F60900246C0700241107002425
:100AA8000C0700240AD7A33B0050C34600606A48DD
:100AB800C4090024BF270900CC090024A40000248D
:100AC8000000000010B50622072165482DED028BB5
:100AD80005F06CF96349644B0A6864480132007890
:100AE80083FB0243D417C4EB631303EB4303A2EB6A
:100AF80083135F4A0B6090BB117800293CD05D4C92
:100B08005D491070207081ED000A5C49F7EE006ABB
:100B1800F6EE005A5A4A91ED007AB0EE006AD2ED2C
:100B2800007A36EEC77A37EE657AE7EE067AF5EEA2
:100B3800C07AF1EE10FA00F18580F4EE667AF1EEF3
:100B480010FA76FEA77AA3B94E4BB0EE670A4E4864
:100B58001978BDEC028BBDE8104002F0B1BF1378E4
:100B6800002B3ED10124494849491470037081ED96
:100B7800000ABDEC028B10BD3E4A117879B93E4996
:100B88009FED447AD1ED007A70EE677AF0EEE77A5D
:100B9800F4EEC77AF1EE10FAB7DD01211170374A89
:100BA800B7EE007AB6EE006AD2ED007AF0EE006A8F
:100BB80077EE677A77EEC67AB0EE406AA7EEA66A55
:100BC800B5EEC06AF0EE467AF1EE10FA3DD4F4EED6
:100BD800477AF1EE10FA77FE277A294A82ED000A61
:100BE800B1E72A4B1A787AB9294A9FED2A7AD2EDC9
:100BF800007A70EE677AF0EEE77AF4EEC77AF1EEF3
:100C080010FAB6DD01221A70F0EE080A00209FEDF6
:100C1800221A02F089FCB8FE400AFCEEC07A17EEF0
:100C2800903A013BDBB2022B12D9B7EE008AB0EE44
:100C3800480A1A4802F068FD194B83ED018ABDEC99
:100C4800028B10BDDFED147A7DE7DFED137AC4E780
:100C5800144A02EBC30393ED008BB7EEC88BE6E7AB
:100C68008C0400242C070024ABAAAA2AF509002426
:100C7800300700242907002420070024C009002485
:100C880024070024F60900249408002428070024D7
:100C98001C0700240AD7A33B00000000C40000245E
:100CA800A400002440DC000801220721624810B596
:100CB8002DED028B05F07AF8604B614A1B78002B0A
:100CC8003DD11178002947D05E485F491370037001
:100CD80081ED000A5D4AF7EE006AF6EE005A5C4BB9
:100CE80092ED007AB0EE006AD3ED007A36EEC77A5C
:100CF80037EE657AE7EE067AF5EEC07AF1EE10FA8D
:100D080000F19380F4EE667AF1EE10FA76FEA77A97
:100D1800B0EE670A0020B7EE041ADFED4E0A02F0C3
:100D280003FC4D4B9FED4D7AD3ED007A30EE670A08
:100D3800BDEC028BE0EE077AC3ED007A10BD1378A4
:100D4800002B3ED10124464846491470037081EDBA
:100D5800000ABDEC028B10BD3A4B1A787AB93A4AB0
:100D68009FED417AD2ED007A70EE677AF0EEE77A7D
:100D7800F4EEC77AF1EE10FAACDD01221A70334BAB
:100D8800B7EE007AB6EE006AD3ED007AF0EE006AAC
:100D980077EE677A77EEC67AB0EE406AA7EEA66A73
:100DA800B5EEC06AF0EE467AF1EE10FA40D4F4EEF1
:100DB800477AF1EE10FA77FE277A254B83ED000A81
:100DC800A6E7274B1A787AB9264A9FED277AD2EDFB
:100DD800007A70EE677AF0EEE77AF4EEC77AF1EE11
:100DE80010FAB6DD01221A709FED201A0120DFEDFE
:100DF800200A02F099FBB0EE408A1E480BF038FF3B
:100E08001D48B0EE480A0BF033FFB0EE480A1B4805
:100E18000BF02EFFB0EE480A19480BF029FF194BCA
:100E280083ED048ABDEC028B10BDDFED0A7A6FE713
:100E3800DFED087AC1E700BF8C040024F50900241F
:100E4800F2060024F1060024E8060024DC09002448
:100E5800EC06002400000000D80900246F12033DAE
:100E6800F0060024E40600240AD7A33B0000484407
:100E78000000C842D804002424050024BC02002431
:100E880010030024A400002404220721654810B59B
:100E98002DED028B04F08AFF634B644A1B78002B0C
:100EA8003FD11178002949D0614C624862491370DA
:100EB800237080ED000A81ED000A604BB7EE007ADE
:100EC800B6EE006AD3ED007AF0EE006A77EE677A44
:100ED80077EEC67AA7EEA60AB5EEC00AF0EE407A1B
:100EE800F1EE10FA00F19380F4EE477AF1EE10FA81
:100EF80077FE277AB0EE670A0020B7EE041ADFED16
:100F0800500A02F011FB4F4B9FED4F7AD3ED007A58
:100F180030EE670ABDEC028BE0EE077AC3ED007A8B
:100F280010BD1378002B3ED101244848484914705D
:100F3800037081ED000ABDEC028B10BD3C4B1A78A2
:100F48007AB93D4A9FED437AD2ED007A70EE677A1E
:100F5800F0EEE77AF4EEC77AF1EE10FA5DDD0122E1
:100F68001A70364BB7EE007AB6EE006AD3ED007A07
:100F7800F0EE006A77EE677A77EEC67AB0EE406AEE
:100F8800A7EEA66AB5EEC06AF0EE467AF1EE10FA60
:100F980040D4F4EE477AF1EE10FA77FE277A254B23
:100FA80083ED000AA6E7294B1A787AB9284A9FEDFB
:100FB800297AD2ED007A70EE677AF0EEE77AF4EEED
:100FC800C77AF1EE10FAB6DD01221A709FED221AE7
:100FD8000120DFED220A02F0A7FAB0EE408A20488D
:100FE8000BF046FE1F48B0EE480A0BF041FEB0EE8B
:100FF800480A1D480BF03CFEB0EE480A1B480BF0AF
:1010080037FE1B4B83ED058ABDEC028B10BDDFED6F
:101018000C7A6FE7DFED0A7AC1E7064B93ED000A19
:101028004BE700BF8C040024F509002402070024C4
:1010380001070024FC060024F8060024E409002423
:1010480000000000E00900246F12033D000700249F
:10105800F40600240AD7A33B00803B460080BB442B
:1010680070050024BC05002464030024B803002490
:10107800A40000240000000005220721804810B5C4
:101088002DED028B04F092FE7E4B7F4A1B78B3BB9A
:101098001178002940D07D487D491370037081ED97
:1010A800000A7C4AF7EE006AF6EE005A7A4B92ED97
:1010B800007AB0EE006AD3ED007A36EEC77A37EEE2
:1010C800657AE7EE067AF5EEC07AF1EE10FA00F1ED
:1010D800BA80F4EEE67AF1EE10FA40F3BF80B7EE8C
:1010E800000A6E4B9FED6E7AD3ED007A30EE670AF8
:1010F800BDEC028BE0EE077AC3ED007A10BD1378E1
:10110800002B58D10124674867491470037081ED9A
:10111800000ABDEC028B10BD5C4B1A787AB95C4AA8
:101128009FED627AD2ED007A70EE677AF0EEE77A98
:10113800F4EEC77AF1EE10FAB3DD01221A70554BBE
:10114800B7EE007AB6EE006AD3ED007AF0EE006AE8
:1011580077EE677A77EEC67AB0EE406AA7EEA66AAF
:10116800B5EEC06AF0EE467AF1EE10FA6ED4F4EEFF
:10117800C77AF1EE10FA6EDDF0EE477AB7EE006B43
:10118800454B83ED000A9FED385BB4EEC56BF1EE7D
:1011980010FAA4DA9FED365BB4EEC56BF1EE10FAE7
:1011A80051D9B0EE670A0020B7EE001ADFED400A09
:1011B80002F0BAF995E73B4B1A787AB93A4A9FEDAB
:1011C8003B7AD2ED007A70EE677AF0EEE77AF4EEC9
:1011D800C77AF1EE10FA9CDD01221A70B6EE001AF9
:1011E800DFED330A002002F09FF9B0EE408A314863
:1011F8000BF0A2FD3048B0EE480A0BF09DFDB0EEB2
:10120800480A2E480BF098FDB0EE480A2C480BF01F
:1012180093FDB0EE480A2B480BF08EFDB0EE480A5D
:1012280029480BF089FDB0EE480A28480BF084FDE8
:10123800B0EE480A26480BF07FFD264B83ED068A60
:10124800BDEC028B10BD9FED1A0A4AE79FED0A6BB1
:10125800DFED177A94E7B7EEE76A91E7B7EEE76A4A
:1012680091E700BFAFF300805C8FC2F5285CEF3FC9
:101278007B14AE47E17A943F0000000000000000B4
:101288008C040024F5090024D4060024CC0600248C
:10129800C4060024D4090024C8060024040000243D
:1012A8006F12833CC0060024D00600240AD7A33B53
:1012B8000000000070050024BC050024D8040024A8
:1012C8002405002464030024B8030024BC0200247D
:1012D80010030024A400002407225F48114610B51B
:1012E8002DED028B04F062FD5C4BB0EE408A5C4A47
:1012F8001B78002B3ED11178002948D059485A490B
:101308001370037081ED000A584AB7EE007AB6EE02
:10131800006A574BD2ED007AF0EE006A93ED000AAE
:1013280077EE677A77EEC67AA7EEA60AB5EEC00A18
:10133800F1EE10FA00F18A80B4EE470AF1EE10FAE5
:1013480037FE000AF6EE000A00209FED4A1A02F066
:10135800EBF8494B9FED497AD3ED007A484A30EED5
:10136800670ABDEC028BE0EE077AC3ED007AC2EDA6
:10137800007A10BD1378002B43D10124414842491B
:101388001470037081ED000ABDEC028B10BD354B63
:101398001A787AB9344A9FED3D7AD2ED007A70EE28
:1013A800677AF0EEE77AF4EEC77AF1EE10FAABDD81
:1013B80001221A702D4BB7EE007AB6EE006AD3ED13
:1013C800007AF0EE006AB0EE480A77EE677A77EEB8
:1013D800C67AA7EEA60AB5EEC00AF1EE10FA38D41E
:1013E800B4EE470AF1EE10FA37FE000AF6EE000AEC
:1013F80000209FED201A02F097F81D4B83ED008A1C
:10140800A7E7204B1A787AB91F4A9FED207AD2EDC8
:10141800007A70EE677AF0EEE77AF4EEC77AF1EECA
:1014280010FAB1DD01221A70B0EE480A00209FEDD3
:10143800181ADFED100A02F077F8164A164B82EDFB
:10144800000A83ED020ABDEC028B10BD9FED090A6C
:1014580078E79FED080AC9E78C040024F509002401
:10146800BA060024B8060024BC060024400A00245A
:10147800B006002400000000080000246F12033D9D
:1014880004040024B9060024B40600240AD7A33BA8
:101498000000FA4370010024A40000240022072160
:1014A800414810B52DED028B04F080FC3F4BB0EEA7
:1014B800408A3F4A1B78FBB9117849B33D483E49F9
:1014C8001370037081ED000A3C4BB7EE001A002040
:1014D800DFED3B0A93ED000A02F026F8394B9FED49
:1014E8003A7AD3ED007A30EE670ABDEC028BE0EE73
:1014F800077AC3ED007A10BD13784BBB012433483B
:1015080033491470037081ED000ABDEC028B10BDE5
:10151800284B1A787AB9284A9FED2E7AD2ED007AAC
:1015280070EE677AF0EEE77AF4EEC77AF1EE10FA29
:10153800CADD01221A70B7EE001A0020B0EE480A80
:10154800DFED1F0A01F0F0FF1C4B83ED008AC5E7B1
:101558001E4B1A787AB91E4A9FED1E7AD2ED007A90
:1015680070EE677AF0EEE77AF4EEC77AF1EE10FAE9
:10157800CBDD01221A70184CB0EE480AB2EE041AFC
:101588000020DFED160A01F0CFFF2046B0EE408ABA
:1015980084ED020A0BF012FE114B84ED060A83ED6E
:1015A800038ABDEC028B10BD8C040024F5090024CD
:1015B8005907002458070024500700245407002422
:1015C80000000000680700246F12033D4C07002448
:1015D800480700240AD7A33BB0040024CDCCCC3D57
:1015E800A400002403220721424810B52DED028BE8
:1015F80004F0DCFB404BB0EE408A404A1B78FBB954
:10160800117849B33E483F491370037081ED000AD1
:101618003D4BB7EE001A0120DFED3C0A93ED000ABE
:1016280001F082FF3A4B9FED3B7AD3ED007A30EE22
:10163800670ABDEC028BE0EE077AC3ED007A10BDB5
:1016480013784BBB0124344834491470037081ED7E
:10165800000ABDEC028B10BD294B1A787AB9294AC9
:101668009FED2F7AD2ED007A70EE677AF0EEE77A86
:10167800F4EEC77AF1EE10FACADD01221A70B7EE5D
:10168800001A0120B0EE480ADFED200A01F04CFFF5
:101698001D4B83ED008AC5E71F4B1A787AB91F4A9C
:1016A8009FED1F7AD2ED007A70EE677AF0EEE77A56
:1016B800F4EEC77AF1EE10FACBDD01221A70DFEDF5
:1016C800197AB4EEE78AF1EE10FA08D5164B002223
:1016D8001A70164B83ED078ABDEC028B10BDDFED47
:1016E800147AB4EEE78AF1EE10FAF2DD0E4B01221D
:1016F8001A70EEE78C040024F50900244207002440
:1017080041070024380700243C070024000000009B
:10171800E80900246F12033D400700243407002421
:101728000AD7A33B6666E63E74010024A4000024A1
:10173800CDCC0C3F08B50621064804F027FB002055
:101748009FED051ADFED050A01F0EEFE044B83ED6F
:10175800000A08BD8C04002400004843000048C368
:10176800EC09002438B5154A154C164D164B94ED66
:10177800007AD5ED007A92ED006AD3ED006A36EE74
:10178800476ADFED125A76EEE76A1148A6EE257A27
:10179800E6EEA57A84ED007AC5ED007A0BF02CFB15
:1017A80095ED007AD4ED007A0A4AE0EE077A0A4B02
:1017B800C2ED3E7AC3ED3E7A38BD00BFEC09002485
:1017C800A8060024AC060024700100240AD7233C94
:1017D800B00400246C0700249408002410B50A4CB7
:1017E800204603F0ADFE63797F2B00D010BD07487B
:1017F80001F008FF0028F9D0044801F077FF0448F9
:10180800BDE8104002F038BAF8000024C4000024F3
:10181800F809002408B5064801F036FF054B0448CE
:1018280083ED480A01F030FF034B83ED480A08BDF9
:10183800C40000246C0700249408002410B5054C4B
:101848000548217802F06AF821780448BDE810407C
:1018580002F064B8F60900246C07002494080024F8
:10186800164808B502F016FA144802F057FAB8B943
:10187800134B1B68114AB1EE086A07EE903ADFED88
:10188800116AD2ED0C5AF8EEE77A0F4A85EE867A9D
:101898000E4BA7EEA67A82ED477A83ED477A08BD0C
:1018A80007490B4B0A68013283FB0203A3EBE2737F
:1018B80003EB4303A2EB43030B60DBE7F8090024C7
:1018C80044070024920A863F6C07002494080024E9
:1018D800ABAAAA2A9FEDCF7AD0ED007AF4EEC77AA8
:1018E80038B5F1EE10FA0446CB4BC0F2FD809FEDFF
:1018F800CB7AF4EEC77AF1EE10FA00F2F58093EDA8
:10190800017A9FEDC76A77EEC76A27EE067AF0EE8E
:10191800E66AF4EEC76AF1EE10FA0FDDBCEEE77A7C
:10192800C04D19680020C3ED017A17EE102A08602F
:10193800D4ED007AAA4228BF2A460A61BA4B9FED25
:10194800B86A93ED017A77EEC76A27EE067AF0EE69
:10195800E66AF4EEC76AF1EE10FA00F34B81F7EE8F
:10196800007A94ED010AB4EEE70AF1EE10FA06DB0C
:10197800F0EE087AB4EEE70AF1EE10FA01D9B7EE04
:10198800000AAA4801F0C0FED4ED027AF5EEC07A4A
:10199800F1EE10FAC0F22B81DFEDA56A9FEDA57A72
:1019A800F4EEE67AF1EE10FA88BFF0EE477A94ED9D
:1019B800030A9FEDA17AA14BB4EEC70AA04DC3ED6F
:1019C800007AF1EE10FA06DBF2EE047AB4EEE70ADA
:1019D800F1EE10FA01D99FED9B0A284685ED020A1F
:1019E8000BF0ECFBDFED987A85ED060A94ED050A1D
:1019F800B4EEE70AF1EE10FA07DBDFED947AB4EE05
:101A0800E70AF1EE10FA40F2DF809FED900A904865
:101A18000BF02EF99FED8D0A8E480BF029F99FEDFA
:101A28008B0A8D480BF024F99FED880A8B480BF040
:101A38001FF994ED040ADFED8A7AB4EEE70AF1EEB5
:101A480010FA07DBDFED877AB4EEE70AF1EE10FA59
:101A580040F2A7809FED840A84480BF009F99FEDB6
:101A6800820A83480BF004F99FED7F0A81480BF046
:101A7800FFF89FED7D0A80480BF0FAF894ED060A0E
:101A8800B5EEC00AF1EE10FA06DBF6EE007AB4EE17
:101A9800E70AF1EE10FA5DD99FED660A6E480BF081
:101AA8004BF99FED640A73480BF046F99FED610A04
:101AB8006A480BF041F99FED5F0A6F480BF03CF95B
:101AC800D4ED077A9FED6D7A6D4BF4EEC77AF1EE9F
:101AD80010FA3CD49FED6B7AF4EEC77AF1EE10FA67
:101AE80035DD01221A7038BDD3ED017ADFED666A63
:101AF8009FED4B6A36EEE77A67EE867AB0EEC77AE4
:101B0800B4EEE77AF1EE10FA06DD1A6800215F48B4
:101B1800C3ED016A10611160434BDFED5B6AD3EDE1
:101B2800017A9FED3F6A36EEE77A67EE867AB0EE85
:101B3800C77AB4EEE77AF1EE10FA7FF710AF1A68B9
:101B480000215248C3ED016A1061116007E70022C5
:101B58001A7038BD3E480BF0EFF894ED060A43487A
:101B68000BF0EAF894ED060A3A480BF0E5F894ED24
:101B7800060A3F480BF0E0F894ED060A36480BF0E9
:101B8800DBF894ED060A3B480BF0D6F894ED060A0C
:101B980032480BF0D1F894ED060A37480BF0CCF830
:101BA8008EE732480BF064F894ED040A30480BF0E5
:101BB8005FF894ED040A2F480BF05AF894ED040AE4
:101BC8002D480BF055F859E721480BF051F894EDE2
:101BD800050A20480BF04CF894ED050A1E480BF056
:101BE80047F894ED050A1D480BF042F821E7DFEDB0
:101BF800117ADCE6BCEEE77A0A4D19680020C3EDDD
:101C0800017A17EE102A0860AA4228BF2A460A61FC
:101C1800A5E600BF0050C346C409002400606A4816
:101C28000AD7A33BBF270900CC090024C40000241D
:101C38000000FA4300000000CDCCCC3D7001002428
:101C4800B00400249A99A1400080BB4400803B4620
:101C580070050024BC05002464030024B803002494
:101C68000000C8420000484400004843D80400244B
:101C780024050024BC020024100300246666E63E06
:101C880074010024CDCC0C3F006501489405020086
:101C980080B5D048BEB002F0CFFA0021CD48B2EEF0
:101CA8000E8A02F05BFB1D2002F0E6FA03460620CE
:101CB8000227ADF8083002F0DFFA0346C5480126CE
:101CC800F7EE008AADF80C3002F0F0FA039A80EED5
:101CD800080A02990123C0484FF07C5502F022F807
:101CE8001E2002F0C9FA03460720DFF85483ADF836
:101CF800103002F0C1FA0346B648B84CADF81430BB
:101D080002F0D4FA059A80EE080A04990123B4482F
:101D180002F008F80A2002F0AFFA03463846ADF898
:101D2800183002F0A9FA0346AA48ADF81C3002F0B0
:101D3800BDFA079A80EE080A06990023A94801F01F
:101D4800F1FF0B2002F098FA03460320ADF820308B
:101D580002F092FA03469F48ADF8243002F0A6FA42
:101D6800099A80EE080A089900239F4801F0DAFFD3
:101D7800182002F081FA03460420ADF8283002F05A
:101D88007BFA03469348ADF82C3002F08FFA3B46B5
:101D980080EE080A0B9A0A99944801F0C3FF0020C4
:101DA80002F06AFA03468B48ADF8303002F07EFA4A
:101DB800012380EE080A0C991A468D48009703F013
:101DC8006FFB012002F058FA03468248ADF8343020
:101DD80002F06CFA324680EE080A0D9933468548BF
:101DE800009703F05DFB172002F046FA0346794896
:101DF800ADF8383002F05AFA0E9980EE080A7E489B
:101E080003F082FB052002F037FA03467148ADF86B
:101E18003C3002F04BFA0F99784803F075FB6D4897
:101E280002F044FA764F40469FED768A0AF03CFD70
:101E38006848C8ED008AC8F80850C8F81450C8F8AF
:101E48000C4002F033FADFF8FC8138460AF02CFD2A
:101E58006048C7ED008ABD60FC607D6102F026FA2B
:101E6800694F40460AF020FD5A48C8ED008AC8F874
:101E78000840C8F80C40C8F8144002F017FA384671
:101E88000AF012FD6149624A624B0D6015601D60DF
:101E98000E7116711E714F48C7ED008ABC60FC6058
:101EA8007C6102F003FAFEF713FC4A4802F0FEF9DF
:101EB80059480AF057FEB0EE480A57480AF03CFF66
:101EC8009FED560A54480AF0D3FE9FED550A524832
:101ED8000AF078FF3F4802F0E9F952480AF042FE5A
:101EE800B0EE480A4F480AF027FF9FED4C0A4D48CC
:101EF8000AF0BEFE9FED4A0A4A480AF063FF3548D9
:101F080002F0D4F948480AF02DFEB0EE480A4648D7
:101F18000AF012FF9FED450A43480AF0A9FE9FED1B
:101F2800400A41480AF04EFF2A4802F0BFF94048EB
:101F38000AF018FEB0EE480A3D480AF0FDFE9FED93
:101F48003B0A3B480AF094FE9FED350A38480AF0F0
:101F580039FF204802F0AAF936480AF003FEB0EE2D
:101F6800480A34480AF0E8FE9FED2C0A31480AF086
:101F78007FFE9FED2B0A2F480AF024FF154802F038
:101F880095F92D480AF0EEFDB0EE480A2A480AF005
:101F9800D3FE9FED220A28480AF06AFE9FED200A28
:101FA80025480AF00FFF0B4802F080F923480AF091
:101FB800D9FDB0EE480A21480AF0BEFE9FED1B0A83
:101FC8001E480AF055FE9FED160A1C480AF0FAFE54
:101FD8003AE000BF740400243C0100240AD7233CE3
:101FE8000801002478010024AC0100241002002418
:101FF800E0010024F001002400020024F80000247D
:102008007C02002400000000080600243404002498
:102018003C040024040400247005002400803B468E
:102028003333333FBC050024D80400240000484360
:102038002405002464030024B8030024BC020024FF
:102048004402002440060024794802F02FF9794818
:102058000AF088FDB0EE480A76480AF06DFE9FED5A
:10206800760A74480AF004FE9FED740A71480AF073
:10207800A9FE6F4802F01AF971480BF0ABF86C48EA
:1020880002F014F96F480BF0A5F8694802F00EF950
:10209800F0EE407A6C4C9FED6D0A88EEA77A2046E8
:1020A8006560C4ED037A84ED058A84ED020A684D03
:1020B80084ED047A0BF082F840F20113F0EE407AD6
:1020C80020462670A384B0EE680AC4ED067AC4EDF3
:1020D800028A0BF073F8F0EE407A5E4A44F620610B
:1020E800B7EE040A5C48C4ED018AC4ED067A01F033
:1020F80073FA1820594C02F0BFF803464C48ADF863
:10210800403002F0D3F81099554801F06BFD524861
:1021180001F0ECFA524801F0AFFD514801F0B6FD6C
:102128004B48FFF7D7FB0FCD0FC495E80F0084E8A5
:102138000F000F2002F0A0F803461CA8ADF84430A9
:10214800119903F023FA102002F096F803460DF1D6
:102158008100ADF84830129903F018FA112002F006
:102168008BF803460DF19200ADF84C30139903F04B
:102178000DFA122002F080F803460DF1A300ADF825
:102188005030149903F002FA132002F075F8034650
:102198002DA8ADF85430159903F0F8F9142002F081
:1021A8006BF803460DF1C500ADF85830169903F0E9
:1021B800EDF9162002F060F803460DF1D600ADF8EF
:1021C8005C30179903F0E2F9192002F055F803463C
:1021D8000E20ADF8603002F04FF803460D20ADF840
:1021E800643002F049F803460C20ADF8683002F07C
:1021F80043F8BDF868100822199BADF804000DF1EA
:10220800E700ADF80010189903F0CEF91CA90623D1
:102218000822144803F002FA124803F0A1FD3146DF
:10222800034802F047F81049014802F03BF8FEE77E
:102238007404002410030024000048433333333F60
:102248000C04002418040024B00400240000C84230
:1022580058DC0008808D5B00C4000024A400002422
:10226800F80900248C040024ED24000808B59FED2B
:102278001E0A1E4801F050FD9FED1B0A1C4801F084
:102288004BFD1C489FED180A01F046FD1A4801F065
:10229800C1FDC8B918489FED140A01F0CDFD1748D3
:1022A80001F0B8FDD0B99FED100A144801F0C4FD43
:1022B8009FED0D0A124801F0BFFD9FED0B0A114872
:1022C800BDE8084001F0B8BD0B48B7EE000A01F0C0
:1022D800B3FD0A4801F09EFD0028E4D0B7EE000ADD
:1022E800064801F0A9FDE3E700000000F809002412
:1022F800700700249808002478010024AC01002409
:102308003C0100240801002470B5634801F046FD33
:10231800624801F043FD624801F040FD614C6248AB
:1023280001F03CFD614801F039FD204603F008F951
:102338005F4803F005F95F4803F002F95E4803F0CF
:10234800FFF863797F2B00F09280594B5B797F2BE4
:1023580000F089805048594C01F05EFD28B123688F
:102368000133032B236000F086804B4801F05CFDAD
:1023780010B12368013B2360484801F04DFD20B1AE
:1023880023680133032B23607AD0444801F04CFDC5
:1023980010B12368013B2360444801F03DFD00284B
:1023A8004CD1424801F040FD38B12368002244482E
:1023B800013B4449027023600A703C4801F02AFD41
:1023C80060B92368032B16D03A4B3F4A5B79A3F1D7
:1023D800FF03B3FA83F35B09137070BD04F098FC34
:1023E8003A4B1B68C01A3228EBD9354B01221A70B8
:1023F8002368032BE8D1364E04F08AFC40F6B83344
:102408003268801A9842DFD9234801F0B5FC234886
:1024180001F0B2FC2F4DFFF729FF294B00222D4870
:102428002D4C1A70FFF756FA0FCD0FC495E80F0020
:1024380084E80F0004F06CFC3060C5E7274801F021
:10244800E1F810BB264801F021FC04F061FC236888
:102458001E4A01331060032B2360A2D104F058FCFC
:102468001B4B18609DE70D4801F086FC72E70A488F
:1024780001F082FC69E704F04BFC154B186074E727
:1024880004F046FC124B18607FE7144801F02EF95F
:10249800134801F0F1FBD5E778010024AC010024D2
:1024A8003C010024E001002408010024100200245B
:1024B800F001002400020024F8000024D8060024BB
:1024C800F5090024F0090024F6090024E006002498
:1024D800DC06002458DC0008A4000024C400002402
:1024E800F8090024DFF894C0DCF800302DE9F04F3B
:1024F8000133204C0646154684FB0302DC170F46C1
:102508001D491A44C4EBE204C4EB04141B1B2DED53
:102518000E8BCCF80030BFF35B8F0B7893B0BFF312
:102528005B8FB3B9DCF800300E2B12D8DFE813F05C
:1025380026061D06190610060C060306FF05F605F5
:10254800F205E905E505DC05D8050F00D405FEF719
:10255800A5FF002D00F0A8850023013DDFF82080AD
:10256800B346029325F00103DFF81890009705930E
:102578008FE000BF89888888F40900246407002454
:102588007806002490060024F8EE007AB4EE678AF4
:10259800F1EE10FA48BFB0EE678AD8480AF022FE7A
:1025A80011A9D7488DED110A01F0C4F9D548B0EE4C
:1025B800480A0AF017FE11A9D3488DED110A01F057
:1025C800B9F909AA08A9D1480AF064FA08AA09A918
:1025D800CE488DED0A0A0AF05DFAB0EE007ADDED1C
:1025E8000A7AF4EEC77AF1EE10FA00F30285B8EE33
:1025F800007AF4EE477AF1EE10FA48BFF0EE477A27
:10260800B0EE007ACDED0A7AB4EEC70AF1EE10FA10
:1026180000F35784B8EE007ABD4B1B78B4EE470A36
:10262800F1EE10FA48BFB0EE470A8DED0B0A002B09
:1026380040F05084B74BF6EE006A93ED007AB4EEA2
:10264800E67AF1EE10FA40F12A8437EE077A9BED2C
:10265800006ADBED016AA7EE276AE7EE006AF0EE92
:10266800467AB0EE660AAC4B1B78002B00F010845B
:102678000023009A13605360009B0BF1080B029A29
:10268800059908338A42009302F1020300F00C8591
:102698000293FFF7A3F8DFF808A3FFF763F89F4852
:1026A80001F0B8FB01469E48F7EE00AA0AF01AF9B5
:1026B8009C48F0EE40BA01F0ADFB01469A480AF09A
:1026C80011F99A48B0EE409A01F0A4FB01469848E7
:1026D8000AF008F99748B0EE408A01F09BFB0146E2
:1026E80095480AF0FFF89548954BF0EE407AC0ED12
:1026F80000BAF6EE028A93481D6880ED009A924867
:1027080005EB0A039FED91AA80ED008A904893EDAE
:1027180000BA80ED008A8F482BEE0A0A04933AEE3D
:10272800CBCA80ED008A8C4B8C481B6880ED008AF0
:102738008B48DFED8C9AC0ED007A8B489FED8B9A21
:10274800C0ED007A8A48D5E90267C0ED007A05EB4A
:102758008702884805EB8601D2ED06DA864AC0ED85
:10276800007A1360854A91ED06EA1360844A136083
:10277800844A13600AF0CCFFF0EE40BA2BEE290A27
:102788000AF0C6FFB0EE408A2CEE0A0A0AF0C0FF33
:1027980028EE098AABEEA88AF0EE40BA2CEE290A98
:1027A8000AF0B6FF60EE097A774BEBEEA87A1C6860
:1027B80038EE088A04EB0A01D4E9022391ED00CA35
:1027C80077EEA77A04EB820204EB83037AEECCAAB5
:1027D8002CEE0A0A92ED06DA67EE8E7AD3ED06CA77
:1027E8000391EDEE887ACDED067A0AF091FFF0EECE
:1027F80040BA2CEE290A0AF08BFFB0EE408A2AEE86
:102808008A0A0AF085FFF0EE407A2AEEA90A28EE35
:10281800098AF0EE679A0AF07BFF5C4860EE097A55
:102828005B4BABEEA88A0644D5F804E0E9EEA87A3B
:102838003844A3FB06C1DFF86CC105EB8E0A890C8E
:1028480038EE088A0CFB1161524E37EEA70ADBED11
:10285800007A01917644A3FB001EA3FB061301999D
:102868004FEA9E4E20EE0D0A9B0C0CFB1E00ACEEB0
:10287800880A0CFB1363D5E90472CAED067A3A4458
:10288800DFF824A1013255F80AE007F1FF3A8DED8F
:10289800070AC5E90210B2FBF7F1AAEB0E0A07FB1B
:1028A80011226B6052456A6140F2CF823A49685CF6
:1028B8006A18002840F0CF8238480127013B2E5C77
:1028C80028446F54002E40F0EB83EB6007EE90EA4B
:1028D800B7EE007AF8EE676AC7EE267A37EE8BBA5B
:1028E800B4EEC7BAF1EE10FA40F39183049B0021CD
:1028F80083ED007A01231170037057E00C04002463
:102908006C070024180400249408002404040024FC
:102918007401002404000024F00900247801002434
:1029280044020024AC0100247C0200240801002495
:10293800080600243C010024400600243404002436
:10294800C40900243C040024B4020024DB0FC93F5E
:102958000803002444040024E80900244C0400244B
:102968005C030024E4CB9640B00300240000803DC3
:10297800540400245C040024240400242C040024AF
:10298800640400246C040024CC090024BF27090037
:10299800851DD96FC1270900249F24001C9F24008E
:1029A800209F2400C0270900189F240021690BF1EB
:1029B80004036069656808EE103A0844B14F04EBF7
:1029C800850EB14B421C2F4401F1FF3CDBED017A2F
:1029D800D4E9020500EB030A1D4403F1E043B2FB0E
:1029E800F1F001FB1020A949A3F540136158A3F6A3
:1029F8003A23CEED067A0191A3FB0762DFF8C8E21D
:102A0800A3FB0A61A3FB0563019E920C6061890C1C
:102A1800ACEB060C9B0C0EFB12720EFB11A1604571
:102A28000EFB1353C4E90121E36040F2EB8198499E
:102A3800605C6318002840F0EB8196480127013A52
:102A4800255C20446754002D40F02C83E260DDEDC6
:102A5800017AB7EE007A039AB8EE676AD2ED006A97
:102A6800C7EE067A77EEA67AF4EEC77AF1EE10FA98
:102A780040F31F83039A002182ED007A0122197026
:102A8800027006AA594684480AF004F818EE101A8B
:102A980007AA8248F0EE408A09F0FCFF8048B0EEB1
:102AA800408A00F0B1FE03467E481B68089300F098
:102AB800ABFE03680993FEF7D3FEB0EE007ADDEDB6
:102AC800087AF4EEC77AF1EE10FA00F39881B8EEBE
:102AD800007AF4EE477AF1EE10FA48BFF0EE477A42
:102AE800B0EE007A9DED090ACDED087AB4EEC70A7A
:102AF800F1EE10FA00F3EA80B8EE007A6A4B1B7820
:102B0800B4EE470AF1EE10FA48BFB0EE470A8DED71
:102B1800090A002B00F0E380644BD8ED042AD3EDBA
:102B2800004A634B98ED006A93ED007A614BF4EE2E
:102B3800C74AD9ED043A99ED054A99ED032AF1EE11
:102B480010FA98ED053A98ED031ADFED5B1A58BFB5
:102B580074EEC74A93ED007A584BD3ED006A67EEDE
:102B6800A44AD9ED007AB4EEE67A554BF1EE10FAA4
:102B780058BF37EE667AF7EE006A20EE070A36EE9F
:102B8800E25A76EEE35A36EEC37A25EE065A93ED0C
:102B9800006A65EEA75A76EEC47AA4EEA25AE0EE71
:102BA800235A67EE827A27EE017A76EEC66A34EE09
:102BB800C52A88ED005A70EE652AC9ED005A66EEFE
:102BC800005AF0EEC23A88ED022AB0EEE25AC9ED98
:102BD800022A26EE246AA3EE837AC8ED013AE5EECE
:102BE800047A89ED015AE6EEA45AA6EE806AB4EE9C
:102BF800E17A88ED037AC9ED037AF1EE10FA3DDB4C
:102C080037EE617AF0EE086A27EE267ADFED2A6A57
:102C1800274BF4EEE67A83ED007AF1EE10FA2ADB20
:102C280077EEE67AB0EE087A67EE877A234B38EECD
:102C3800A50A38EE068AC3ED007AF0EE007AB4EE03
:102C4800E70AF1EE10FA13DCF8EE007AB4EE670A40
:102C5800F1EE10FA48BFB0EE670AF0EE007AB4EE73
:102C6800E78AF1EE10FA7FF78FACB0EE678A94E44A
:102C7800B0EE670AF1E7DFED137AD7E79FED117A37
:102C8800C4E700BFC1270900BF270900189F240017
:102C9800249F24001C9F2400340400243C040024A6
:102CA8006C0700249408002474010024D809002427
:102CB8005C070024E0090024CDCCCC3E600700244A
:102CC8006807002400000000C0270900D64BB0EEBA
:102CD800470A1B788DED090A002B7FF41DAF9FED85
:102CE800D39AD34D27EE890AD24C284609F060FFC3
:102CF8009DED090A204620EE090A09F059FFF2EE77
:102D0800046A95ED0C7A0CAAD4ED0C7A08A927EE82
:102D1800267AC94867EEA67A8DED0C7ACDED0D7A44
:102D280009F0B8FE0DAA09A9C4488DED0E0A09F0EC
:102D3800B1FEF0EE006A9DED0E7AF0EE407AB4EE48
:102D4800E67AF1EE10FA00F3A681F8EE006AB4EE26
:102D5800E67AF1EE10FA00F1B58127EE090AF0EEF5
:102D6800006A8DED0E7AF4EEE67AF1EE10FA00F3D1
:102D78008F81B8EE007AF4EE477AF1EE10FA48BF88
:102D8800F0EE477AAE4DAF4C2846CDED0F7A09F0FC
:102D98000FFFDFEDA67A9DED0F0A204620EE270AE9
:102DA80009F006FFF2EE046A95ED0D7A0EA9D4ED4E
:102DB8000D7A10AA27EE267AA34867EEA67A8DED3B
:102DC800107ACDED117A09F065FE0FA911AA9F4876
:102DD8008DED0E0A09F05EFE0EAA08A99C488DED3D
:102DE8000F0A09F057FE0FAA09A99A488DED080A9B
:102DF80009F050FEDDED087A8DED090A8CE6F0EE5B
:102E0800477A6DE6944BE25C2344002A3FF439AEDE
:102E1800924AA018A25C002A3FF419AEDDED017AAF
:102E2800B7EE006A03990022F8EE676AD1ED007ADE
:102E380086EE267A77EEC77AF5EEC07AF1EE10FACA
:102E480000F13A81C1ED007A1BE6834AAB5C2A4463
:102E5800002B3FF4ABAD814BE818EB5C002B3FF443
:102E680035AD07EE90EAF7EE006A0023B8EE677A10
:102E7800C6EE877A3BEE67BAB5EEC0BAF1EE10FA45
:102E880040F1C5800021049D2B60117001708DE513
:102E9800009BC3ED007A83ED010AFFF7EDBB40F319
:102EA800AC80F7EE006ADBED005A9BED016A36EE66
:102EB800C77A37EE077AE7EE257AA7EE060AFFF714
:102EC800D2BB594BB0EE470A1B788DED0B0A002B8D
:102ED8003FF4B0AB9FED558A614D27EE880A614CEF
:102EE800284609F065FE9DED0B0A204620EE080AEB
:102EF80009F05EFEF2EE046A95ED0C7A0AA9D4EDAB
:102F08000C7A0CAA27EE267A574867EEA67A8DED3A
:102F18000C7ACDED0D7A09F0BDFD0BA90DAA534829
:102F28008DED0E0A09F0B6FDF0EE006A9DED0E7A01
:102F3800F0EE407AB4EEE67AF1EE10FA6EDCF8EED6
:102F4800006AB4EEE67AF1EE10FA00F1C08027EEDE
:102F5800080AF0EE006A8DED0E7AF4EEE67AF1EEEC
:102F680010FA58DCB8EE007AF4EE477AF1EE10FA6F
:102F780048BFF0EE477A3E4D3E4C2846CDED0F7ADD
:102F880009F016FEDFED297A9DED0F0A204620EEA6
:102F9800270A09F00DFEF2EE046A95ED0D7A0EA9E6
:102FA800D4ED0D7A10AA27EE267A334867EEA67A72
:102FB8008DED107ACDED117A09F06CFD0FA911AAEB
:102FC8002E488DED0E0A09F065FD0EAA0AA92C48B7
:102FD8008DED0F0A09F05EFD0FAA0BA929488DEDAA
:102FE8000A0A09F057FDDDED0A7A8DED0B0AFFF7A5
:102FF80021BBF0EE477AFFF703BBDBED006A9BEDE0
:10300800017A77EEA67A30EE070AFFF72CBB049B0D
:1030180083ED00BACAE4F0EE667AACE7B0EE667A01
:103028009FED190A95E700BF74010024CDCCCC3D73
:1030380070050024BC0500245C030024B0030024B0
:10304800D804002424050024B40200240803002422
:10305800240400242C040024249F24001C9F240002
:1030680064030024B8030024540400245C040024EE
:10307800BC02002410030024440400244C0400244F
:10308800640400246C040024CDCC4C3ECDCC4CBE52
:10309800F0EE667A76E6B0EE667A1FED050A5EE631
:1030A800AB60DEE6A260B9E613B0BDEC0E8BBDE8FE
:1030B800F08FC2ED007AE4E40021039C22601970CD
:1030C8000170DEE4B0EE667A1FED100A47E6B0EE56
:1030D800667A1FED120A3CE7FEF784FAFFF739BA61
:1030E800FEF7FAF8FFF735BA0521294802F04EFE37
:1030F800284B83ED000AFFF72CBAFDF7BDFFFFF759
:1031080028BA0421224802F041FE234B83ED000A2D
:10311800FFF71FBAFDF7B8FEFFF71BBA03211C48DB
:1031280002F034FE1D4B83ED000AFFF712BAFDF7DB
:10313800BBFDFFF70EBA0221154802F027FE184B17
:1031480083ED000AFFF705BAFDF7BCFCFFF701BAEB
:1031580001210F4802F01AFE124B83ED000AFFF717
:10316800F8B9FDF79BFBFFF7F4B90021084802F016
:103178000DFE0D4B83ED000AFFF7EBB9FFF7C4F81E
:10318800FEF7D8FAFEF746FBFEF758FBFFF7E1B962
:103198008C040024400A0024D4090024E4090024F3
:1031A800DC090024C0090024BC0900242DE9F041F1
:1031B80097480026974C984D2246984946610662E2
:1031C8000AF022F82246294695480AF01DF82246B8
:1031D800294694480AF018F82246294692480AF0E7
:1031E80013F82246294691480AF00EF82246294645
:1031F8008F480AF009F8224629468E480AF004F852
:10320800224629468C4809F0FFFF224629468B486A
:1032180009F0FAFF22468A4900258A4809F0F4FF96
:10322800894F8A4822468A4905604560C56085609D
:103238000761476109F0E8FF8648DFF8E082224627
:10324800834905604560C56007614761856009F08D
:10325800DBFF814F22464146804809F0D5FF2246D0
:1032680041467F4809F0D0FF7E4D224639467E48C8
:1032780009F0CAFF224639467C4809F0C5FF7C4F51
:10328800224629467B4809F0BFFF224629467A484C
:103298007A4D09F0B9FF22463946794809F0B4FF5A
:1032A80022463946774809F0AFFF22462946764834
:1032B80009F0AAFF22462946744809F0A5FF2246CC
:1032C8002946734809F0A0FF22462946714809F0AB
:1032D8009BFF714F22462946704809F095FF224608
:1032E8006F49704809F090FF224639466E4809F048
:1032F8008BFF224639466D486D4D09F085FF224601
:1033080039466C4809F080FF224639466A4809F078
:103318007BFF22462946694809F076FF224629465E
:10332800674809F071FF22462946664809F06CFF94
:1033380022462946644809F067FF22462946634821
:1033480009F062FF22462946614809F05DFF2246DE
:103358002946604809F058FF224629465E4809F088
:1033680053FF224629465D4809F04EFF224629466A
:103378005B4809F049FF224629465A4809F044FFAC
:1033880022462946584809F03FFF22462946574811
:1033980009F03AFF564F22462946564809F034FFAD
:1033A80022462946544809F02FFF224639465348F9
:1033B80009F02AFF22463946514809F025FF2246DE
:1033C8003946504809F020FF224639464E4809F050
:1033D8001BFF4FF07E554D4842F210734C49224670
:1033E800DFF83CE14B4FDFF83CC180F82460866091
:1033F8008162C762056348490362C0E90366C0E9A0
:103408000666C0E900CEBDE8F04109F0FDBE00BF88
:103418007404002400000024B1060008A506000872
:1034280070050024BC050024D804002424050024C9
:1034380064030024B8030024BC0200241003002401
:10344800AD060008B004002417B7D1387806002468
:10345800BD06000890060024D10600080C040024CC
:1034680018040024D5060008D8B6B2C0503E49C09A
:10347800CD060008289F24C0000000C0C906000827
:103488006C070024940800243C010024080100244F
:1034980078010024AC010024A906000810020024C9
:1034A800C5060008F8090024440200247C02002410
:1034B800B506000840060024080600243404002449
:1034C8003C040024040400245C030024B00300240A
:1034D800B402002408030024540400245C040024DB
:1034E800440400244C040024240400242C04002454
:1034F800A1060008640400246C040024E0010024F0
:10350800F001002400020024F8000024C400002474
:103518000000A03F0024F448C1060008B9060008CE
:1035280080841E0080380100DFED297AF4EEE70A76
:1035380010B5F1EE10FA04462DED048BF0EE418A39
:10354800B0EE409A54BFB0EE600AB0EE670AB0EE33
:10355800608A09F0D1FEF0EE409AB0EE680A09F0F0
:10356800CBFE032C30D8DFE804F00F18230229EE35
:10357800090A78EEC88A20EE099AB0EE480AA9EE40
:10358800280ABDEC048B10BD78EEC88AB0EE480A54
:10359800A8EE890ABDEC048B10BD29EE099A78EED5
:1035A800C88AB0EE480AA9EE280ABDEC048B10BD03
:1035B80070EE697AB0EE690AA7EE890ABDEC048B51
:1035C800BDE8104009F026BE9FED020AD9E700BF0A
:1035D80095BFD63300000000002380ED0A0A30B4FE
:1035E8004FF07E54064D80F82430C5620463C0E96C
:1035F800001230BCC0E90433C0E90233704700BF91
:103608000024F44810B5044603F084FBE3682268FC
:10361800C31A934263616268C4E902001ED39342ED
:1036280020D894F8240007EE903A00BBB8EE677AE9
:10363800D4ED047AD4ED0A6AF8EE677A67EEA67AD2
:10364800B4EEE77AF1EE10FA0CDAD4ED0C6A012048
:103658002361C7EE267AC4ED0B7A10BD934201D8D8
:10366800002010BD0123002084F8243010BDF8EE9E
:10367800676A94ED0C7A00222361C6EE877A84F893
:103688002420C4ED0B7A10BD154B90ED0B7AD3EDC9
:10369800007ADFED146A37EE677A134A92ED000A72
:1036A800E7EE267AB7EEC05A9FED0B4B37EEC06AAD
:1036B800C3ED007A25EE045BB0EEC66AB7EEC66AC3
:1036C800B4EEC56BF1EE10FA03DDB0EE670AC2ED99
:1036D800007A7047AFF300807B14AE47E17A743FFD
:1036E800480A00245839343C440A00249FED057ADE
:1036F800B7EE000AD0ED0B6AC6EE877A80EE270A8D
:10370800704700BF0024744980ED0C0A704700BF61
:103718002DE9F04383B0394C0546ADF80410016833
:1037280080ED430A01F184030C44002243F8042B82
:10373800A342FAD10020314E02270A460346086008
:103748008F5100260133002742F8046F216817645F
:103758009942F6D8F2EE0E7A95ED430A4FF07E5470
:103768004FF001080199281D80EE270A4FF07C5977
:1037780000F038FAC5F8D840C5F8DC40C5F824414F
:10378800A5F8CC8003F0C4FA95ED430AC5F8FC000F
:1037980005F15C0085F80861C5F8F870C5F8147182
:1037A80085F81861164F174E85F8008185F8508006
:1037B800C5F84C9009F078F805F1940095ED430AA6
:1037C800EC65C5F8E040C5F8E840C5F8549085F8C0
:1037D80058806F662F67AE6609F066F8C5F89C706A
:1037E800C5F8A060C5F8A870C5F89440C5F8E440CD
:1037F800C5F8EC4003B0BDE8F08300BF84786900E9
:103808000AD7233CACC527372DE9F04F0023002702
:10381800044600F1D00500F1CC0900F15C0800F184
:103828004C062DED028B83B0C0F814310193236848
:10383800DFF8DCE094ED3E7A03EB8701D5ED067AFC
:1038480053F80EE077EE877A2F4ABE45DFF8C4B00A
:10385800DFF8C4C0C5ED047A52D9BDEEE77A17EE99
:10386800100AB8EEC77A824277EEC77A28BF0246B6
:103878004A601868C1ED117A024402F1010E510A3A
:103888004FEA5E2AABFB0101ABFB0AA00CFB11223D
:103898000CFB10E103EB820203EB810392ED217A2A
:1038A800D3ED216A76EEC76AA6EEA77AF0EE477ADC
:1038B800AA4619F8011B4046C5ED087A09F012F826
:1038C80005F12002AAEC010A304686ED000A01A99A
:1038D8009AED018A09F0DEF8D4ED457A08F1380846
:1038E80055460836E8EE007AC4ED457A37B104F556
:1038F8008A7003B0BDEC028BBDE8F08F012796E714
:10390800DFED027AD4E700BFFF5D1A000000000077
:1039180084786900076B1300005E1A00034631B112
:1039280090ED470A043093F8191100F0C9B9043032
:1039380000F0B0B90068094A70B40E680168084D13
:103948000A4400EB8101074C530AC1F88460A5FBC7
:10395800031304FB132370BC03607047FF5D1A0058
:10396800076B1300005E1A00DFED477AB4EEE70A32
:10397800F1EE10FA05D500239FED440A80F81931BD
:103988007047DFED437AB4EEE70AF1EE10FA05D599
:1039980001239FED400A80F819317047DFED3E7A28
:1039A800B4EEE70AF1EE10FA0CD4DFED3C7AB4EE8F
:1039B800E70AF1EE10FA0BD503239FED390A80F8D8
:1039C800193170470223B5EE000A80F819317047A3
:1039D800DFED347AB4EEE70AF1EE10FA0CD4DFED3D
:1039E800327AB4EEE70AF1EE10FA0BD50523B7EEFA
:1039F800000A80F8193170470423B6EE000A80F8EF
:103A080019317047DFED297AB4EEE70AF1EE10FAC2
:103A180005D50623B0EE000A80F819317047DFEDAE
:103A2800247AB4EEE70AF1EE10FA05D50723B0EED2
:103A3800080A80F819317047DFED1E7AB4EEE70AFC
:103A4800F1EE10FA05D50823B1EE000A80F8193115
:103A58007047DFED197AB4EEE70AF1EE10FA05D5F2
:103A68000923B1EE040A80F819317047F7EE007A9D
:103A7800B4EEE70AF1EE10FAB8D80A23B1EE080A54
:103A880080F81931704700BFC729BA3DABAA2A3E52
:103A9800C7293A3ECDCC4C3E569F8B3EC729BA3EED
:103AA800ABAAAA3E39B4E83EE3A50B3F1CEB223F84
:103AB80055303A3F8E75513FC7BA683F0000000045
:103AC80038B504462DED028B00294DD0FFF74CFF89
:103AD800D0ED487A9FED408A20EE270A20EE088A2A
:103AE80094ED497A9FED3A5B38EE476AB7EEC77AAC
:103AF800B0EEC66A27EE057BB7EEC66AB4EEC76BB2
:103B0800F1EE10FA4EDC94F81831BBBB03F000F963
:103B1800D4F8FC30C01A19283FD994F80851FDB1DF
:103B2800B4F8CC3094F8002183F4807382F0010259
:103B380083F0010384F80021A4F8CC3003F0E8F8FE
:103B480094ED437AB7EE000A0023C8EE077AC4F86A
:103B5800FC0084F80831201D80EE270A00F08CF85C
:103B68002846BDEC028B38BD02209FED1C1ADFED04
:103B78001C0AFFF7D9FCB0EE408AB1E794F800318F
:103B880003BB84ED3A8A002384F8183103F0C0F8A7
:103B9800D4F8FC30C01A1928BFD80025BDEC028B18
:103BA800284638BD03F0B4F80025012384ED498A7E
:103BB800C4F8FC00284684F8083184F81831BDECB4
:103BC800028B38BD84ED3B8ADDE700BFAFF3008090
:103BD8007B14AE47E17A743FA69B443D00606A4877
:103BE8000000704510B52DED048B82B004469FEDA2
:103BF800209AB0EE408AADF8041000220199F7EE41
:103C0800008A01F0F3FBB0EE490A204601F012FCED
:103C1800204601F021FCC8EE887A4FF07C539FEDD6
:103C2800150A04F11C0084ED0A8A236284ED0C9ABB
:103C380084ED090A0090C4ED0B7A00F0F1FAF0EE79
:103C4800007A40F201120423009884ED0D0AB0EEC8
:103C5800670AC4ED088AA4F840202377C4ED097ADE
:103C680000F0DEFA84ED0D0A02B0BDEC048B10BD45
:103C7800000000000000C84210B5044680ED090AA3
:103C88001C3000F0CDFA84ED0D0A10BD002303634B
:103C9800704700BF10B504461C3000F0DFF8B7EEDF
:103CA800007AF6EE007A204630EE070A20EE270A60
:103CB80001F0C0FB2046BDE8104001F0CDBB00BFBD
:103CC8000A2900B583B01FD8114B03EB8101D1ED50
:103CD800007A20EE270A019009F01AFD9FED0D7A6F
:103CE800F7EE007A0198B4EEC70AF1EE10FA54BF65
:103CF800B0EE670AB0EE470A01F09CFB019803B0EA
:103D08005DF804EB01F0A8BBF1EE087AE1E700BF2B
:103D180078DC00080000000001F08CBB90F841003E
:103D2800704700BF70B52DED028B82B0B0EE408AAF
:103D380000F114060446ADF800200430ADF8041074
:103D48001D46009901F0E0FBB0EE480A304600221B
:103D5800019901F04BFB002330469FED060A84F8D9
:103D68003050237002B0BDEC028BBDE8704001F00A
:103D780061BB00BF000000000378143083F001032A
:103D880000F8143C1BB1B7EE000A01F053BB9FEDDD
:103D9800020A01F04FBB00BF0000000038B500F177
:103DA80014050446284601F057FB201D01F0C8FB06
:103DB80094F83030012B17D0022B09D003B138BD4D
:103DC800637A7F2BFBD12046BDE83840FFF7D4BF8C
:103DD800637AFF2B13D0002328469FED0D0A23702A
:103DE800BDE8384001F026BB627AFF2AF3D02846A6
:103DF8002370B7EE000ABDE8384001F01BBB012371
:103E08002846B7EE000A2370BDE8384001F012BB1F
:103E18000000000000787047407AA0F17F00B0FAF7
:103E280080F04009704700BF407AA0F18000B0FAE6
:103E380080F04009704700BF143001F0FBBA00BFA2
:103E480003480023034A04494361036209F0DCB9CB
:103E58004C0A002400000024A5060008037810B5C9
:103E680004462DED028B072B00F2C881DFE813F022
:103E78005F009400A900BA00C900D9003601080003
:103E8800D0ED057AB7EE000A9FEDE07AFFEE008AE2
:103E9800DFEDDF6A90ED068AF4EEE67A28EE078A0F
:103EA80067EE877AF1EE10FAF4EEC87A48BFF0EEC2
:103EB800408AF1EE10FA00F1968130EE487AF4EE7D
:103EC800C77AF1EE10FA00F34B819FEDD20AB6EEF5
:103ED800007AF7EE000A78EE808A37EE870A09F052
:103EE80023FDB4EEC80AF1EE10FA00F16281B7EED4
:103EF800007A77EE487AB4EEE70AF1EE10FA0DDDB3
:103F080030EE470AC0EE087AF0EE676AE7EEA76A75
:103F180077EEA67A77EE877A78EEE78A9FEDBE0A83
:103F280094ED058A28EE800A94ED067A07E090ED74
:103F3800058AB0EE480A09F0EBFB94ED067A78EEB4
:103F4800077ADFEDB66AF4EEE67AC4ED057AF1EEAB
:103F580010FA40F3F48077EEE67A012384F82530EE
:103F6800C4ED057A37EEC77ADFEDA96AB4EEE67AD2
:103F7800F1EE10FA40F1E180F4EEE67AF1EE10FA93
:103F8800ACBF01230023D4ED017A84F8243020EE5D
:103F9800270ABDEC028B10BD90ED058ABFEE000A22
:103FA800DFED9A6AF6EE007A38EE086A90ED067A46
:103FB800A6EE260AB0EEC00A30EE670A30EE000A16
:103FC800BDE790ED058AF0EE006ADFED907ABFEE6E
:103FD800000A90ED067A68EE277AA7EEA60AB1EEF7
:103FE800400AACE790ED058AF0EE006ADFED877ACB
:103FF800BFEE000A90ED067A68EE277AA7EEA60AC9
:104008009DE790ED058ADFED827A90ED067AB4EEB1
:10401800E78AF1EE10FA4CBFB7EE000ABFEE000ACD
:104028008DE7D0ED057AB7EE007ADFED786AFFEE1E
:10403800008A9FED776A90ED068AF4EEC67A28EE3C
:10404800268A67EEA67AF1EE10FAF4EEC87A48BF2F
:10405800F0EE478AF1EE10FA00F1BA8077EE486A7E
:10406800F4EEE67AF1EE10FA6DDC9FED6A7AB6EEC0
:10407800000AF7EE000A78EE878A37EE800A09F020
:1040880053FCB4EEC80AF1EE10FA76D4B7EE007A13
:1040980077EE487AB4EEE70AF1EE10FA0DDD30EE6D
:1040A800470AC0EE087AF0EE676AE7EEA76A77EE8D
:1040B800A67A77EE877A78EEE78AB7EE000A94ED6B
:1040C800067AD4ED077A94ED058A30EE470A20EE99
:1040D800270AA7EE280A84ED070A30E7DFED4B7AB6
:1040E800B0EE006A90ED058ABFEE000A90ED067A00
:1040F80068EE276A67EE277AA6EE860AF4EEE76A84
:10410800F1EE10FA48D4F7EE005A35EEE76AF4EE0D
:10411800C66AF1EE10FA0DDD76EEE56A86EEA76A5C
:10412800F0EE467AE6EE067A36EE276A36EE256A2D
:1041380030EE460AB1EE400A01E7002323E70023E8
:1041480084F825300EE737EEC76AC6EE086AB0EE87
:10415800666AA6EEA66A76EE866A36EE877A86E7FD
:1041680077EEC06A86EE887AF0EE476AE7EE076A6D
:1041780037EE267A37EE000AA9E680EE087AB0EE26
:10418800006AF7EE006A67EE477AE7EE067A77EE9E
:10419800E67A78EEE78A90E7C6EEA75AF7EE006A65
:1041A80065EEE57AE5EE867A77EEE67A30EE670A2E
:1041B800C0E780EE087AB0EE006AF7EE006A67EEB4
:1041C800477AE7EE067A77EEE67A78EEE78AA5E6AA
:1041D80087EE886AF0EE005A66EE466AE6EE256AD1
:1041E80036EEC77A43E7C7EE886AB0EE006A26EE75
:1041F800E67AA6EE867A37EE400A68E690ED058AFA
:1042080090ED067A9FED030A99E600BF83F9223EF6
:10421800DB0F494000000000F4FD343FDB0FC940CC
:10422800DFED047A20EE270AD0ED047A20EE270A83
:10423800704700BFDB0FC9400B4A40F207110B4B18
:1042480002604FF4877243600623C1844285037479
:1042580080F8293070B40224054E064D80F82540B8
:10426800C0E9026570BC7047000705000105080534
:104278000905070506050A061F2882B009D8084B54
:1042880003EB400213F81030507843EA002002B0E4
:10429800704701230C2043EA002002B0704700BF9A
:1042A800A4DC0008143001F083B800BF143001F01A
:1042B8007BB800BF38B500F1140504462DED028B1C
:1042C800284601F063F8284601F06EF82846B0EE5B
:1042D800408A01F057F8D0ED007AF8EE677A88EE58
:1042E800277ABDEC028B84ED0E7A38BDF0B51A4DF5
:1042F80091B000210446079505F100754FF441700F
:10430800002201230326012705F540750691029135
:1043180006A9ADF8240002A808953025CDE90C239C
:10432800CDE90E23CDE90A6702F0AAFB40F6013376
:104338004FF07E56ADF80430019800F04DF8032395
:10434800029A03A904F114000596CDE9035300F07D
:10435800E5FF11B0F0BD00BF0402040430B5044607
:104368002DED028B83B089B3012240F20113009234
:10437800ADF80430694604F1300002F0B7FD20467C
:1043880000F04CF8E01C01F019FF04F1250001F0E1
:1043980019FE04F1140504F1290001F013FE20466A
:1043A800FFF7A4FF284600F0FFFF2846B0EE408A3A
:1043B80000F0E8FFD0ED007AF8EE677A88EE277A09
:1043C80084ED0E7A03B0BDEC028B30BD40F20113D0
:1043D8000091ADF80430CDE710B584B00346012450
:1043E800ADF8040003A8ADF80C30ADF80E4001F0AC
:1043F800E9FD214603A801F0CFFE204602F090FC1B
:1044080003A8002101F0C8FE204602F089FC2146DD
:1044180003A801F0C1FE04B010BD00BF2DE9F043B0
:10442800444C8BB0A063037823B1002528460BB019
:10443800BDE8F083404A0A2300260127626008226B
:104448000893202302A9201DC4E90267C4E90423B4
:1044580040264FF4C07700224FF40063C4E9066792
:10446800C4E908234FF48056002702220723C4E931
:104478000A67CDE902230426032200230827CDE991
:104488000623CDE9046707F093FD054600284CD1C3
:104498004FF001084FF010090126002702A94FF438
:1044A80080520190201DCDE902894FF002084FF09B
:1044B8001009CDE9046707F0A5FD642002F068FE45
:1044C80002A94FF48052201DCDE90467CDE9028985
:1044D80004264FF003084FF01009002707F092FD5B
:1044E80002A94FF48052201DCDE90467CDE9028965
:1044F80007F088FD40F232234FF0010C04260193A7
:104508001027019B02A94FF48052201DCDE904C356
:10451800CDE9026707F076FD201D40F6060107F099
:1045280091FD28460BB0BDE8F083012528460BB065
:10453800BDE8F083900A002440410052694A2DE901
:10454800F04315688FB015B10FB0BDE8F083664B26
:1045580001210C24002611600327D3F8D4204FF63C
:1045680083784FF0020908A942F480525F48C3F8E3
:10457800D420D3F8D42002F480520092009AD3F8C1
:10458800E02042F01002C3F8E020D3F8E02002F067
:1045980010020192019AD3F8E02042F04002C3F8D9
:1045A800E020D3F8E02002F040020292029AD3F809
:1045B800E02042F00802C3F8E020D3F8E02002F03F
:1045C80008020392039AD3F8E02042F48072C3F8F9
:1045D800E020D3F8E02002F480720492049AD3F821
:1045E800E02042F08002C3F8E020D3F8E02002F097
:1045F80080020592059AD3F8E02042F02002C3F821
:10460800E020D3F8E02002F020020692069AD3F8C0
:10461800E02042F00402C3F8E020D3F8E0300C9424
:1046280003F004030793079BCDE90A67CDE90889DE
:1046380004F0BEFB48F23712022308A92C480C9458
:10464800DFF8C080CDE90A67CDE9082304F0B0FBA4
:104658004CF20372022308A926480C94CDE90A6794
:10466800CDE9082304F0A4FB40F2FF62022308A965
:1046780021480C94CDE90A67CDE9082304F098FB9A
:104688004FF60C72022308A91C480C94CDE90A675E
:10469800CDE9082304F08CFB4FF63F02022308A95A
:1046A80017480C94CDE90823CDE90A6704F080FB8C
:1046B800D8F83800013002F0F3FCD8F83830064654
:1046C800581C02F0F5FC02220746032308A93046CD
:1046D8000C9408970B93CDE9092504F069FB0FB0FA
:1046E800BDE8F083880A00240044025800100258EC
:1046F80000180258000C025800200258001C0258EA
:1047080000140258900A00242DE9F04FDFF828849D
:1047180006460D46144608F114002DED028B89B0AB
:1047280000AF02F09DFAD8F814305BB3D8F818300F
:104738004269002B0BBF022304234FF008094FF0F6
:104748001009FB61D8F804304BB3A100E946012AEF
:1047580001F1070121F00701ADEB010D6846ADEB52
:10476800010D694600F04281022A00F0DB80002A30
:1047780074D022469847CD462437BD46BDEC028BFF
:10478800BDE8F08FD8F81830002BF5D002234FF091
:1047980008094269FB61D8F80430002BD5D1D8F854
:1047A8000030BA617B61002BE6D06B46DA4808EE30
:1047B800103A02F09DFA8646F869BA69022800F0B4
:1047C8008E816B46C7F810903969A3EBC4039D46E8
:1047D8006300E946B3FBF0F3A9EBC40CC7F81890E3
:1047E80009EB830AB869E546ADEB010D0CEB8301D3
:1047F800EB46F9603969C7F810A00AEB830AADEBFC
:10480800010DCBF80000F9680AEB8300E94601EBDB
:104818008301CBF80C00386901EB8303C9F800C0A9
:10482800CBE9010AF868C9E90213C9F80400012AAA
:1048380000F08283022A00F07C82002A00F0868140
:104848006208494658467B69984718EE103A24375B
:104858009D46BD46BDEC028BBDE8F08F002C88D08C
:1048680098ED0B6A864606F1040CDFEDB66A36F958
:1048780022A00EF1080E07EE10AA3CF922A002327F
:1048880007EE90AAB8EEC77A9442F8EEE77A27EED8
:10489800267A67EEA67A27EE067A67EE867A0EED16
:1048A800027A4EED017AE2D8F961224698479B4E8A
:1048B800F9690020D8ED046A2B1D9FEDA37A9FEDBE
:1048C800986ADFED985A22E0F4EEC67AF1EE10FA13
:1048D800C0F2EF8447F6FE72D1ED017A45F8202048
:1048E80066EEA77AF4EEC77AF1EE10FA40F2F58098
:1048F800F4EEC67AF1EE10FAC0F2FC8447F6FE72C6
:1049080043F820200230083184427FF634AFD1EDDD
:10491800007A66EEA77AF4EEC77AF1EE10FAD3D8E9
:104928003246D9E7002C3FF424AF98ED0B6A86464F
:10493800002206F1040CDFED7C6A06EB820A0EF118
:10494800080E9AED007A0CEB820A0232DAED007A50
:10495800B8EEC77A9442F8EEE77A27EE267A67EE41
:10496800A67A27EE067A67EE867A0EED027A4EED83
:10497800017AE2D8F961224698476C4EF96900201D
:10498800D8ED046A2B1D9FED707ADFF8B0C19FED5A
:10499800646A20E0F4EEC67AF1EE10FAC0F2A2845E
:1049A8003246D1ED017A45F8202066EEA77AF4EE7A
:1049B800C77AF1EE10FA40F28E80F4EEC67AF1EE84
:1049C80010FAC0F28784324643F8202002300831BA
:1049D80084427FF6D0AED1ED007A66EEA77AF4EE87
:1049E800C77AF1EE10FAD5D86246DAE7002C3FF420
:1049F800C0AE06F1040CFD6198ED0B6A1D468346B6
:104A080063464FF0000ADFED4A6AB4465CF82A2094
:104A18000BF1080B53F82A600AF1020A82F400022B
:104A280086F4000E5445A2F5000207EE102AAEF5F2
:104A3800000207EE902AB8EEC77AF8EEE77A27EE7A
:104A4800267A67EEA67A27EE067A67EE867A0BED67
:104A5800027A4BED017AD9D82B46FD692246F961D5
:104A68009847344EF9690020D8ED046A2B1D9FED54
:104A7800367ADFF8CCC09FED2A6A1FE0F4EEC67ADA
:104A8800F1EE10FAC0F21E843246D1ED017A45F8F3
:104A9800202066EEA77AF4EEC77AF1EE10FA18D95C
:104AA800F4EEC67AF1EE10FAC0F2FB83324643F810
:104AB80020200230083184427FF65DAED1ED007AC5
:104AC80066EEA77AF4EEC77AF1EE10FAD6D8624607
:104AD800DBE76246EBE7624676E7324610E7A3007B
:104AE8006008073323F00703ADEB030DEC46ADEB8D
:104AF800030DEA46ADEB090D0CEB8003C7F818C0AF
:104B0800EB46ADEB090D0AEB80003B61E946CBE9CA
:104B180000C3C9E900A08AE6E40A00240280FFFF76
:104B280004FF7F3F00FEFF46000000300082FF7F49
:104B38000000003482FF7F00CC0A0024007E008041
:104B48007E0080FF0000003804FF7FBF002C00F0CB
:104B5800EC82F969D8F82030022900F01B8303EBB6
:104B68008E0ADBF80C104FEA8E03C7F800B006F186
:104B7800040C5FED0C5A7B60DBF80830D7F818E0BE
:104B8800FB600AF10403C7F818909B46D7F8109009
:104B9800B9603D613CF9221036F9223006EE901AD0
:104BA8003AF9221006EE103A98ED0B5A07EE101A51
:104BB800F8EEE66AB8EEC66A3BF92210B8EEC77A94
:104BC800530807EE901A66EEA56A26EE256AF9687C
:104BD80027EE257A09EB8300F8EEE77A0EEB8305DA
:104BE80026EE056A01EB830127EE057A023266EEAE
:104BF800856A67EEA57A85ED006A9442C0ED006A81
:104C080081ED007A98ED0B7AB86867EE877A00EB49
:104C18008303C3ED007ABDD8D7F800B0D7F8189051
:104C28003D69620849467B6958469847D8F8283054
:104C380079680022D8ED046A1944D9F800E0D9F857
:104C480004C02B1D01F104088A461FED417AC7F8FC
:104C58001880B14E9FEDB16ADFEDB15AD7F81C80CC
:104C680052E0F4EEC67AF1EE10FAC0F2DC8247F6B2
:104C7800FE7B0CEB010045F822B0D0ED007A66EE21
:104C8800A77AF4EEC77AF1EE10FA4CD9F4EEC67AA8
:104C9800F1EE10FAC0F2D08247F6FE70B8F1020FBA
:104CA80043F822002CD0D9F808000844D0ED007A47
:104CB80066EEA77AF4EEC77AF1EE10FA37D9F4EE79
:104CC800C67AF1EE10FAC0F2E38247F6FE7BD9F815
:104CD8000C004AF822B00144D1ED007A66EEA77ABA
:104CE800F4EEC77AF1EE10FA1FD9F4EEC67AF1EEB7
:104CF80010FAC0F2C58247F6FE71B86940F8221072
:104D0800023294427FF6A1AD51080EEB8100890072
:104D1800D0ED007A66EEA77AF4EEC77AF1EE10FAD3
:104D28009FD8B346A5E73046B8E73146E5E7B3462E
:104D3800CDE7002C00F0F981FA69D8F82030022A72
:104D480000F0FA8103EB8E0ADBF80830C7F800B0F0
:104D580006F1040CFB604FEA8E030AF10402DFED52
:104D6800715A7B60DBF80C309346D7F818E0BB60CB
:104D78000023C7F81890D7F810903D6156F8231013
:104D88005A0898ED0B5A07EE901A5CF8231009EBB5
:104D98008200B8EEE76A07EE901A5AF823100EEB75
:104DA8008205F8EEE76A07EE901A0BEB830126EE10
:104DB800256A0233B8EEE77AD1ED007A66EEA56A85
:104DC800F968F8EEE77A9C4227EE257A01EB820132
:104DD80026EE056A66EE856A27EE057A67EEA57AFD
:104DE80085ED006AC0ED006A81ED007A98ED0B7AD6
:104DF800B86867EE877A00EB8202C2ED007ABDD808
:104E0800D7F800B0D7F818903D6958466208494667
:104E18007B699847D8F8283079680022D8ED046A69
:104E280019442B1DD9F800C08B460431D9F80480E9
:104E3800C7F814B09FED3F7AD7F81CB0DFF8ECE064
:104E48009FED366A384EB961FB6150E0F4EEC67AE0
:104E5800F1EE10FAC0F20682304608EB010A45F876
:104E68002200DAED007A66EEA77AF4EEC77AF1EE60
:104E780010FA4BD9F4EEC67AF1EE10FAC0F2F981C5
:104E88003046FB69BBF1020F43F822002BD0D9F85A
:104E980008000844D0ED007A66EEA77AF4EEC77AE7
:104EA800F1EE10FA36D9F4EEC67AF1EE10FAC0F245
:104EB800D2813046D9F80CA07B69514443F82200CE
:104EC800D1ED007A66EEA77AF4EEC77AF1EE10FA21
:104ED8001ED9F4EEC67AF1EE10FAC0F2B581314669
:104EE800BB6943F82210023294427FF6AEAC5108F7
:104EF8000CEB81008900D0ED007A66EEA77AF4EE1B
:104F0800C77AF1EE10FAA1D87046A6E77046B8E75E
:104F18007146E5E77046CDE70280FFFF04FF7F3F5B
:104F280000FEFF46000000300082FF7F007E008008
:104F38000000003404FF7FBF002C00F0F680D8F892
:104F480020304FEA8E02BD60002103EB8E0E06F181
:104F5800040C1FED096A0EF104003D69D7F818A08A
:104F6800FA60C7F8189056F821204FEA51095CF802
:104F7800213082F40002D8ED0B6A83F40003A2F515
:104F88000002A3F5000307EE102A05EB890207EEDD
:104F9800903A0AEB8903B8EEC77A4FEA8909F8EE26
:104FA800E77A27EE067A67EE867A27EE267A67EEA4
:104FB800A67A83ED007AFB69C2ED007A022B27D02E
:104FC8005EF8212050F8213082F4000283F40003B7
:104FD800A2F50002A3F5000307EE902ADBF80820EB
:104FE800B8EEE77A07EE903A4A44DBF80C30F8EE70
:104FF800E77A27EE067A4B4467EE867A27EE267A1A
:1050080082ED007A98ED0B7A67EE877AC3ED007A25
:1050180002318C42A7D8D7F81890584662087B69A5
:105028004946BD689847D8F82830F9680022D8ED75
:10503800046A19442B1DD9F800C08B460431D9F8ED
:105048000480C7F814B01FED457AD7F81CB0DFF814
:10505800C8E29FEDAD6AAD4EB961FB6150E0F4EE78
:10506800C67AF1EE10FAC0F2C280304608EB010AA7
:1050780045F82200DAED007A66EEA77AF4EEC77AF0
:10508800F1EE10FA4BD9F4EEC67AF1EE10FAC0F24E
:10509800BC803046FB69BBF1020F43F822002BD0DD
:1050A800D9F808000844D0ED007A66EEA77AF4EE45
:1050B800C77AF1EE10FA36D9F4EEC67AF1EE10FAA4
:1050C800C0F2AA803046D9F80CA07B69514443F855
:1050D8002200D1ED007A66EEA77AF4EEC77AF1EEF7
:1050E80010FA1ED9F4EEC67AF1EE10FAC0F28680F4
:1050F8003146BB6943F82210023294427FF6A5ABD1
:1051080051080CEB81008900D0ED007A66EEA77A91
:10511800F4EEC77AF1EE10FAA1D87046A6E7704609
:10512800B8E77146E5E77046CDE722464946584656
:105138007B699847FFF789BB98ED0B6A002306F156
:10514800040CDFED736AB869D7F810A006EB830288
:105158000CEB830192ED007A5A08D1ED007A023304
:10516800B8EEC77A00EB8201F8EEE77A0AEB820222
:105178009C4227EE267A67EEA67A27EE067A67EE35
:10518800867A81ED007AC2ED007ADFD84FEA8E0385
:105198007B603AE698ED0B6A06F1040CDFED5D6A78
:1051A800B869D7F810A036F922303CF9221007EE7A
:1051B800103A530807EE901A0232B8EEC77A00EB9D
:1051C8008301F8EEE77A0AEB8303944227EE267A06
:1051D80067EEA67A27EE067A67EE867A81ED007A80
:1051E800C3ED007ADFD84FEA8E037B6019E5F0EE55
:1051F800675AFEEEE45A15EE900A37E7F0EE675A62
:10520800FEEEE45A15EE901A73E7F0EE675AFEEEDA
:10521800E45A15EE900A3DE7F0EE675AFEEEE45ABE
:1052280015EE900A4FE767EEA57AFDEEE77A17EEDE
:10523800900A0FFA80FB1CE567EEA57AFDEEE77A87
:1052480017EE900A00B229E5F0EE675AFEEEE05A32
:1052580015EE901A44E6F0EE675AFEEEE05A15EEA7
:10526800900A27E6F0EE675AFEEEE05A15EE900A2D
:10527800F3E5F0EE675AFEEEE05A15EE900A00E606
:1052880067EEA57AFDEEE77A17EE901A09B234E5D3
:1052980067EEA57AFDEEE77A17EE900A0FFA80FB23
:1052A80015E5F0EE675AFEEEE45A15EE902AFFF780
:1052B800FEBB67EEA57AFDEEE77A17EE902A12B2EA
:1052C800FFF70ABBF0EE675AFEEEE45A15EE902A95
:1052D800FFF7DBBBF0EE675AFEEEE05A15EE902AB8
:1052E800FFF772BBF0EE675AFEEEE05A15EE902A11
:1052F800FFF757BB67EEA57AFDEEE77A17EE902A1F
:1053080012B2FFF7FDBA00BF04FF7F3F82FF7F00A4
:1053180000000030000000387E0080FF70B5164C99
:10532800154684B0046004F1080601AB07C986E895
:105338000700D4ED047AF5EEC07A83E80700F1EEB1
:1053480010FA15DDF7EE006A86EEA77A84ED0B7A7F
:1053580075B1204640F8145F01F082FC0346074A05
:1053680000201969064BE160E261636204B070BD18
:10537800012004B070BD00BFCC0A0024002000301A
:105388000000003000680830704700BFB1F5806F3A
:1053980003680A4628BF4FF48062B1F5806F9A60AF
:1053A80094BF0020012070470068143001F08EBCC3
:1053B80070B5046882B0084E0D46A36804F1140065
:1053C800626AE1699B00009601F04CFC0020C4E988
:1053D800000502B070BD00BF11470008024B002253
:1053E800C3E90522704700BFCC0A002430B52DED73
:1053F800028B83B0044601231546ADF8041017301C
:10540800BDF80410B0EE408A0180637600F0DAFD42
:10541800B5FA85F3002100225B09257584ED048A1D
:10542800A5756375A160C4E9002203B0BDEC028BC9
:1054380030BD00BF20EE007ADFED067A27EE000AC5
:1054480060EE277A80ED020AFCEEE77AC0ED017A79
:10545800704700BF00FF7F4790ED046AB7EE007AFF
:10546800DFED0E5A0346D0ED036AC5EE867A77EE75
:10547800A67AF4EEC77AF1EE10FAC8BF77EEC77ACB
:1054880090ED027AB4EEE77AC0ED037A1730F1EEC8
:1054980010FACCBF597D997D00F07EBE0000F04225
:1054A800B7EE007AA3F10103B3FA83F3C7EE007AEB
:1054B8005B0930B482B00025ADF804100021837177
:1054C8009DF81030BDF80440012B0270C560A0F8AB
:1054D80001404171C170C0ED027A08D0022B0DD095
:1054E80001230130C37002B030BC00F06BBD022351
:1054F8000130C37002B030BC00F064BD01710130EE
:1055080002B030BC00F05EBDB7EE007A012203465F
:10551800C7EE007A70B4002683B0C1F307250024D3
:10552800ADF80410C660417010449D70DC701A70AC
:105538009A809A71C3ED027A03B070BC00F042BD44
:1055480038B54479054683790130640064B2B3B153
:1055580000F014FEB0FA80F35B092343DBB2A3F139
:105568007F026B71012A0ED9FF2B07D1D5ED037A83
:1055780095ED027A77EE877AC5ED037A38BD00F0AB
:10558800FDFD43B2E9E70023EB6038BD82B000239C
:105598000322ADF80410BDF8041082700180037472
:1055A800C37002B0704700BF70B483B00325082AE7
:1055B80006ACADF804108570114634F8046B28BFAA
:1055C8000821ADF80030042ABDF804302488BDF85D
:1055D800005003804FF000030681858084810174A8
:1055E800C37008D8022A10D802D10122C37182716F
:1055F80003B070BC70470122C371C372C373827158
:105608008272827303B070BC70470122C371C37287
:105618008271827203B070BC704700BF2DE9F04FF1
:10562800DB4F0026DB4C8FB007F138054260037072
:105638009646A4F80961844603960696BE61C4F8A6
:10564800FD60C4F80161C4F80561C4F82461C4E9C7
:105658004A75C7E90066C7E90266C7E90466C4E98E
:105668004366C4E94566C4E94766CDE90466CDE901
:105678000766CDE90966CDE90B6684F8FC20426827
:1056880084F80C62002A00F091820D460868A04652
:105698004968EB68AA683E80A8E80F002B7C88F868
:1056A80000302B7C84F8FD302B7C002B40F09F824F
:1056B800DCF80430012B40F2B4812B46B64A0021B5
:1056C80053F8119F7980D3F804809E68D868C4F88D
:1056D8001190C2F804809660D0601B7C137495F812
:1056E800213084F8FE3095F82130002B40F0838279
:1056F800DCF80430022B40F294812B46A74A0021A3
:1057080053F8229FB980D3F804809E68D868C4F8FB
:105718002290C2F804809660D0601B7C137495F8C0
:10572800323084F8FF3095F83230002B40F05B823D
:10573800DCF80430032B40F274812B46984A002190
:1057480053F8339FF980D3F804809E68D868C4F86A
:105758003390C2F804809660D0601B7C137495F86F
:10576800433084F8003195F84330002B40F04782ED
:10577800DCF80430042B40F25481A8460023894EFB
:1057880058F8440F3B81D8F80410D8F80C30D8F8F2
:1057980008200FC698F81030337095F8543084F804
:1057A800013195F8543013B1012384F80C32DCF838
:1057B8000430052B40F235812B467B4A002153F8F3
:1057C800559F7981D3F804809E68D868C4F85590AD
:1057D800C2F804809660D0601B7C137495F865301D
:1057E80084F8023195F8653013B1012384F80C323E
:1057F800DCF80430062B40F214812B466B4A00215A
:1058080053F8669FB981D3F804809E68D868C4F8B5
:105818006690C2F804809660D0601B7C137495F87B
:10582800763084F8033195F8763013B1012384F883
:105838000C32DCF80430072B40F2F3802B465C4A2C
:10584800002153F8779FF981D3F804809E68D868BF
:10585800C4F87790C2F804809660D0601B7C1374FB
:1058680095F8873084F8043195F88730002B40F09C
:10587800CA81DCF80430082B40F2D380A846002304
:105888004C4E58F8880F3B82D8F80410D8F80C30E2
:10589800D8F808200FC698F81030337095F898306B
:1058A80084F8053195F89830002B40F01D82DCF81B
:1058B8000430092B40F2B5802B463F4A002153F8AB
:1058C800999F7982D3F804809E68D868C4F8999023
:1058D800C2F804809660D0601B7C137495F8A930D8
:1058E80084F8063195F8A930002B40F0F981DCF8EE
:1058F80004300A2B40F295802B46304A002153F899
:10590800AA9FB982D3F804809E68D868C4F8AA9080
:10591800C2F804809660D0601B7C137495F8BA3086
:1059280084F8073195F8BA30002B40F0D581DCF8BF
:1059380004300B2B75D92B46214A002153F8BB9F05
:10594800F982D3F804809E68D868C4F8BB90C2F87E
:1059580004809660D0601B7C137495F8CB3084F873
:10596800083195F8CB30002B40F0A881DCF80430E2
:105978000C2B56D9A8460023124E58F8CC0F3B835F
:10598800D8F80410D8F80C30D8F808200FC61BE057
:1059980000400030000B0024110B0024220B0024CF
:1059A800330B0024440B0024550B0024660B002401
:1059B800770B0024880B0024990B0024AA0B0024E1
:1059C800BB0B0024CC0B002498F81030337095F8EA
:1059D800DC3084F8093195F8DC3013B1012384F800
:1059E8000C32DCF804300D2B1BD92B46C64A00219B
:1059F80053F8DD9F7983D3F804809E68D868C4F88B
:105A0800DD90C2F804809660D0601B7C137495F812
:105A1800ED3084F80A3195F8ED3013B1012384F89C
:105A28000C325FFA8EF2B9484FF480210023C4F893
:105A380048210122C4F830010820C4F8341194F830
:105A48000C12C4F8383184F84431C4E95533C4E938
:105A58004F20002900F0BD8084F8453184F84C219E
:105A6800C4F85C219CF8003000200021C4E95801EA
:105A7800F3B101220021013B84F86821C4E95D12D9
:105A8800082B0ED8DFE813F009001E012301D1000E
:105A9800D600DB00E000C300CA0003234022C4E9AB
:105AA8005B329B4801F0B4FF034648B1FFBEFEE7F6
:105AB800974884F8683101F0ABFF03460028F5D118
:105AC80003A99348039302F0FFF80546002840F025
