:020000040800F2
:10000000000002205506000851060008857500080A
:1000100051060008510600085106000800000000C3
:100020000000000000000000000000005106000871
:100030005106000800000000510600087575000810
:100040005106000851060008510600085106000834
:100050005106000851060008510600085106000824
:10006000510600085106000851060008DD7100081D
:10007000E971000835630008F57100080172000895
:1000800051060008ADCA00085106000851060008D4
:1000900051060008510600085106000851060008E4
:1000A00051060008510600085106000851060008D4
:1000B000510600085106000851060008D1CA000880
:1000C00051060008DDCA0008510600085106000864
:1000D00051060008510600085106000851060008A4
:1000E00051060008510600080000000051060008F3
:1000F0005106000851060008510600085106000884
:100100005106000851060008510600085106000873
:100110005106000851060008510600085106000863
:100120005106000851060008510600085106000853
:100130005106000851060008510600085106000843
:1001400000000000000000000000000000000000AF
:100150005106000851060008510600085106000823
:10016000E9CA0008510600085106000851060008B7
:100170005106000851060008510600085106000803
:1001800051060008510600085106000851060008F3
:1001900051060008510600085106000851060008E3
:1001A00051060008510600085106000851060008D3
:1001B000256F000851060008510600085106000886
:1001C00051060008510600085106000851060008B3
:1001D00051060008510600085106000851060008A3
:1001E0005106000851060008510600085106000893
:1001F0005106000851060008510600085106000883
:100200005106000851060008510600085106000872
:100210005106000851060008510600085106000862
:1002200051060008510600085106000800000000B1
:1002300051060008510600080000000051060008A1
:100240005106000851060008510600085106000832
:100250005106000851060008510600085106000822
:100260005106000851060008510600085106000812
:100270005106000851060008510600080000000061
:100280005106000851060008510600080000000051
:08029000000000005106000807
:1002980010B5054C237833B9044B13B10448AFF3B8
:1002A80000800123237010BD880000240000000096
:1002B80000EB000808B5034B1BB103490348AFF333
:1002C800008008BD000000008C00002400EB00083E
:1002D80081F0004102E000BF83F0004330B54FEAEF
:1002E80041044FEA430594EA050F08BF90EA020F5C
:1002F8001FBF54EA000C55EA020C7FEA645C7FEAEF
:10030800655C00F0E2804FEA5454D4EB5555B8BF11
:100318006D420CDD2C4480EA020281EA030382EA82
:10032800000083EA010180EA020281EA0303362D14
:1003380088BF30BD11F0004F4FEA01314FF4801CE7
:100348004CEA113102D0404261EB410113F0004FF9
:100358004FEA03334CEA133302D0524263EB4303B0
:1003680094EA050F00F0A780A4F10104D5F1200E4E
:100378000DDB02FA0EFC22FA05F2801841F10001A9
:1003880003FA0EF2801843FA05F359410EE0A5F17D
:1003980020050EF1200E012A03FA0EFC28BF4CF0AE
:1003A800020C43FA05F3C01851EBE37101F0004564
:1003B80007D54FF0000EDCF1000C7EEB00006EEB71
:1003C8000101B1F5801F1BD3B1F5001F0CD34908FB
:1003D8005FEA30004FEA3C0C04F101044FEA445252
:1003E80012F5800F80F09A80BCF1004F08BF5FEAD9
:1003F800500C50F1000041EB045141EA050130BDB9
:100408005FEA4C0C404141EB0101013C28BFB1F5CA
:10041800801FE9D291F0000F04BF01460020B1FA15
:1004280081F308BF2033A3F10B03B3F120020CDAE8
:100438000C3208DD02F1140CC2F10C0201FA0CF0C6
:1004480021FA02F10CE002F11402D8BFC2F1200C2B
:1004580001FA02F120FA0CFCDCBF41EA0C019040E1
:10046800E41AA2BF01EB0451294330BD6FEA04042A
:100478001F3C1CDA0C340EDC04F11404C4F1200215
:1004880020FA04F001FA02F340EA030021FA04F327
:1004980045EA030130BDC4F10C04C4F1200220FA7E
:1004A80002F001FA04F340EA0300294630BD21FABC
:1004B80004F0294630BD94F0000F83F4801306BF82
:1004C80081F480110134013D4EE77FEA645C18BF76
:1004D8007FEA655C29D094EA050F08BF90EA020F0D
:1004E80005D054EA000C04BF1946104630BD91EA05
:1004F800030F1EBF0021002030BD5FEA545C05D108
:100508004000494128BF41F0004130BD14F5800446
:100518003CBF01F5801130BD01F0004545F0FE41BA
:1005280041F470014FF0000030BD7FEA645C1ABFEF
:10053800194610467FEA655C1CBF0B46024650EA26
:10054800013406BF52EA033591EA030F41F4002152
:1005580030BD00BF90F0000F04BF0021704730B5D8
:100568004FF4806404F132044FF000054FF00001AD
:1005780050E700BF90F0000F04BF0021704730B56E
:100588004FF4806404F1320410F0004548BF404243
:100598004FF000013EE700BF42004FEAE2014FEA98
:1005A80031014FEA02701FBF12F07F4393F07F4F73
:1005B80081F06051704732F07F4208BF704793F076
:1005C8007F4F04BF41F40021704730B54FF4607489
:1005D80001F0004521F000411CE700BF50EA01028C
:1005E80008BF704730B54FF000050AE050EA010235
:1005F80008BF704730B511F0004502D5404261EBA5
:1006080041014FF4806404F132045FEA915C3FF4E5
:10061800D8AE4FF003025FEADC0C18BF03325FEA82
:10062800DC0C18BF033202EBDC02C2F1200300FA33
:1006380003FC20FA02F001FA03FE40EA0E0021FA58
:1006480002F11444BDE600BFFEE700BF0D4B0E4AA1
:10065800934206D00D4951F8040B43F8040B93421A
:10066800F9D10B4B0B4A934204D0002143F8041BE9
:100678009342FBD107F00CF90DF0C8FE01F0BAFB6C
:10068800FEE700BF000000248800002418EB0008E3
:100698008800002434170024704700BF704700BF4B
:1006A800704700BF704700BF704700BF704700BF6A
:1006B800704700BF704700BF704700BF704700BF5A
:1006C800704700BF704700BF704700BF704700BF4A
:1006D8005D4B5E49F0B5A3F1840585B0284600223C
:1006E80043F8042B8B42FAD10022594C02261346B8
:1006F8002A602E5100220133002440F8042F0A6892
:1007080004649A42F6D8534B5349A3F18406304601
:10071800002243F8042B8B42FAD100224C4C0227CA
:1007280013463260375100220133002440F8042F69
:100738000A6804649A42F6D8484C0820484F8DED60
:10074800010A3D6046F2A815266003F0DBFF034668
:100758009DED010A3846ADF80830029903F086F994
:10076800092003F0CFFF034620463E4CADF80C307D
:1007780003999DED010A03F079F93B4A45F6C0500B
:1007880004F1180339492561A050002243F8042BCD
:100798008B42FAD1364846F2A811334D45F6C05679
:1007A8000161002146510435324E00F118036155AC
:1007B800E160314D6161A1552A60C4E901112F49F9
:1007C800002243F8042B8B42FAD12D490023DFED98
:1007D8002D6AD1ED017A9FED2C6A36EEE77A2B4D22
:1007E80067EE867A234E4355B0EEC77A284DC3602C
:1007F8004361B4EEE77A83550C602A60F1EE10FA93
:10080800C0E90133234B186004DD234DC1ED016AB3
:1008180022602561D3ED017ADFED1A6A9FED1A6A2D
:1008280036EEE77A67EE867AB0EEC77AB4EEE77A04
:10083800F1EE10FA05DD0021174AC3ED016A0160E7
:10084800026105B0F0BD00BF5CB7B2C05C2F1CC12F
:1008580084786900D43E49C0D4B6B2C0A408002444
:100868007C070024289F24C0189F2400403E49C0CC
:10087800000000C0249F2400483E49C0189F24C09F
:10088800D409002400409C470AD7A33B1C9F24009E
:10089800209F24C0DC0900248038010010B5022202
:1008A8000721764805F0E4FC7549764B0A687648D6
:1008B8000132007883FB0243D417C4EB631303EBC4
:1008C8004303A2EB8313714A0B6080BB11780029A4
:1008D80038D06F4C6F491070207081ED000A6E4956
:1008E800F7EE006AF6EE005A6C4A91ED007AB0EE27
:1008F800006AD2ED007A36EEC77A37EE657AE7EE0F
:10090800067AF5EEC07AF1EE10FA00F1B180F4EE55
:10091800667AF1EE10FA76FEA77A93B9604BB0EEDC
:10092800670A60481978BDE8104003F075BA137873
:10093800002B3CD101245C485C491470037081EDA4
:10094800000A10BD524A117879B952499FED587A78
:10095800D1ED007A70EE677AF0EEE77AF4EEC77AB6
:10096800F1EE10FABBDD012111704B4AB7EE007AA7
:10097800B6EE006AD2ED007AF0EE006A77EE677A9A
:1009880077EEC67AB0EE406AA7EEA66AB5EEC06A00
:10099800F0EE467AF1EE10FA6DD4F4EE477AF1EE05
:1009A80010FA77FE277A3D4A82ED000AB5E73E4BFA
:1009B8001A787AB93D4A9FED3E7AD2ED007A70EE08
:1009C800677AF0EEE77AF4EEC77AF1EE10FAB8DD5E
:1009D80001221A7001209FED371ADFED370A02F065
:1009E800F7FE364BDFED326AD3ED017A30EE677AE7
:1009F80067EEA67AB0EEC77AB4EEE77AF1EE10FAAF
:100A08000DDDFCEEC07A2E4C1968002083ED010A3A
:100A180017EE902A0860A24228BF22460A61294B95
:100A2800DFED236AD3ED017A30EE677A67EEA67AB6
:100A3800B0EEC77AB4EEE77AF1EE10FA0DDDFCEE0F
:100A4800C07A1F4C1968002083ED010A17EE902A1E
:100A58000860A24228BF22460A611B4901221B4B9B
:100A680081ED000ABFF35B8F1A70BFF35B8F10BD77
:100A7800DFED177A51E7DFED167A94E79404002446
:100A880020070024ABAAAA2A050A00242407002468
:100A98001C07002410070024CC0900241407002494
:100AA800060A00247C0700241D07002418070024D8
:100AB8000AD7A33B0050C34600606A48D409002403
:100AC800BF270900DC090024A4000024040A00242C
:100AD8000000000010B50622072169482DED028BA1
:100AE80005F0C6FB6749684B0A6868480132007818
:100AF80083FB0243D417C4EB631303EB4303A2EB5A
:100B08008313634A0B6090BB117800293CD0614C79
:100B180061491070207081ED000A6049F7EE006AA3
:100B2800F6EE005A5E4A91ED007AB0EE006AD2ED18
:100B3800007A36EEC77A37EE657AE7EE067AF5EE92
:100B4800C07AF1EE10FA00F18C80F4EE667AF1EEDC
:100B580010FA76FEA77AA3B9524BB0EE670A52484C
:100B68001978BDEC028BBDE8104003F055B9137835
:100B7800002B3ED101244D484D491470037081ED7E
:100B8800000ABDEC028B10BD424A117879B942497E
:100B98009FED487AD1ED007A70EE677AF0EEE77A49
:100BA800F4EEC77AF1EE10FAB7DD012111703B4A75
:100BB800B7EE007AB6EE006AD2ED007AF0EE006A7F
:100BC80077EE677A77EEC67AB0EE406AA7EEA66A45
:100BD800B5EEC06AF0EE467AF1EE10FA44D4F4EEBF
:100BE800477AF1EE10FA77FE277A2D4A82ED000A4D
:100BF800B1E72E4B1A787AB92D4A9FED2E7AD2EDAD
:100C0800007A70EE677AF0EEE77AF4EEC77AF1EEE2
:100C180010FAB6DD01221A70F0EE080A00209FEDE6
:100C2800261A02F0D5FDB8FE400AFCEEC07A17EE8F
:100C3800903A013BDBB2022B19D9B7EE008AB0EE2D
:100C4800480A1E4802F006FF1D491E4B012281ED8D
:100C5800018ABFF35B8F1A70BFF35B8FBDEC028B09
:100C680010BDDFED157A76E7DFED137ABDE7164A9A
:100C780002EBC30393ED008BB7EEC88BDFE700BF31
:100C88009404002438070024ABAAAA2A050A0024E1
:100C98003C070024350700242C070024D009002431
:100CA80030070024060A0024A4080024340700247E
:100CB800280700240AD7A33B00000000D000002426
:100CC800A4000024040A002480E40008012207216B
:100CD800654810B52DED028B05F0CAFA634B644ADE
:100CE8001B78002B3DD11178002947D06148624913
:100CF8001370037081ED000A604AF7EE006AF6EEA1
:100D0800005A5F4B92ED007AB0EE006AD3ED007A9C
:100D180036EEC77A37EE657AE7EE067AF5EEC07AF0
:100D2800F1EE10FA00F19A80F4EE667AF1EE10FA1C
:100D380076FEA77AB0EE670A0020B7EE041ADFED58
:100D4800510A02F045FD504B9FED507AD3ED007AE1
:100D580030EE670ABDEC028BE0EE077AC3ED007A4D
:100D680010BD1378002B3ED101244948494914701D
:100D7800037081ED000ABDEC028B10BD3D4B1A7863
:100D88007AB93D4A9FED447AD2ED007A70EE677ADF
:100D9800F0EEE77AF4EEC77AF1EE10FAACDD012254
:100DA8001A70364BB7EE007AB6EE006AD3ED007AC9
:100DB800F0EE006A77EE677A77EEC67AB0EE406AB0
:100DC800A7EEA66AB5EEC06AF0EE467AF1EE10FA22
:100DD80047D4F4EE477AF1EE10FA77FE277A284BDB
:100DE80083ED000AA6E72A4B1A787AB9294A9FEDBB
:100DF8002A7AD2ED007A70EE677AF0EEE77AF4EEAE
:100E0800C77AF1EE10FAB6DD01221A709FED231AA7
:100E18000120DFED230A02F0DBFCB0EE408A214816
:100E28000CF05EFB2048B0EE480A0CF059FBB0EE1F
:100E3800480A1E480CF054FBB0EE480A1C480CF057
:100E48004FFB1C491C4B012281ED048ABFF35B8FC9
:100E58001A70BFF35B8FBDEC028B10BDDFED097A12
:100E680068E7DFED087ABAE794040024050A00244D
:100E7800FE060024FD060024F4060024EC090024E4
:100E8800F806002400000000E80900246F12033D62
:100E9800FC060024F00600240AD7A33B00004844BF
:100EA8000000C842E00400242C050024DC020024D1
:100EB80030030024A4000024040A0024042207218B
:100EC800654810B52DED028B05F0D2F9634B644AE5
:100ED8001B78002B3DD11178002947D06148624921
:100EE8001370037081ED000A604AF7EE006AF6EEAF
:100EF800005A5F4B92ED007AB0EE006AD3ED007AAB
:100F080036EEC77A37EE657AE7EE067AF5EEC07AFE
:100F1800F1EE10FA00F19A80F4EE667AF1EE10FA2A
:100F280076FEA77AB0EE670A0020B7EE041ADFED66
:100F3800510A02F04DFC504B9FED507AD3ED007AE8
:100F480030EE670ABDEC028BE0EE077AC3ED007A5B
:100F580010BD1378002B3ED101244948494914702B
:100F6800037081ED000ABDEC028B10BD3D4B1A7871
:100F78007AB93D4A9FED447AD2ED007A70EE677AED
:100F8800F0EEE77AF4EEC77AF1EE10FAACDD012262
:100F98001A70364BB7EE007AB6EE006AD3ED007AD7
:100FA800F0EE006A77EE677A77EEC67AB0EE406ABE
:100FB800A7EEA66AB5EEC06AF0EE467AF1EE10FA30
:100FC80047D4F4EE477AF1EE10FA77FE277A284BE9
:100FD80083ED000AA6E72A4B1A787AB9294A9FEDC9
:100FE8002A7AD2ED007A70EE677AF0EEE77AF4EEBC
:100FF800C77AF1EE10FAB6DD01221A709FED231AB6
:101008000120DFED230A02F0E3FBB0EE408A21481D
:101018000CF066FA2048B0EE480A0CF061FAB0EE1F
:10102800480A1E480CF05CFAB0EE480A1C480CF05E
:1010380057FA1C491C4B012281ED058ABFF35B8FCF
:101048001A70BFF35B8FBDEC028B10BDDFED097A20
:1010580068E7DFED087ABAE794040024050A00245B
:101068000E0700240D07002404070024F4090024B7
:101078000807002400000000F00900246F12033D57
:101088000C070024000700240AD7A33B00803B4636
:101098000080BB4478050024C40500248403002490
:1010A800D8030024A4000024040A0024000000003F
:1010B80005220721824810B52DED028B05F0D8F8DE
:1010C800804B814A1B78B3BB1178002940D07F48F8
:1010D8007F491370037081ED000A7E4AF7EE006ABB
:1010E800F6EE005A7C4B92ED007AB0EE006AD3ED32
:1010F800007A36EEC77A37EE657AE7EE067AF5EECD
:10110800C07AF1EE10FA00F1C180F4EEE67AF1EE61
:1011180010FA40F3C680B7EE000A704B9FED707A64
:10112800D3ED007A30EE670ABDEC028BE0EE077A69
:10113800C3ED007A10BD1378002B58D101246948FB
:1011480069491470037081ED000ABDEC028B10BD73
:101158005E4B1A787AB95E4A9FED647AD2ED007ACE
:1011680070EE677AF0EEE77AF4EEC77AF1EE10FAED
:10117800B3DD01221A70574BB7EE007AB6EE006A5B
:10118800D3ED007AF0EE006A77EE677A77EEC67AEA
:10119800B0EE406AA7EEA66AB5EEC06AF0EE467AEF
:1011A800F1EE10FA75D4F4EEC77AF1EE10FA75DDA7
:1011B800F0EE477AB7EE006B474B83ED000A9FEDE0
:1011C8003A5BB4EEC56BF1EE10FAA4DA9FED385B2A
:1011D800B4EEC56BF1EE10FA58D9B0EE670A0020EC
:1011E800B7EE001ADFED420A02F0F2FA95E73D4B3E
:1011F8001A787AB93C4A9FED3D7AD2ED007A70EEC2
:10120800677AF0EEE77AF4EEC77AF1EE10FA9CDD31
:1012180001221A70B6EE001ADFED350A002002F03E
:10122800D7FAB0EE408A33480CF0BEF93248B0EE37
:10123800480A0CF0B9F9B0EE480A30480CF0B4F995
:10124800B0EE480A2E480CF0AFF9B0EE480A2D4827
:101258000CF0AAF9B0EE480A2B480CF0A5F9B0EE4C
:10126800480A2A480CF0A0F9B0EE480A28480CF0C1
:101278009BF92849284B012281ED068ABFF35B8F31
:101288001A70BFF35B8FBDEC028B10BD9FED180A7F
:1012980043E79FED096BDFED167A8DE7B7EEE76A56
:1012A8008AE7B7EEE76A8AE75C8FC2F5285CEF3F0A
:1012B8007B14AE47E17A943F000000000000000074
:1012C80094040024050A0024E0060024D80600241B
:1012D800D0060024E4090024D406002404000024D5
:1012E8006F12833CCC060024DC0600240AD7A33BFB
:1012F8000000000078050024C4050024E004002450
:101308002C05002484030024D8030024DC020024D4
:1013180030030024A4000024040A002407226348A0
:10132800114610B52DED028B04F0A2FF604BB0EE14
:10133800408A604A1B78002B3ED11178002948D09A
:101348005D485E491370037081ED000A5C4AB7EE90
:10135800007AB6EE006A5B4BD2ED007AF0EE006AD6
:1013680093ED000A77EE677A77EEC67AA7EEA60ABB
:10137800B5EEC00AF1EE10FA00F19180B4EE470A1A
:10138800F1EE10FA37FE000AF6EE000A00209FED93
:101398004E1A02F01DFA4D4B9FED4D7AD3ED007AAF
:1013A8004C4A30EE670ABDEC028BE0EE077AC3EDDB
:1013B800007AC2ED007A10BD1378002B43D10124C6
:1013C800454846491470037081ED000ABDEC028B54
:1013D80010BD394B1A787AB9384A9FED417AD2ED67
:1013E800007A70EE677AF0EEE77AF4EEC77AF1EEFB
:1013F80010FAABDD01221A70314BB7EE007AB6EE67
:10140800006AD3ED007AF0EE006AB0EE480A77EE93
:10141800677A77EEC67AA7EEA60AB5EEC00AF1EEAD
:1014280010FA3FD4B4EE470AF1EE10FA37FE000A7C
:10143800F6EE000A00209FED241A02F0C9F9214BAC
:1014480083ED008AA7E7244B1A787AB9234A9FEDDF
:10145800247AD2ED007A70EE677AF0EEE77AF4EE4D
:10146800C77AF1EE10FAB1DD01221A70B0EE480A1F
:1014780000209FED1C1ADFED140A02F0A9F91A48A2
:1014880001221A491A4B80ED000A81ED020ABFF3C6
:101498005B8F1A70BFF35B8FBDEC028B10BD9FEDA5
:1014A8000A0A71E79FED080AC2E700BF9404002406
:1014B800050A0024C6060024C4060024C806002421
:1014C800500A0024BC060024000000000800002484
:1014D8006F12033D24040024C5060024C00600241E
:1014E8000AD7A33B0000FA438C010024A40000247F
:1014F800040A002400220721454810B52DED028B6F
:1015080004F0B6FE434BB0EE408A434A1B78FBB961
:10151800117849B3414842491370037081ED000ABC
:10152800404BB7EE001A0020DFED3F0A93ED000AAA
:1015380002F04EF93D4B9FED3E7AD3ED007A30EE46
:10154800670ABDEC028BE0EE077AC3ED007A10BDA6
:1015580013784BBB0124374837491470037081ED69
:10156800000ABDEC028B10BD2C4B1A787AB92C4AB4
:101578009FED327AD2ED007A70EE677AF0EEE77A74
:10158800F4EEC77AF1EE10FACADD01221A70B7EE4E
:10159800001A0020B0EE480ADFED230A02F018F91D
:1015A800204B83ED008AC5E7224B1A787AB9224A84
:1015B8009FED227AD2ED007A70EE677AF0EEE77A44
:1015C800F4EEC77AF1EE10FACBDD01221A701C4C4A
:1015D800B0EE480AB2EE041A0020DFED1A0A02F053
:1015E800F7F82046B0EE408A84ED020A0CF01EFAA5
:1015F8001549164B012281ED038A84ED060ABFF3D3
:101608005B8F1A70BFF35B8FBDEC028B10BD00BF00
:1016180094040024050A00246507002464070024B4
:101628005C070024600700240000000078070024FD
:101638006F12033D58070024540700240AD7A33B20
:10164800B8040024CDCCCC3DA4000024040A002416
:1016580003220721464810B52DED028B04F008FE41
:10166800444BB0EE408A444A1B78FBB9117849B321
:10167800424843491370037081ED000A414BB7EEAD
:10168800001A0120DFED400A93ED000A02F0A0F8ED
:101698003E4B9FED3F7AD3ED007A30EE670ABDEC02
:1016A800028BE0EE077AC3ED007A10BD13784BBBCE
:1016B8000124384838491470037081ED000ABDECE4
:1016C800028B10BD2D4B1A787AB92D4A9FED337ACB
:1016D800D2ED007A70EE677AF0EEE77AF4EEC77A28
:1016E800F1EE10FACADD01221A70B7EE001A0120D5
:1016F800B0EE480ADFED240A02F06AF8214B83EDC8
:10170800008AC5E7234B1A787AB9234A9FED237AD2
:10171800D2ED007A70EE677AF0EEE77AF4EEC77AE7
:10172800F1EE10FACBDD01221A70DFED1D7AB4EE6E
:10173800E78AF1EE10FA0FD51A4B00221A701A49EF
:1017480001221A4B81ED078ABFF35B8F1A70BFF332
:101758005B8FBDEC028B10BDDFED157AB4EEE78A26
:10176800F1EE10FAEBDD0F4B01221A70E7E700BF2C
:1017780094040024050A00244E0700244D07002481
:10178800440700244807002400000000F80900244A
:101798006F12033D4C070024400700240AD7A33BDF
:1017A8006666E63E94010024A4000024040A00248E
:1017B800CDCC0C3F08B50621064804F049FD0020B1
:1017C8009FED051ADFED050A02F002F8044B83EDE0
:1017D800000A08BD9404002400004843000048C3E0
:1017E800FC09002438B5154A154C164D164B94EDD6
:1017F800007AD5ED007A92ED006AD3ED006A36EEF4
:10180800476ADFED125A76EEE76A1148A6EE257AA6
:10181800E6EEA57A84ED007AC5ED007A0BF024FF98
:1018280095ED007AD4ED007A0A4AE0EE077A0A4B81
:10183800C2ED3E7AC3ED3E7A38BD00BFFC090024F4
:10184800B0060024B40600248C0100240AD7233CE7
:10185800B80400247C070024A408002410B5124C06
:10186800124823680133236004F00EF800B910BD54
:1018780021680F4802F072F810B90023236010BDE8
:101888000B4802F0D9F80B4802F09CFB084802F01C
:10189800E9F809490122094B81ED080ABFF35B8F7A
:1018A8001A70BFF35B8FE8E7B8060024180100241C
:1018B800D0000024080A0024A4000024040A0024FC
:1018C80008B5064802F08CF8054B044883ED480A31
:1018D80002F086F8034B83ED480A08BDD0000024C7
:1018E8007C070024A408002410B5054C054821787D
:1018F80002F0C2F921780448BDE8104002F0BCB9F2
:10190800060A00247C070024A4080024184808B507
:1019180002F066FB164802F0A7FBD0B9154B1B680E
:10192800134AB1EE086A07EE903ADFED136AD2ED7A
:101938000C5AF8EEE77A114985EE867A104A114B6F
:10194800A7EEA67A81ED477A82ED477A83ED007A91
:1019580008BD08490C4B0A68013283FB0203A3EB5C
:10196800E27303EB4303A2EB43030B60D8E700BF2A
:10197800080A002450070024920A863F7C070024A6
:10198800A408002490010024ABAAAA2A9FEDDA7AC1
:10199800D0ED007AF4EEC77A38B5F1EE10FA0446C5
:1019A800D64BC0F232819FEDD67AF4EEC77AF1EECB
:1019B80010FA00F22A8193ED017A9FEDD26A77EE50
:1019C800C76A27EE067AF0EEE66AF4EEC76AF1EE29
:1019D80010FA0FDDBCEEE77ACB4D19680020C3ED95
:1019E800017A17EE102A0860D4ED007AAA4228BFBF
:1019F8002A460A61C54B9FEDC36A93ED017A77EEDB
:101A0800C76A27EE067AF0EEE66AF4EEC76AF1EEE8
:101A180010FA00F3D381F7EE007A94ED010AB4EEE0
:101A2800E70AF1EE10FA06DBF0EE087AB4EEE70A00
:101A3800F1EE10FA01D9B7EE000AB54802F00AF83B
:101A4800D4ED027AF5EEC07AF1EE10FAC0F2B38165
:101A5800DFEDB06A9FEDB07AF4EEE67AF1EE10FAB7
:101A680088BFF0EE477A94ED030A9FEDAC7AAC4B51
:101A7800B4EEC70AAB4DC3ED007AF1EE10FA06DBFF
:101A8800F2EE047AB4EEE70AF1EE10FA01D99FED0E
:101A9800A60A284685ED020A0BF0C8FFDFEDA37AF7
:101AA80085ED060A94ED050AB4EEE70AF1EE10FAA0
:101AB80007DBDFED9F7AB4EEE70AF1EE10FA40F2A9
:101AC80067819FED9B0A9B480BF00AFD9FED980AE2
:101AD80099480BF005FD9FED960A98480BF000FD1C
:101AE8009FED930A96480BF0FBFC94ED040ADFED9A
:101AF800957AB4EEE70AF1EE10FA07DBDFED927A99
:101B0800B4EEE70AF1EE10FA40F2E3809FED8F0A97
:101B18008F480BF0E5FC9FED8D0A8E480BF0E0FC3A
:101B28009FED8A0A8C480BF0DBFC9FED880A8B48F6
:101B38000BF0D6FC94ED060AB5EEC00AF1EE10FAE9
:101B480007DBF6EE007AB4EEE70AF1EE10FA40F29F
:101B580099809FED710A79480BF026FD9FED6E0A7A
:101B68007D480BF021FD9FED6C0A75480BF01CFDBC
:101B78009FED690A79480BF017FDD4ED077A9FEDC0
:101B8800787A784BF4EEC77AF1EE10FA06D49FED26
:101B9800767AF4EEC77AF1EE10FA70DC00221A7049
:101BA80094ED080ADFED717AB4EEE70AF1EE10FA67
:101BB80006DBDFED6F7AB4EEE70AF1EE10FA01D931
:101BC8009FED6C0A524801F049FF514801F034FF7B
:101BD800694802F0F7F9DFED697A94ED097A684807
:101BE800B4EEE77AF1EE10FA42DD02F0B9FADFED71
:101BF800637A94ED0A7A6348B4EEE77AF1EE10FA64
:101C080039DDBDE8384002F0ABBAD3ED017ADFED3B
:101C18005E6A9FED3C6A36EEE77A67EE867AB0EE4A
:101C2800C77AB4EEE77AF1EE10FA06DD1A680021F9
:101C38005648C3ED016A10611160344BDFED526AFA
:101C4800D3ED017A9FED2F6A36EEE77A67EE867A52
:101C5800B0EEC77AB4EEE77AF1EE10FA7FF7DBAEB2
:101C68001A6800214948C3ED016A10611160D2E683
:101C780002F07EFABBE7BDE8384002F079BA0122EB
:101C88001A708DE72B480BF08FFC94ED060A30484C
:101C98000BF08AFC94ED060A27480BF085FC94EDBE
:101CA800060A2C480BF080FC94ED060A23480BF03A
:101CB8007BFC94ED060A28480BF076FC94ED060AA6
:101CC8001F480BF071FC94ED060A24480BF06CFCDD
:101CD80053E71F480BF004FC94ED040A1D480BF071
:101CE800FFFB94ED040A1C480BF0FAFB94ED040A80
:101CF8001A480BF0F5FB1DE70050C346D409002431
:101D080000606A480AD7A33BBF270900DC09002402
:101D1800D00000240000FA4300000000CDCCCC3DE8
:101D28008C010024B80400249A99A1400080BB4487
:101D380000803B4678050024C40500248403002461
:101D4800D80300240000C84200004844000048436B
:101D5800E00400242C050024DC02002430030024C5
:101D68006666E63E94010024CDCC0C3F000070442A
:101D780000A08C480080BB46080A002448E1FA3ECF
:101D880098010024CC010024006501489405020054
:101D980012480BF0A5FB94ED050A11480BF0A0FBC7
:101DA80094ED050A0F480BF09BFB94ED050A0E48CD
:101DB8000BF096FB99E6DFED0D7A54E6BCEEE77A78
:101DC8000B4D19680020C3ED017A17EE102A086040
:101DD800AA4228BF2A460A611DE600BF78050024EA
:101DE800C405002484030024D80300240000000054
:101DF800BF27090080B5CF48D4B002F063FC0021AA
:101E0800CC48B2EE0E8A02F0EFFC1D2002F07AFCFC
:101E1800034606200224ADF80C3002F073FC03469A
:101E2800C4484FF00108F7EE008AADF8103002F010
:101E380083FC012380EE080ABF48C04FC04DC14E45
:101E4800DDE9031202F014F91E2002F05BFC0346E0
:101E58000720ADF8143002F055FC0346B548ADF83C
:101E6800183002F069FC012380EE080AB648DDE963
:101E7800051202F0FDF80A2002F044FC0346022095
:101E8800ADF81C3002F03EFC0346AA48ADF82030FD
:101E980002F052FC002380EE080AAC48DDE9071284
:101EA80002F0E6F80B2002F02DFC03460320ADF803
:101EB800243002F027FC03469E48ADF8283002F093
:101EC8003BFC002380EE080AA148DDE9091202F074
:101ED800CFF8182002F016FC03460420ADF82C3089
:101EE80002F010FC03469348ADF8303002F024FCB1
:101EF800234680EE080A9748DDE90B1202F0B8F88D
:101F0800002002F0FFFB03468A48ADF8343002F0A7
:101F180013FC0D9980EE080A424643468E48009409
:101F280003F020FD404602F0EDFB03468148ADF882
:101F3800383002F001FC424680EE080A0E9943460A
:101F4800864800944FF07C5403F00CFD172002F0F3
:101F5800D9FB03467748ADF83C3002F0EDFB0F990A
:101F680080EE080A7E4803F031FD7E497E4803F082
:101F780083FC704802F0E0FB38460BF0CDF86D4862
:101F8800C7ED008ABC607C61FD6002F0D5FB774F2D
:101F980030460BF0C1F86748C6ED008AB460F560BA
:101FA800746102F0C9FB724E38460BF0B5F861480F
:101FB800C7ED008ABD60FD607D6102F0BDFB304663
:101FC8009FED6C8A0BF0A8F86B496C4A6C4B0C605F
:101FD80014601C6081F8048082F8048083F804800F
:101FE8005448C6ED008AB560F560756102F0A4FB3F
:101FF800FEF76EFB4F4802F09FFB62480BF0EAF9D0
:10200800B0EE480A5F480BF0CFFA9FED5F0A5D48D3
:102018000BF066FA9FED5D0A5A480BF00BFB45483A
:1020280002F08AFB5A480BF0D5F9B0EE480A584836
:102038000BF0BAFA9FED540A55480BF051FA9FED90
:10204800530A53480BF0F6FA3A4802F075FB514828
:102058000BF0C0F9B0EE480A4E480BF0A5FA9FED18
:10206800530A4C480BF03CFA9FED480A49480BF0DC
:10207800E1FA304802F060FB47480BF0ABF9B0EEEC
:10208800480A45480BF090FA9FED480A42480BF081
:1020980027FA9FED3E0A40480BF0CCFA254802F09B
:1020A8004BFB3E480BF096F9B0EE480A3B480BF064
:1020B8007BFA9FED350A39480BF012FA9FED330A87
:1020C80036480BF0B7FA1B4802F036FB34480BF0E1
:1020D80081F9B0EE480A32480BF066FA9FED2A0AF9
:1020E8002F480BF0FDF99FED290A2D480BF0A2FAB5
:1020F800104802F021FB2B480BF06CF9B0EE480AAF
:1021080028480BF051FA9FED290A26480BF0E8F908
:102118009FED1E0A23480BF08DFA064802F00CFBCF
:1021280021480BF057F9B0EE480A1F480BF03CFA6B
:102138003EE000BF7C04002458010024640200240F
:102148000AD7233C9C02002424010024980100247F
:10215800CC010024300200240002002410020024D4
:10216800200200242001002418010024480600242D
:1021780010060024000000003C040024440400244D
:10218800240400247805002400803B463333333F81
:10219800C4050024E00400242C0500248403002442
:1021A800D8030024DC020024300300240000484344
:1021B8001FED020A93480BF093F99FED930A91489B
:1021C8000BF038FA914802F0B7FAF0EE407A904FE7
:1021D8009FED900A88EEA77A38467C60C7ED037AAF
:1021E80087ED058A87ED020A8B4C8C4D8C4E87ED66
:1021F800047A0BF01BFC40F20113F0EE407A3846EB
:1022080087F80080BB84B0EE680AC7ED067AC7ED90
:10221800028A0BF00BFCF0EE407A824A44F6206109
:10222800B7EE040A18238048C7ED018AC7ED067A7D
:1022380001F026FB18201CAF02F064FA034673482D
:10224800ADF8403002F078FA1099784801F070FE45
:10225800754801F0F1FB754801F0B4FE734801F0D0
:10226800BBFE1CA801F0EEFF1CA8FFF78FFBDFF8F0
:10227800C8C10FCFACE80F000FCFACE80F0097E84C
:1022880007008CE807000F2002F03CFA034632A84A
:10229800ADF84430119903F0DBFB102002F032FA5C
:1022A80003460DF1D900ADF84830129903F0D0FB80
:1022B800112002F027FA03460DF1EA00ADF84C3080
:1022C800139903F0C5FB122002F01CFA03460DF126
:1022D800FB00ADF85030149903F0BAFB132002F05C
:1022E80011FA034643A8ADF85430159903F0B0FB32
:1022F800142002F007FA03460DF21D10ADF858300D
:10230800169903F0A5FB162002F0FCF903460DF51B
:102318009770ADF85C30179903F09AFB192002F01A
:10232800F1F903460E20ADF8603002F0EBF90346F0
:102338000D20ADF8643002F0E5F903460C20ADF845
:10234800683002F0DFF9BDF868100822199BADF873
:102358000010ADF804001899ADF86C000DF23F10AC
:1023680003F084FB32A906230822314803F0B8FBA6
:102378002F4803F057FF4146244802F0E1F92D4960
:10238800224802F0D5F9BFF35B8F237800210122A0
:10239800BFF35B8F4BB1BFF35B8F2170BFF35B8FD4
:1023A8002A7005F0EDF83060EDE72B78012B0BD0A3
:1023B800022BE8D105F0E4F833680022C01AB0F522
:1023C800966FE0D92A70DEE705F0DAF83368C01AAC
:1023D800B0F57A7F01D82B78EAE7DFF85CC027AF41
:1023E8004FF0020EBCE80F000FC7BCE80F000FC784
:1023F8009CE8070087E8070027A885F800E001F0B7
:10240800D7FEE8E7300300243333333F7C0400244D
:10241800B80400240000C842040A0024010A002469
:1024280068070024808D5B00D0000024080A00247F
:102438009404002495270008A400002408B59FED03
:102448001E0A1E4801F00EFE9FED1B0A1C4801F0F3
:1024580009FE1C489FED180A01F004FE1A4801F015
:1024680091FEC8B918489FED140A01F09DFE17485F
:1024780001F088FED0B99FED100A144801F094FECF
:102488009FED0D0A124801F08FFE9FED0B0A1148CF
:10249800BDE8084001F088BE0B48B7EE000A01F01D
:1024A80083FE0A4801F06EFE0028E4D0B7EE000A69
:1024B800064801F079FEE3E700000000080A00245E
:1024C80080070024A808002498010024CC010024D7
:1024D800580100242401002470B5984801F004FE36
:1024E800974801F001FE974801F0FEFD964C974889
:1024F80001F0FAFD964801F0F7FD204603F082FA54
:10250800944803F07FFA944803F07CFA63797F2BB0
:1025180000F0DC808F4B5B797F2B00F0BE80874812
:102528008E4C01F031FED0B123680133032B2360B8
:1025380000F0E580814801F025FEF7EE007A9FED76
:10254800887A002887494FF00102874B47FE277A8F
:10255800C1ED097ABFF35B8F1A70BFF35B8F7748C1
:1025680001F01AFE10B12368013B2360744801F0A2
:102578000BFED0B123680133032B236000F0C48025
:102588006F4801F0FFFDF7EE007A9FED757A00289D
:1025980074494FF00102744B47FE277AC1ED0A7A5D
:1025A800BFF35B8F1A70BFF35B8F654801F0F4FDD2
:1025B80010B12368013B2360654801F0E5FD002860
:1025C80055D1634801F0E8FD38B123680022674817
:1025D800013B6749027023600A705D4801F0D2FD33
:1025E80060B92368032B16D05B4B624A5B79A3F171
:1025F800FF03B3FA83F35B09137070BD04F0C0FFE7
:102608005D4B1B68C01A3228EBD9584B01221A704F
:102618002368032BE8D1594E04F0B2FF40F6B833D3
:102628003268801A9842DFD9444801F04BFD44488B
:1026380001F048FD524DFFF701FF4C4B0022504876
:10264800484C1A70FFF7A2F90FCD0FC40FCD0FC475
:1026580095E8070084E8070004F092FF424B012246
:102668003060BFF35B8F1A70BFF35B8FBCE74548E0
:1026780001F028F900284CD1434801F0ADFC04F0E2
:102688007FFF23683C4A01331060032B236098D1F5
:1026980004F076FF394B186093E7294801F012FDE2
:1026A800274801F06FFDF7EE007A9FED2D7A00289C
:1026B8002C494FF001022C4B47FE277AC1ED0A7ACC
:1026C800BFF35B8F1A70BFF35B8F28E71B4801F0DD
:1026D800F9FC1A4801F056FDF7EE007A9FED207AD2
:1026E800002820494FF001021F4B47FE277AC1ED11
:1026F800097ABFF35B8F1A70BFF35B8F0AE704F0A8
:102708003FFF1E4B186015E704F03AFF1B4B18609B
:1027180036E71C4801F090F91B4801F053FC1948B2
:1027280001F0A0F90F4901220F4B81ED080ABFF310
:102738005B8F1A70BFF35B8F9EE700BF9801002480
:10274800CC010024580100240002002424010024A4
:10275800300200241002002420020024E406002491
:1027680000000000A4000024040A0024050A002434
:10277800000A0024060A0024EC060024E8060024C7
:1027880098E40008D0000024080A0024DFF890C06C
:10279800204B2DE9F04FDCF80040154606460F4661
:1027A800013483FB0432E3172244C3EBE203C3EB97
:1027B8000313E31A2DED0E8BCCF8003095B00E2BD9
:1027C80017D8DFE813F092050F009A05A305AC05AA
:1027D800ED05F605FF05080611061A0623062C0660
:1027E8003506890500210C4803F032FD0B4B83EDBB
:1027F800000A002D00F052850023013DDFF82480F7
:10280800B346029325F00103DFF81C900097059367
:102818005AE100BF8988888894040024CC090024E0
:10282800740700248006002498060024B8EE007A75
:10283800F4EE477AF1EE10FA48BFF0EE477AB0EEC0
:10284800007A9DED090ACDED087AB4EEC70AF1EEDB
:1028580010FA00F36284B8EE007ADD4B1B78B4EE10
:10286800470AF1EE10FA48BFB0EE470A8DED090AA3
:10287800002B00F05B84D74BD8ED042AD3ED004A37
:10288800D54B98ED006A93ED007AD44BF4EEC74A25
:10289800D9ED043A99ED054A99ED032AF1EE10FABB
:1028A80098ED053A98ED031ADFEDCD1A58BF74EE8E
:1028B800C74A93ED007ACB4BD3ED006A67EEA44A82
:1028C800D9ED007AB4EEE67AC74BF1EE10FA58BFAC
:1028D80037EE667AF7EE006A20EE070A36EEE25A1D
:1028E80076EEE35A36EEC37A25EE065A93ED006A81
:1028F80065EEA75A76EEC47AA4EEA25AE0EE235A01
:1029080067EE827A27EE017A76EEC66A34EEC52A39
:1029180088ED005A70EE652AC9ED005A66EE005A35
:10292800F0EEC23A88ED022AB0EEE25AC9ED022A68
:1029380026EE246AA3EE837AC8ED013AE5EE047A1E
:1029480089ED015AE6EEA45AA6EE806AB4EEE17A61
:1029580088ED037AC9ED037AF1EE10FAC0F2DA8352
:1029680037EE617AF0EE086A27EE267ADFED9C6A88
:10297800994BF4EEE67A83ED007AF1EE10FAC0F2A4
:10298800C68377EEE67AB0EE087A67EE877A954BDB
:1029980078EEA58A38EE066AC3ED007AF0EE007A82
:1029A800F4EEE78AF1EE10FA00F35384F8EE007AB9
:1029B800F4EE678AF1EE10FA48BFF0EE678AF0EE9F
:1029C800007ACDED0A8AB4EEE76AF1EE10FA00F368
:1029D8003C84F8EE007AB4EE676AF1EE10FA48BF6C
:1029E800B0EE676A0AA981488DED0B6A01F050F9CB
:1029F8000BA97F4801F04CF909AA08A97D480AF0FB
:102A080081FC08AA09A97B488DED0C0A0AF07AFC1A
:102A1800B0EE007ADDED0C7AF4EEC77AF1EE10FA3A
:102A280000F31B84B8EE007AF4EE477AF1EE10FA60
:102A380048BFF0EE477AB0EE007ACDED0C7AB4EEEE
:102A4800C70AF1EE10FA00F3C982B8EE007A604BBB
:102A58001B78B4EE470AF1EE10FA48BFB0EE470A09
:102A68008DED0D0A002B40F0C282634BF6EE006A32
:102A780093ED007AB4EEE67AF1EE10FA40F1858231
:102A880037EE077A9BED006ADBED016AA7EE276A4D
:102A9800E7EE006AF0EE467AB0EE660A574B1B780E
:102AA800002B00F06C820023009A13605360009B97
:102AB8000BF1080B029A059908338A42009302F138
:102AC800020300F0EB830293FEF7C8FEDFF89CA137
:102AD800FEF788FE9FED4AAAFEF7F2FE494801F08C
:102AE80051FB01464848F7EE00AA0AF033FB474875
:102AF800F0EE40BA01F046FB014645480AF02AFBD1
:102B08004448B0EE409A01F03DFB014642480AF0C5
:102B180021FB4248B0EE408A01F034FB01464048B0
:102B28000AF018FB3F48404BF0EE407AC0ED00BA7F
:102B3800F6EE028A3D481D6880ED009A3C4805EB98
:102B48000A023C4B80ED008A3B4892ED00BA80EDCA
:102B5800008A3A482BEE0A0A04923AEECBCA80ED74
:102B6800008A37481B6880ED008A3648DFED369AC0
:102B7800C0ED007A35489FED369AC0ED007A3548A9
:102B8800D5E90267C0ED007A05EB8702324805EB0C
:102B98008601D2ED06DA314AC0ED007A1360304A78
:102BA80091ED06EA13602F4A13602F4A13600BF069
:102BB800CFF9F0EE40BA2BEE290A0BF0C9F9B0EEC6
:102BC800408A2CEE0A0A0BF0C3F928EE098A4FE076
:102BD80094010024E80900246C070024F00900246B
:102BE800CDCCCC3E70070024780700247C07002455
:102BF800A40800242404002404000024000A00245B
:102C0800DB0FC93F9801002464020024CC01002492
:102C18009C020024240100241006002458010024EA
:102C2800480600243C040024D40900244404002459
:102C3800D4020024F8090024280300244C040024AA
:102C4800540400247C030024E4CB9640D0030024E1
:102C58000000803D5C040024640400242C0400244B
:102C6800340400246C04002474040024209F2400ED
:102C7800ABEEA88AF0EE40BA2CEE290A0BF068F900
:102C880060EE097AC94BEBEEA87A1C6838EE088A20
:102C980004EB0A01D4E9022391ED00CA77EEA77A82
:102CA80004EB820204EB83037AEECCAA2CEE0A0A28
:102CB80092ED06DA67EE8E7AD3ED06CA0391EDEE51
:102CC800887ACDED067A0BF043F9F0EE40BA2CEE97
:102CD800290A0BF03DF9B0EE408A2AEE8A0A0BF079
:102CE80037F9F0EE407A2AEEA90A28EE098AF0EEC2
:102CF800679A0BF02DF9AE4860EE097AAD4BABEE52
:102D0800A88A0644D5F804E0E9EEA87A3844A3FB7B
:102D180006C1DFF8C4C205EB8E0A890C38EE088AB2
:102D28000CFB1161A44E37EEA70ADBED007A019186
:102D38007644A3FB001EA3FB061301994FEA9E4E9F
:102D480020EE0D0A9B0C0CFB1E00ACEE880A0CFB57
:102D58001363D5E90472CAED067A3A44DFF864A22F
:102D6800013255F80AE007F1FF3A8DED070AC5E987
:102D78000210B2FBF7F1AAEB0E0A07FB11226B60F7
:102D880052456A6140F2DA808C49685C6A1800280A
:102D980040F0DA808A480127013B2E5C28446F54B2
:102DA800002E40F07782EB6007EE90EAB7EE007AEB
:102DB800F8EE676AC7EE267A37EE8BBAB4EEC7BA72
:102DC800F1EE10FA40F3D780049B002183ED007ADE
:102DD80001231170037021690BF1040360696568B0
:102DE80008EE103A0844744F04EB850E704B421CF1
:102DF8002F4401F1FF3CDBED017AD4E9020500EB39
:102E0800030A1D4403F1E043B2FBF1F001FB10207B
:102E18006C49A3F540136158A3F63A23CEED067A20
:102E28000191A3FB0762DFF8B0E1A3FB0A61A3FBF2
:102E38000563019E920C6061890CACEB060C9B0C3F
:102E48000EFB12720EFB11A160450EFB1353C4E971
:102E58000121E36051D95949605C6318002851D1B8
:102E680057480127013A255C20446754002D40F05B
:102E78001382E260DDED017AB7EE007A039AB8EECC
:102E8800676AD2ED006AC7EE067A77EEA67AF4EEA4
:102E9800C77AF1EE10FA40F31282039A002182ED0C
:102EA800007A01221970027006AA594646480AF0AB
:102EB80029FA18EE101A07AA4448F0EE408A0AF0D8
:102EC80021FA4348B0EE408A00F04CFE03464148E0
:102ED8001B68089300F046FE03680993FEF716FD89
:102EE800B0EE007ADDED087AF4EEC77AF1EE10FA6A
:102EF8007FF79CACF0EE477AA1E4304BE25C2344C8
:102F0800002AD1D02E4AA018A25C002AB2D0DDED4A
:102F1800017AB7EE006A03990022F8EE676AD1EDEC
:102F2800007A86EE267A77EEC77AF5EEC07AF1EE69
:102F380010FA00F1B881C1ED007AB5E71F4AAB5C21
:102F48002A44002B3FF447AF1D4BE818EB5C002BDD
:102F58003FF42AAF07EE90EAF7EE006A0023B8EED6
:102F6800677AC6EE877A3BEE67BAB5EEC0BAF1EE7D
:102F780010FA00F19E81049B83ED00BA2BE7009BB9
:102F8800C3ED007A83ED010A91E540F36A81F7EE1B
:102F9800006ADBED005A9BED016A36EEC77A37EE20
:102FA800077AE7EE257AA7EE060A77E5DC0900241A
:102FB800BF270900851DD96FC1270900249F240058
:102FC8001C9F2400189F24003C040024440400246F
:102FD8007C070024A4080024C0270900D44BB0EEC5
:102FE800470A1B788DED0D0A002B3FF43EAD9FED8F
:102FF800D18AD14D27EE880AD04C28460AF010FA1B
:103008009DED0D0A204620EE080A0AF009FAF2EEB4
:10301800046A95ED0C7A0CA9D4ED0C7A0EAA27EE69
:10302800267AC74867EEA67A8DED0E7ACDED0F7A2F
:103038000AF068F90DA90FAAC2488DED100A0AF026
:1030480061F9F0EE006A9DED107AF0EE407AB4EE88
:10305800E67AF1EE10FA00F30D81F8EE006AB4EEAC
:10306800E67AF1EE10FA00F12D8127EE080AF0EE6B
:10307800006A8DED107AF4EEE67AF1EE10FA00F3BC
:103088000681B8EE007AF4EE477AF1EE10FA48BFFE
:10309800F0EE477AAC4DAD4C2846CDED117A0AF0EA
:1030A800BFF9DFEDA47A9DED110A204620EE270A2C
:1030B8000AF0B6F9F2EE046A95ED0D7A10A9D4ED8E
:1030C8000D7A12AA27EE267AA14867EEA67A8DED28
:1030D800127ACDED137A0AF015F911A913AA9D48B1
:1030E8008DED100A0AF00EF910AA0CA99A488DED78
:1030F800110A0AF007F911AA0DA998488DED0C0AD2
:103108000AF000F9DDED0C7A8DED0D0AADE4DFED86
:10311800947A3CE49FED927A28E4854BB0EE470A16
:103128001B788DED090A002B7FF4A5AB9FED819AE2
:103138008C4D27EE890A8C4C28460AF071F99DEDD2
:10314800090A204620EE090A0AF06AF9F2EE046A32
:1031580095ED0C7A0EAAD4ED0C7A08A927EE267AFA
:10316800824867EEA67A8DED0E7ACDED0F7A0AF0D9
:10317800C9F80FAA09A97E488DED100A0AF0C2F80D
:10318800F0EE006A9DED107AF0EE407AB4EEE67A41
:10319800F1EE10FA76DCF8EE006AB4EEE67AF1EEBB
:1031A80010FA00F1948027EE090AF0EE006A8DED1E
:1031B800107AF4EEE67AF1EE10FA60DCB8EE007AF6
:1031C800F4EE477AF1EE10FA48BFF0EE477A694D0F
:1031D800694C2846CDED117A0AF022F9DFED557ACF
:1031E8009DED110A204620EE270A0AF019F9F2EEA1
:1031F800046A95ED0D7A10A9D4ED0D7A12AA27EE7E
:10320800267A5E4867EEA67A8DED127ACDED137AAE
:103218000AF078F811A913AA59488DED100A0AF096
:1032280071F810AA08A957488DED110A0AF06AF832
:1032380011AA09A954488DED080A0AF063F8DDEDD2
:10324800087A8DED090AFFF716BBB0EE676AFFF73B
:10325800C9BBF0EE678AFFF7B2BBF0EE477AFFF71B
:10326800EABBDBED006A9BED017A77EEA67A30EED9
:10327800070A13E4B0EE667A9FED440AF7E6F0EE2B
:10328800667AA4E7B0EE667A9FED400A8DE7F0EE25
:10329800667AFFE6AB605DE6A26038E615B0BDEC85
:1032A8000E8BBDE8F08F0021039C2260197001701D
:1032B800FAE50021049D2B60117001708BE5C2EDC9
:1032C800007AF1E5B0EE667A9FED310ACFE6B0EE0E
:1032D800667A9FED2F0A68E72E4B1B78022B3FF486
:1032E80088AAFEF7B5F9FFF784BAFFF7F5F8FEF7F5
:1032F80061FAFEF7F9FAFFF77CBA264B1B78022B26
:103308003FF477AAFDF7CAFAFFF773BA01212248FA
:1033180002F09EFF214B83ED000AFFF76ABA1D4BAE
:103328001B78022B3FF465AAFDF7D4FBFFF761BABF
:1033380094010024CDCCCC3D84030024D803002480
:103348005C04002464040024DC020024300300240C
:103358004C040024540400246C0400247404002445
:103368000000000078050024C40500247C03002424
:10337800D0030024E00400242C050024D4020024F7
:10338800280300242C04002434040024CDCC4C3E13
:10339800CDCC4CBE010A002494040024D00900249A
:1033A8000221284802F054FF274B83ED000AFFF75B
:1033B80020BA264B1B78022B3FF41BAAFDF786FC8C
:1033C800FFF717BA03211F4802F042FF204B83ED95
:1033D800000AFFF70EBA1D4B1B78022B3FF409AA0F
:1033E800FDF76CFDFFF705BA0421164802F030FF1F
:1033F800184B83ED000AFFF7FCB9144B1B78022B1E
:103408003FF4F7A9FDF754FEFFF7F3B905210D487E
:1034180002F01EFF104B83ED000AFFF7EAB90B4BD1
:103428001B78022B3FF4E5A9FDF778FFFFF7E1B918
:10343800064B1B78022B3FF4DCA9FEF75BF8FFF77D
:10344800D8B900BF94040024EC090024010A002420
:10345800F4090024E4090024500A00242DE9F0416D
:1034680097480026974C984D22469849466106622F
:103478000AF0E8FA2246294695480AF0E3FA224675
:10348800294694480AF0DEFA2246294692480AF06C
:10349800D9FA2246294691480AF0D4FA2246294602
:1034A8008F480AF0CFFA224629468E480AF0CAFA0F
:1034B800224629468C480AF0C5FA224629468B48F6
:1034C8000AF0C0FA22468A4900258A480AF0BAFA60
:1034D800894F8A4822468A4905604560C5608560EB
:1034E800076147610AF0AEFA8648DFF8D8822246BB
:1034F800834905604560C5600761476185600AF0DA
:10350800A1FA814D2246414680480AF09BFA22469C
:1035180041467F480AF096FA7E4F224629467E4861
:103528000AF090FA224629467C487D4D0AF08AFA2C
:10353800224639467B480AF085FA224639467A48B7
:103548000AF080FA2246294678480AF07BFA224691
:10355800294677480AF076FA2246294675480AF03D
:1035680071FA2246294674480AF06CFA734F2246CB
:10357800294673480AF066FA2246724972480AF0E8
:1035880061FA2246394671480AF05CFA2246394601
:103598006F48704D0AF056FA224639466E480AF0CE
:1035A80051FA224639466D480AF04CFA2246294615
:1035B8006B480AF047FA224629466A480AF042FA56
:1035C8002246294668480AF03DFA224629466748B5
:1035D8000AF038FA2246294665480AF033FA2246A4
:1035E800294664480AF02EFA2246294662480AF01B
:1035F80029FA2246294661480AF024FA2246294631
:103608005F480AF01FFA224629465E480AF01AFA6D
:10361800224629465C480AF015FA224629465B48A4
:103628000AF010FA2246294659480AF00BFA594F6F
:103638002246294658480AF005FA2246294657489C
:103648000AF000FA2246394655480AF0FBF92246A4
:10365800394654480AF0F6F92246394652480AF0E3
:10366800F1F9052001F04EF8504B05462246504925
:103678004FF07E574F481D800AF0E4F9DFF8488183
:1036880044F6206E4C4842F210754C491823DFF876
:103698003CC1224680F834600661C0F83880416039
:1036A800C0F800E0076485624549C0F83CC043643F
:1036B800C0E90566C0E90866BDE8F0410AF0C2B98C
:1036C8007C04002400000024B5060008A9060008B0
:1036D80078050024C4050024E00400242C050024F7
:1036E80084030024D8030024DC02002430030024CF
:1036F800B1060008B804002417B7D13880060024A2
:10370800BD06000898060024D5060008D8B6B2C041
:10371800503E49C0CD060008289F24C0000000C0C4
:10372800C90600087C070024A408002458010024C6
:103738002401002498010024CC010024AD060008CF
:1037480030020024C5060008080A00246402002488
:103758009C020024B906000848060024100600242C
:103768003C04002444040024240400247C03002492
:10377800D0030024D4020024280300245C0400247D
:10378800640400244C040024540400242C04002461
:1037980034040024A10600086C04002474040024E6
:1037A800000200241002002420020024200100242A
:1037B800A506000818010024D0000024808D5B00B5
:1037C800C1060008D10600080000A03F0024F44804
:1037D800DFED297AF4EEE70A10B5F1EE10FA0446A7
:1037E8002DED048BF0EE418AB0EE409A54BFB0EE56
:1037F800600AB0EE670AB0EE608A0AF09BF9F0EE54
:10380800409AB0EE680A0AF095F9032C30D8DFE840
:1038180004F00F18230229EE090A78EEC88A20EE70
:10382800099AB0EE480AA9EE280ABDEC048B10BD2F
:1038380078EEC88AB0EE480AA8EE890ABDEC048B77
:1038480010BD29EE099A78EEC88AB0EE480AA9EEAA
:10385800280ABDEC048B10BD70EE697AB0EE690AD7
:10386800A7EE890ABDEC048BBDE810400AF0F0B859
:103878009FED020AD9E700BF95BFD63300000000CC
:1038880070B44FF470750D4C4FF07E56436480ED64
:103898000E0A066495FBF3F594FBF3F4C0E90012F5
:1038A8000023074AC0E90254C26380F8343070BC70
:1038B800C0E90633C0E90433704700BF006504005F
:1038C8000024F44810B5044603F05CFE63692268DE
:1038D800C31A9342E3616268C4E9040022D39342A5
:1038E80024D894F8340007EE903A20BBB8EE677AF3
:1038F800D4ED067AD4ED0E6AF8EE677A67EEA67A0A
:10390800B4EEE77AF1EE10FA10DA94ED106A0120BD
:10391800DFED116AC7EE067AA36167EEA67AC4EDF9
:103928000F7A10BD934201D8002010BD012300205A
:1039380084F8343010BDB8EE676AD4ED106A9FED94
:10394800067A0022A361C6EE267A84F8342067EE50
:10395800877AC4ED0F7A10BDA69B443D83688B42DD
:1039680032D8C3688B4270B404462AD31748666CB1
:103978000568174B002E05F1010292FBF6F506FBD0
:1039880015254FF00002056043F8251008DD03EB0C
:10399800860053F8041B83420A44FAD1182E08D033
:1039A80007EE902A0120F8EE677AC4ED0F7A70BC12
:1039B800704708480849094B00FB0515B3EBB50FDC
:1039C800EED2002070BC704700207047BC0A00246B
:1039D8005C0A0024ABAAAAAAA8AAAA2A5455551573
:1039E800124BF6EE006A90ED0F7AB1EE046AD3ED51
:1039F800007A416C37EE677ADFED0D5A18290D4AC7
:103A080046FEA56AE6EE877A92ED000A37EEC07A9E
:103A1800C3ED007AB0EEC77AB4EEC67AF1EE10FACA
:103A280003DDB0EE670AC2ED007A7047580A002439
:103A38005839343C540A00249FED057AB7EE000A41
:103A4800D0ED0F7A67EE877A80EE270A704700BFBD
:103A58002CC3AE3780ED100A704700BF80ED0F0A07
:103A6800704700BF90ED0F0A704700BF2DE9F04383
:103A780083B0394C0546ADF80410016880ED430A5F
:103A880001F184030C44002243F8042BA342FAD129
:103A98000020314E02270A46034608608F5100264F
:103AA8000133002742F8046F216817649942F6D859
:103AB800F2EE0E7A95ED430A4FF07E544FF001086E
:103AC8000199281D80EE270A4FF07C5900F030FA42
:103AD800C5F8D840C5F8DC40C5F82441A5F8CC8025
:103AE80003F04EFD95ED430AC5F8FC0005F15C00B6
:103AF80085F80861C5F8F870C5F8147185F818617B
:103B0800164F174E85F8008185F85080C5F84C90FF
:103B180009F002FB05F1940095ED430AEC65C5F840
:103B2800E040C5F8E840C5F8549085F858806F66BD
:103B38002F67AE6609F0F0FAC5F89C70C5F8A0606A
:103B4800C5F8A870C5F89440C5F8E440C5F8EC403D
:103B580003B0BDE8F08300BF847869000AD7233C2E
:103B6800ACC527372DE9F04F00230027044600F1A4
:103B7800D00500F1CC0900F15C0800F14C062DEDF0
:103B8800028B83B0C0F8143101932368DFF8DCE0BE
:103B980094ED3E7A03EB8701D5ED067A53F80EE0F3
:103BA80077EE877A2F4ABE45DFF8C4B0DFF8C4C085
:103BB800C5ED047A52D9BDEEE77A17EE100AB8EED1
:103BC800C77A824277EEC77A28BF02464A601868E9
:103BD800C1ED117A024402F1010E510A4FEA5E2A40
:103BE800ABFB0101ABFB0AA00CFB11220CFB10E1A3
:103BF80003EB820203EB810392ED217AD3ED216A74
:103C080076EEC76AA6EEA77AF0EE477AAA4619F8C2
:103C1800011B4046C5ED087A09F09CFA05F120021F
:103C2800AAEC010A304686ED000A01A99AED018A3C
:103C380009F068FBD4ED457A08F13808554608368E
:103C4800E8EE007AC4ED457A37B104F58A7003B01E
:103C5800BDEC028BBDE8F08F012796E7DFED027A15
:103C6800D4E700BFFF5D1A000000000084786900F7
:103C7800076B1300005E1A00034631B190ED470A46
:103C8800043093F8191100F0C1B9043000F0A8B954
:103C98000068094A70B40E680168084D0A4400EBD0
:103CA8008101074C530AC1F88460A5FB031304FB88
:103CB800132370BC03607047FF5D1A00076B130085
:103CC800005E1A00DFED477AB4EEE70AF1EE10FA6B
:103CD80005D500239FED440A80F819317047DFEDC0
:103CE800437AB4EEE70AF1EE10FA05D501239FED09
:103CF800400A80F819317047DFED3E7AB4EEE70AE2
:103D0800F1EE10FA0CD4DFED3C7AB4EEE70AF1EEEE
:103D180010FA0BD503239FED390A80F81931704743
:103D28000223B5EE000A80F819317047DFED347AC6
:103D3800B4EEE70AF1EE10FA0CD4DFED327AB4EE05
:103D4800E70AF1EE10FA0BD50523B7EE000A80F862
:103D5800193170470423B6EE000A80F8193170470C
:103D6800DFED297AB4EEE70AF1EE10FA05D506235D
:103D7800B0EE000A80F819317047DFED247AB4EE0E
:103D8800E70AF1EE10FA05D50723B0EE080A80F825
:103D980019317047DFED1E7AB4EEE70AF1EE10FA3A
:103DA80005D50823B1EE000A80F819317047DFED18
:103DB800197AB4EEE70AF1EE10FA05D50923B1EE47
:103DC800040A80F819317047F7EE007AB4EEE70A72
:103DD800F1EE10FAB8D80A23B1EE080A80F81931C2
:103DE800704700BFC729BA3DABAA2A3EC7293A3E49
:103DF800CDCC4C3E569F8B3EC729BA3EABAAAA3EB5
:103E080039B4E83EE3A50B3F1CEB223F55303A3F5F
:103E18008E75513FC7BA683F38B504462DED028B01
:103E2800002949D0FFF74EFF90ED488A20EE088A16
:103E380094ED497A9FED3A5B38EE476AB7EEC77A58
:103E4800B0EEC66A27EE057BB7EEC66AB4EEC76B5E
:103E5800F1EE10FA4EDC94F81831BBBB03F090FB7E
:103E6800D4F8FC30C01A19283FD994F80851FDB18C
:103E7800B4F8CC3094F8002183F4807382F0010206
:103E880083F0010384F80021A4F8CC3003F078FB18
:103E980094ED437AB7EE000A0023C8EE077AC4F817
:103EA800FC0084F80831201D80EE270A00F08AF80B
:103EB8002846BDEC028B38BD02209FED1B1ADFEDB2
:103EC8001B0AFFF785FCB0EE408AB1E794F8003191
:103ED80003BB84ED3A8A002384F8183103F050FBC1
:103EE800D4F8FC30C01A1928BFD80025BDEC028BC5
:103EF800284638BD03F044FB0025012384ED498A98
:103F0800C4F8FC00284684F8083184F81831BDEC60
:103F1800028B38BD84ED3B8ADDE700BFAFF300803C
:103F2800FCA9F1D24D62503F00606A48000070451C
:103F380010B52DED048B82B004469FED209AB0EEAB
:103F4800408AADF8041000220199F7EE008A01F0CA
:103F5800AFFCB0EE490A204601F0CEFC204601F045
:103F6800DDFCC8EE887A4FF07C539FED150A04F10A
:103F78001C0084ED0A8A236284ED0C9A84ED090AF8
:103F88000090C4ED0B7A00F091FBF0EE007A40F25D
:103F980001120423009884ED0D0AB0EE670AC4EDFF
:103FA800088AA4F840202377C4ED097A00F07EFB44
:103FB80084ED0D0A02B0BDEC048B10BD00000000BA
:103FC8000000C84210B5044680ED090A1C3000F014
:103FD8006DFB84ED0D0A10BD00230363704700BF1D
:103FE80010B504461C3000F07FF9B7EE007AF6EE03
:103FF800007A204630EE070A20EE270A01F07CFC02
:104008002046BDE8104001F089BC00BF0A2900B570
:1040180083B01FD8114B03EB8101D1ED007A20EE5C
:10402800270A019009F094FF9FED0D7AF7EE007AC8
:104038000198B4EEC70AF1EE10FA54BFB0EE670A61
:10404800B0EE470A01F058FC019803B05DF804EBA4
:1040580001F064BCF1EE087AE1E700BFC4E40008AF
:104068000000000001F048BC90F84100704700BF14
:1040780070B52DED028B82B0B0EE408A00F11406C7
:104088000446ADF800200430ADF804101D46009930
:1040980001F09CFCB0EE480A30460022019901F07C
:1040A80007FC002330469FED060A84F83050237041
:1040B80002B0BDEC028BBDE8704001F01DBC00BF32
:1040C800000000000378143083F0010300F8143C6A
:1040D8001BB1B7EE000A01F00FBC9FED020A01F018
:1040E8000BBC00BF0000000038B500F11405044601
:1040F800284601F013FC201D01F084FC94F83030B0
:10410800012B17D0022B09D003B138BD637A7F2B5E
:10411800FBD12046BDE83840FFF7D4BF637AFF2BB8
:1041280013D0002328469FED0D0A2370BDE83840C0
:1041380001F0E2BB627AFF2AF3D028462370B7EE7B
:10414800000ABDE8384001F0D7BB01232846B7EE86
:10415800000A2370BDE8384001F0CEBB0000000023
:104168000123B7EE000A00F8143B01F0C5BB00BFFD
:1041780000239FED030A00F8143B01F0BDBB00BF0C
:104188000000000000787047407AA0F17F00B0FA84
:1041980080F04009704700BF407AA0F18000B0FA73
:1041A80080F04009704700BF143001F0A5BB00BF84
:1041B800F0B5456899B08668002302950CA9C568D2
:1041C80002AC03960F46066904954569059606955F
:1041D8008669C5698DF8303007960368066A0895C0
:1041E800456A806A019309960A950B9001E054F894
:1041F800043BC3F30726C3F30745C3F30760BC4278
:104208004B708E70CD7001F8040FF0D101230B486C
:104218000B4C00F8033F02F033FA206800F1B401B8
:1042280002F034FD0CAAB421206802F0B1FC044667
:1042380002F0EEFB204619B0F0BD00BFC00A002412
:104248000C000024F0B5074600251E4899B01E4E04
:1042580000F8035F0CAC02F013FA0FCE0FC40FCEB8
:104268000FC496E80F0007C4237001AC02F0D0FB1E
:104278000CAE20466B46324612F8011B03F8011BB0
:10428800A342F9D10435009B04362C2D40F8043B99
:10429800F0D101993846029A039B049C39607A60F0
:1042A8000599069ABB60079BFC603961089C0999CF
:1042B8007A61BB610A9A0B9BFC6139627A62BB62C4
:1042C80019B0F0BDC00A0024000000900348002384
:1042D800034A04494361036209F0B4BBC00A0024DD
:1042E80000000024A9060008037810B504462DED47
:1042F800028B072B00F2C881DFE813F05F009400FF
:10430800A900BA00C900D90036010800D0ED057A25
:10431800B7EE000A9FEDE07AFFEE008ADFEDDF6A74
:1043280090ED068AF4EEE67A28EE078A67EE877A39
:10433800F1EE10FAF4EEC87A48BFF0EE408AF1EEDA
:1043480010FA00F1968130EE487AF4EEC77AF1EE71
:1043580010FA00F34B819FEDD20AB6EE007AF7EE21
:10436800000A78EE808A37EE870A09F0FDFEB4EE7F
:10437800C80AF1EE10FA00F16281B7EE007A77EE22
:10438800487AB4EEE70AF1EE10FA0DDD30EE470A8E
:10439800C0EE087AF0EE676AE7EEA76A77EEA67ACB
:1043A80077EE877A78EEE78A9FEDBE0A94ED058A64
:1043B80028EE800A94ED067A07E090ED058AB0EEC3
:1043C800480A09F0C5FD94ED067A78EE077ADFED24
:1043D800B66AF4EEE67AC4ED057AF1EE10FA40F327
:1043E800F48077EEE67A012384F82530C4ED057A67
:1043F80037EEC77ADFEDA96AB4EEE67AF1EE10FA85
:1044080040F1E180F4EEE67AF1EE10FAACBF012358
:104418000023D4ED017A84F8243020EE270ABDEC7D
:10442800028B10BD90ED058ABFEE000ADFED9A6A97
:10443800F6EE007A38EE086A90ED067AA6EE260ABD
:10444800B0EEC00A30EE670A30EE000ABDE790ED24
:10445800058AF0EE006ADFED907ABFEE000A90ED73
:10446800067A68EE277AA7EEA60AB1EE400AACE70C
:1044780090ED058AF0EE006ADFED877ABFEE000A5C
:1044880090ED067A68EE277AA7EEA60A9DE790EDEA
:10449800058ADFED827A90ED067AB4EEE78AF1EECE
:1044A80010FA4CBFB7EE000ABFEE000A8DE7D0ED58
:1044B800057AB7EE007ADFED786AFFEE008A9FEDA5
:1044C800776A90ED068AF4EEC67A28EE268A67EEB9
:1044D800A67AF1EE10FAF4EEC87A48BFF0EE478AF1
:1044E800F1EE10FA00F1BA8077EE486AF4EEE67A57
:1044F800F1EE10FA6DDC9FED6A7AB6EE000AF7EE7F
:10450800000A78EE878A37EE800A09F02DFEB4EEAD
:10451800C80AF1EE10FA76D4B7EE007A77EE487A48
:10452800B4EEE70AF1EE10FA0DDD30EE470AC0EE00
:10453800087AF0EE676AE7EEA76A77EEA67A77EE72
:10454800877A78EEE78AB7EE000A94ED067AD4ED1A
:10455800077A94ED058A30EE470A20EE270AA7EE7F
:10456800280A84ED070A30E7DFED4B7AB0EE006ADF
:1045780090ED058ABFEE000A90ED067A68EE276A8C
:1045880067EE277AA6EE860AF4EEE76AF1EE10FAED
:1045980048D4F7EE005A35EEE76AF4EEC66AF1EE53
:1045A80010FA0DDD76EEE56A86EEA76AF0EE467A39
:1045B800E6EE067A36EE276A36EE256A30EE460AC9
:1045C800B1EE400A01E7002323E7002384F82530F1
:1045D8000EE737EEC76AC6EE086AB0EE666AA6EE60
:1045E800A66A76EE866A36EE877A86E777EEC06A3E
:1045F80086EE887AF0EE476AE7EE076A37EE267AA3
:1046080037EE000AA9E680EE087AB0EE006AF7EE07
:10461800006A67EE477AE7EE067A77EEE67A78EE92
:10462800E78A90E7C6EEA75AF7EE006A65EEE57AE4
:10463800E5EE867A77EEE67A30EE670AC0E780EE36
:10464800087AB0EE006AF7EE006A67EE477AE7EE9E
:10465800067A77EEE67A78EEE78AA5E687EE886A44
:10466800F0EE005A66EE466AE6EE256A36EEC77A3E
:1046780043E7C7EE886AB0EE006A26EEE67AA6EE51
:10468800867A37EE400A68E690ED058A90ED067A5C
:104698009FED030A99E600BF83F9223EDB0F4940EC
:1046A80000000000F4FD343FDB0FC940DFED047A61
:1046B80020EE270AD0ED047A20EE270A704700BFC3
:1046C800DB0FC9400B4A40F207110B4B02604FF455
:1046D800877243600623C1844285037480F82930B9
:1046E80070B40224054E064D80F82540C0E90265E5
:1046F80070BC704700070500010508050905070596
:1047080006050A061F2882B009D8084B03EB4002A9
:1047180013F81030507843EA002002B070470123A4
:104728000C2043EA002002B0704700BFF0E4000804
:10473800143001F083B800BF143001F07BB800BF1B
:1047480038B500F1140504462DED028B284601F01A
:1047580063F8284601F06EF82846B0EE408A01F06A
:1047680057F8D0ED007AF8EE677A88EE277ABDEC34
:10477800028B84ED0E7A38BDF0B51A4D91B0002148
:104788000446079505F100754FF441700022012396
:104798000326012705F540750691029106A9ADF893
:1047A800240002A808953025CDE90C23CDE90E2375
:1047B800CDE90A6702F09CFD40F601334FF07E56C2
:1047C800ADF80430019800F04DF80323029A03A9CC
:1047D80004F114000596CDE9035300F0E5FF11B08C
:1047E800F0BD00BF0402040430B504462DED028B71
:1047F80083B089B3012240F201130092ADF804306E
:10480800694604F1300002F0A9FF204600F04CF898
:10481800E01C01F035FF04F1250001F035FE04F13C
:10482800140504F1290001F02FFE2046FFF7A4FF2C
:10483800284600F0FFFF2846B0EE408A00F0E8FF67
:10484800D0ED007AF8EE677A88EE277A84ED0E7A52
:1048580003B0BDEC028B30BD40F201130091ADF8FE
:104868000430CDE710B584B003460124ADF8040048
:1048780003A8ADF80C30ADF80E4001F005FE214656
:1048880003A801F0EBFE204602F082FE03A80021F7
:1048980001F0E4FE204602F07BFE214603A801F069
:1048A800DDFE04B010BD00BF2DE9F043444C8BB0D1
:1048B800A063037823B1002528460BB0BDE8F08338
:1048C800404A0A2300260127626008220893202311
:1048D80002A9201DC4E90267C4E9042340264FF455
:1048E800C07700224FF40063C4E90667C4E90823CF
:1048F8004FF48056002702220723C4E90A67CDE94E
:1049080002230426032200230827CDE90623CDE944
:10491800046707F085FF054600284CD14FF00108D1
:104928004FF010090126002702A94FF48052019088
:10493800201DCDE902894FF002084FF01009CDE99A
:10494800046707F097FF642003F05AF802A94FF4B0
:104958008052201DCDE90467CDE9028904264FF075
:1049680003084FF01009002707F084FF02A94FF44D
:104978008052201DCDE90467CDE9028907F07AFF4E
:1049880040F232234FF0010C042601931027019BBB
:1049980002A94FF48052201DCDE904C3CDE9026776
:1049A80007F068FF201D40F6060107F083FF284640
:1049B8000BB0BDE8F083012528460BB0BDE8F083B5
:1049C800000B002440410052694A2DE9F043156864
:1049D8008FB015B10FB0BDE8F083664B01210C24F0
:1049E800002611600327D3F8D4204FF683784FF0C0
:1049F800020908A942F480525F48C3F8D420D3F8CA
:104A0800D42002F480520092009AD3F8E02042F0B9
:104A18001002C3F8E020D3F8E02002F0100201925F
:104A2800019AD3F8E02042F04002C3F8E020D3F81E
:104A3800E02002F040020292029AD3F8E02042F00D
:104A48000802C3F8E020D3F8E02002F0080203923D
:104A5800039AD3F8E02042F48072C3F8E020D3F838
:104A6800E02002F480720492049AD3F8E02042F025
:104A78008002C3F8E020D3F8E02002F0800205921B
:104A8800059AD3F8E02042F02002C3F8E020D3F8DA
:104A9800E02002F020020692069AD3F8E02042F0C5
:104AA8000402C3F8E020D3F8E0300C9403F00403C8
:104AB8000793079BCDE90A67CDE9088904F0B0FDA3
:104AC80048F23712022308A92C480C94DFF8C0805A
:104AD800CDE90A67CDE9082304F0A2FD4CF2037280
:104AE800022308A926480C94CDE90A67CDE90823D2
:104AF80004F096FD40F2FF62022308A921480C94B5
:104B0800CDE90A67CDE9082304F08AFD4FF60C7257
:104B1800022308A91C480C94CDE90A67CDE90823AB
:104B280004F07EFD4FF63F02022308A917480C94B3
:104B3800CDE90823CDE90A6704F072FDD8F83800FA
:104B4800013002F0E5FED8F838300646581C02F06D
:104B5800E7FE02220746032308A930460C9408976B
:104B68000B93CDE9092504F05BFD0FB0BDE8F08398
:104B7800FC0A002400440258001002580018025889
:104B8800000C025800200258001C02580014025859
:104B9800000B00242DE9F04FDFF8288406460D4667
:104BA800144608F114002DED028B89B000AF02F015
:104BB8008FFCD8F814305BB3D8F818304269002B52
:104BC8000BBF022304234FF008094FF01009FB61C3
:104BD800D8F804304BB3A100E946012A01F10701D6
:104BE80021F00701ADEB010D6846ADEB010D6946FB
:104BF80000F04281022A00F0DB80002A74D02246AD
:104C08009847CD462437BD46BDEC028BBDE8F08FF2
:104C1800D8F81830002BF5D002234FF00809426964
:104C2800FB61D8F80430002BD5D1D8F80030BA6130
:104C38007B61002BE6D06B46DA4808EE103A02F0AA
:104C48008FFC8646F869BA69022800F08E816B46A7
:104C5800C7F810903969A3EBC4039D466300E94681
:104C6800B3FBF0F3A9EBC40CC7F8189009EB830A5F
:104C7800B869E546ADEB010D0CEB8301EB46F96035
:104C88003969C7F810A00AEB830AADEB010DCBF820
:104C98000000F9680AEB8300E94601EB8301CBF8D1
:104CA8000C00386901EB8303C9F800C0CBE9010A9D
:104CB800F868C9E90213C9F80400012A00F08283E0
:104CC800022A00F07C82002A00F0868162084946A8
:104CD80058467B69984718EE103A24379D46BD46DA
:104CE800BDEC028BBDE8F08F002C88D098ED0B6AE4
:104CF800864606F1040CDFEDB66A36F922A00EF1FD
:104D0800080E07EE10AA3CF922A0023207EE90AA7C
:104D1800B8EEC77A9442F8EEE77A27EE267A67EE7D
:104D2800A67A27EE067A67EE867A0EED027A4EEDBF
:104D3800017AE2D8F961224698479B4EF96900202A
:104D4800D8ED046A2B1D9FEDA37A9FED986ADFEDDD
:104D5800985A22E0F4EEC67AF1EE10FAC0F2EF8427
:104D680047F6FE72D1ED017A45F8202066EEA77A63
:104D7800F4EEC77AF1EE10FA40F2F580F4EEC67A56
:104D8800F1EE10FAC0F2FC8447F6FE7243F82020D8
:104D98000230083184427FF634AFD1ED007A66EEF6
:104DA800A77AF4EEC77AF1EE10FAD3D83246D9E7EB
:104DB800002C3FF424AF98ED0B6A8646002206F1DA
:104DC800040CDFED7C6A06EB820A0EF1080E9AED00
:104DD800007A0CEB820A0232DAED007AB8EEC77A72
:104DE8009442F8EEE77A27EE267A67EEA67A27EE5F
:104DF800067A67EE867A0EED027A4EED017AE2D8EF
:104E0800F961224698476C4EF9690020D8ED046A8A
:104E18002B1D9FED707ADFF8B0C19FED646A20E02A
:104E2800F4EEC67AF1EE10FAC0F2A2843246D1ED61
:104E3800017A45F8202066EEA77AF4EEC77AF1EEFB
:104E480010FA40F28E80F4EEC67AF1EE10FAC0F253
:104E58008784324643F820200230083184427FF6A6
:104E6800D0AED1ED007A66EEA77AF4EEC77AF1EE0D
:104E780010FAD5D86246DAE7002C3FF4C0AE06F146
:104E8800040CFD6198ED0B6A1D46834663464FF09E
:104E9800000ADFED4A6AB4465CF82A200BF1080BD9
:104EA80053F82A600AF1020A82F4000286F4000E1E
:104EB8005445A2F5000207EE102AAEF5000207EEEF
:104EC800902AB8EEC77AF8EEE77A27EE267A67EEE8
:104ED800A67A27EE067A67EE867A0BED027A4BED14
:104EE800017AD9D82B46FD692246F9619847344E94
:104EF800F9690020D8ED046A2B1D9FED367ADFF89A
:104F0800CCC09FED2A6A1FE0F4EEC67AF1EE10FAE3
:104F1800C0F21E843246D1ED017A45F8202066EEB3
:104F2800A77AF4EEC77AF1EE10FA18D9F4EEC67A39
:104F3800F1EE10FAC0F2FB83324643F8202002302B
:104F4800083184427FF65DAED1ED007A66EEA77A2D
:104F5800F4EEC77AF1EE10FAD6D86246DBE762467D
:104F6800EBE7624676E7324610E7A30060080733AE
:104F780023F00703ADEB030DEC46ADEB030DEA465A
:104F8800ADEB090D0CEB8003C7F818C0EB46ADEB91
:104F9800090D0AEB80003B61E946CBE900C3C9E98A
:104FA80000A08AE6540B00240280FFFF04FF7F3F25
:104FB80000FEFF46000000300082FF7F0000003442
:104FC80082FF7F003C0B0024007E00807E0080FF73
:104FD8000000003804FF7FBF002C00F0EC82F96964
:104FE800D8F82030022900F01B8303EB8E0ADBF887
:104FF8000C104FEA8E03C7F800B006F1040C5FED01
:105008000C5A7B60DBF80830D7F818E0FB600AF12F
:105018000403C7F818909B46D7F81090B9603D6113
:105028003CF9221036F9223006EE901A3AF922108D
:1050380006EE103A98ED0B5A07EE101AF8EEE66AEB
:10504800B8EEC66A3BF92210B8EEC77A530807EEE5
:10505800901A66EEA56A26EE256AF96827EE257A83
:1050680009EB8300F8EEE77A0EEB830526EE056A76
:1050780001EB830127EE057A023266EE856A67EE58
:10508800A57A85ED006A9442C0ED006A81ED007A48
:1050980098ED0B7AB86867EE877A00EB8303C3ED67
:1050A800007ABDD8D7F800B0D7F818903D696208E3
:1050B80049467B6958469847D8F8283079680022CD
:1050C800D8ED046A1944D9F800E0D9F804C02B1DBA
:1050D80001F104088A461FED417AC7F81880B14EDD
:1050E8009FEDB16ADFEDB15AD7F81C8052E0F4EEBB
:1050F800C67AF1EE10FAC0F2DC8247F6FE7B0CEBC2
:10510800010045F822B0D0ED007A66EEA77AF4EEF9
:10511800C77AF1EE10FA4CD9F4EEC67AF1EE10FA2D
:10512800C0F2D08247F6FE70B8F1020F43F82200B1
:105138002CD0D9F808000844D0ED007A66EEA77A9A
:10514800F4EEC77AF1EE10FA37D9F4EEC67AF1EE3A
:1051580010FAC0F2E38247F6FE7BD9F80C004AF851
:1051680022B00144D1ED007A66EEA77AF4EEC77A50
:10517800F1EE10FA1FD9F4EEC67AF1EE10FAC0F289
:10518800C58247F6FE71B86940F82210023294428F
:105198007FF6A1AD51080EEB81008900D0ED007AB1
:1051A80066EEA77AF4EEC77AF1EE10FA9FD8B34606
:1051B800A5E73046B8E73146E5E7B346CDE7002C2A
:1051C80000F0F981FA69D8F82030022A00F0FA8153
:1051D80003EB8E0ADBF80830C7F800B006F1040CC0
:1051E800FB604FEA8E030AF10402DFED715A7B601F
:1051F800DBF80C309346D7F818E0BB600023C7F8FB
:105208001890D7F810903D6156F823105A0898ED79
:105218000B5A07EE901A5CF8231009EB8200B8EEDF
:10522800E76A07EE901A5AF823100EEB8205F8EE9B
:10523800E76A07EE901A0BEB830126EE256A023324
:10524800B8EEE77AD1ED007A66EEA56AF968F8EE6D
:10525800E77A9C4227EE257A01EB820126EE056A61
:1052680066EE856A27EE057A67EEA57A85ED006A0F
:10527800C0ED006A81ED007A98ED0B7AB86867EEA8
:10528800877A00EB8202C2ED007ABDD8D7F800B069
:10529800D7F818903D695846620849467B6998478F
:1052A800D8F8283079680022D8ED046A19442B1DF3
:1052B800D9F800C08B460431D9F80480C7F814B077
:1052C8009FED3F7AD7F81CB0DFF8ECE09FED366A27
:1052D800384EB961FB6150E0F4EEC67AF1EE10FA8F
:1052E800C0F20682304608EB010A45F82200DAEDE2
:1052F800007A66EEA77AF4EEC77AF1EE10FA4BD987
:10530800F4EEC67AF1EE10FAC0F2F9813046FB6984
:10531800BBF1020F43F822002BD0D9F8080008444B
:10532800D0ED007A66EEA77AF4EEC77AF1EE10FABD
:1053380036D9F4EEC67AF1EE10FAC0F2D2813046D0
:10534800D9F80CA07B69514443F82200D1ED007ACA
:1053580066EEA77AF4EEC77AF1EE10FA1ED9F4EEEB
:10536800C67AF1EE10FAC0F2B5813146BB6943F84E
:105378002210023294427FF6AEAC51080CEB810049
:105388008900D0ED007A66EEA77AF4EEC77AF1EEDE
:1053980010FAA1D87046A6E77046B8E77146E5E767
:1053A8007046CDE70280FFFF04FF7F3F00FEFF4607
:1053B800000000300082FF7F007E00800000003483
:1053C80004FF7FBF002C00F0F680D8F820304FEAA9
:1053D8008E02BD60002103EB8E0E06F1040C1FED5A
:1053E800096A0EF104003D69D7F818A0FA60C7F8F9
:1053F800189056F821204FEA51095CF8213082F4C0
:105408000002D8ED0B6A83F40003A2F50002A3F5AD
:10541800000307EE102A05EB890207EE903A0AEB23
:105428008903B8EEC77A4FEA8909F8EEE77A27EEDA
:10543800067A67EE867A27EE267A67EEA67A83EDF5
:10544800007AFB69C2ED007A022B27D05EF8212092
:1054580050F8213082F4000283F40003A2F5000220
:10546800A3F5000307EE902ADBF80820B8EEE77AE8
:1054780007EE903A4A44DBF80C30F8EEE77A27EE6C
:10548800067A4B4467EE867A27EE267A82ED007A12
:1054980098ED0B7A67EE877AC3ED007A02318C4279
:1054A800A7D8D7F81890584662087B694946BD685E
:1054B8009847D8F82830F9680022D8ED046A1944CA
:1054C8002B1DD9F800C08B460431D9F80480C7F8E1
:1054D80014B01FED457AD7F81CB0DFF8C8E29FED8D
:1054E800AD6AAD4EB961FB6150E0F4EEC67AF1EEFB
:1054F80010FAC0F2C280304608EB010A45F82200D3
:10550800DAED007A66EEA77AF4EEC77AF1EE10FAD1
:105518004BD9F4EEC67AF1EE10FAC0F2BC803046F0
:10552800FB69BBF1020F43F822002BD0D9F8080021
:105538000844D0ED007A66EEA77AF4EEC77AF1EE69
:1055480010FA36D9F4EEC67AF1EE10FAC0F2AA8053
:105558003046D9F80CA07B69514443F82200D1EDBC
:10556800007A66EEA77AF4EEC77AF1EE10FA1ED941
:10557800F4EEC67AF1EE10FAC0F286803146BB69C5
:1055880043F82210023294427FF6A5AB51080CEB87
:1055980081008900D0ED007A66EEA77AF4EEC77A2A
:1055A800F1EE10FAA1D87046A6E77046B8E7714642
:1055B800E5E77046CDE72246494658467B69984755
:1055C800FFF789BB98ED0B6A002306F1040CDFEDA9
:1055D800736AB869D7F810A006EB83020CEB830155
:1055E80092ED007A5A08D1ED007A0233B8EEC77A04
:1055F80000EB8201F8EEE77A0AEB82029C4227EE82
:10560800267A67EEA67A27EE067A67EE867A81ED25
:10561800007AC2ED007ADFD84FEA8E037B603AE663
:1056280098ED0B6A06F1040CDFED5D6AB869D7F8EE
:1056380010A036F922303CF9221007EE103A530830
:1056480007EE901A0232B8EEC77A00EB8301F8EE43
:10565800E77A0AEB8303944227EE267A67EEA67A66
:1056680027EE067A67EE867A81ED007AC3ED007A36
:10567800DFD84FEA8E037B6019E5F0EE675AFEEE3D
:10568800E45A15EE900A37E7F0EE675AFEEEE45A50
:1056980015EE901A73E7F0EE675AFEEEE45A15EE2F
:1056A800900A3DE7F0EE675AFEEEE45A15EE900ACE
:1056B8004FE767EEA57AFDEEE77A17EE900A0FFA44
:1056C80080FB1CE567EEA57AFDEEE77A17EE900AF7
:1056D80000B229E5F0EE675AFEEEE05A15EE901A90
:1056E80044E6F0EE675AFEEEE05A15EE900A27E619
:1056F800F0EE675AFEEEE05A15EE900AF3E5F0EE8A
:10570800675AFEEEE05A15EE900A00E667EEA57AB3
:10571800FDEEE77A17EE901A09B234E567EEA57A3E
:10572800FDEEE77A17EE900A0FFA80FB15E5F0EE2A
:10573800675AFEEEE45A15EE902AFFF7FEBB67EEB5
:10574800A57AFDEEE77A17EE902A12B2FFF70ABBA8
:10575800F0EE675AFEEEE45A15EE902AFFF7DBBB2F
:10576800F0EE675AFEEEE05A15EE902AFFF772BB8C
:10577800F0EE675AFEEEE05A15EE902AFFF757BB97
:1057880067EEA57AFDEEE77A17EE902A12B2FFF7D8
:10579800FDBA00BF04FF7F3F82FF7F00000000309A
:1057A800000000387E0080FF70B5164C154684B0A6
:1057B800046004F1080601AB07C986E80700D4EDC8
:1057C800047AF5EEC07A83E80700F1EE10FA15DDE9
:1057D800F7EE006A86EEA77A84ED0B7A75B120465B
:1057E80040F8145F01F074FE0346074A0020196967
:1057F800064BE160E261636204B070BD012004B051
:1058080070BD00BF3C0B00240020003000000030B9
:1058180000680830704700BFB1F5806F03680A461A
:1058280028BF4FF48062B1F5806F9A6094BF002062
:10583800012070470068143001F080BE70B504681C
:1058480082B0084E0D46A36804F11400626AE1694B
:105858009B00009601F03EFE0020C4E9000502B05E
:1058680070BD00BF9D4B0008024B0022C3E9052212
:10587800704700BF3C0B0024098800220180C0F853
:10588800022000F001BE00BF10B543790446037141
:1058980000F0D6FE00280CBF01230023637104D159
:1058A8002079B0FA80F0400910BD002010BD00BF7B
:1058B80030B52DED028B83B0044601231546ADF8B3
:1058C80004101730BDF80410B0EE408A01806376EA
:1058D80000F0DAFDB5FA85F3002100225B09257591
:1058E80084ED048AA5756375A160C4E9002203B03C
:1058F800BDEC028B30BD00BF20EE007ADFED067AEA
:1059080027EE000A60EE277A80ED020AFCEEE77ABD
:10591800C0ED017A704700BF00FF7F4790ED046A31
:10592800B7EE007ADFED0E5A0346D0ED036AC5EEF6
:10593800867A77EEA67AF4EEC77AF1EE10FAC8BF47
:1059480077EEC77A90ED027AB4EEE77AC0ED037A83
:105958001730F1EE10FACCBF597D997D00F07EBE6C
:105968000000F042B7EE007AA3F10103B3FA83F323
:10597800C7EE007A5B0930B482B00025ADF8041098
:10598800002183719DF81030BDF80440012B02708E
:10599800C560A0F801404171C170C0ED027A08D01D
:1059A800022B0DD001230130C37002B030BC00F0CF
:1059B8006BBD02230130C37002B030BC00F064BD7F
:1059C8000171013002B030BC00F05EBDB7EE007A64
:1059D80001220346C7EE007A70B4002683B0C1F3F3
:1059E80007250024ADF80410C660417010449D706E
:1059F800DC701A709A809A71C3ED027A03B070BC99
:105A080000F042BD38B54479054683790130640019
:105A180064B2B3B100F014FEB0FA80F35B0923431B
:105A2800DBB2A3F17F026B71012A0ED9FF2B07D1DC
:105A3800D5ED037A95ED027A77EE877AC5ED037A8C
:105A480038BD00F0FDFD43B2E9E70023EB6038BD47
:105A580082B000230322ADF80410BDF80410827050
:105A680001800374C37002B0704700BF70B483B084
:105A78000325082A06ACADF804108570114634F8E1
:105A8800046B28BF0821ADF80030042ABDF80430A3
:105A98002488BDF8005003804FF0000306818580FC
:105AA80084810174C37008D8022A10D802D1012257
:105AB800C371827103B070BC70470122C371C37295
:105AC800C37382718272827303B070BC7047012203
