:020000040800F2
:100000000000022055060008510600080D75000882
:1000100051060008510600085106000800000000C3
:100020000000000000000000000000005106000871
:10003000510600080000000051060008FD74000889
:100040005106000851060008510600085106000834
:100050005106000851060008510600085106000824
:100060005106000851060008510600086971000891
:1000700075710008C1620008817100088D71000867
:100080005106000835CA000851060008510600084C
:1000900051060008510600085106000851060008E4
:1000A00051060008510600085106000851060008D4
:1000B00051060008510600085106000859CA0008F8
:1000C0005106000865CA00085106000851060008DC
:1000D00051060008510600085106000851060008A4
:1000E00051060008510600080000000051060008F3
:1000F0005106000851060008510600085106000884
:100100005106000851060008510600085106000873
:100110005106000851060008510600085106000863
:100120005106000851060008510600085106000853
:100130005106000851060008510600085106000843
:1001400000000000000000000000000000000000AF
:100150005106000851060008510600085106000823
:1001600071CA00085106000851060008510600082F
:100170005106000851060008510600085106000803
:1001800051060008510600085106000851060008F3
:1001900051060008510600085106000851060008E3
:1001A00051060008510600085106000851060008D3
:1001B000B16E0008510600085106000851060008FB
:1001C00051060008510600085106000851060008B3
:1001D00051060008510600085106000851060008A3
:1001E0005106000851060008510600085106000893
:1001F0005106000851060008510600085106000883
:100200005106000851060008510600085106000872
:100210005106000851060008510600085106000862
:1002200051060008510600085106000800000000B1
:1002300051060008510600080000000051060008A1
:100240005106000851060008510600085106000832
:100250005106000851060008510600085106000822
:100260005106000851060008510600085106000812
:100270005106000851060008510600080000000061
:100280005106000851060008510600080000000051
:08029000000000005106000807
:1002980010B5054C237833B9044B13B10448AFF3B8
:1002A80000800123237010BD880000240000000096
:1002B800B8EA000808B5034B1BB103490348AFF37C
:1002C800008008BD000000008C000024B8EA000887
:1002D80081F0004102E000BF83F0004330B54FEAEF
:1002E80041044FEA430594EA050F08BF90EA020F5C
:1002F8001FBF54EA000C55EA020C7FEA645C7FEAEF
:10030800655C00F0E2804FEA5454D4EB5555B8BF11
:100318006D420CDD2C4480EA020281EA030382EA82
:10032800000083EA010180EA020281EA0303362D14
:1003380088BF30BD11F0004F4FEA01314FF4801CE7
:100348004CEA113102D0404261EB410113F0004FF9
:100358004FEA03334CEA133302D0524263EB4303B0
:1003680094EA050F00F0A780A4F10104D5F1200E4E
:100378000DDB02FA0EFC22FA05F2801841F10001A9
:1003880003FA0EF2801843FA05F359410EE0A5F17D
:1003980020050EF1200E012A03FA0EFC28BF4CF0AE
:1003A800020C43FA05F3C01851EBE37101F0004564
:1003B80007D54FF0000EDCF1000C7EEB00006EEB71
:1003C8000101B1F5801F1BD3B1F5001F0CD34908FB
:1003D8005FEA30004FEA3C0C04F101044FEA445252
:1003E80012F5800F80F09A80BCF1004F08BF5FEAD9
:1003F800500C50F1000041EB045141EA050130BDB9
:100408005FEA4C0C404141EB0101013C28BFB1F5CA
:10041800801FE9D291F0000F04BF01460020B1FA15
:1004280081F308BF2033A3F10B03B3F120020CDAE8
:100438000C3208DD02F1140CC2F10C0201FA0CF0C6
:1004480021FA02F10CE002F11402D8BFC2F1200C2B
:1004580001FA02F120FA0CFCDCBF41EA0C019040E1
:10046800E41AA2BF01EB0451294330BD6FEA04042A
:100478001F3C1CDA0C340EDC04F11404C4F1200215
:1004880020FA04F001FA02F340EA030021FA04F327
:1004980045EA030130BDC4F10C04C4F1200220FA7E
:1004A80002F001FA04F340EA0300294630BD21FABC
:1004B80004F0294630BD94F0000F83F4801306BF82
:1004C80081F480110134013D4EE77FEA645C18BF76
:1004D8007FEA655C29D094EA050F08BF90EA020F0D
:1004E80005D054EA000C04BF1946104630BD91EA05
:1004F800030F1EBF0021002030BD5FEA545C05D108
:100508004000494128BF41F0004130BD14F5800446
:100518003CBF01F5801130BD01F0004545F0FE41BA
:1005280041F470014FF0000030BD7FEA645C1ABFEF
:10053800194610467FEA655C1CBF0B46024650EA26
:10054800013406BF52EA033591EA030F41F4002152
:1005580030BD00BF90F0000F04BF0021704730B5D8
:100568004FF4806404F132044FF000054FF00001AD
:1005780050E700BF90F0000F04BF0021704730B56E
:100588004FF4806404F1320410F0004548BF404243
:100598004FF000013EE700BF42004FEAE2014FEA98
:1005A80031014FEA02701FBF12F07F4393F07F4F73
:1005B80081F06051704732F07F4208BF704793F076
:1005C8007F4F04BF41F40021704730B54FF4607489
:1005D80001F0004521F000411CE700BF50EA01028C
:1005E80008BF704730B54FF000050AE050EA010235
:1005F80008BF704730B511F0004502D5404261EBA5
:1006080041014FF4806404F132045FEA915C3FF4E5
:10061800D8AE4FF003025FEADC0C18BF03325FEA82
:10062800DC0C18BF033202EBDC02C2F1200300FA33
:1006380003FC20FA02F001FA03FE40EA0E0021FA58
:1006480002F11444BDE600BFFEE700BF0D4B0E4AA1
:10065800934206D00D4951F8040B43F8040B93421A
:10066800F9D10B4B0B4A934204D0002143F8041BE9
:100678009342FBD107F0D0F80DF0A4FE01F0B4FBD3
:10068800FEE700BF0000002488000024D0EA00082C
:1006980088000024D4160024704700BF704700BFAC
:1006A800704700BF704700BF704700BF704700BF6A
:1006B800704700BF704700BF704700BF704700BF5A
:1006C800704700BF704700BF704700BF704700BF4A
:1006D8005D4B5E49F0B5A3F1840585B0284600223C
:1006E80043F8042B8B42FAD10022594C02261346B8
:1006F8002A602E5100220133002440F8042F0A6892
:1007080004649A42F6D8534B5349A3F18406304601
:10071800002243F8042B8B42FAD100224C4C0227CA
:1007280013463260375100220133002440F8042F69
:100738000A6804649A42F6D8484C0820484F8DED60
:10074800010A3D6046F2A815266003F0BDFF034686
:100758009DED010A3846ADF80830029903F062F9B8
:10076800092003F0B1FF034620463E4CADF80C309B
:1007780003999DED010A03F055F93B4A45F6C0502F
:1007880004F1180339492561A050002243F8042BCD
:100798008B42FAD1364846F2A811334D45F6C05679
:1007A8000161002146510435324E00F118036155AC
:1007B800E160314D6161A1552A60C4E901112F49F9
:1007C800002243F8042B8B42FAD12D490023DFED98
:1007D8002D6AD1ED017A9FED2C6A36EEE77A2B4D22
:1007E80067EE867A234E4355B0EEC77A284DC3602C
:1007F8004361B4EEE77A83550C602A60F1EE10FA93
:10080800C0E90133234B186004DD234DC1ED016AB3
:1008180022602561D3ED017ADFED1A6A9FED1A6A2D
:1008280036EEE77A67EE867AB0EEC77AB4EEE77A04
:10083800F1EE10FA05DD0021174AC3ED016A0160E7
:10084800026105B0F0BD00BF5CB7B2C05C2F1CC12F
:1008580084786900D43E49C0D4B6B2C0A808002440
:1008680080070024289F24C0189F2400403E49C0C8
:10087800000000C0249F2400483E49C0189F24C09F
:10088800D809002400409C470AD7A33B1C9F24009A
:10089800209F24C0E00900248038010010B50222FE
:1008A8000721764805F0AAFC7549764B0A68764810
:1008B8000132007883FB0243D417C4EB631303EBC4
:1008C8004303A2EB8313714A0B6080BB11780029A4
:1008D80038D06F4C6F491070207081ED000A6E4956
:1008E800F7EE006AF6EE005A6C4A91ED007AB0EE27
:1008F800006AD2ED007A36EEC77A37EE657AE7EE0F
:10090800067AF5EEC07AF1EE10FA00F1B180F4EE55
:10091800667AF1EE10FA76FEA77A93B9604BB0EEDC
:10092800670A60481978BDE8104003F051BA137897
:10093800002B3CD101245C485C491470037081EDA4
:10094800000A10BD524A117879B952499FED587A78
:10095800D1ED007A70EE677AF0EEE77AF4EEC77AB6
:10096800F1EE10FABBDD012111704B4AB7EE007AA7
:10097800B6EE006AD2ED007AF0EE006A77EE677A9A
:1009880077EEC67AB0EE406AA7EEA66AB5EEC06A00
:10099800F0EE467AF1EE10FA6DD4F4EE477AF1EE05
:1009A80010FA77FE277A3D4A82ED000AB5E73E4BFA
:1009B8001A787AB93D4A9FED3E7AD2ED007A70EE08
:1009C800677AF0EEE77AF4EEC77AF1EE10FAB8DD5E
:1009D80001221A7001209FED371ADFED370A02F065
:1009E8001BFF364BDFED326AD3ED017A30EE677AC2
:1009F80067EEA67AB0EEC77AB4EEE77AF1EE10FAAF
:100A08000DDDFCEEC07A2E4C1968002083ED010A3A
:100A180017EE902A0860A24228BF22460A61294B95
:100A2800DFED236AD3ED017A30EE677A67EEA67AB6
:100A3800B0EEC77AB4EEE77AF1EE10FA0DDDFCEE0F
:100A4800C07A1F4C1968002083ED010A17EE902A1E
:100A58000860A24228BF22460A611B4901221B4B9B
:100A680081ED000ABFF35B8F1A70BFF35B8F10BD77
:100A7800DFED177A51E7DFED167A94E79C0400243E
:100A880024070024ABAAAA2A090A0024280700245C
:100A98002007002414070024D00900241807002484
:100AA8000A0A002480070024210700241C070024C8
:100AB8000AD7A33B0050C34600606A48D8090024FF
:100AC800BF270900E0090024A4000024080A002424
:100AD8000000000010B50622072169482DED028BA1
:100AE80005F08CFB6749684B0A6868480132007852
:100AF80083FB0243D417C4EB631303EB4303A2EB5A
:100B08008313634A0B6090BB117800293CD0614C79
:100B180061491070207081ED000A6049F7EE006AA3
:100B2800F6EE005A5E4A91ED007AB0EE006AD2ED18
:100B3800007A36EEC77A37EE657AE7EE067AF5EE92
:100B4800C07AF1EE10FA00F18C80F4EE667AF1EEDC
:100B580010FA76FEA77AA3B9524BB0EE670A52484C
:100B68001978BDEC028BBDE8104003F031B9137859
:100B7800002B3ED101244D484D491470037081ED7E
:100B8800000ABDEC028B10BD424A117879B942497E
:100B98009FED487AD1ED007A70EE677AF0EEE77A49
:100BA800F4EEC77AF1EE10FAB7DD012111703B4A75
:100BB800B7EE007AB6EE006AD2ED007AF0EE006A7F
:100BC80077EE677A77EEC67AB0EE406AA7EEA66A45
:100BD800B5EEC06AF0EE467AF1EE10FA44D4F4EEBF
:100BE800477AF1EE10FA77FE277A2D4A82ED000A4D
:100BF800B1E72E4B1A787AB92D4A9FED2E7AD2EDAD
:100C0800007A70EE677AF0EEE77AF4EEC77AF1EEE2
:100C180010FAB6DD01221A70F0EE080A00209FEDE6
:100C2800261A02F0F9FDB8FE400AFCEEC07A17EE6B
:100C3800903A013BDBB2022B19D9B7EE008AB0EE2D
:100C4800480A1E4802F0DEFE1D491E4B012281EDB6
:100C5800018ABFF35B8F1A70BFF35B8FBDEC028B09
:100C680010BDDFED157A76E7DFED137ABDE7164A9A
:100C780002EBC30393ED008BB7EEC88BDFE700BF31
:100C88009C0400243C070024ABAAAA2A090A0024D1
:100C9800400700243907002430070024D409002421
:100CA800340700240A0A0024A8080024380700246E
:100CB8002C0700240AD7A33B00000000D000002422
:100CC800A4000024080A002438E4000801220721AF
:100CD800654810B52DED028B05F090FA634B644A18
:100CE8001B78002B3DD11178002947D06148624913
:100CF8001370037081ED000A604AF7EE006AF6EEA1
:100D0800005A5F4B92ED007AB0EE006AD3ED007A9C
:100D180036EEC77A37EE657AE7EE067AF5EEC07AF0
:100D2800F1EE10FA00F19A80F4EE667AF1EE10FA1C
:100D380076FEA77AB0EE670A0020B7EE041ADFED58
:100D4800510A02F069FD504B9FED507AD3ED007ABD
:100D580030EE670ABDEC028BE0EE077AC3ED007A4D
:100D680010BD1378002B3ED101244948494914701D
:100D7800037081ED000ABDEC028B10BD3D4B1A7863
:100D88007AB93D4A9FED447AD2ED007A70EE677ADF
:100D9800F0EEE77AF4EEC77AF1EE10FAACDD012254
:100DA8001A70364BB7EE007AB6EE006AD3ED007AC9
:100DB800F0EE006A77EE677A77EEC67AB0EE406AB0
:100DC800A7EEA66AB5EEC06AF0EE467AF1EE10FA22
:100DD80047D4F4EE477AF1EE10FA77FE277A284BDB
:100DE80083ED000AA6E72A4B1A787AB9294A9FEDBB
:100DF8002A7AD2ED007A70EE677AF0EEE77AF4EEAE
:100E0800C77AF1EE10FAB6DD01221A709FED231AA7
:100E18000120DFED230A02F0FFFCB0EE408A2148F2
:100E28000CF022FB2048B0EE480A0CF01DFBB0EE97
:100E3800480A1E480CF018FBB0EE480A1C480CF093
:100E480013FB1C491C4B012281ED048ABFF35B8F05
:100E58001A70BFF35B8FBDEC028B10BDDFED097A12
:100E680068E7DFED087ABAE79C040024090A002441
:100E78000207002401070024F8060024F0090024D2
:100E8800FC06002400000000EC0900246F12033D5A
:100E980000070024F40600240AD7A33B00004844B6
:100EA8000000C842E804002434050024CC020024D1
:100EB80020030024A4000024080A00240422072197
:100EC800654810B52DED028B05F098F9634B644A1F
:100ED8001B78002B3DD11178002947D06148624921
:100EE8001370037081ED000A604AF7EE006AF6EEAF
:100EF800005A5F4B92ED007AB0EE006AD3ED007AAB
:100F080036EEC77A37EE657AE7EE067AF5EEC07AFE
:100F1800F1EE10FA00F19A80F4EE667AF1EE10FA2A
:100F280076FEA77AB0EE670A0020B7EE041ADFED66
:100F3800510A02F071FC504B9FED507AD3ED007AC4
:100F480030EE670ABDEC028BE0EE077AC3ED007A5B
:100F580010BD1378002B3ED101244948494914702B
:100F6800037081ED000ABDEC028B10BD3D4B1A7871
:100F78007AB93D4A9FED447AD2ED007A70EE677AED
:100F8800F0EEE77AF4EEC77AF1EE10FAACDD012262
:100F98001A70364BB7EE007AB6EE006AD3ED007AD7
:100FA800F0EE006A77EE677A77EEC67AB0EE406ABE
:100FB800A7EEA66AB5EEC06AF0EE467AF1EE10FA30
:100FC80047D4F4EE477AF1EE10FA77FE277A284BE9
:100FD80083ED000AA6E72A4B1A787AB9294A9FEDC9
:100FE8002A7AD2ED007A70EE677AF0EEE77AF4EEBC
:100FF800C77AF1EE10FAB6DD01221A709FED231AB6
:101008000120DFED230A02F007FCB0EE408A2148F8
:101018000CF02AFA2048B0EE480A0CF025FAB0EE97
:10102800480A1E480CF020FAB0EE480A1C480CF09A
:101038001BFA1C491C4B012281ED058ABFF35B8F0B
:101048001A70BFF35B8FBDEC028B10BDDFED097A20
:1010580068E7DFED087ABAE79C040024090A00244F
:10106800120700241107002408070024F8090024A7
:101078000C07002400000000F40900246F12033D4F
:1010880010070024040700240AD7A33B00803B462E
:101098000080BB4480050024CC0500247403002490
:1010A800C8030024A4000024080A0024000000004B
:1010B80005220721824810B52DED028B05F09EF818
:1010C800804B814A1B78B3BB1178002940D07F48F8
:1010D8007F491370037081ED000A7E4AF7EE006ABB
:1010E800F6EE005A7C4B92ED007AB0EE006AD3ED32
:1010F800007A36EEC77A37EE657AE7EE067AF5EECD
:10110800C07AF1EE10FA00F1C180F4EEE67AF1EE61
:1011180010FA40F3C680B7EE000A704B9FED707A64
:10112800D3ED007A30EE670ABDEC028BE0EE077A69
:10113800C3ED007A10BD1378002B58D101246948FB
:1011480069491470037081ED000ABDEC028B10BD73
:101158005E4B1A787AB95E4A9FED647AD2ED007ACE
:1011680070EE677AF0EEE77AF4EEC77AF1EE10FAED
:10117800B3DD01221A70574BB7EE007AB6EE006A5B
:10118800D3ED007AF0EE006A77EE677A77EEC67AEA
:10119800B0EE406AA7EEA66AB5EEC06AF0EE467AEF
:1011A800F1EE10FA75D4F4EEC77AF1EE10FA75DDA7
:1011B800F0EE477AB7EE006B474B83ED000A9FEDE0
:1011C8003A5BB4EEC56BF1EE10FAA4DA9FED385B2A
:1011D800B4EEC56BF1EE10FA58D9B0EE670A0020EC
:1011E800B7EE001ADFED420A02F016FB95E73D4B19
:1011F8001A787AB93C4A9FED3D7AD2ED007A70EEC2
:10120800677AF0EEE77AF4EEC77AF1EE10FA9CDD31
:1012180001221A70B6EE001ADFED350A002002F03E
:10122800FBFAB0EE408A33480CF082F93248B0EE4F
:10123800480A0CF07DF9B0EE480A30480CF078F90D
:10124800B0EE480A2E480CF073F9B0EE480A2D4863
:101258000CF06EF9B0EE480A2B480CF069F9B0EEC4
:10126800480A2A480CF064F9B0EE480A28480CF0FD
:101278005FF92849284B012281ED068ABFF35B8F6D
:101288001A70BFF35B8FBDEC028B10BD9FED180A7F
:1012980043E79FED096BDFED167A8DE7B7EEE76A56
:1012A8008AE7B7EEE76A8AE75C8FC2F5285CEF3F0A
:1012B8007B14AE47E17A943F000000000000000074
:1012C8009C040024090A0024E4060024DC06002407
:1012D800D4060024E8090024D806002404000024C9
:1012E8006F12833CD0060024E00600240AD7A33BF3
:1012F8000000000080050024CC050024E804002438
:101308003405002474030024C8030024CC020024FC
:1013180020030024A4000024080A002407226348AC
:10132800114610B52DED028B04F068FF604BB0EE4E
:10133800408A604A1B78002B3ED11178002948D09A
:101348005D485E491370037081ED000A5C4AB7EE90
:10135800007AB6EE006A5B4BD2ED007AF0EE006AD6
:1013680093ED000A77EE677A77EEC67AA7EEA60ABB
:10137800B5EEC00AF1EE10FA00F19180B4EE470A1A
:10138800F1EE10FA37FE000AF6EE000A00209FED93
:101398004E1A02F041FA4D4B9FED4D7AD3ED007A8B
:1013A8004C4A30EE670ABDEC028BE0EE077AC3EDDB
:1013B800007AC2ED007A10BD1378002B43D10124C6
:1013C800454846491470037081ED000ABDEC028B54
:1013D80010BD394B1A787AB9384A9FED417AD2ED67
:1013E800007A70EE677AF0EEE77AF4EEC77AF1EEFB
:1013F80010FAABDD01221A70314BB7EE007AB6EE67
:10140800006AD3ED007AF0EE006AB0EE480A77EE93
:10141800677A77EEC67AA7EEA60AB5EEC00AF1EEAD
:1014280010FA3FD4B4EE470AF1EE10FA37FE000A7C
:10143800F6EE000A00209FED241A02F0EDF9214B88
:1014480083ED008AA7E7244B1A787AB9234A9FEDDF
:10145800247AD2ED007A70EE677AF0EEE77AF4EE4D
:10146800C77AF1EE10FAB1DD01221A70B0EE480A1F
:1014780000209FED1C1ADFED140A02F0CDF91A487E
:1014880001221A491A4B80ED000A81ED020ABFF3C6
:101498005B8F1A70BFF35B8FBDEC028B10BD9FEDA5
:1014A8000A0A71E79FED080AC2E700BF9C040024FE
:1014B800090A0024CA060024C8060024CC06002411
:1014C800540A0024C006002400000000080000247C
:1014D8006F12033D14040024C9060024C406002426
:1014E8000AD7A33B0000FA437C010024A40000248F
:1014F800080A002400220721454810B52DED028B6B
:1015080004F07CFE434BB0EE408A434A1B78FBB99B
:10151800117849B3414842491370037081ED000ABC
:10152800404BB7EE001A0020DFED3F0A93ED000AAA
:1015380002F072F93D4B9FED3E7AD3ED007A30EE22
:10154800670ABDEC028BE0EE077AC3ED007A10BDA6
:1015580013784BBB0124374837491470037081ED69
:10156800000ABDEC028B10BD2C4B1A787AB92C4AB4
:101578009FED327AD2ED007A70EE677AF0EEE77A74
:10158800F4EEC77AF1EE10FACADD01221A70B7EE4E
:10159800001A0020B0EE480ADFED230A02F03CF9F9
:1015A800204B83ED008AC5E7224B1A787AB9224A84
:1015B8009FED227AD2ED007A70EE677AF0EEE77A44
:1015C800F4EEC77AF1EE10FACBDD01221A701C4C4A
:1015D800B0EE480AB2EE041A0020DFED1A0A02F053
:1015E8001BF92046B0EE408A84ED020A0CF0E2F9BD
:1015F8001549164B012281ED038A84ED060ABFF3D3
:101608005B8F1A70BFF35B8FBDEC028B10BD00BF00
:101618009C040024090A00246907002468070024A0
:101628006007002464070024000000007C070024F1
:101638006F12033D5C070024580700240AD7A33B18
:10164800C0040024CDCCCC3DA4000024080A00240A
:1016580003220721464810B52DED028B04F0CEFD7C
:10166800444BB0EE408A444A1B78FBB9117849B321
:10167800424843491370037081ED000A414BB7EEAD
:10168800001A0120DFED400A93ED000A02F0C4F8C9
:101698003E4B9FED3F7AD3ED007A30EE670ABDEC02
:1016A800028BE0EE077AC3ED007A10BD13784BBBCE
:1016B8000124384838491470037081ED000ABDECE4
:1016C800028B10BD2D4B1A787AB92D4A9FED337ACB
:1016D800D2ED007A70EE677AF0EEE77AF4EEC77A28
:1016E800F1EE10FACADD01221A70B7EE001A0120D5
:1016F800B0EE480ADFED240A02F08EF8214B83EDA4
:10170800008AC5E7234B1A787AB9234A9FED237AD2
:10171800D2ED007A70EE677AF0EEE77AF4EEC77AE7
:10172800F1EE10FACBDD01221A70DFED1D7AB4EE6E
:10173800E78AF1EE10FA0FD51A4B00221A701A49EF
:1017480001221A4B81ED078ABFF35B8F1A70BFF332
:101758005B8FBDEC028B10BDDFED157AB4EEE78A26
:10176800F1EE10FAEBDD0F4B01221A70E7E700BF2C
:101778009C040024090A002452070024510700246D
:10178800480700244C07002400000000FC0900243E
:101798006F12033D50070024440700240AD7A33BD7
:1017A8006666E63E84010024A4000024080A00249A
:1017B800CDCC0C3F08B50621064804F00FFD0020EB
:1017C8009FED051ADFED050A02F026F8044B83EDBC
:1017D800000A08BD9C04002400004843000048C3D8
:1017E800000A002438B5154A154C164D164B94EDD1
:1017F800007AD5ED007A92ED006AD3ED006A36EEF4
:10180800476ADFED125A76EEE76A1148A6EE257AA6
:10181800E6EEA57A84ED007AC5ED007A0BF0E8FED5
:1018280095ED007AD4ED007A0A4AE0EE077A0A4B81
:10183800C2ED3E7AC3ED3E7A38BD00BF000A0024EF
:10184800B8060024BC0600247C0100240AD7233CE7
:10185800C004002480070024A808002410B5104CF8
:10186800204604F095F863797F2B00D010BD0D4811
:1018780002F040F80028F9D00A4802F0AFF80A4808
:1018880002F082FB074802F0B7F808490122084B2A
:1018980081ED080ABFF35B8F1A70BFF35B8F10BD31
:1018A80004010024D00000240C0A0024A400002411
:1018B800080A002408B5064802F05EF8054B0448FB
:1018C80083ED480A02F058F8034B83ED480A08BD37
:1018D800D000002480070024A808002410B5054C77
:1018E8000548217802F0A4F921780448BDE81040A1
:1018F80002F09EB90A0A002480070024A8080024E0
:10190800184808B502F04EFB164802F08FFBD0B914
:10191800154B1B68134AB1EE086A07EE903ADFEDE3
:10192800136AD2ED0C5AF8EEE77A114985EE867AF9
:10193800104A114BA7EEA67A81ED477A82ED477AD5
:1019480083ED007A08BD08490C4B0A68013283FB15
:101958000203A3EBE27303EB4303A2EB43030B6025
:10196800D8E700BF0C0A002454070024920A863FD7
:1019780080070024A808002480010024ABAAAA2A12
:101988009FEDDA7AD0ED007AF4EEC77A38B5F1EE49
:1019980010FA0446D64BC0F232819FEDD67AF4EEA7
:1019A800C77AF1EE10FA00F22A8193ED017A9FEDE1
:1019B800D26A77EEC76A27EE067AF0EEE66AF4EEA8
:1019C800C76AF1EE10FA0FDDBCEEE77ACB4D196865
:1019D8000020C3ED017A17EE102A0860D4ED007AD2
:1019E800AA4228BF2A460A61C54B9FEDC36A93EDF8
:1019F800017A77EEC76A27EE067AF0EEE66AF4EE29
:101A0800C76AF1EE10FA00F3D381F7EE007A94ED8D
:101A1800010AB4EEE70AF1EE10FA06DBF0EE087AF6
:101A2800B4EEE70AF1EE10FA01D9B7EE000AB548AC
:101A380001F0E8FFD4ED027AF5EEC07AF1EE10FA83
:101A4800C0F2B381DFEDB06A9FEDB07AF4EEE67ACA
:101A5800F1EE10FA88BFF0EE477A94ED030A9FED95
:101A6800AC7AAC4BB4EEC70AAB4DC3ED007AF1EEDD
:101A780010FA06DBF2EE047AB4EEE70AF1EE10FA99
:101A880001D99FEDA60A284685ED020A0BF092FFC0
:101A9800DFEDA37A85ED060A94ED050AB4EEE70AB0
:101AA800F1EE10FA07DBDFED9F7AB4EEE70AF1EE0C
:101AB80010FA40F267819FED9B0A9B480BF0D4FC1B
:101AC8009FED980A99480BF0CFFC9FED960A98482D
:101AD8000BF0CAFC9FED930A96480BF0C5FC94EDF9
:101AE800040ADFED957AB4EEE70AF1EE10FA07DBA7
:101AF800DFED927AB4EEE70AF1EE10FA40F2E380F5
:101B08009FED8F0A8F480BF0AFFC9FED8D0A8E4832
:101B18000BF0AAFC9FED8A0A8C480BF0A5FC9FED00
:101B2800880A8B480BF0A0FC94ED060AB5EEC00AB3
:101B3800F1EE10FA07DBF6EE007AB4EEE70AF1EE02
:101B480010FA40F299809FED710A79480BF0F0FC89
:101B58009FED6E0A7D480BF0EBFC9FED6C0A754813
:101B68000BF0E6FC9FED690A79480BF0E1FCD4ED37
:101B7800077A9FED787A784BF4EEC77AF1EE10FA8F
:101B880006D49FED767AF4EEC77AF1EE10FA70DC9F
:101B980000221A7094ED080ADFED717AB4EEE70AB4
:101BA800F1EE10FA06DBDFED6F7AB4EEE70AF1EE3C
:101BB80010FA01D99FED6C0A524801F027FF5148ED
:101BC80001F00CFF694802F0DFF9DFED697A94ED66
:101BD800097A6848B4EEE77AF1EE10FA42DD02F0CD
:101BE800A1FADFED637A94ED0A7A6348B4EEE77AF6
:101BF800F1EE10FA39DDBDE8384002F093BAD3EDC2
:101C0800017ADFED5E6A9FED3C6A36EEE77A67EEB1
:101C1800867AB0EEC77AB4EEE77AF1EE10FA06DD0E
:101C28001A6800215648C3ED016A10611160344BEF
:101C3800DFED526AD3ED017A9FED2F6A36EEE77A2F
:101C480067EE867AB0EEC77AB4EEE77AF1EE10FA6C
:101C58007FF7DBAE1A6800214948C3ED016A1061BD
:101C68001160D2E602F066FABBE7BDE8384002F040
:101C780061BA01221A708DE72B480BF059FC94EDDC
:101C8800060A30480BF054FC94ED060A27480BF07E
:101C98004FFC94ED060A2C480BF04AFC94ED060A1A
:101CA80023480BF045FC94ED060A28480BF040FC4D
:101CB80094ED060A1F480BF03BFC94ED060A2448F5
:101CC8000BF036FC53E71F480BF0CEFB94ED040AEB
:101CD8001D480BF0C9FB94ED040A1C480BF0C4FB2B
:101CE80094ED040A1A480BF0BFFB1DE70050C346E9
:101CF800D809002400606A480AD7A33BBF27090017
:101D0800E0090024D00000240000FA43000000008D
:101D1800CDCCCC3D7C010024C00400249A99A1407C
:101D28000080BB4400803B4680050024CC0500248D
:101D380074030024C80300240000C842000048447B
:101D480000004843E804002434050024CC020024A1
:101D5800200300246666E63E84010024CDCC0C3FB7
:101D680000409C46001BB74A0024F4480C0A002493
:101D780048E1FA3E88010024BC01002400650148BE
:101D88009405020012480BF06FFB94ED050A114808
:101D98000BF06AFB94ED050A0F480BF065FB94ED18
:101DA800050A0E480BF060FB99E6DFED0D7A54E664
:101DB800BCEEE77A0B4D19680020C3ED017A17EEE7
:101DC800102A0860AA4228BF2A460A611DE600BFF9
:101DD80080050024CC05002474030024C8030024D3
:101DE80000000000BF27090080B5CF48D4B002F03A
:101DF8004BFC0021CC48B2EE0E8A02F0D7FC1D2025
:101E080002F062FC034606200224ADF8083002F016
:101E18005BFC0346C4484FF00108F7EE008AADF8B2
:101E28000C3002F06BFC012380EE080ABF48C04F5B
:101E3800C04DC14EDDE9021202F0FCF81E2002F08E
:101E480043FC03460720ADF8103002F03DFC034682
:101E5800B548ADF8143002F051FC012380EE080AB1
:101E6800B648DDE9041202F0E5F80A2002F02CFC7D
:101E780003460220ADF8183002F026FC0346AA48B3
:101E8800ADF81C3002F03AFC002380EE080AAC489A
:101E9800DDE9061202F0CEF80B2002F015FC03462D
:101EA8000320ADF8203002F00FFC03469E48ADF841
:101EB800243002F023FC002380EE080AA148DDE963
:101EC800081202F0B7F8182002F0FEFB03460420BF
:101ED800ADF8283002F0F8FB03469348ADF82C30F3
:101EE80002F00CFC234680EE080A9748DDE90A1246
:101EF80002F0A0F8002002F0E7FB03468A48ADF89C
:101F0800303002F0FBFB012380EE080A0C991A46D8
:101F18008E48009403F0ECFC012002F0D5FB034648
:101F28008148ADF8343002F0E9FB424680EE080AF9
:101F38000D994346864800944FF07C5403F0D8FC32
:101F4800172002F0C1FB03467748ADF8383002F09D
:101F5800D5FB0E9980EE080A7E4803F0FDFC0520AB
:101F680002F0B2FB03467048ADF83C3002F0C6FB05
:101F78000F99794803F0F0FC6B4802F0BFFB384634
:101F88000BF08EF86848C7ED008ABC607C61FD6084
:101F980002F0B4FB714F30460BF082F86248C6ED90
:101FA800008AB460F560746102F0A8FB6C4E384694
:101FB8000BF076F85C48C7ED008ABD60FD607D6176
:101FC80002F09CFB30469FED678A0BF069F8664982
:101FD800664A674B0C6014601C6081F8048082F8C4
:101FE800048083F804805048C6ED008AB560F56027
:101FF800756102F083FBFEF76BFB4B4802F07EFB3A
:102008005C480BF0ABF9B0EE480A5A480BF090FA6E
:102018009FED590A57480BF027FA9FED580A554883
:102028000BF0CCFA404802F069FB55480BF096F9E2
:10203800B0EE480A52480BF07BFA9FED4F0A504821
:102048000BF012FA9FED4D0A4D480BF0B7FA3648DF
:1020580002F054FB4B480BF081F9B0EE480A4948AE
:102068000BF066FA9FED480A46480BF0FDF99FED24
:10207800430A44480BF0A2FA2B4802F03FFB4348BE
:102088000BF06CF9B0EE480A40480BF051FA9FED9E
:102098003E0A3E480BF0E8F99FED380A3B480BF042
:1020A8008DFA214802F02AFB39480BF057F9B0EEB7
:1020B800480A37480BF03CFA9FED2F0A34480BF0DA
:1020C800D3F99FED2E0A32480BF078FA164802F041
:1020D80015FB30480BF042F9B0EE480A2D480BF0DA
:1020E80027FA9FED250A2B480BF0BEF99FED230A2E
:1020F80028480BF063FA0C4802F000FB26480BF066
:102108002DF9B0EE480A24480BF012FA9FED1E0A8A
:1021180021480BF0A9F99FED190A1F480BF04EFA58
:10212800014802F0EBFA39E0840400244801002455
:10213800540200240AD7233C8C02002414010024F2
:1021480088010024BC01002420020024F00100249E
:102158000002002410020024040100245006002478
:102168001806002400000000440400244C04002445
:10217800140400248005002400803B463333333F99
:10218800CC050024E804002400004843340500245A
:1021980074030024C8030024CC0200249E480BF0DA
:1021A800DDF8B0EE480A9C480BF0C2F99FED9B0A97
:1021B80099480BF059F99FED9A0A97480BF0FEF9E8
:1021C800984802F09BFA98480BF000FC954802F0FA
:1021D80095FA96480BF0FAFB924802F08FFAF0EE67
:1021E800407A934F9FED930A88EEA77A38467C6031
:1021F800C7ED037A87ED058A87ED020A8E4C8F4D6D
:102208008F4E87ED047A0BF0D5FB40F20113F0EE08
:10221800407A384687F80080BB84B0EE680AC7ED7C
:10222800067AC7ED028A0BF0C5FBF0EE407A854AC4
:1022380044F62061B7EE040A8348C7ED018AC7ED6A
:10224800067A01F041FB18201CAF02F03DFA034664
:102258007448ADF8403002F051FA10997B4801F00B
:1022680049FE794801F0BAFB784801F08DFE7748BD
:1022780001F094FE1CA801F0C7FF1CA8FFF780FB23
:10228800DFF8D4C10FCFACE80F000FCFACE80F00D8
:1022980097E807008CE807000F2002F015FA0346BC
:1022A80032A8ADF84430119903F098FB102002F0E1
:1022B8000BFA03460DF1D900ADF84830129903F036
:1022C8008DFB112002F000FA03460DF1EA00ADF88B
:1022D8004C30139903F082FB122002F0F5F9034603
:1022E8000DF1FB00ADF85030149903F077FB132083
:1022F80002F0EAF9034643A8ADF85430159903F003
:102308006DFB142002F0E0F903460DF21D10ADF844
:102318005830169903F062FB162002F0D5F90346EF
:102328000DF59770ADF85C30179903F057FB19203D
:1023380002F0CAF903460E20ADF8603002F0C4F985
:1023480003460D20ADF8643002F0BEF903460C20B8
:10235800ADF8683002F0B8F9BDF868100822199B8A
:10236800ADF80010ADF804001899ADF86C000DF246
:102378003F1003F041FB32A906230822344803F03A
:1023880075FB334803F014FF4146264802F0BAF9BA
:102398003049244802F0AEF9BFF35B8F237800215F
:1023A8000122BFF35B8F4BB1BFF35B8F2170BFF38B
:1023B8005B8F2A7005F0A8F83060EDE72B78012BC9
:1023C8000BD0022BE8D105F09FF833680022C01A21
:1023D800B0F5966FE0D92A70DEE705F095F8336816
:1023E800C01AB0F57A7F01D82B78EAE7DFF868C021
:1023F80027AF4FF0020EBCE80F000FC7BCE80F0074
:102408000FC79CE8070087E8070027A885F800E0C1
:1024180001F0B0FEE8E700BF2003002400004843B5
:102428003333333F840400241C040024280400248C
:10243800C00400240000C842080A0024050A002439
:102448006C070024808D5B00D00000240C0A002457
:102458009C040024BD270008A400002408B59FEDB3
:102468001E0A1E4801F0E0FD9FED1B0A1C4801F002
:10247800DBFD1C489FED180A01F0D6FD1A4801F053
:1024880063FEC8B918489FED140A01F06FFE17489B
:1024980001F05AFED0B99FED100A144801F066FE0B
:1024A8009FED0D0A124801F061FE9FED0B0A1148DD
:1024B800BDE8084001F05ABE0B48B7EE000A01F02B
:1024C80055FE0A4801F040FE0028E4D0B7EE000AA5
:1024D800064801F04BFEE3E7000000000C0A002468
:1024E80084070024AC08002488010024BC010024CF
:1024F800480100241401002470B5994801F0D6FD64
:10250800984801F0D3FD984801F0D0FD974C9848C1
:1025180001F0CCFD974801F0C9FD204603F038FAD8
:10252800954803F035FA954803F032FA944803F0D9
:102538002FFA63797F2B00F0DC808F4B5B797F2B40
:1025480000F0BE8086488F4C01F000FED0B12368B1
:102558000133032B236000F0E580814801F0F4FD8E
:10256800F7EE007A9FED887A002888494FF001023B
:10257800874B47FE277AC1ED097ABFF35B8F1A7044
:10258800BFF35B8F764801F0E9FD10B12368013B8A
:102598002360744801F0DAFDD0B123680133032BBE
:1025A800236000F0C4806F4801F0CEFDF7EE007A9A
:1025B8009FED757A002875494FF00102744B47FE6C
:1025C800277AC1ED0A7ABFF35B8F1A70BFF35B8F6E
:1025D800644801F0C3FD10B12368013B23606548DE
:1025E80001F0B4FD002855D1624801F0B7FD38B1BB
:1025F800236800226748013B6749027023600A701C
:102608005C4801F0A1FD60B92368032B16D05B4B31
:10261800624A5B79A3F1FF03B3FA83F35B09137092
:1026280070BD04F071FF5E4B1B68C01A3228EBD9ED
:10263800584B01221A702368032BE8D1594E04F035
:1026480063FF40F6B8333268801A9842DFD94448AD
:1026580001F01AFD434801F017FD534DFFF7FEFE48
:102668004C4B00225048494C1A70FFF789F90FCD9E
:102678000FC40FCD0FC495E8070084E8070004F0E5
:1026880043FF434B01223060BFF35B8F1A70BFF3E7
:102698005B8FBCE7454801F02DF900284CD1444830
:1026A80001F07CFC04F030FF23683D4A01331060E0
:1026B800032B236098D104F027FF3A4B186093E767
:1026C800284801F0E1FC274801F03EFDF7EE007ACA
:1026D8009FED2D7A00282D494FF001022C4B47FE23
:1026E800277AC1ED0A7ABFF35B8F1A70BFF35B8F4D
:1026F80028E71B4801F0C8FC194801F025FDF7EE52
:10270800007A9FED217A002820494FF00102204BE2
:1027180047FE277AC1ED097ABFF35B8F1A70BFF3C2
:102728005B8F0AE704F0F0FE1E4B186015E704F013
:10273800EBFE1C4B186036E71C4801F04FF91C48AB
:1027480001F022FC194801F057F910490122104BF9
:1027580081ED080ABFF35B8F1A70BFF35B8F9EE7AA
:1027680088010024BC01002448010024F001002451
:102778001401002420020024000200241002002476
:1027880004010024E806002400000000A40000243E
:10279800080A0024090A0024040A00240A0A00245A
:1027A800F0060024EC06002450E40008D0000024C1
:1027B8000C0A0024DFF890C0204B2DE9F04FDCF81C
:1027C8000040154606460F46013483FB0432E317E2
:1027D8002244C3EBE203C3EB0313E31A2DED0E8B84
:1027E800CCF8003093B00E2B17D8DFE813F09C0517
:1027F8000F00A605AF05F105FA0503060C06150638
:102808001E062706300639064206930500210C48A5
:1028180003F0E4FC0B4B83ED000A002D00F05C850F
:102828000023013DDFF82480B346029325F001031D
:10283800DFF81C900097059362E100BF89888888BB
:102848009C040024D009002478070024880600246A
:10285800A0060024B8EE007AF4EE477AF1EE10FAFA
:1028680048BFF0EE477AB0EE007A9DED090ACDED4B
:10287800087AB4EEC70AF1EE10FA00F36C84B8EEE9
:10288800007ADC4B1B78B4EE470AF1EE10FA48BF29
:10289800B0EE470A8DED090A002B00F06584D64B8F
:1028A800D8ED042AD3ED004AD44B98ED006A93ED95
:1028B800007AD34BF4EEC74AD9ED043A99ED054AAC
:1028C80099ED032AF1EE10FA98ED053A98ED031AFE
:1028D800DFEDCC1A58BF74EEC74A93ED007ACA4BA5
:1028E800D3ED006A67EEA44AD9ED007AB4EEE67A31
:1028F800C64BF1EE10FA58BF37EE667AF7EE006A6B
:1029080020EE070A36EEE25A76EEE35A36EEC37A3E
:1029180025EE065A93ED006A65EEA75A76EEC47A5C
:10292800A4EEA25AE0EE235A67EE827A27EE017AE5
:1029380076EEC66A34EEC52A88ED005A70EE652A2E
:10294800C9ED005A66EE005AF0EEC23A88ED022A46
:10295800B0EEE25AC9ED022A26EE246AA3EE837A83
:10296800C8ED013AE5EE047A89ED015AE6EEA45A7B
:10297800A6EE806AB4EEE17A88ED037AC9ED037AAF
:10298800F1EE10FAC0F2E48337EE617AF0EE086AED
:1029980027EE267ADFED9B6A984BF4EEE67A83ED14
:1029A800007AF1EE10FAC0F2D08377EEE67AB0EE54
:1029B800087A67EE877A944B38EEA50A38EE068ACD
:1029C800C3ED007AF0EE007AB4EEE70AF1EE10FA01
:1029D80000F35D84F8EE007AB4EE670AF1EE10FABF
:1029E80048BFB0EE670AF0EE007AB4EEE78AF1EE7F
:1029F80010FA00F34884F8EE007AB4EE678AF1EE34
:102A080010FA48BFB0EE678A81480AF0E7FF11A9BB
:102A180080488DED110A01F017F97F48B0EE480A99
:102A28000AF0DCFF11A97D488DED110A01F00CF9BF
:102A380009AA08A97A480AF029FC08AA09A9784825
:102A48008DED0A0A0AF022FCB0EE007ADDED0A7A72
:102A5800F4EEC77AF1EE10FA00F31D84B8EE007AAE
:102A6800F4EE477AF1EE10FA48BFF0EE477AB0EE8E
:102A7800007ACDED0A7AB4EEC70AF1EE10FA00F347
:102A8800CB82B8EE007A5B4B1B78B4EE470AF1EEC6
:102A980010FA48BFB0EE470A8DED0B0A002B40F044
:102AA800C482604BF6EE006A93ED007AB4EEE67AE3
:102AB800F1EE10FA40F1878237EE077A9BED006A53
:102AC800DBED016AA7EE276AE7EE006AF0EE467AC8
:102AD800B0EE660A544B1B78002B00F06E82002380
:102AE800009A13605360009B0BF1080B029A05993A
:102AF80008338A42009302F1020300F0ED83029347
:102B0800FEF7ACFEDFF890A1FEF76CFE474801F037
:102B18001BFB01464648F7EE00AA0AF0DFFA4548D3
:102B2800F0EE40BA01F010FB014643480AF0D6FA2D
:102B38004248B0EE409A01F007FB014640480AF0CF
:102B4800CDFA4048B0EE408A01F0FEFA01463E4810
:102B58000AF0C4FA3D483E4BF0EE407AC0ED00BAA8
:102B6800F6EE028A3B481D6880ED009A3A4805EB6C
:102B78000A039FED3AAA80ED008A394893ED00BA1E
:102B880080ED008A37482BEE0A0A04933AEECBCA46
:102B980080ED008A344B35481B6880ED008A344844
:102BA800DFED349AC0ED007A33489FED349AC0EDDA
:102BB800007A3348D5E90267C0ED007A05EB870251
:102BC800304805EB8601D2ED06DA2F4AC0ED007ACF
:102BD80013602E4A91ED06EA13602D4A13602D4AC0
:102BE80013600BF091F9F0EE40BA2BEE290A0BF0C6
:102BF8008BF953E084010024EC09002470070024B9
:102C0800F4090024CDCCCC3E740700247C070024B2
:102C18001C0400248007002428040024A808002499
:102C28001404002404000024040A00248801002459
:102C380054020024BC0100248C0200241401002446
:102C480018060024480100245006002444040024E7
:102C5800D80900244C040024C4020024DB0FC93F17
:102C68001803002454040024FC0900245C040024F4
:102C78006C030024E4CB9640C00300240000803D90
:102C8800640400246C040024340400243C0400245C
:102C9800740400247C040024209F2400B0EE408AA1
:102CA8002CEE0A0A0BF030F928EE098AABEEA88A56
:102CB800F0EE40BA2CEE290A0BF026F960EE097AFC
:102CC800C94BEBEEA87A1C6838EE088A04EB0A01B7
:102CD800D4E9022391ED00CA77EEA77A04EB8202C9
:102CE80004EB83037AEECCAA2CEE0A0A92ED06DAFC
:102CF80067EE8E7AD3ED06CA0391EDEE887ACDEDB4
:102D0800067A0BF001F9F0EE40BA2CEE290A0BF026
:102D1800FBF8B0EE408A2AEE8A0A0BF0F5F8F0EEDE
:102D2800407A2AEEA90A28EE098AF0EE679A0BF093
:102D3800EBF8AE4860EE097AAD4BABEEA88A0644D4
:102D4800D5F804E0E9EEA87A3844A3FB06C1DFF819
:102D5800C4C205EB8E0A890C38EE088A0CFB116197
:102D6800A44E37EEA70ADBED007A01917644A3FB67
:102D7800001EA3FB061301994FEA9E4E20EE0D0A92
:102D88009B0C0CFB1E00ACEE880A0CFB1363D5E908
:102D98000472CAED067A3A44DFF864A2013255F8A3
:102DA8000AE007F1FF3A8DED070AC5E90210B2FB08
:102DB800F7F1AAEB0E0A07FB11226B6052456A6114
:102DC80040F2DA808C49685C6A18002840F0DA80A2
:102DD8008A480127013B2E5C28446F54002E40F09E
:102DE8007782EB6007EE90EAB7EE007AF8EE676A52
:102DF800C7EE267A37EE8BBAB4EEC7BAF1EE10FA00
:102E080040F3D780049B002183ED007A01231170E1
:102E1800037021690BF104036069656808EE103AD4
:102E28000844744F04EB850E704B421C2F4401F18B
:102E3800FF3CDBED017AD4E9020500EB030A1D44EF
:102E480003F1E043B2FBF1F001FB10206C49A3F55C
:102E580040136158A3F63A23CEED067A0191A3FBFD
:102E68000762DFF8B0E1A3FB0A61A3FB0563019EDB
:102E7800920C6061890CACEB060C9B0C0EFB127279
:102E88000EFB11A160450EFB1353C4E90121E36059
:102E980051D95949605C6318002851D15748012716
:102EA800013A255C20446754002D40F01382E2600B
:102EB800DDED017AB7EE007A039AB8EE676AD2EDD3
:102EC800006AC7EE067A77EEA67AF4EEC77AF1EED4
:102ED80010FA40F31282039A002182ED007A01224F
:102EE8001970027006AA594646480AF0CFF918EE3A
:102EF800101A07AA4448F0EE408A0AF0C7F9434876
:102F0800B0EE408A00F00AFE034641481B68089369
:102F180000F004FE03680993FEF7F2FCB0EE007AB5
:102F2800DDED087AF4EEC77AF1EE10FA7FF792AC8D
:102F3800F0EE477A97E4304BE25C2344002AD1D084
:102F48002E4AA018A25C002AB2D0DDED017AB7EEB5
:102F5800006A03990022F8EE676AD1ED007A86EEDE
:102F6800267A77EEC77AF5EEC07AF1EE10FA00F11C
:102F7800B881C1ED007AB5E71F4AAB5C2A44002B43
:102F88003FF447AF1D4BE818EB5C002B3FF42AAF2A
:102F980007EE90EAF7EE006A0023B8EE677AC6EE0D
:102FA800877A3BEE67BAB5EEC0BAF1EE10FA00F1D7
:102FB8009E81049B83ED00BA2BE7009BC3ED007A4A
:102FC80083ED010A8FE540F36A81F7EE006ADBEDD5
:102FD800005A9BED016A36EEC77A37EE077AE7EEBC
:102FE800257AA7EE060A75E5E0090024BF2709003F
:102FF800851DD96FC1270900249F24001C9F240028
:10300800189F2400440400244C0400248007002452
:10301800A8080024C0270900D14BB0EE470A1B7846
:103028008DED0B0A002B3FF43CAD9FEDCE8ACE4DC3
:1030380027EE880ACD4C28460AF0B6F99DED0B0A12
:10304800204620EE080A0AF0AFF9F2EE046A95ED80
:103058000C7A0AA9D4ED0C7A0CAA27EE267AC44871
:1030680067EEA67A8DED0C7ACDED0D7A0AF00EF9A1
:103078000BA90DAABF488DED0E0A0AF007F9F0EE6C
:10308800006A9DED0E7AF0EE407AB4EEE67AF1EE43
:1030980010FA00F30D81F8EE006AB4EEE67AF1EE6C
:1030A80010FA00F12D8127EE080AF0EE006A8DED86
:1030B8000E7AF4EEE67AF1EE10FA00F30681B8EE35
:1030C800007AF4EE477AF1EE10FA48BFF0EE477A4C
:1030D800A94DAA4C2846CDED0F7A0AF065F9DFED27
:1030E800A17A9DED0F0A204620EE270A0AF05CF926
:1030F800F2EE046A95ED0D7A0EA9D4ED0D7A10AAB8
:1031080027EE267A9E4867EEA67A8DED107ACDEDE9
:10311800117A0AF0BBF80FA911AA9A488DED0E0A88
:103128000AF0B4F80EAA0AA997488DED0F0A0AF01A
:10313800ADF80FAA0BA995488DED0A0A0AF0A6F872
:10314800DDED0A7A8DED0B0AABE4DFED917A32E41E
:103158009FED8F7A1EE4824BB0EE470A1B788DED07
:10316800090A002B7FF49BAB9FED7E9A894D27EED1
:10317800890A894C28460AF017F99DED090A204664
:1031880020EE090A0AF010F9F2EE046A95ED0C7ABD
:103198000CAAD4ED0C7A08A927EE267A7F4867EEA8
:1031A800A67A8DED0C7ACDED0D7A0AF06FF80DAA9E
:1031B80009A97B488DED0E0A0AF068F8F0EE006A5E
:1031C8009DED0E7AF0EE407AB4EEE67AF1EE10FA62
:1031D80076DCF8EE006AB4EEE67AF1EE10FA00F169
:1031E800948027EE090AF0EE006A8DED0E7AF4EE6F
:1031F800E67AF1EE10FA60DCB8EE007AF4EE477A7F
:10320800F1EE10FA48BFF0EE477A664D664C284654
:10321800CDED0F7A0AF0C8F8DFED527A9DED0F0A6E
:10322800204620EE270A0AF0BFF8F2EE046A95ED70
:103238000D7A0EA9D4ED0D7A10AA27EE267A5B48EE
:1032480067EEA67A8DED107ACDED117A0AF01EF8A8
:103258000FA911AA56488DED0E0A0AF017F80EAA02
:1032680008A954488DED0F0A0AF010F80FAA09A909
:1032780051488DED080A0AF009F8DDED087A8DED60
:10328800090AFFF70CBBB0EE678AFFF7BDBBB0EECB
:10329800670AFFF7A8BBF0EE477AFFF7E8BBDBED5C
:1032A800006A9BED017A77EEA67A30EE070A11E400
:1032B800B0EE667A9FED410AF7E6F0EE667AA4E78B
:1032C800B0EE667A9FED3D0A8DE7F0EE667AFFE68E
:1032D800AB605DE6A26038E613B0BDEC0E8BBDE8CE
:1032E800F08F0021039C226019700170FAE500211B
:1032F800049D2B60117001708BE5C2ED007AF1E539
:10330800B0EE667A9FED2E0ACFE6B0EE667A9FEDB4
:103318002C0A68E72B4B1B78022B3FF47EAAFEF79A
:1033280097F9FFF77ABAFFF7E7F8FEF743FAFEF7DF
:10333800C1FAFEF7D3FAFFF770BA224B1B78022BBB
:103348003FF46BAAFDF7AAFAFFF767BA01211E48F6
:1033580002F044FF1D4B83ED000AFFF75EBA00BF81
:1033680084010024CDCCCC3D74030024C803002480
:10337800640400246C040024CC02002420030024EC
:10338800540400245C040024740400247C040024F5
:103398000000000080050024CC0500246C030024F4
:1033A800C0030024E804002434050024C4020024D7
:1033B80018030024340400243C040024CDCC4C3EE3
:1033C800CDCC4CBE050A00249C040024D40900245A
:1033D8002C4B1B78022B3FF420AAFDF77BFBFFF751
:1033E8001CBA0221284802F0F9FE284B83ED000A96
:1033F800FFF713BA234B1B78022B3FF40EAAFDF7F5
:1034080065FCFFF70ABA03211F4802F0E7FE204BCC
:1034180083ED000AFFF701BA1A4B1B78022B3FF421
:10342800FCA9FDF74BFDFFF7F8B90421164802F097
:10343800D5FE184B83ED000AFFF7EFB9114B1B7847
:10344800022B3FF4EAA9FDF733FEFFF7E6B90521A1
:103458000D4802F0C3FE104B83ED000AFFF7DDB9FB
:10346800084B1B78022B3FF4D8A9FDF757FFFFF74D
:10347800D4B9044B1B78022B3FF4CFA9FEF73AF8D6
:10348800FFF7CBB9050A00249C040024F0090024A6
:10349800F8090024E8090024540A00242DE9F04121
:1034A80097480026974C984D2246984946610662EF
:1034B8000AF0A6FA2246294695480AF0A1FA2246B9
:1034C800294694480AF09CFA2246294692480AF06E
:1034D80097FA2246294691480AF092FA2246294646
:1034E8008F480AF08DFA224629468E480AF088FA53
:1034F800224629468C480AF083FA224629468B48F8
:103508000AF07EFA22468A4900258A480AF078FAA3
:10351800894F8A4822468A4905604560C5608560AA
:10352800076147610AF06CFA8648DFF8E0822246B4
:10353800834905604560C5600761476185600AF099
:103548005FFA814F2246414680480AF059FA2246DE
:1035580041467F480AF054FA7E4D224639467E4855
:103568000AF04EFA224639467C480AF049FA7C4F5E
:10357800224629467B480AF043FA224629467A48D9
:103588007A4D0AF03DFA2246394679480AF038FA67
:103598002246394677480AF033FA224629467648C1
:1035A8000AF02EFA2246294674480AF029FA2246D9
:1035B800294673480AF024FA2246294671480AF037
:1035C8001FFA714F2246294670480AF019FA224616
:1035D8006F4970480AF014FA224639466E480AF0D4
:1035E8000FFA224639466D486D4D0AF009FA22460F
:1035F80039466C480AF004FA224639466A480AF005
:10360800FFF92246294669480AF0FAF9224629466E
:1036180067480AF0F5F92246294666480AF0F0F9A3
:103628002246294664480AF0EBF9224629466348AF
:103638000AF0E6F92246294661480AF0E1F92246ED
:10364800294660480AF0DCF9224629465E480AF015
:10365800D7F9224629465D480AF0D2F9224629467A
:103668005B480AF0CDF9224629465A480AF0C8F9BB
:103678002246294658480AF0C3F92246294657489F
:103688000AF0BEF9564F2246294656480AF0B8F9BC
:103698002246294654480AF0B3F922463946534887
:1036A8000AF0AEF92246394651480AF0A9F92246ED
:1036B800394650480AF0A4F9224639464E480AF0DD
:1036C8009FF94FF07E554D4842F210734C492246FF
:1036D800DFF83CE14B4FDFF83CC180F8246086609E
:1036E8008162C762056348490362C0E90366C0E9AD
:1036F8000666C0E900CEBDE8F0410AF081B900BF16
:103708008404002400000024B1060008A50600086F
:1037180080050024CC050024E80400243405002496
:1037280074030024C8030024CC02002420030024CE
:10373800AD060008C004002417B7D1388806002455
:10374800BD060008A0060024D10600081C040024B9
:1037580028040024D5060008D8B6B2C0503E49C097
:10376800CD060008289F24C0000000C0C906000834
:1037780080070024A808002448010024140100241C
:1037880088010024BC010024A906000820020024A6
:10379800C50600080C0A0024540200248C020024E8
:1037A800B506000850060024180600244404002426
:1037B8004C040024140400246C030024C0030024D7
:1037C800C402002418030024640400246C040024A8
:1037D800540400245C040024340400243C04002421
:1037E800A1060008740400247C040024F0010024CD
:1037F800000200241002002404010024D000002448
:103808000000A03F0024F448C1060008B9060008DB
:1038180080841E0080380100DFED297AF4EEE70A83
:1038280010B5F1EE10FA04462DED048BF0EE418A46
:10383800B0EE409A54BFB0EE600AB0EE670AB0EE40
:10384800608A0AF055F9F0EE409AB0EE680A0AF07C
:103858004FF9032C30D8DFE804F00F18230229EEC3
:10386800090A78EEC88A20EE099AB0EE480AA9EE4D
:10387800280ABDEC048B10BD78EEC88AB0EE480A61
:10388800A8EE890ABDEC048B10BD29EE099A78EEE2
:10389800C88AB0EE480AA9EE280ABDEC048B10BD10
:1038A80070EE697AB0EE690AA7EE890ABDEC048B5E
:1038B800BDE810400AF0AAB89FED020AD9E700BF98
:1038C80095BFD63300000000002380ED0A0A30B40B
:1038D8004FF07E54064D80F82430C5620463C0E979
:1038E800001230BCC0E90433C0E90233704700BF9E
:1038F8000024F44810B5044603F008FEE368226883
:10390800C31A934263616268C4E902001ED39342FA
:1039180020D894F8240007EE903A00BBB8EE677AF6
:10392800D4ED047AD4ED0A6AF8EE677A67EEA67ADF
:10393800B4EEE77AF1EE10FA0CDAD4ED0C6A012055
:103948002361C7EE267AC4ED0B7A10BD934201D8E5
:10395800002010BD0123002084F8243010BDF8EEAB
:10396800676A94ED0C7A00222361C6EE877A84F8A0
:103978002420C4ED0B7A10BD154B90ED0B7AD3EDD6
:10398800007ADFED146A37EE677A134A92ED000A7F
:10399800E7EE267AB7EEC05A9FED0B4B37EEC06ABA
:1039A800C3ED007A25EE045BB0EEC66AB7EEC66AD0
:1039B800B4EEC56BF1EE10FA03DDB0EE670AC2EDA6
:1039C800007A7047AFF300807B14AE47E17A743F0A
:1039D8005C0A00245839343C580A00249FED057AC3
:1039E800B7EE000AD0ED0B6AC6EE877A80EE270A9A
:1039F800704700BF0024744990ED040AB8EE400AED
:103A0800704700BF80ED0C0A704700BFFCEEC07A1B
:103A180090ED0C7A17EE903AC0EE077A0361C0ED8C
:103A28000B7A70472DE9F04383B0394C0546ADF861
:103A38000410016880ED430A01F184030C4400225C
:103A480043F8042BA342FAD10020314E02270A463C
:103A5800034608608F5100260133002742F8046F9F
:103A6800216817649942F6D8F2EE0E7A95ED430A6A
:103A78004FF07E544FF001080199281D80EE270A67
:103A88004FF07C5900F036FAC5F8D840C5F8DC404C
:103A9800C5F82441A5F8CC8003F036FD95ED430A1E
:103AA800C5F8FC0005F15C0085F80861C5F8F870F8
:103AB800C5F8147185F81861164F174E85F80081FE
:103AC80085F85080C5F84C9009F0EAFA05F19400A1
:103AD80095ED430AEC65C5F8E040C5F8E840C5F83F
:103AE800549085F858806F662F67AE6609F0D8FA4B
:103AF800C5F89C70C5F8A060C5F8A870C5F89440D2
:103B0800C5F8E440C5F8EC4003B0BDE8F08300BF59
:103B1800847869000AD7233CACC527372DE9F04FD4
:103B280000230027044600F1D00500F1CC0900F17C
:103B38005C0800F14C062DED028B83B0C0F81431FF
:103B480001932368DFF8DCE094ED3E7A03EB87010C
:103B5800D5ED067A53F80EE077EE877A2F4ABE4500
:103B6800DFF8C4B0DFF8C4C0C5ED047A52D9BDEEA1
:103B7800E77A17EE100AB8EEC77A824277EEC77A6C
:103B880028BF02464A601868C1ED117A024402F162
:103B9800010E510A4FEA5E2AABFB0101ABFB0AA0FA
:103BA8000CFB11220CFB10E103EB820203EB8103F7
:103BB80092ED217AD3ED216A76EEC76AA6EEA77A4E
:103BC800F0EE477AAA4619F8011B4046C5ED087A77
:103BD80009F084FA05F12002AAEC010A304686EDC4
:103BE800000A01A99AED018A09F050FBD4ED457A43
:103BF80008F1380855460836E8EE007AC4ED457AEB
:103C080037B104F58A7003B0BDEC028BBDE8F08FC4
:103C1800012796E7DFED027AD4E700BFFF5D1A00BF
:103C28000000000084786900076B1300005E1A002A
:103C3800034631B190ED470A043093F8191100F0AA
:103C4800C7B9043000F0AEB90068094A70B40E680C
:103C58000168084D0A4400EB8101074C530AC1F87A
:103C68008460A5FB031304FB132370BC0360704737
:103C7800FF5D1A00076B1300005E1A00DFED477A3C
:103C8800B4EEE70AF1EE10FA05D500239FED440AD9
:103C980080F819317047DFED437AB4EEE70AF1EEA8
:103CA80010FA05D501239FED400A80F819317047B5
:103CB800DFED3E7AB4EEE70AF1EE10FA0CD4DFED50
:103CC8003C7AB4EEE70AF1EE10FA0BD503239FED28
:103CD800390A80F8193170470223B5EE000A80F8D6
:103CE80019317047DFED347AB4EEE70AF1EE10FAD5
:103CF8000CD4DFED327AB4EEE70AF1EE10FA0BD508
:103D08000523B7EE000A80F8193170470423B6EE90
:103D1800000A80F819317047DFED297AB4EEE70A16
:103D2800F1EE10FA05D50623B0EE000A80F8193135
:103D38007047DFED247AB4EEE70AF1EE10FA05D504
:103D48000723B0EE080A80F819317047DFED1E7AB4
:103D5800B4EEE70AF1EE10FA05D50823B1EE000A31
:103D680080F819317047DFED197AB4EEE70AF1EE01
:103D780010FA05D50923B1EE040A80F81931704705
:103D8800F7EE007AB4EEE70AF1EE10FAB8D80A2393
:103D9800B1EE080A80F81931704700BFC729BA3D4B
:103DA800ABAA2A3EC7293A3ECDCC4C3E569F8B3E05
:103DB800C729BA3EABAAAA3E39B4E83EE3A50B3FF1
:103DC8001CEB223F55303A3F8E75513FC7BA683FCA
:103DD80038B504462DED028B00294DD0FFF74EFF74
:103DE800D0ED487A9FED408A20EE270A20EE088A17
:103DF80094ED497A9FED3A5B38EE476AB7EEC77A99
:103E0800B0EEC66A27EE057BB7EEC66AB4EEC76B9E
:103E1800F1EE10FA4EDC94F81831BBBB03F074FBDA
:103E2800D4F8FC30C01A19283FD994F80851FDB1CC
:103E3800B4F8CC3094F8002183F4807382F0010246
:103E480083F0010384F80021A4F8CC3003F05CFB74
:103E580094ED437AB7EE000A0023C8EE077AC4F857
:103E6800FC0084F80831201D80EE270A00F08CF849
:103E78002846BDEC028B38BD02209FED1C1ADFEDF1
:103E88001C0AFFF7C9FCB0EE408AB1E794F800318C
:103E980003BB84ED3A8A002384F8183103F034FB1D
:103EA800D4F8FC30C01A1928BFD80025BDEC028B05
:103EB800284638BD03F028FB0025012384ED498AF4
:103EC800C4F8FC00284684F8083184F81831BDECA1
:103ED800028B38BD84ED3B8ADDE700BFAFF300807D
:103EE8007B14AE47E17A743FA69B443D00606A4864
:103EF8000000704510B52DED048B82B004469FED8F
:103F0800209AB0EE408AADF8041000220199F7EE2D
:103F1800008A01F093FCB0EE490A204601F0B2FC99
:103F2800204601F0C1FCC8EE887A4FF07C539FED23
:103F3800150A04F11C0084ED0A8A236284ED0C9AA8
:103F480084ED090A0090C4ED0B7A00F091FBF0EEC5
:103F5800007A40F201120423009884ED0D0AB0EEB5
:103F6800670AC4ED088AA4F840202377C4ED097ACB
:103F780000F07EFB84ED0D0A02B0BDEC048B10BD91
:103F8800000000000000C84210B5044680ED090A90
:103F98001C3000F06DFB84ED0D0A10BD0023036397
:103FA800704700BF10B504461C3000F07FF9B7EE2B
:103FB800007AF6EE007A204630EE070A20EE270A4D
:103FC80001F060FC2046BDE8104001F06DBC00BF68
:103FD8000A2900B583B01FD8114B03EB8101D1ED3D
:103FE800007A20EE270A019009F08EFF9FED0D7AE6
:103FF800F7EE007A0198B4EEC70AF1EE10FA54BF52
:10400800B0EE670AB0EE470A01F03CFC019803B035
:104018005DF804EB01F048BCF1EE087AE1E700BF77
:104028007CE400080000000001F02CBC90F841007E
:10403800704700BF70B52DED028B82B0B0EE408A9C
:1040480000F114060446ADF800200430ADF8041061
:104058001D46009901F080FCB0EE480A3046002267
:10406800019901F0EBFB002330469FED060A84F826
:104078003050237002B0BDEC028BBDE8704001F0F7
:1040880001BC00BF000000000378143083F0010376
:1040980000F8143C1BB1B7EE000A01F0F3BB9FED2A
:1040A800020A01F0EFBB00BF0000000038B500F1C4
:1040B80014050446284601F0F7FB201D01F068FCB2
:1040C80094F83030012B17D0022B09D003B138BD3A
:1040D800637A7F2BFBD12046BDE83840FFF7D4BF79
:1040E800637AFF2B13D0002328469FED0D0A237017
:1040F800BDE8384001F0C6BB627AFF2AF3D02846F3
:104108002370B7EE000ABDE8384001F0BBBB0123BD
:104118002846B7EE000A2370BDE8384001F0B2BB6C
:10412800000000000123B7EE000A00F8143B01F07C
:10413800A9BB00BF00239FED030A00F8143B01F060
:10414800A1BB00BF0000000000787047407AA0F1D2
:104158007F00B0FA80F04009704700BF407AA0F1B4
:104168008000B0FA80F04009704700BF143001F0B9
:1041780089BB00BFF0B5456899B0866800230295F1
:104188000CA9C56802AC03960F46066904954569F3
:10419800059606958669C5698DF8303007960368D7
:1041A800066A0895456A806A019309960A950B90F4
:1041B80001E054F8043BC3F30726C3F30745C3F3F0
:1041C8000760BC424B708E70CD7001F8040FF0D1BF
:1041D80001230B480B4C00F8033F02F017FA206844
:1041E80000F1B40102F018FD0CAAB421206802F015
:1041F80095FC044602F0D2FB204619B0F0BD00BF82
:10420800600A00240C000024F0B5074600251E486B
:1042180099B01E4E00F8035F0CAC02F0F7F90FCE10
:104228000FC40FCE0FC496E80F0007C4237001AC6B
:1042380002F0B4FB0CAE20466B46324612F8011B66
:1042480003F8011BA342F9D10435009B04362C2D39
:1042580040F8043BF0D101993846029A039B049C2C
:1042680039607A600599069ABB60079BFC603961E2
:10427800089C09997A61BB610A9A0B9BFC613962B7
:104288007A62BB6219B0F0BD600A00240000009099
:1042980003480023034A04494361036209F0B0BBA1
:1042A800600A002400000024A5060008037810B561
:1042B80004462DED028B072B00F2C881DFE813F0CE
:1042C8005F009400A900BA00C900D90036010800AF
:1042D800D0ED057AB7EE000A9FEDE07AFFEE008A8E
:1042E800DFEDDF6A90ED068AF4EEE67A28EE078ABB
:1042F80067EE877AF1EE10FAF4EEC87A48BFF0EE6E
:10430800408AF1EE10FA00F1968130EE487AF4EE28
:10431800C77AF1EE10FA00F34B819FEDD20AB6EEA0
:10432800007AF7EE000A78EE808A37EE870A09F0FD
:10433800F7FEB4EEC80AF1EE10FA00F16281B7EEAA
:10434800007A77EE487AB4EEE70AF1EE10FA0DDD5E
:1043580030EE470AC0EE087AF0EE676AE7EEA76A21
:1043680077EEA67A77EE877A78EEE78A9FEDBE0A2F
:1043780094ED058A28EE800A94ED067A07E090ED20
:10438800058AB0EE480A09F0BFFD94ED067A78EE8A
:10439800077ADFEDB66AF4EEE67AC4ED057AF1EE57
:1043A80010FA40F3F48077EEE67A012384F825309A
:1043B800C4ED057A37EEC77ADFEDA96AB4EEE67A7E
:1043C800F1EE10FA40F1E180F4EEE67AF1EE10FA3F
:1043D800ACBF01230023D4ED017A84F8243020EE09
:1043E800270ABDEC028B10BD90ED058ABFEE000ACE
:1043F800DFED9A6AF6EE007A38EE086A90ED067AF2
:10440800A6EE260AB0EEC00A30EE670A30EE000AC1
:10441800BDE790ED058AF0EE006ADFED907ABFEE19
:10442800000A90ED067A68EE277AA7EEA60AB1EEA2
:10443800400AACE790ED058AF0EE006ADFED877A76
:10444800BFEE000A90ED067A68EE277AA7EEA60A74
:104458009DE790ED058ADFED827A90ED067AB4EE5D
:10446800E78AF1EE10FA4CBFB7EE000ABFEE000A79
:104478008DE7D0ED057AB7EE007ADFED786AFFEECA
:10448800008A9FED776A90ED068AF4EEC67A28EEE8
:10449800268A67EEA67AF1EE10FAF4EEC87A48BFDB
:1044A800F0EE478AF1EE10FA00F1BA8077EE486A2A
:1044B800F4EEE67AF1EE10FA6DDC9FED6A7AB6EE6C
:1044C800000AF7EE000A78EE878A37EE800A09F0CC
:1044D80027FEB4EEC80AF1EE10FA76D4B7EE007AE9
:1044E80077EE487AB4EEE70AF1EE10FA0DDD30EE19
:1044F800470AC0EE087AF0EE676AE7EEA76A77EE39
:10450800A67A77EE877A78EEE78AB7EE000A94ED16
:10451800067AD4ED077A94ED058A30EE470A20EE44
:10452800270AA7EE280A84ED070A30E7DFED4B7A61
:10453800B0EE006A90ED058ABFEE000A90ED067AAB
:1045480068EE276A67EE277AA6EE860AF4EEE76A2F
:10455800F1EE10FA48D4F7EE005A35EEE76AF4EEB9
:10456800C66AF1EE10FA0DDD76EEE56A86EEA76A08
:10457800F0EE467AE6EE067A36EE276A36EE256AD9
:1045880030EE460AB1EE400A01E7002323E7002394
:1045980084F825300EE737EEC76AC6EE086AB0EE33
:1045A800666AA6EEA66A76EE866A36EE877A86E7A9
:1045B80077EEC06A86EE887AF0EE476AE7EE076A19
:1045C80037EE267A37EE000AA9E680EE087AB0EED2
:1045D800006AF7EE006A67EE477AE7EE067A77EE4A
:1045E800E67A78EEE78A90E7C6EEA75AF7EE006A11
:1045F80065EEE57AE5EE867A77EEE67A30EE670ADA
:10460800C0E780EE087AB0EE006AF7EE006A67EE5F
:10461800477AE7EE067A77EEE67A78EEE78AA5E655
:1046280087EE886AF0EE005A66EE466AE6EE256A7C
:1046380036EEC77A43E7C7EE886AB0EE006A26EE20
:10464800E67AA6EE867A37EE400A68E690ED058AA5
:1046580090ED067A9FED030A99E600BF83F9223EA2
:10466800DB0F494000000000F4FD343FDB0FC94078
:10467800DFED047A20EE270AD0ED047A20EE270A2F
:10468800704700BFDB0FC9400B4A40F207110B4BC4
:1046980002604FF4877243600623C1844285037425
:1046A80080F8293070B40224054E064D80F8254064
:1046B800C0E9026570BC70470007050001050805E0
:1046C8000905070506050A061F2882B009D8084B00
:1046D80003EB400213F81030507843EA002002B090
:1046E800704701230C2043EA002002B0704700BF46
:1046F800A8E40008143001F083B800BF143001F0BA
:104708007BB800BF38B500F1140504462DED028BC7
:10471800284601F063F8284601F06EF82846B0EE06
:10472800408A01F057F8D0ED007AF8EE677A88EE03
:10473800277ABDEC028B84ED0E7A38BDF0B51A4DA0
:1047480091B000210446079505F100754FF44170BA
:10475800002201230326012705F5407506910291E1
:1047680006A9ADF8240002A808953025CDE90C2348
:10477800CDE90E23CDE90A6702F07EFD40F601334C
:104788004FF07E56ADF80430019800F04DF8032341
:10479800029A03A904F114000596CDE9035300F029
:1047A800E5FF11B0F0BD00BF0402040430B50446B3
:1047B8002DED028B83B089B3012240F201130092E0
:1047C800ADF80430694604F1300002F08BFF204652
:1047D80000F04CF8E01C01F019FF04F1250001F08D
:1047E80019FE04F1140504F1290001F013FE204616
:1047F800FFF7A4FF284600F0FFFF2846B0EE408AE6
:1048080000F0E8FFD0ED007AF8EE677A88EE277AB4
:1048180084ED0E7A03B0BDEC028B30BD40F201137B
:104828000091ADF80430CDE710B584B003460124FB
:10483800ADF8040003A8ADF80C30ADF80E4001F057
:10484800E9FD214603A801F0CFFE204602F064FEF0
:1048580003A8002101F0C8FE204602F05DFE2146B3
:1048680003A801F0C1FE04B010BD00BF2DE9F0435C
:10487800444C8BB0A063037823B1002528460BB0C5
:10488800BDE8F083404A0A23002601276260082217
:104898000893202302A9201DC4E90267C4E9042360
:1048A80040264FF4C07700224FF40063C4E906673E
:1048B800C4E908234FF48056002702220723C4E9DD
:1048C8000A67CDE902230426032200230827CDE93D
:1048D8000623CDE9046707F067FF054600284CD199
:1048E8004FF001084FF010090126002702A94FF4E4
:1048F80080520190201DCDE902894FF002084FF047
:104908001009CDE9046707F079FF642003F03CF84B
:1049180002A94FF48052201DCDE90467CDE9028930
:1049280004264FF003084FF01009002707F066FF30
:1049380002A94FF48052201DCDE90467CDE9028910
:1049480007F05CFF40F232234FF0010C042601937C
:104958001027019B02A94FF48052201DCDE904C302
:10496800CDE9026707F04AFF201D40F6060107F06F
:1049780065FF28460BB0BDE8F083012528460BB03B
:10498800BDE8F083A00A002440410052694A2DE99D
:10499800F04315688FB015B10FB0BDE8F083664BD2
:1049A80001210C24002611600327D3F8D4204FF6E8
:1049B80083784FF0020908A942F480525F48C3F88F
:1049C800D420D3F8D42002F480520092009AD3F86D
:1049D800E02042F01002C3F8E020D3F8E02002F013
:1049E80010020192019AD3F8E02042F04002C3F885
:1049F800E020D3F8E02002F040020292029AD3F8B5
:104A0800E02042F00802C3F8E020D3F8E02002F0EA
:104A180008020392039AD3F8E02042F48072C3F8A4
:104A2800E020D3F8E02002F480720492049AD3F8CC
:104A3800E02042F08002C3F8E020D3F8E02002F042
:104A480080020592059AD3F8E02042F02002C3F8CC
:104A5800E020D3F8E02002F020020692069AD3F86C
:104A6800E02042F00402C3F8E020D3F8E0300C94D0
:104A780003F004030793079BCDE90A67CDE908898A
:104A880004F092FD48F23712022308A92C480C942E
:104A9800DFF8C080CDE90A67CDE9082304F084FD7A
:104AA8004CF20372022308A926480C94CDE90A6740
:104AB800CDE9082304F078FD40F2FF62022308A93B
:104AC80021480C94CDE90A67CDE9082304F06CFD70
:104AD8004FF60C72022308A91C480C94CDE90A670A
:104AE800CDE9082304F060FD4FF63F02022308A930
:104AF80017480C94CDE90823CDE90A6704F054FD62
:104B0800D8F83800013002F0C7FED8F83830064629
:104B1800581C02F0C9FE02220746032308A93046A2
:104B28000C9408970B93CDE9092504F03DFD0FB0CF
:104B3800BDE8F0839C0A0024004402580010025883
:104B480000180258000C025800200258001C025895
:104B580000140258A00A00242DE9F04FDFF8288439
:104B680006460D46144608F114002DED028B89B057
:104B780000AF02F071FCD8F814305BB3D8F81830E5
:104B88004269002B0BBF022304234FF008094FF0A2
:104B98001009FB61D8F804304BB3A100E946012A9B
:104BA80001F1070121F00701ADEB010D6846ADEBFE
:104BB800010D694600F04281022A00F0DB80002ADC
:104BC80074D022469847CD462437BD46BDEC028BAB
:104BD800BDE8F08FD8F81830002BF5D002234FF03D
:104BE80008094269FB61D8F80430002BD5D1D8F800
:104BF8000030BA617B61002BE6D06B46DA4808EEDC
:104C0800103A02F071FC8646F869BA69022800F089
:104C18008E816B46C7F810903969A3EBC4039D4693
:104C28006300E946B3FBF0F3A9EBC40CC7F818908E
:104C380009EB830AB869E546ADEB010D0CEB83017E
:104C4800EB46F9603969C7F810A00AEB830AADEBA7
:104C5800010DCBF80000F9680AEB8300E94601EB87
:104C68008301CBF80C00386901EB8303C9F800C055
:104C7800CBE9010AF868C9E90213C9F80400012A56
:104C880000F08283022A00F07C82002A00F08681EC
:104C98006208494658467B69984718EE103A243707
:104CA8009D46BD46BDEC028BBDE8F08F002C88D038
:104CB80098ED0B6A864606F1040CDFEDB66A36F904
:104CC80022A00EF1080E07EE10AA3CF922A002322B
:104CD80007EE90AAB8EEC77A9442F8EEE77A27EE84
:104CE800267A67EEA67A27EE067A67EE867A0EEDC2
:104CF800027A4EED017AE2D8F961224698479B4E36
:104D0800F9690020D8ED046A2B1D9FEDA37A9FED69
:104D1800986ADFED985A22E0F4EEC67AF1EE10FABE
:104D2800C0F2EF8447F6FE72D1ED017A45F82020F3
:104D380066EEA77AF4EEC77AF1EE10FA40F2F58043
:104D4800F4EEC67AF1EE10FAC0F2FC8447F6FE7271
:104D580043F820200230083184427FF634AFD1ED89
:104D6800007A66EEA77AF4EEC77AF1EE10FAD3D895
:104D78003246D9E7002C3FF424AF98ED0B6A8646FB
:104D8800002206F1040CDFED7C6A06EB820A0EF1C4
:104D9800080E9AED007A0CEB820A0232DAED007AFC
:104DA800B8EEC77A9442F8EEE77A27EE267A67EEED
:104DB800A67A27EE067A67EE867A0EED027A4EED2F
:104DC800017AE2D8F961224698476C4EF9690020C9
:104DD800D8ED046A2B1D9FED707ADFF8B0C19FED06
:104DE800646A20E0F4EEC67AF1EE10FAC0F2A2840A
:104DF8003246D1ED017A45F8202066EEA77AF4EE26
:104E0800C77AF1EE10FA40F28E80F4EEC67AF1EE2F
:104E180010FAC0F28784324643F820200230083165
:104E280084427FF6D0AED1ED007A66EEA77AF4EE32
:104E3800C77AF1EE10FAD5D86246DAE7002C3FF4CB
:104E4800C0AE06F1040CFD6198ED0B6A1D46834661
:104E580063464FF0000ADFED4A6AB4465CF82A2040
:104E68000BF1080B53F82A600AF1020A82F40002D7
:104E780086F4000E5445A2F5000207EE102AAEF59E
:104E8800000207EE902AB8EEC77AF8EEE77A27EE26
:104E9800267A67EEA67A27EE067A67EE867A0BED13
:104EA800027A4BED017AD9D82B46FD692246F96181
:104EB8009847344EF9690020D8ED046A2B1D9FED00
:104EC800367ADFF8CCC09FED2A6A1FE0F4EEC67A86
:104ED800F1EE10FAC0F21E843246D1ED017A45F89F
:104EE800202066EEA77AF4EEC77AF1EE10FA18D908
:104EF800F4EEC67AF1EE10FAC0F2FB83324643F8BC
:104F080020200230083184427FF65DAED1ED007A70
:104F180066EEA77AF4EEC77AF1EE10FAD6D86246B2
:104F2800DBE76246EBE7624676E7324610E7A30026
:104F38006008073323F00703ADEB030DEC46ADEB38
:104F4800030DEA46ADEB090D0CEB8003C7F818C05A
:104F5800EB46ADEB090D0AEB80003B61E946CBE976
:104F680000C3C9E900A08AE6F40A00240280FFFF12
:104F780004FF7F3F00FEFF46000000300082FF7FF5
:104F88000000003482FF7F00DC0A0024007E0080DD
:104F98007E0080FF0000003804FF7FBF002C00F077
:104FA800EC82F969D8F82030022900F01B8303EB62
:104FB8008E0ADBF80C104FEA8E03C7F800B006F132
:104FC800040C5FED0C5A7B60DBF80830D7F818E06A
:104FD800FB600AF10403C7F818909B46D7F81090B5
:104FE800B9603D613CF9221036F9223006EE901A7C
:104FF8003AF9221006EE103A98ED0B5A07EE101AFD
:10500800F8EEE66AB8EEC66A3BF92210B8EEC77A3F
:10501800530807EE901A66EEA56A26EE256AF96827
:1050280027EE257A09EB8300F8EEE77A0EEB830585
:1050380026EE056A01EB830127EE057A023266EE59
:10504800856A67EEA57A85ED006A9442C0ED006A2C
:1050580081ED007A98ED0B7AB86867EE877A00EBF5
:105068008303C3ED007ABDD8D7F800B0D7F81890FD
:105078003D69620849467B6958469847D8F8283000
:1050880079680022D8ED046A1944D9F800E0D9F803
:1050980004C02B1D01F104088A461FED417AC7F8A8
:1050A8001880B14E9FEDB16ADFEDB15AD7F81C8078
:1050B80052E0F4EEC67AF1EE10FAC0F2DC8247F65E
:1050C800FE7B0CEB010045F822B0D0ED007A66EECD
:1050D800A77AF4EEC77AF1EE10FA4CD9F4EEC67A54
:1050E800F1EE10FAC0F2D08247F6FE70B8F1020F66
:1050F80043F822002CD0D9F808000844D0ED007AF3
:1051080066EEA77AF4EEC77AF1EE10FA37D9F4EE24
:10511800C67AF1EE10FAC0F2E38247F6FE7BD9F8C0
:105128000C004AF822B00144D1ED007A66EEA77A65
:10513800F4EEC77AF1EE10FA1FD9F4EEC67AF1EE62
:1051480010FAC0F2C58247F6FE71B86940F822101D
:10515800023294427FF6A1AD51080EEB810089001E
:10516800D0ED007A66EEA77AF4EEC77AF1EE10FA7F
:105178009FD8B346A5E73046B8E73146E5E7B346DA
:10518800CDE7002C00F0F981FA69D8F82030022A1E
:1051980000F0FA8103EB8E0ADBF80830C7F800B09C
:1051A80006F1040CFB604FEA8E030AF10402DFEDFE
:1051B800715A7B60DBF80C309346D7F818E0BB6077
:1051C8000023C7F81890D7F810903D6156F82310BF
:1051D8005A0898ED0B5A07EE901A5CF8231009EB61
:1051E8008200B8EEE76A07EE901A5AF823100EEB21
:1051F8008205F8EEE76A07EE901A0BEB830126EEBC
:10520800256A0233B8EEE77AD1ED007A66EEA56A30
:10521800F968F8EEE77A9C4227EE257A01EB8201DD
:1052280026EE056A66EE856A27EE057A67EEA57AA8
:1052380085ED006AC0ED006A81ED007A98ED0B7A81
:10524800B86867EE877A00EB8202C2ED007ABDD8B3
:10525800D7F800B0D7F818903D6958466208494613
:105268007B699847D8F8283079680022D8ED046A15
:1052780019442B1DD9F800C08B460431D9F8048095
:10528800C7F814B09FED3F7AD7F81CB0DFF8ECE010
:105298009FED366A384EB961FB6150E0F4EEC67A8C
:1052A800F1EE10FAC0F20682304608EB010A45F822
:1052B8002200DAED007A66EEA77AF4EEC77AF1EE0C
:1052C80010FA4BD9F4EEC67AF1EE10FAC0F2F98171
:1052D8003046FB69BBF1020F43F822002BD0D9F806
:1052E80008000844D0ED007A66EEA77AF4EEC77A93
:1052F800F1EE10FA36D9F4EEC67AF1EE10FAC0F2F1
:10530800D2813046D9F80CA07B69514443F8220079
:10531800D1ED007A66EEA77AF4EEC77AF1EE10FACC
:105328001ED9F4EEC67AF1EE10FAC0F2B581314614
:10533800BB6943F82210023294427FF6AEAC5108A2
:105348000CEB81008900D0ED007A66EEA77AF4EEC6
:10535800C77AF1EE10FAA1D87046A6E77046B8E70A
:105368007146E5E77046CDE70280FFFF04FF7F3F07
:1053780000FEFF46000000300082FF7F007E0080B4
:105388000000003404FF7FBF002C00F0F680D8F83E
:1053980020304FEA8E02BD60002103EB8E0E06F12D
:1053A800040C1FED096A0EF104003D69D7F818A036
:1053B800FA60C7F8189056F821204FEA51095CF8AE
:1053C800213082F40002D8ED0B6A83F40003A2F5C1
:1053D8000002A3F5000307EE102A05EB890207EE89
:1053E800903A0AEB8903B8EEC77A4FEA8909F8EED2
:1053F800E77A27EE067A67EE867A27EE267A67EE50
:10540800A67A83ED007AFB69C2ED007A022B27D0D9
:105418005EF8212050F8213082F4000283F4000362
:10542800A2F50002A3F5000307EE902ADBF8082096
:10543800B8EEE77A07EE903A4A44DBF80C30F8EE1B
:10544800E77A27EE067A4B4467EE867A27EE267AC5
:1054580082ED007A98ED0B7A67EE877AC3ED007AD1
:1054680002318C42A7D8D7F81890584662087B6951
:105478004946BD689847D8F82830F9680022D8ED21
:10548800046A19442B1DD9F800C08B460431D9F899
:105498000480C7F814B01FED457AD7F81CB0DFF8C0
:1054A800C8E29FEDAD6AAD4EB961FB6150E0F4EE24
:1054B800C67AF1EE10FAC0F2C280304608EB010A53
:1054C80045F82200DAED007A66EEA77AF4EEC77A9C
:1054D800F1EE10FA4BD9F4EEC67AF1EE10FAC0F2FA
:1054E800BC803046FB69BBF1020F43F822002BD089
:1054F800D9F808000844D0ED007A66EEA77AF4EEF1
:10550800C77AF1EE10FA36D9F4EEC67AF1EE10FA4F
:10551800C0F2AA803046D9F80CA07B69514443F800
:105528002200D1ED007A66EEA77AF4EEC77AF1EEA2
:1055380010FA1ED9F4EEC67AF1EE10FAC0F286809F
:105548003146BB6943F82210023294427FF6A5AB7C
:1055580051080CEB81008900D0ED007A66EEA77A3D
:10556800F4EEC77AF1EE10FAA1D87046A6E77046B5
:10557800B8E77146E5E77046CDE722464946584602
:105588007B699847FFF789BB98ED0B6A002306F102
:10559800040CDFED736AB869D7F810A006EB830234
:1055A8000CEB830192ED007A5A08D1ED007A0233B0
:1055B800B8EEC77A00EB8201F8EEE77A0AEB8202CE
:1055C8009C4227EE267A67EEA67A27EE067A67EEE1
:1055D800867A81ED007AC2ED007ADFD84FEA8E0331
:1055E8007B603AE698ED0B6A06F1040CDFED5D6A24
:1055F800B869D7F810A036F922303CF9221007EE26
:10560800103A530807EE901A0232B8EEC77A00EB48
:105618008301F8EEE77A0AEB8303944227EE267AB1
:1056280067EEA67A27EE067A67EE867A81ED007A2B
:10563800C3ED007ADFD84FEA8E037B6019E5F0EE00
:10564800675AFEEEE45A15EE900A37E7F0EE675A0D
:10565800FEEEE45A15EE901A73E7F0EE675AFEEE86
:10566800E45A15EE900A3DE7F0EE675AFEEEE45A6A
:1056780015EE900A4FE767EEA57AFDEEE77A17EE8A
:10568800900A0FFA80FB1CE567EEA57AFDEEE77A33
:1056980017EE900A00B229E5F0EE675AFEEEE05ADE
:1056A80015EE901A44E6F0EE675AFEEEE05A15EE53
:1056B800900A27E6F0EE675AFEEEE05A15EE900AD9
:1056C800F3E5F0EE675AFEEEE05A15EE900A00E6B2
:1056D80067EEA57AFDEEE77A17EE901A09B234E57F
:1056E80067EEA57AFDEEE77A17EE900A0FFA80FBCF
:1056F80015E5F0EE675AFEEEE45A15EE902AFFF72C
:10570800FEBB67EEA57AFDEEE77A17EE902A12B295
:10571800FFF70ABBF0EE675AFEEEE45A15EE902A40
:10572800FFF7DBBBF0EE675AFEEEE05A15EE902A63
:10573800FFF772BBF0EE675AFEEEE05A15EE902ABC
:10574800FFF757BB67EEA57AFDEEE77A17EE902ACA
:1057580012B2FFF7FDBA00BF04FF7F3F82FF7F0050
:1057680000000030000000387E0080FF70B5164C45
:10577800154684B0046004F1080601AB07C986E841
:105788000700D4ED047AF5EEC07A83E80700F1EE5D
:1057980010FA15DDF7EE006A86EEA77A84ED0B7A2B
:1057A80075B1204640F8145F01F056FE0346074ADB
:1057B80000201969064BE160E261636204B070BDC4
:1057C800012004B070BD00BFDC0A002400200030B6
:1057D8000000003000680830704700BFB1F5806FE6
:1057E80003680A4628BF4FF48062B1F5806F9A605B
:1057F80094BF0020012070470068143001F062BE99
:1058080070B5046882B0084E0D46A36804F1140010
:10581800626AE1699B00009601F020FE0020C4E95D
:10582800000502B070BD00BF614B0008024B0022AA
:10583800C3E90522704700BFDC0A002430B52DED0E
:10584800028B83B0044601231546ADF804101730C7
:10585800BDF80410B0EE408A0180637600F0DAFDEE
:10586800B5FA85F3002100225B09257584ED048AC9
:10587800A5756375A160C4E9002203B0BDEC028B75
:1058880030BD00BF20EE007ADFED067A27EE000A71
:1058980060EE277A80ED020AFCEEE77AC0ED017A25
:1058A800704700BF00FF7F4790ED046AB7EE007AAB
:1058B800DFED0E5A0346D0ED036AC5EE867A77EE21
:1058C800A67AF4EEC77AF1EE10FAC8BF77EEC77A77
:1058D80090ED027AB4EEE77AC0ED037A1730F1EE74
:1058E80010FACCBF597D997D00F07EBE0000F042D1
:1058F800B7EE007AA3F10103B3FA83F3C7EE007A97
:105908005B0930B482B00025ADF804100021837122
:105918009DF81030BDF80440012B0270C560A0F856
:1059280001404171C170C0ED027A08D0022B0DD040
:1059380001230130C37002B030BC00F06BBD0223FC
:105948000130C37002B030BC00F064BD0171013099
:1059580002B030BC00F05EBDB7EE007A012203460B
:10596800C7EE007A70B4002683B0C1F3072500247F
:10597800ADF80410C660417010449D70DC701A7058
:105988009A809A71C3ED027A03B070BC00F042BDF0
:1059980038B54479054683790130640064B2B3B1FF
:1059A80000F014FEB0FA80F35B092343DBB2A3F1E5
:1059B8007F026B71012A0ED9FF2B07D1D5ED037A2F
:1059C80095ED027A77EE877AC5ED037A38BD00F057
:1059D800FDFD43B2E9E70023EB6038BD82B0002348
:1059E8000322ADF80410BDF804108270018003741E
:1059F800C37002B0704700BF70B483B00325082A93
:105A080006ACADF804108570114634F8046B28BF55
:105A18000821ADF80030042ABDF804302488BDF808
:105A2800005003804FF00003068185808481017453
:105A3800C37008D8022A10D802D10122C37182711A
:105A480003B070BC70470122C371C372C373827103
:105A58008272827303B070BC70470122C371C37233
:105A68008271827203B070BC704700BF2DE9F04F9D
:105A7800DB4F0026DB4C8FB007F13805426003701E
:105A88009646A4F80961844603960696BE61C4F852
:105A9800FD60C4F80161C4F80561C4F82461C4E973
:105AA8004A75C7E90066C7E90266C7E90466C4E93A
:105AB8004366C4E94566C4E94766CDE90466CDE9AD
:105AC8000766CDE90966CDE90B6684F8FC204268D3
